:100000000C94FE030C9432040C9432040C943204CD
:100010000C9432040C9432040C9432040C94320488
:100020000C9432040C9432040C9432040C94320478
:100030000C9432040C9432040C9432040C94320468
:100040000C9432040C94E0350C94E4320C94DA32C3
:100050000C9432040C9452370C94E8370C9432040C
:100060000C9432040C9432040C9432040C94320438
:100070000C9432040C9432040C9432040C94320428
:100080000C948B370C9435380C9432040C94320455
:100090000C9432043C3F786D6C2076657273696F06
:1000A0006E3D27312E302720656E636F64696E6761
:1000B0003D275554462D38273F3E3C3F786D6C2DEB
:1000C0007374796C65736865657420747970653DC7
:1000D00027746578742F78736C2720687265663D85
:1000E0002778736C742F6364692E78736C273F3E96
:1000F0003C63646920786D6C6E733A7873693D2750
:10010000687474703A2F2F7777772E77332E6F724B
:10011000672F323030312F584D4C536368656D6115
:100120002D696E7374616E636527207873693A6E0A
:100130006F4E616D657370616365536368656D6172
:100140004C6F636174696F6E3D27687474703A2FE9
:100150002F6F70656E6C63622E6F72672F7472758D
:100160006E6B2F70726F746F74797065732F786D0A
:100170006C2F736368656D612F6364692E78736497
:10018000273E3C6964656E74696669636174696F72
:100190006E3E3C6D616E7566616374757265723E2C
:1001A0005261696C7374617273204C696D69746516
:1001B000643C2F6D616E7566616374757265723E25
:1001C0003C6D6F64656C3E496F3C2F6D6F64656C70
:1001D0003E3C686172647761726556657273696FDF
:1001E0006E3E312E303C2F686172647761726556C5
:1001F000657273696F6E3E3C736F6674776172658A
:1002000056657273696F6E3E312E353C2F736F6683
:10021000747761726556657273696F6E3E3C2F69C3
:1002200064656E74696669636174696F6E3E3C6192
:10023000636469202F3E3C7365676D656E74206F43
:10024000726967696E3D27313032382720737061DB
:1002500063653D27323533273E3C67726F757020EA
:100260006F66667365743D2730273E3C6E616D6531
:100270003E55736572204964656E74696669636191
:1002800074696F6E3C2F6E616D653E3C646573638F
:1002900072697074696F6E3E41646420796F757223
:1002A000206F776E20646573637269707469766518
:1002B000206E616D6520616E642064657363726990
:1002C0007074696F6E20666F722074686973206E37
:1002D0006F64652E3C2F6465736372697074696F17
:1002E0006E3E3C737472696E672073697A653D2750
:1002F0003332273E3C6E616D653E4E6F6465204E25
:10030000616D653C2F6E616D653E3C2F7374726943
:100310006E673E3C737472696E672073697A653DDF
:10032000273634273E3C6E616D653E4E6F64652016
:100330004465736372697074696F6E3C2F6E616D92
:10034000653E3C2F737472696E673E3C2F67726F17
:1003500075703E3C2F7365676D656E743E3C7365CA
:10036000676D656E74206F726967696E3D2734270B
:100370002073706163653D27323533273E3C6772D9
:100380006F7570207265706C69636174696F6E3D22
:100390002738273E3C6E616D653E496E70757473FB
:1003A0003C2F6E616D653E3C7265706E616D653EA1
:1003B000496E7075743C2F7265706E616D653E3C60
:1003C000737472696E672073697A653D27313627C9
:1003D000206F66667365743D27323630273E3C6E6B
:1003E000616D653E4465736372697074696F6E3CDC
:1003F0002F6E616D653E3C2F737472696E673E3C73
:100400006576656E746964206F66667365743D27F2
:100410002D32373627203E3C6E616D653E41637458
:1004200069766174696F6E204576656E743C2F6ED7
:10043000616D653E3C2F6576656E7469643E3C6512
:1004400076656E7469643E3C6E616D653E496E61B1
:10045000637469766174696F6E204576656E743C6D
:100460002F6E616D653E3C2F6576656E7469643EE6
:100470003C2F67726F75703E20203C67726F7570FD
:10048000207265706C69636174696F6E3D273827EF
:100490003E3C6E616D653E4F7574707574733C2F94
:1004A0006E616D653E3C7265706E616D653E4F7547
:1004B000747075743C2F7265706E616D653E3C732F
:1004C0007472696E672073697A653D27313627201B
:1004D0006F66667365743D27323630273E3C6E6129
:1004E0006D653E4465736372697074696F6E3C2F0D
:1004F0006E616D653E3C2F737472696E673E3C653C
:1005000076656E746964206F66667365743D272D29
:1005100032373627203E3C6E616D653E416374691B
:10052000766174696F6E204576656E743C2F6E61DE
:100530006D653E3C2F6576656E7469643E3C6576FC
:10054000656E7469643E3C6E616D653E496E6163C3
:100550007469766174696F6E204576656E743C2FA0
:100560006E616D653E3C2F6576656E7469643E3CD8
:100570002F67726F75703E3C2F7365676D656E7483
:100580003E3C7365676D656E74206F726967696E56
:100590003D2730272073706163653D2731273E3C3E
:1005A000696E742073697A653D273227206F66660D
:1005B0007365743D2734303836273E3C6E616D6577
:1005C0003E4D6F64652053656C656374696F6E3C66
:1005D0002F6E616D653E3C6465736372697074690A
:1005E0006F6E3E496E73747275637420626F6172D0
:1005F0006420746F207265626F6F7420696E746F0F
:10060000206E6F726D616C206F7065726174696EBF
:1006100067206F72206669726D77617265207570F0
:100620006C6F6164206D6F64652E3C2F646573632D
:1006300072697074696F6E3E3C6D61703E3C7265AC
:100640006C6174696F6E3E3C70726F706572747924
:100650003E36353533353C2F70726F706572747964
:100660003E3C76616C75653E4E6F726D616C204FDD
:100670007065726174696E67204D6F64653C2F769A
:10068000616C75653E3C2F72656C6174696F6E3E7E
:100690003C72656C6174696F6E3E3C70726F706520
:1006A0007274793E303C2F70726F70657274793E4F
:1006B0003C76616C75653E4669726D776172652046
:1006C00055706C6F6164204D6F64653C2F76616C72
:1006D00075653E3C2F72656C6174696F6E3E3C2F90
:1006E0006D61703E3C2F696E743E3C2F7365676D83
:1006F000656E743E3C2F6364693E00015261696C13
:100700007374617273204C696D697465640A496F12
:100710000A312E300A312E35007E6E7F620C37266C
:100720000C37120C370E0C37060C37020C37000C46
:100730003700002100240027002A002D003000335C
:100740000000002200250028002B002E003100347C
:1007500000000020002300260029002C002F00327A
:10076000000101010101010101030303030303036C
:100770000302020202020202020404040404070744
:100780000405050505050505050606060606060613
:100790000607070102040810204080010204081027
:1007A000204080010204081020408001020408104B
:1007B0000810800102040810204080010204081083
:1007C0002040800102000000000000000000000046
:1007D0000000000000000000000000000000000019
:1007E0000000000000000000000000000000000009
:1007F00000000000000000004B05B03911241FBEAE
:10080000CFEFD0E1DEBFCDBF14BE88E10FB6F894C4
:1008100080936000109260000FBE13E0A0E0B1E092
:10082000E8EDF7E700E00BBF02C007900D92A2339E
:10083000B107D9F71BBE17E0A2E3B3E001C01D92D8
:10084000AA34B107E1F717E0CCEFD7E004C0229754
:10085000FE010E94E63BC83FD107C9F70E94463A15
:100860000C94EA3B0C940000CF93DF93BC018230E0
:10087000910510F462E070E0A0914807B09149073B
:10088000ED01E0E0F0E040E050E021C08881998196
:100890008617970769F48A819B81309719F09383B3
:1008A000828304C09093490780934807FE0134C0B7
:1008B0006817790738F44115510519F08417950721
:1008C00008F4AC01FE018A819B819C01E90120971B
:1008D000E9F641155105A9F1CA01861B970B04974A
:1008E00008F4BA01E0E0F0E02AC08D919C911197E4
:1008F00084179507F9F46417750781F412968D91A2
:100900009C911397309719F09383828304C090933E
:10091000490780934807FD0132964CC0CA01861BE7
:10092000970BFD01E80FF91F6193719302978D9367
:100930009C9340C0FD01828193819C01D901109755
:10094000A1F68091460790914707892B41F4809149
:10095000B7029091B8029093470780934607409161
:10096000B9025091BA024115510541F44DB75EB735
:100970008091B5029091B602481B590B2091460711
:1009800030914707CA01821B930B8617970780F0A7
:10099000AB014E5F5F4F8417950750F0420F531F16
:1009A0005093470740934607F9016193719302C042
:1009B000E0E0F0E0CF01DF91CF910895CF93DF9396
:1009C000009709F450C0EC0122971B821A82A09173
:1009D0004807B0914907109709F140E050E0AC1783
:1009E000BD0708F1BB83AA83FE0121913191E20F7B
:1009F000F31FAE17BF0779F48D919C911197280FC3
:100A0000391F2E5F3F4F3983288312968D919C9119
:100A100013979B838A834115510571F4D09349073D
:100A2000C093480720C012968D919C911397AD01F9
:100A3000009711F0DC01D3CFFA01D383C283219157
:100A40003191E20FF31FCE17DF0769F48881998196
:100A5000280F391F2E5F3F4FFA01318320838A818F
:100A60009B8193838283DF91CF910895FC01059050
:100A70000020E9F7809590958E0F9F1F0895FB0148
:100A8000DC0102C001900D9241505040D8F708950A
:100A900080E008950895109239031092380310925F
:100AA0003A031092320310923303109234031092DF
:100AB00035031092360310923703EBE3F3E0108610
:100AC000108211821282138214821582168217827A
:100AD000399684E0EB35F80791F710925E04109296
:100AE0005D0481EF92E090935C0480935B0410922C
:100AF0007404109273041092750410926D04109295
:100B00006E0410926F04109270041092710410928F
:100B1000720410927D0410927C0410927E04109254
:100B2000760410927704109278041092790410924F
:100B30007A0410927B0410929504109294041092FF
:100B4000960410928E0410928F04109290041092CA
:100B50009104109292041092930410929E041092A9
:100B60009D0410929F041092970410929804109282
:100B7000990410929A0410929B0410929C04109273
:100B8000A1041092AC041092AB041092A90410922C
:100B9000A8041092AA041092B9041092C5041092ED
:100BA000C4041092C6041092BE041092BF041092A6
:100BB000C0041092C1041092C2041092C304109297
:100BC000CB0487ED92E09093CE048093CD041092F5
:100BD000DD0481E08093DE048093DF041092E00462
:100BE0001092E104E2EEF4E088E081938F5F8031BF
:100BF000E1F787E193E09093EB048093EA0481E0CE
:100C00008093F2048093F3041092F4041092F5049C
:100C10001092F6041092F7041092F8041092F9045E
:100C20001092050510920405109206051092FE041C
:100C30001092FF0410920005109201051092020517
:100C4000109203058FEF9FEF90930805809307059F
:100C50008BE590E00E9434048093FA049093FB04A7
:100C60008BE590E00E9434048093FC049093FD0493
:100C700089EC92E09093EB048093EA048FEB92E08E
:100C800090930C0580930B0587EE92E090932605D8
:100C90008093250510925B0510925A0510925C0511
:100CA0001092540510925505109256051092570552
:100CB0001092580510925905109264051092630520
:100CC0001092650510925D0510925E0510925F0509
:100CD00010926005109261051092620587E695E01A
:100CE00060E340E00E94871583E895E061E340E01F
:100CF0000E94871508958BE594E00E9401298BE5F9
:100D000094E00E946A22882349F08BE594E00E94D7
:100D10006F2287E695E061E00E94651508950F93C4
:100D20001F93CF93DF938C01C0E0D0E0BE016650EB
:100D3000704F8FE995E00E943916F801EC0FFD1F06
:100D400080832196C630D10589F7F80180818F3FD5
:100D500081F481818F3F69F482818F3F51F48381D7
:100D60008F3F39F484818F3F21F485818F3F09F4CF
:100D7000FFCFDF91CF911F910F910895EF92FF92D6
:100D80000F931F9384EC96E040E052EC61E070E03A
:100D90000E94823884EC96E060E071E00E94693B3A
:100DA00000E0802F61E00E94DD36802F60E00E942D
:100DB00009370F5F0830A9F7802F60E00E94DD3609
:100DC000802F61E00E9409370F5F0031A9F782E3AD
:100DD000E82E83E0F82EC7010E948F060BE514E091
:100DE000C8010E94BD291093D2040093D104F0924F
:100DF000D404E092D3048DEC94E06BE373E040E222
:100E00000E94FD128AEE94E0B801A7012DEC34E0B7
:100E10000E94AA0A8BE095E0B801A7012DEC34E00E
:100E20000E94520785E295E0B801A7010E943D1398
:100E3000C8016DEC74E00E948223C8016AEE74E080
:100E40000E948223C8016BE075E00E948223C801E2
:100E500065E275E00E9482231F910F91FF90EF9051
:100E60000895CF93DF93FC0184819581EC01A881E3
:100E7000B981668177815096ED91FC9151970995E2
:100E8000DF91CF910895FC01868997890E94A9116D
:100E900064E670E080E090E00E943636E0E0F0E04A
:100EA00009950895EF92FF920F931F938C01FC0117
:100EB00075836483578346838FEF82878387158A80
:100EC0001186378B268B97E6E92E95E0F92EC70120
:100ED00040E050E060E070E00E945F15C7010E94B2
:100EE0008F1580918205F801848783E8E82E85E0DC
:100EF000F82EC7014FEF50E06FEF70E00E945F15D2
:100F0000C7010E948F1580919E05F801858786890B
:100F100097894596918F808F1686128A1F910F911F
:100F2000FF90EF900895EF92FF921F93CF93DF937E
:100F30007C01162F87E695E040E050E060E070E02D
:100F40000E945F1583E895E041E050E060E070E0CA
:100F50000E945F15112311F410E017C0C0E0D0E02B
:100F6000D70156968D919C915797BE0140E00E9403
:100F70005F30F70186899789BE0140E00E944330C7
:100F80002196C032D10561F7E7CF812F60E00E9442
:100F900009371F5F1830C9F78FEFD7011A968C9366
:100FA0001A971B968C931B975696ED91FC91579729
:100FB000108A18961C92DF91CF911F91FF90EF90AD
:100FC0000895EF92FF920F931F93CF93DF93EC015D
:100FD000EE81FF81309709F4B6C28085882309F439
:100FE000B2C28985882351F481E0898783E895E03E
:100FF00041E050E060E070E00E945F1587E695E018
:101000000E948F1583E895E00E948F15209182053C
:1010100090E0222311F480E004C080919E058111AC
:1010200081E08F879F5F9830A1F78823E9F02C87B4
:1010300080919E058D878091770590917805A0918C
:101040007905B0917A0581342FE1920720E0A2075B
:1010500020E0B20714F083E006C0895B9B40A0400B
:10106000B04014F082E08F879F858E85891799F0B4
:101070009E879A8B87E695E040E050E060E070E064
:101080000E945F1583E895E041E050E060E070E089
:101090000E945F1501C01A8A209182058C858217F3
:1010A00099F08091770590917805A0917905B0919C
:1010B0007A058C349105A105B1053CF02C872223DB
:1010C00021F081E0888B01C0188A20919E058D85D2
:1010D0008217D1F08091930590919405A091950588
:1010E000B09196058C349105A105B1053CF02D8792
:1010F00080919E05882311F081E0898B00E010E04B
:10110000E1E0EE2EF12C02C0198AF8CFE88DF98DBE
:10111000E00FF11F80810E942B37782F6C89A70187
:10112000002E02C0440F551F0A94E2F7862F90E06C
:1011300084239523002E02C0959587950A94E2F7A3
:10114000272F30E08217930761F0713029F4642B68
:101150006C8B8B89842B09C0842F809586238C8B84
:1011600005C0942F90958B8989238B8B0F5F1F4F20
:101170000830110559F68885883009F459C080383F
:1011800009F4FAC0882309F0DEC18A89833021F48A
:10119000CE010E944307D7C1823079F483E895E0FD
:1011A0004AEA5AEA6AEA7AEA0E945F1587E695E017
:1011B00045E555E565E575E5C4C1813021F4CE010D
:1011C0000E943107C0C188898823B9F088E08887E8
:1011D000EE89FF8981E0808B87E695E040EF50EF54
:1011E00060EF70EF0E945F1510E0812F60E00E94B9
:1011F00009371F5F1830C9F7A6C18989882309F408
:10120000A2C180E88887EE89FF8981E0808B83E82E
:1012100095E040EF50EF60EF70EF0E945F1510E037
:10122000812F60E00E9409371F5F1830C9F78BC11A
:101230008A898823E1F488898823A9F183E895E0E5
:1012400040E050E060E070E00E945F158A859927D9
:1012500087FD9095029661E270E00E949B3B815071
:101260008A878F3F49F487E060E00E940937CE010A
:1012700061E00E94930767C1803154F0A7C08230BB
:101280000CF461C1812F815060E00E9409375BC17D
:10129000182F159580FFD1C087E695E04AE050E011
:1012A0006AE070E0D0C08989882309F16B8567FD09
:1012B00008C0772767FD70958E899F8941E00E945D
:1012C00043306A85603134F0772767FD709560514F
:1012D000704007C067FDE2C0772767FD7095605FCB
:1012E0007F4F8E899F8941E00E944330D7C08B8910
:1012F000882309F428C120E030E0482F50E0122F65
:10130000CA01022E02C0959587950A94E2F780FDE6
:1013100006C01F5F2F5F3F4F2830310581F78B8557
:101320008F3F51F0212F30E0992787FD90959595BB
:1013300087952817390751F083E895E04AE050E097
:101340006AE070E00E945F15812FD1C08D898130E5
:1013500021F4110F1F5F1B87DEC0823009F0F3C03C
:1013600083E895E040E050E060E070E00E945F15A7
:101370008FEF8B871D8A21C08A89882309F077CF58
:101380008889882309F467C083E895E040EF50EF2F
:1013900060EF70EF0E945F158A85992787FD909511
:1013A000029661E270E00E949B3B81508A878F3FEA
:1013B00059F487E060E00E94093787E695E040EF46
:1013C00050EF60EF70EFBDC0803164F183E895E0CD
:1013D0004AE050E06AEA7AE00E945F152A853327E6
:1013E00027FD3095C901409795958795182F20FFC7
:1013F00007C087E695E040E050EA60E070EA06C08A
:1014000087E695E04FEF5FEF6FEF7FEF0E945F158C
:10141000812F61E00E9409378A85803109F02FCF42
:1014200087E032CF182F159580FF07C087E695E03B
:1014300040E050EA60E070EA06C087E695E04FEFD2
:101440005FEF6FEF7FEF0E945F15812F61E00E94D9
:1014500009378A8514CF8989882319F16B8567FD3F
:1014600008C0772767FD70958E899F8941E00E94AB
:101470005F306A85603134F0772767FD7095605181
:10148000704007C067FD0AC0772767FD7095605FF1
:101490007F4F8E899F8941E00E945F30CE0160E0DE
:1014A000E8CE8B89882309F44EC020E030E0682F15
:1014B00070E0422FCB01022E02C0959587950A94C9
:1014C000E2F780FD06C04F5F2F5F3F4F28303105A8
:1014D00081F78B858F3F51F0242F30E0992787FDCE
:1014E0009095959587952817390779F0842F90E086
:1014F000880F991F8B8787E695E04FEF5FEF6FEFBF
:101500007FEF0E945F1581E00FC08D89813071F4FB
:10151000440F4F5F4B8787E695E04AE050E06AE072
:1015200070E00E945F1582E08D8B0DC0823059F40F
:101530008FEF8B871D8A87E695E040E050E060E002
:1015400070E00E945F15DF91CF911F910F91FF9086
:10155000EF900895FC0130A3278F75836483578330
:10156000468308950895DF92EF92FF920F931F93A1
:10157000DF93CF93CDB7DEB7C456D0400FB6F89403
:10158000DEBF0FBECDBF7C01198A188A1A8A1A865F
:101590001B861C861D861E861F861A8E198E1B8E24
:1015A0001B8A1C8A1D8A1E8A1F8A188E80E28D8FD4
:1015B000DE015396F70120893189C901FC0189E0D8
:1015C00001900D928150E1F7D7015096ED91FC9179
:1015D0005197848990E08C7F90708C38910509F444
:1015E00004C18D38910564F48438910581F18838FF
:1015F000910509F4F5C08038910509F03FC10DC08F
:10160000843A910509F435C1883A910509F470C00E
:10161000803A910509F032C127C184EC96E062E17D
:1016200071E00E94693B87E08C8F82E88E8F8CE6A8
:101630008F8F18A282EF89A38FEF8AA38DEF8BA3E0
:10164000C701BE01665F7F4F0E94422B24C184EC1C
:1016500096E06DE271E00E94693B88E08C8F86E83D
:101660008E8FD7015096ED91FC91519785898F8F80
:1016700018A219A21AA21BA281E08CA385898D3F12
:1016800061F08F3F09F0E7C087E88E8F18A219A29A
:1016900086E08AA387E68BA3DEC087E88E8FF701FA
:1016A000878D90A10E94620F692F7727882799273D
:1016B00068A3D7015F968D919C9190970E94620FCD
:1016C000BC018827992769A3F701878D90A10E9403
:1016D000620F672F782F892F99276AA3D7015F960A
:1016E0008D919C9190970E94620F6BA31CA2B3C036
:1016F00084EC96E068E471E00E94693BD701509663
:10170000ED91FC915197848990E0837090708130C5
:10171000910591F484EC96E067E571E00E94693BE5
:1017200028E088E190E00FB6F894A89580936000D7
:101730000FBE20936000FFCF029709F0ACC084EC8D
:1017400096E06FE571E00E94693B18861F8219865A
:1017500019821A821B821C821D821E82D70150961A
:10176000ED91FC915197DE011196759686E00190FE
:101770000D928150E1F7D7011696ED91FC911797E4
:1017800099818081981709F086C09A818181981784
:1017900009F081C09B818281981709F07CC09C81EF
:1017A0008381981709F077C09D818481981709F08B
:1017B00072C09E818581981709F06DC05F968D91EA
:1017C0009C9190970E94A91128E088E190E00FB6C3
:1017D000F894A895809360000FBE20936000FFCF1F
:1017E00084EC96E06DE671E04DC084EC96E06AE72B
:1017F00071E00E94693BD7015096ED91FC915197A1
:1018000015891770812F90E0B3E0880F991FBA9562
:10181000E1F702968C8F8EE88E8F8FE995E062E07B
:1018200070E00E943916D82E8FE995E063E070E0F1
:101830000E943916082F1111FFCF8FE995E062E061
:1018400070E04D2D0E9440168FE995E063E070E056
:10185000402F0E944016C701BE01665F7F4F0E9465
:10186000422B8823A9F011C084EC96E06FE871E068
:1018700009C084EC96E06EE971E004C084EC96E067
:101880006FEA71E00E94693B06C020EF3FEF05C0A0
:1018900020E030E202C020E030E0C901CC59DF4F47
:1018A0000FB6F894DEBF0FBECDBFCF91DF911F9171
:1018B0000F91FF90EF90DF9008958F929F92AF92DB
:1018C000BF92CF92DF92EF92FF920F931F93CF932D
:1018D000DF934C01DC015096ED91FC915197858985
:1018E00090E0A0E0B0E0182F0027FF24EE248689C6
:1018F00090E0A0E0B0E0DC0199278827E82AF92AE7
:101900000A2B1B2B808D90E0A0E0B0E0E82AF92A9A
:101910000A2B1B2B878990E0A0E0B0E0BA2FA92FFB
:10192000982F8827E82AF92A0A2B1B2B848990E014
:10193000837090708130910509F493C082309105D5
:101940001CF4009769F00FC08230910531F08330AC
:10195000910549F48FEF90E00EC08EEF90E00BC040
:10196000818D27E009C0892B21F427E080E090E0F9
:1019700003C080E090E026E0B288B21A813029F0FE
:101980008D3F51F120E030E05EC0DD24C22FD0E079
:10199000CE19DF091EC0B8EFEB16BFE0FB06B0E0C2
:1019A0000B07B0E01B0778F4D4015096ED91FC9141
:1019B0005197EC0FFD1FEE0DFF1D8FE995E0B7016C
:1019C00043890E944016D3940894E11CF11C011D28
:1019D000111DDB1400F335C0822F90E0B4E0EB164C
:1019E000B1E0FB06B0E00B07B0E01B0730F06C0184
:1019F000C0E0D0E0AB2CBB2421C04396E80FF91F18
:101A0000D4015F968D919C919097B7014B2D9F01CA
:101A10000E94B40F16C0BE016E0D7F1DD4015096FA
:101A2000ED91FC915197EC0DFD1D8FE995E04389F7
:101A30000E94401621960894C11CD11CCA15DB05D2
:101A400050F320EF3FEFC901DF91CF911F910F912C
:101A5000FF90EF90DF90CF90BF90AF909F908F90CE
:101A600008958DEF90E087CF4F925F926F927F92B3
:101A70008F929F92AF92BF92CF92DF92EF92FF929E
:101A80000F931F93DF93CF93CDB7DEB7CB55D040E5
:101A90000FB6F894DEBF0FBECDBF3C01DC015096FF
:101AA000ED91FC915197858990E0A0E0B0E0D82EAF
:101AB000CC24BB24AA24868990E0A0E0B0E0DC011D
:101AC00099278827A82AB92ACA2ADB2A808D90E07C
:101AD000A0E0B0E0A82AB92ACA2ADB2A878990E0C8
:101AE000A0E0B0E0BA2FA92F982F8827A82AB92AFA
:101AF000CA2ADB2A8489282F30E0237030702130F5
:101B0000310599F02230310524F42115310599F081
:101B100006C02230310561F02330310519F060E054
:101B200070E00BC06FEF70E008C06DEF70E005C0B3
:101B30006EEF70E002C0818D682F062F232B11F409
:101B400017E001C016E0E12EFF24EE0DFF1D938883
:101B500018861F82198619821A821B821C821D8296
:101B60001E82198A188A1A8A1A861B861C861D8666
:101B70001E861F86DE011A96F301808991899C01D9
:101B8000F90189E001900D928150E1F7412E552431
:101B90009E012C5E3F4FD30150964D915C91519721
:101BA0004D5E5F4FC901BA01412F50E00E943F05D1
:101BB0008D898F7080658D8B84EC96E06EEB71E083
:101BC0000E94693B84EC96E06EEC71E00E94663BFB
:101BD00084EC96E06C8940E150E00E94483B84EC44
:101BE00096E06D8940E150E00E94483B84EC96E02D
:101BF00065EE71E00E94663B84EC96E0692D4AE058
:101C000050E00E94483B84EC96E06FEE71E00E9449
:101C1000663B84EC96E0B601A50120E130E00E942D
:101C2000343B84EC96E06AEF71E00E94663B84EC02
:101C300096E0602F40E150E00E94483B84EC96E043
:101C400063E072E00E94663B84EC96E0612F4AE01C
:101C500050E00E94483B0D3F09F45FC00F3FF9F090
:101C6000013019F020E030E0A0C0190D1B8BEC0E04
:101C7000FD1EE4E1F0E0EE0EFF1E00E010E00CC0FF
:101C8000B8016A0D7B1D8FE995E00E943916D701D6
:101C90008D937D010F5F1F4F091590F379C084EC80
:101CA00096E06EE172E00E94693BA5019E012E0D57
:101CB0003F1D2C5E3F4FC501890D911D89569640F1
:101CC00018F078E6972E9A18D90180E090E0292D37
:101CD00030E00FC0E6E047365E0710F01C9205C00A
:101CE000FA01EC56FF4FE491EC93019611964F5F89
:101CF0005F4F8217930770F3F6E09F0E9B8A84EC88
:101D000096E06BE272E00E94663B84EC96E06B89A1
:101D10004AE050E00E94483B3BC09E012F5F3F4F8E
:101D200064E0A61661E0B60660E0C60660E0D6068E
:101D300090F483E190E0E80EF91E2E0D3F1DD301D3
:101D40005F968D919C919097B501492D0E946F0FE0
:101D50008A5F8B8B1DC0190D1B8B63E1E62EF12C66
:101D6000E40CF51CE20EF31E00E010E0892C99242F
:101D70000CC0B8016A0D7B1D8FE995E00E943916F1
:101D8000F70181937F010F5F1F4F0815190588F335
:101D9000C301BE016F5F7F4F0E94422B882319F061
:101DA00020EF3FEF02C020E030E2C901C55ADF4F0B
:101DB0000FB6F894DEBF0FBECDBFCF91DF911F915C
:101DC0000F91FF90EF90DF90CF90BF90AF909F90DA
:101DD0008F907F906F905F904F9008951F93CF9357
:101DE000DF93EC01EE81FF81309709F464C08085B8
:101DF000882309F460C084EC96E068E472E00E94F5
:101E0000693BE889F98984EC96E062894AE050E010
:101E10000E94483B10E00AC0E10FF11D84EC96E0FF
:101E2000638940E150E00E94483B1F5FE889F989DF
:101E30008289181788F383898032A1F584EC96E0B3
:101E400068E572E00E94693BE889F989848990E03D
:101E5000807C90708034910531F080389105B9F024
:101E6000892B59F01FC084EC96E06BE672E00E946B
:101E7000693BCE010E94340D13C084EC96E068E704
:101E800072E00E94693BCE010E945D0C09C084ECA7
:101E900096E066E872E00E94693BCE010E94B30AB8
:101EA0009C010BC084EC96E062E972E00E94693B01
:101EB00020E430E102C020E030E0C901DF91CF91A1
:101EC0001F910895FC018285938523E0880F991F57
:101ED0002A95E1F70197BC0180E090E008951F93F7
:101EE000CF93DF93EC01D901CB0123E09695879541
:101EF0002A95E1F7182FFB0134972A853B8583E06B
:101F0000220F331F8A95E1F7CF01840F911D281707
:101F1000390710F4422F461B812F880F880F880F36
:101F20005E2F581B712F60E018C0583011F47F5F8E
:101F300050E0272F30E0C901E3E0880F991FEA95B0
:101F4000E1F7820F931FE885F985E80FF91FE50F88
:101F5000F11D80818D936F5F5F5F641730F3842F75
:101F6000DF91CF911F910895FF920F931F93CF930D
:101F7000DF93DC01022FF32ECB0123E096958795AA
:101F80002A95E1F7182FFB0134971A962D913C9171
:101F90001B9783E0220F331F8A95E1F7CF01840F4F
:101FA000911D2817390710F4422F461B812F880FE7
:101FB000880F880F5E2F581B202F3F2DC901EC0181
:101FC000712F60E01AC0583011F47F5F50E0272F66
:101FD00030E0C901E3E0880F991FEA95E1F7820F2D
:101FE000931F1896ED91FC911997E80FF91FE50FD3
:101FF000F11D899180836F5F5F5F641720F381E03B
:1020000054968C93DF91CF911F910F91FF9008957B
:10201000FC018089882341F4CB01409796958795F0
:10202000609561700E94093781E008958F929F92B8
:10203000BF92CF92DF92EF92FF920F931F93CF93B5
:10204000DF93EC01EE81FF81309709F465C0808554
:10205000882309F461C0CC2EBD2EDD2451E0852EED
:10206000912C88898823E1F58A898823C9F57E0126
:1020700000E010E0F70185890E942B37382F2B896B
:10208000A401002E02C0440F551F0A94E2F7822FCC
:1020900090E084239523002E02C0959587950A949D
:1020A000E2F7381719F48989882389F024272B8BC4
:1020B000B801660F771F80E090E0313011F481E0C5
:1020C00090E0682B792B8C2D9B2D0E945E2E0F5F4C
:1020D0001F4F0894E11CF11C0830110559F6198AAC
:1020E000D394F8E0DF1609F0BCCF8C2D9B2D0E9415
:1020F0008D2D2E853F858A859B852817390709F404
:102100001A8A8C89882341F0E881F9810084F1855D
:10211000E02DCE0109951C8ADF91CF911F910F917F
:10212000FF90EF90DF90CF90BF909F908F90089599
:102130008F929F92AF92BF92DF92EF92FF920F9396
:102140001F93CF93DF934C01DD2416C0F40100856B
:1021500011850A0D1B1D8FE995E0B7010E94391604
:102160000C0F1D1FF801808321960894E11CF11CBF
:10217000C830D10559F7D3942D2D30E0F401828574
:1021800093852817390788F4C90173E0880F991FD0
:102190007A95E1F75C01A20EB31E64E0E62EF12C05
:1021A000E80EF91EC0E0D0E0D1CF81E0DF91CF9101
:1021B0001F910F91FF90EF90DF90BF90AF909F9095
:1021C0008F9008951F93CF93DF93C4E0D0E010E089
:1021D0008FE995E0BE0145E00E94401621968FE907
:1021E00095E0BE0142E00E94401621968FE995E0FD
:1021F000BE0141E00E94401621968FE995E0BE01A4
:1022000042E00E94401621968FE995E0BE0142E02F
:102210000E94401621968FE995E0BE0140E00E94A1
:10222000401621968FE995E0BE0140E00E944016DD
:1022300021968FE995E0BE01412F0E94401621961C
:102240001F5F103129F6C4E8D0E010E08FE995E077
:10225000BE0145E00E94401621968FE995E0BE013F
:1022600042E00E94401621968FE995E0BE0141E0D0
:102270000E94401621968FE995E0BE0142E00E943F
:10228000401621968FE995E0BE0142E00E9440167B
:1022900021968FE995E0BE0140E00E94401621960C
:1022A0008FE995E0BE0140E00E94401621968FE93B
:1022B00095E0BE01412F0E94401621961F5F10310C
:1022C00029F6C4E0D1E08FE995E0BE010E943916FD
:1022D000882331F08FE995E0BE0140E00E9440166E
:1022E000219682E0C430D80771F7C4E0D4E08FE9CA
:1022F00095E0BE010E943916882331F08FE995E000
:10230000BE0140E00E944016219684E0C43AD807FE
:1023100071F78FE995E062E070E040E00E944016BE
:102320008FE995E063E070E040E10E9440168FE99C
:1023300095E060E070E049E40E9440168FE995E086
:1023400061E070E04FE60E944016DF91CF911F914F
:1023500008954F925F926F927F928F929F92AF9269
:10236000BF92CF92DF92EF92FF920F931F93CF9382
:10237000DF933C018FE995E060E070E00E94391640
:10238000893409F0E2C08FE995E061E070E00E94D5
:1023900039168F3609F0D9C08FE995E062E070E018
:1023A0000E943916B82E8FE995E063E070E00E9434
:1023B0003916982E8FE995E060E070E048E50E94BC
:1023C00040168FED891538F44B2D4F5F8FE995E05E
:1023D00062E070E005C08FE995E062E070E04B2DAF
:1023E0000E944016492D405E8FE995E063E070E061
:1023F0000E944016AA24492C55242EC0D3011696BB
:10240000ED91FC911797EC0FFD1F8FE995E0B80156
:1024100040810E94401621960F5F1F4FC630D105A4
:1024200069F7B601665F7F4F8FE995E04B2D0E94FB
:102430004016E40CF51CBFEFEB16F10409F4B3945D
:10244000EBE0F0E0CE0EDF1E4A2D490D8FE995E05E
:10245000B6010E944016A394D3011A968D919C91C7
:102460001B9796958795EA2CFF24E816F90660F4E9
:102470006701F3E0CC0CDD1CFA95E1F786010C5FF7
:102480001F4FC0E0D0E0BACFA82E882E890C492C6F
:1024900055242EC0D3011696ED91FC911797EC0FA1
:1024A000FD1F8FE995E0B80140810E9440162196FA
:1024B0000F5F1F4FC630D10569F7B601665F7F4FCA
:1024C0008FE995E04B2D0E944016E40CF51CBFEF00
:1024D000EB16F10409F4B394EBE0F0E0CE0EDF1E4E
:1024E0008FE995E0B601482D0E944016A39483948D
:1024F000EA2CFF24D3011A968D919C911B97E81624
:10250000F90660F46701E3E0CC0CDD1CEA95E1F725
:1025100086010C5F1F4FC0E0D0E0BCCF8FE995E093
:1025200060E070E049E40E9440168FE995E061E0C8
:1025300070E00E9439168F3659F08FE995E061E01E
:1025400070E04FE60E94401603C0C3010E94E210F3
:10255000DF91CF911F910F91FF90EF90DF90CF907F
:10256000BF90AF909F908F907F906F905F904F90B3
:102570000895AF92BF92CF92DF92FF920F931F9375
:10258000CF93DF935C01FF2416C0D5011896ED911F
:10259000FC911997EC0DFD1DEC0FFD1F8FE995E0E7
:1025A000B80140810E94401621960F5F1F4FC8302E
:1025B000D10559F7F3942F2D30E0F50182859385ED
:1025C0002817390778F4C901B3E0880F991FBA9525
:1025D000E1F76C01C20ED31E8C010C5F1F4FC0E0EF
:1025E000D0E0D3CF81E0DF91CF911F910F91FF9089
:1025F000DF90CF90BF90AF9008950F931F93CF932C
:10260000DF93EC018C0150E00E94372E8FE995E0BA
:1026100060E070E00E943916893441F48FE995E05A
:1026200061E070E00E9439168F3619F0CE010E94E9
:10263000A911E881F9810284F385E02DCE01099585
:10264000C0E0D0E0C801BE0141E020E00E940D30B2
:102650002196C031D105B1F7C0E1D0E0C801BE017B
:1026600040E021E00E940D302196C032D105B1F743
:10267000DF91CF911F910F910895CF92DF92EF924A
:10268000FF920F931F938C017B016A01FC0110865E
:102690008FEF878F8FEF9FEF958F848F168E8BEF45
:1026A00096E00E9436058F5FF80180A3F582E482F0
:1026B000D782C6821F910F91FF90EF90DF90CF904D
:1026C00008950F931F93CF93DF93EC01EE81FF8169
:1026D000309709F4E6C08085882309F4E2C0888534
:1026E000882399F018868E010F5D1F4FEC81FD81C4
:1026F000A081B18118962D913C911997CF01B80115
:10270000F9010995882391F3CCC09F8D97FD49C0AD
:1027100088A18E5F891B8EA3893010F088E08EA37C
:1027200022E016C0822F90E0EF8DFF27E7FDF095A5
:10273000E80FF91FE750F94FE491DE01A80FB91F28
:102740009796EC939797EA3011F497961C922F5F27
:102750008EA1281738F38E010F5D1F4FEC81FD818C
:10276000A081B18118962D913C911997CF01B801A4
:10277000F9010995882391F38EA182502F8D820F44
:102780008F8F992787FD909528A130E082179307B6
:102790000CF487C08FEF8F8F83E094E09D8F8C8F38
:1027A00080C02C8D3D8D37FD7CC082E08EA32350F0
:1027B000344049F421E029A783E08EA384E094E02B
:1027C0009D8F8C8F2E8F8E8D813061F52FEF11C0F4
:1027D0008FE995E00E943916282F8EA1FE01E80F9F
:1027E000F11D27A38F5F8EA38C8D9D8D01969D8FEC
:1027F0008C8F8EA1883048F4222371F06C8D7D8DF2
:1028000024E06432720724F302C0222329F08C8D65
:102810009D8D8452944034F084E294E09D8F8C8F9F
:1028200082E08E8F8E8D823059F52FEF11C08FE9A7
:1028300095E00E943916282F8EA1FE01E80FF11DA8
:1028400027A38F5F8EA38C8D9D8D01969D8F8C8F7E
:102850008EA1883048F4222371F06C8D7D8D84E048
:10286000643A780724F302C0222329F08C8D9D8DD1
:10287000845A94402CF08FEF9FEF9D8F8C8F1E8E8B
:102880008E010F5D1F4FEC81FD81A081B1811896F3
:102890002D913C911997CF01B801F9010995882331
:1028A00091F3DF91CF911F910F910895CF92DF9215
:1028B000EF92FF920F931F93DF93CF93CDB7DEB7C5
:1028C00062970FB6F894DEBF0FBECDBF7C016B01DF
:1028D000DC011696ED91FC911797309709F4DFC053
:1028E0008085882309F4DBC0CB010E942420882343
:1028F00009F464C0198A188A1A8A1A861B861C86EB
:102900001D861E861F86C601BE01665F7F4F0E9420
:10291000901ED7011696ED91FC9117972889398959
:102920002115310541F086819781009721F0281704
:102930003907F9F0B4C09A858081981709F0AFC0C3
:102940009B858181981709F0AAC09C858281981780
:1029500009F0A5C09D858381981709F0A0C09E85C8
:102960008481981709F09BC09F858581981709F08D
:1029700096C0F701878D87FF92C0848D958D97FF54
:102980008EC0178E18861F82198619821A821B82A2
:102990001C821D821E82C6018E010F5F1F4FB8016F
:1029A0000E94551BD70116966D917C911797C70110
:1029B0008196A8010E943D2081E072C0C6010E945C
:1029C000E91F882309F46BC018861F8219861982B3
:1029D0001A821B821C821D821E82C601BE016F5F8D
:1029E0007F4F0E94901ED7011696ED91FC9117978C
:1029F0002F8138852115310541F086819781009717
:102A000021F028173907D9F04AC099818081981799
:102A100009F045C09A818181981709F040C09B81D7
:102A200082819817E1F59C8183819817C1F59D817A
:102A300084819817A1F59E818581981781F5F7010A
:102A4000878D87FF2CC0848D958D97FF28C0198AAC
:102A5000188A1A8A1A861B861C861D861E861F8661
:102A60008E01065F1F4FC601B8010E94551BD7019A
:102A700016966D917C911797C7018196A8010E94C7
:102A8000022088E0F70186A385ED81A788E182A76F
:102A900013A614A615A616A681E0808701C080E0C3
:102AA00062960FB6F894DEBF0FBECDBFCF91DF9117
:102AB0001F910F91FF90EF90DF90CF900895FC0150
:102AC00044875587668777870895FC01818D862B1B
:102AD000818F08950F931F938C01FC0162871386E9
:102AE000808D61E00E94DD36F801808D62850E9454
:102AF0000937F8011086148A158A168A178A108AEF
:102B0000118A128A138A138E1F910F910895FC0166
:102B100042871386608F642F0E946A150895AF92D2
:102B2000BF92CF92DF92EF92FF920F931F93CF93BA
:102B3000DF93EC010E942836D62EC72EB82EA92E80
:102B4000E62EF72E9701207E8E819F812817390768
:102B500009F449C03F832E83888D60E00E94DD36F2
:102B6000888D61E00E9409370A851B85888D0E9447
:102B70002B3719860817190711F481E08987888D8A
:102B800061E00E94DD36888D6A8D0E940937998543
:102B90008885981711F0988726C08B8D8917A9F022
:102BA0009B8F88899989AA89BB898096A11DB11DAF
:102BB0008C8B9D8BAE8BBF8BD882C982BA82AB8245
:102BC000188A198A1A8A1B8A0EC00E942836288100
:102BD00039814A815B81621B730B840B950B688B77
:102BE000798B8A8B9B8B9701207C30708C819D81A7
:102BF0002817390799F13D832C838C852A853B85DD
:102C000080FF0FC080E0232B09F081E08A8F8C8544
:102C10009D85AE85BF85B595A79597958795B06835
:102C20000DC080E0232B09F481E08A8F8C859D857F
:102C3000AE85BF85B695A795979587958C879D8717
:102C4000AE87BF87898D80FD1A8E898D90E095951E
:102C50008795898F888D6A8D0E940937DF91CF9182
:102C60001F910F91FF90EF90DF90CF90BF90AF90AA
:102C70000895F999FECF72BD61BDF89A80B50895A7
:102C8000F999FECF72BD61BD40BD0FB6F894FA9AB6
:102C9000F99A0FBE0895EF92FF920F931F93CF936F
:102CA000DF93DC01FB0117968D919C9118976817B3
:102CB000790709F470C0108619968C9119978130A4
:102CC00021F4ED01279639F405C0882319F4ED01AC
:102CD000279609F4FFCFF983E8838B819C810097C5
:102CE00021F09783868387E055C0E080FF2400E0D1
:102CF00010E08701FF24EE24818190E0A0E0B0E0A5
:102D0000BA2FA92F982F8827E82AF92A0A2B1B2BDC
:102D1000828190E0A0E0B0E0E82AF92A0A2B1B2B80
:102D2000238130E040E050E0A9013327222784814D
:102D300090E0A0E0B0E0BA2FA92F982F8827282B89
:102D4000392B4A2B5B2B858190E0A0E0B0E0282B4B
:102D5000392B4A2B5B2BC9018E259F257CE01695CC
:102D60000795F794E7947A95D1F78E259F256CE027
:102D700056954795379527956A95D1F782279327DA
:102D80009F709C838B83892B21F481E090E09C834E
:102D90008B8382E08A83DF91CF911F910F91FF9007
:102DA000EF9008956F927F928F929F92AF92BF9211
:102DB000CF92DF92EF92FF920F931F93CF93DF9307
:102DC000EB01E881F981309709F010866B817C81F5
:102DD000ED84FE840F851889A8019701FFE05695C0
:102DE000479537952795FA95D1F731704070507017
:102DF000A984BA84CB84DC84D601C501E9E0880FBC
:102E0000991FAA1FBB1FEA95D1F7282B392B4A2BF4
:102E10005B2BD801C701F9E0880F991FAA1FBB1FC0
:102E2000FA95D1F7B070E9EA6E2EEBE47E2EEAE770
:102E30008E2E912CE60CF71C081D191D8E0D9F1D62
:102E4000A01FB11F03EAE02E0CE0F02E0BE1002FD3
:102E5000112DAE0CBF1CC01ED11E2A0D3B1D4C1DDA
:102E60005D1D5070EB2EFF24002711272E293F29CE
:102E7000402B512B29873A874B875C87B0708D8711
:102E80009E87AF87B88B79018A01FCE0169507957C
:102E9000F794E794FA95D1F7AC014E255F254227C8
:102EA0005327ECE0B695A79597958795EA95D1F7C6
:102EB000482759275F705C834B834115510509F4FE
:102EC00087CF4617570709F483CF8FE08A83DF91B6
:102ED000CF911F910F91FF90EF90DF90CF90BF9017
:102EE000AF909F908F907F906F900895CF93DF93D6
:102EF000EC01DB01EF81F88516962D913C91179737
:102F00002115310541F086819781009721F028171E
:102F1000390749F521C09C918081981721F51196B8
:102F20009C91119781819817F1F412969C911297B8
:102F300082819817C1F413969C91139783819817F7
:102F400091F414969C9114978481981761F41596C6
:102F50009C918581981739F48FE08987EF81F885F6
:102F6000108681E001C080E0DF91CF910895CF937A
:102F7000DF93EC01FB018A859B85892B09F440C016
:102F8000AF81B88520818C912817B1F59181119678
:102F90008C911197981781F5928112968C911297C6
:102FA000981751F5938113968C911397981721F5E3
:102FB000948114968C9114979817F1F49581159635
:102FC0008C9115979817C1F411C02223C9F48181FF
:102FD0008823B1F48281882399F48381882381F442
:102FE0008481882369F48581882351F489819A81B9
:102FF000BD010E94172404C086819781892B29F383
:10300000DF91CF910895EF92FF920F931F93DF937B
:10301000CF93CDB7DEB729970FB6F894DEBF0FBEBA
:10302000CDBF8C017B01CB010E942A1D882309F4AE
:103030005FC0D70115968C91863031F0F8018285FA
:103040009385892BD9F554C018861F821986198259
:103050001A821B821C821D821E82C701BE016F5F05
:103060007F4F0E942B21D8011A968D919C911B971E
:10307000892BF1F117964D915C91189741155105E7
:10308000B9F1FA018085882399F199818081981797
:1030900079F59A818181981759F59B8182819817DA
:1030A00039F59C818381981719F59D818481981742
:1030B000F9F49E8185819817D9F40CC0D801179630
:1030C0004D915C9118974115510591F0FA01808559
:1030D000882371F01196ED91FC911297A081B18136
:1030E0001A962D913C911B97CF01BA01F9010995D0
:1030F000C7010E94431D882311F1C7010E942A1EA7
:103100009C01D80117964D915C911897FA01808522
:103110008823A9F01A968D919C911B97821793078B
:1031200071F41196ED91FC911297A081B1811A96DC
:103130002D913C911B97CF01BA01F9010995299670
:103140000FB6F894DEBF0FBECDBFCF91DF911F91B8
:103150000F91FF90EF9008950F931F938C01FC0146
:10316000728361830E942836F801638374838583A8
:1031700096831F910F910895FF920F931F93CF9302
:10318000DF938C01EC01888190E0EC0134E0CC0FFE
:10319000DD1F3A95E1F7C80FD91FC00FD11FF98481
:1031A000E6E0FE1609F4EFC0EF15A0F0F3E0FF161D
:1031B00009F493C0FF1528F022E0F21609F0CBC104
:1031C0004CC084E0F81609F49EC0E5E0FE1609F054
:1031D000C2C1B1C0FFE0FF16A1F0FF1548F027E023
:1031E000F21609F467C188E0F81609F0B4C17BC192
:1031F000E4E1FE1609F410C1F9E1FF1609F0ABC1D4
:1032000038C18F819885892B11F082E001C081E05F
:103210008987E801888190E0FC0124E0EE0FFF1F20
:103220002A95E1F7E80FF91FE00FF11F678170851C
:1032300089819A810E943124882309F08CC1888178
:1032400090E0FC01B4E0EE0FFF1FBA95E1F7E80F44
:10325000F91FE00FF11F8FE03EC0EF81F8852A854E
:103260003B85868197818217930711F037832683E8
:10327000F801808190E0FC01A4E0EE0FFF1FAA9509
:10328000E1F7E80FF91FE00FF11F83E08187E80104
:10329000888190E0FC0174E0EE0FFF1F7A95E1F762
:1032A000E80FF91FE00FF11F6781708589819A810E
:1032B00041E00E947129882309F04DC1888190E086
:1032C000FC0164E0EE0FFF1F6A95E1F7E80FF91FBC
:1032D000E00FF11F82E081873EC184E08987F80119
:1032E000808190E0FC0154E0EE0FFF1F5A95E1F75A
:1032F000E80FF91FE00FF11F67817085E8018981F0
:103300009A8142E015C085E08987F801808190E0CC
:10331000FC0144E0EE0FFF1F4A95E1F7E80FF91FAB
:10332000E00FF11F67817085E80189819A8143E090
:103330000E947129D4C00E9428366C877D878E87B1
:103340009F87F801808190E0FC0134E0EE0FFF1FC1
:103350003A95E1F7E80FF91FE00FF11F86E081874A
:10336000E801888190E0FC0124E0EE0FFF1F2A9520
:10337000E1F7E80FF91FE00FF11F67817085898180
:103380009A8144E0D5CF0E942836F801208130E0B0
:10339000F901B4E0EE0FFF1FBA95E1F7E20FF31F5A
:1033A000E00FF11F2485358546855785621B730B19
:1033B000840B950B645F71408040904008F4CBC053
:1033C00087819085892B11F087E001C081E081879A
:1033D000E801888190E0FC01A4E0EE0FFF1FAA95B0
:1033E000E1F7E80FF91FE00FF11F67817085898110
:1033F0009A810E944D29882309F0ADC0888190E010
:10340000FC0174E0EE0FFF1F7A95E1F7E80FF91F5A
:10341000E00FF11F86E05FCF8F819885892B11F037
:103420008EE101C081E08987F801808190E0FC0194
:1034300064E0EE0FFF1F6A95E1F7E80FF91FE00F58
:10344000F11F67817085E80189819A810E944D2969
:10345000882309F080C0888190E0FC0154E0EE0FE1
:10346000FF1F5A95E1F7E80FF91FE00FF11F84E104
:1034700032CF8EE18987F801A181B2812D913C91F3
:103480001197808190E0FC0144E0EE0FFF1F4A9508
:10349000E1F7E80FF91FE00FF11F67817085E9017F
:1034A000EA85FB85CD010995882309F054C0F80110
:1034B000808133C088E08987E801888190E0FC0141
:1034C00034E0EE0FFF1F3A95E1F7E80FF91FE00F28
:1034D000F11F6781708589819A810E941724882352
:1034E000D1F588811AC08EE18987F801808190E04A
:1034F000FC0124E0EE0FFF1F2A95E1F7E80FF91F0A
:10350000E00FF11F67817085E80189819A810E942F
:1035100033299881882371F4892F90E0FC01B4E06D
:10352000EE0FFF1FBA95E1F7E80FF91FE00FF11F4B
:10353000F18611C0892F90E0FC01A4E0EE0FFF1F7F
:10354000AA95E1F7E80FF91FE00FF11F0780F0855A
:10355000E02D81E08087F8011082DF91CF911F91EB
:103560000F91FF9008950F931F93CF93DF93EC017A
:103570008B01CB010E94171B2A853B85821793077D
:1035800009F048C08985873038F48330C0F4813031
:1035900081F1823058F407C0883059F1883098F0B2
:1035A0008E31C1F526C01B861A8634C0F80180A171
:1035B000882329F0C8010E94611C882359F5C8019D
:1035C0000E94181C20C0F80180A1882329F4C8019A
:1035D0000E94181C8823C9F0F80180A18823D1F02B
:1035E000C8010E94181C8823A9F4C8010E94481C25
:1035F0000AC0C8010E94181C882319F084E1898739
:1036000009C0F80180A1882329F4CE012796BE01C4
:103610000E94D216DF91CF911F910F9108959C01C6
:103620002A5F3F4FC9010895FC0185810895FC017F
:10363000208131813F70C90108950F931F93FC01D0
:10364000DB0116960D911C911797980140E050E010
:103650003F704070507080819181A281B3818070F1
:10366000907FBF71282B392B4A2B5B2B2083318312
:1036700042835383158B048BDB018C9186871196D3
:103680008C911197878712968C911297808B139645
:103690008C911397818B14968C911497828B15962D
:1036A0008C91838B1F910F910895FC01DB0184891C
:1036B0009589892B91F48685882379F487858823D9
:1036C00061F48089882349F48189882331F48289CF
:1036D000882319F483898823F9F0808191819F7070
:1036E000958B848B17969C938E93169786858C93D7
:1036F000878511968C931197808912968C931297D7
:10370000818913968C931397828914968C931497BE
:10371000838915968C930895158A148A168A1686BD
:103720001786108A118A128A138AD7CF1F93FC0139
:103730002081318142815381DA01C901807090700A
:10374000A070B77080509040A040B14051F4858186
:10375000882311F482E08583CB019F709683678371
:1037600018C0CB01A0E0B0E06CE0880F991FAA1F41
:10377000BB1F6A95D1F78070907FB0703F7040702A
:103780005F71822B932BA42BB52B80839183A28313
:10379000B3831F910895FB01668177810E94961B78
:1037A0000895FC0120813181428153812070307F56
:1037B0005070BCE05695479537952795BA95D1F747
:1037C000C90108950F931F93CF93DF938C01DA0102
:1037D000EC0118A2EC81E260EE7FEC8370956195BC
:1037E0007F4F67707070762F66277295707FBF70FD
:1037F0006A2B7B2B80E090E0ECE0660F771F881F40
:10380000991FEA95D1F740E050E03F70407050704A
:103810005061622B732B842B952BF801608371838D
:10382000828393831582DF91CF911F910F91089529
:10383000FC0180819181A281B381B3FF02C020E0AD
:1038400011C020E08070907FB7703CE0B695A795DE
:10385000979587953A95D1F78070907780509044EE
:1038600008F021E0822F0895FC0110A2248122603B
:103870002E7F248380E090E07F708070907080675E
:103880009061608371838283938386E0858308954A
:10389000FC01208131814281538153FF02C080E0CD
:1038A000089580E02070307F57706CE05695479502
:1038B000379527956A95D1F72050374009F481E074
:1038C0000895FC01208131814281538153FF02C060
:1038D00080E0089580E02070307F57707CE056953E
:1038E0004795379527957A95D1F72350374009F4B6
:1038F00081E00895FC01208131814281538153FF91
:1039000002C080E0089580E02070307F5770ECE0C6
:103910005695479537952795EA95D1F72150374029
:1039200009F481E00895FC012081318142815381B5
:1039300053FF02C080E0089580E02070307F507017
:10394000FCE05695479537952795FA95D1F7225083
:10395000374009F481E00895CF92DF92EF92FF9211
:103960000F931F937C01FB01690186819781F70109
:1039700010A2248122602E7F24831582A0E0B0E073
:103980009F70A070B0709068A660B96180839183C9
:10399000A283B383FA0166817781C7010E94961BD7
:1039A00086E0F7018583FFE0DF22F701D086C1863C
:1039B000128703871F910F91FF90EF90DF90CF90B8
:1039C0000895FC01208131814281538153FD02C061
:1039D00080E0089580E02070307F50709CE0569524
:1039E0004795379527959A95D1F7245B354009F48B
:1039F00081E00895FC01208131814281538153FD92
:103A000002C080E0089580E02070307F50706CE04C
:103A100056954795379527956A95D1F7245935409E
:103A200009F481E00895AC01FB0186819781FA01D8
:103A300010A2248122602E7F24831582A0E0B0E0B2
:103A40009F70A070B070A964B96180839183A283D4
:103A5000B3830895FC01208131814281538153FD5C
:103A600002C080E0089580E02070307F5070ECE06C
:103A70005695479537952795EA95D1F720593440C3
:103A800009F481E00895FC01208131814281538154
:103A900053FD02C080E0089580E02070307F5070B8
:103AA000FCE05695479537952795FA95D1F7285814
:103AB000344009F481E00895FC0180819181A28164
:103AC000B381B3FD02C080E008958070907FB07034
:103AD0002CE0B695A795979587952A95D1F7FC0187
:103AE00084E0E039F80711F481E0089580E0E858B7
:103AF000F44009F481E00895FC0120813181428184
:103B0000538153FD02C080E0089580E02070307F33
:103B100050706CE056954795379527956A95D1F783
:103B20002057314009F481E00895FC012081318162
:103B30004281538153FD02C080E0089580E02070EF
:103B4000307F50707CE056954795379527957A954C
:103B5000D1F7245F384009F481E00895FC01208109
:103B600031814281538153FD02C080E0089580E09D
:103B70002070307F5070ECE056954795379527952B
:103B8000EA95D1F72451394009F481E00895FC0108
:103B9000208131814281538153FD02C080E008952C
:103BA00080E02070307F5070ACE056954795379597
:103BB0002795AA95D1F72856394009F481E0089550
:103BC000FC0180819181A281B381B3FD02C080E0BC
:103BD00008958070907FB0702CE0B695A79597956A
:103BE00087952A95D1F7FC0189E0E037F80711F4B1
:103BF00081E0089580E0E856F94009F481E00895F5
:103C0000FC0180819181A281B381B3FD02C080E07B
:103C1000089580709070A070B7702B2F33274427C1
:103C20005527223031054105510591F023303105EA
:103C30004105510569F0243031054105510541F038
:103C400080E0253031054105510519F481E00895E2
:103C500081E00895AF92BF92CF92DF92EF92FF92F0
:103C60000F931F93FC01E080F1800281138113FF09
:103C70004BC0D801C70180709070A070B770AB2E98
:103C8000BB24CC24DD2481E0A816B104C104D104F6
:103C9000F9F480E090EFAFEFB0E0E822F9220A23D8
:103CA0001B235CE016950795F794E7945A95D1F796
:103CB000C70188709070892B39F18581823020F19D
:103CC000968180E0278130E0282B392B3F701EC081
:103CD000CF010E94001E882331F497E0A916B10499
:103CE000C104D10489F480E090EFAFEFB0E0E822A6
:103CF000F9220A231B234CE016950795F794E794C5
:103D00004A95D1F7970102C020E030E0C9011F9128
:103D10000F91FF90EF90DF90CF90BF90AF900895FC
:103D20000F931F938B010E942A1EF80186839783AD
:103D30001F910F910895FC012081318142815381AF
:103D400053FD02C080E0089580E020703070407024
:103D50005770205030404040554009F481E00895AC
:103D6000FC01208131814281538153FD02C080E0FA
:103D7000089580E0207030704070577020503040BF
:103D80004040534009F481E00895FC0120813181D5
:103D90004281538153FD02C080E0089580E020708D
:103DA000307040705770205030404040524009F40D
:103DB00081E008950F931F938C01FB018681978109
:103DC000F80110A2248122602E7F24831582A0E0B6
:103DD000B0E09F70A070B070BA6180839183A283BD
:103DE000B383FA0166817781C8010E94961B1F91F7
:103DF0000F9108950F931F938C01FB01868197818A
:103E0000F80110A2248122602E7F24831582A0E075
:103E1000B0E09F70A070B070BB6180839183A2837B
:103E2000B383FA0166817781C8010E94961B1F91B6
:103E30000F9108950F931F938C01FB018681978149
:103E4000F80110A2248122602E7F24831582A0E035
:103E5000B0E09F70A070B070BC6180839183A2833A
:103E6000B383FA0166817781C8010E94961B1F9176
:103E70000F9108950F931F938C01FB018681978109
:103E8000F80110A2248122602E7F24831582A0E0F5
:103E9000B0E09F70A070B070BD6180839183A283F9
:103EA000B383FA0166817781C8010E94961B1F9136
:103EB0000F910895FC01208131814281538153FD8E
:103EC00002C080E0089580E02070307F50707CE078
:103ED00056954795379527957A95D1F728523A40C8
:103EE00009F481E008950F931F938C01FB018681F3
:103EF0009781F80110A2248122602E7F24831582ED
:103F0000A0E0B0E09F70A070B0709068A26AB96144
:103F100080839183A283B383FA0166817781C8018C
:103F20000E94961B1F910F910895FC012081318101
:103F30004281538153FD02C080E0089580E02070EB
:103F4000307F5070ECE05695479537952795EA9568
:103F5000D1F728543A4009F481E00895EF92FF9296
:103F60000F931F938C01FB01790186819781F801E2
:103F700010A2248122602E7F24831582A0E0B0E06D
:103F80009F70A070B0709068A46AB96180839183BB
:103F9000A283B383FA0166817781C8010E94961BD0
:103FA00084E0F8018583F086E1861F910F91FF90F0
:103FB000EF900895FC018581833018F420E030E013
:103FC00006C0978180E0208530E0282B392BC9017D
:103FD0000895FC01208131814281538153FD02C04B
:103FE00080E0089580E02070307F5070FCE05695AE
:103FF000479537952795FA95D1F72852384009F417
:1040000081E008950F931F938C01FB0186819781B6
:10401000F80110A2248122602E7F24831582A0E063
:10402000B0E09F70A070B0709068A666B9618083A0
:104030009183A283B383FA0166817781C8010E94CC
:10404000961B1F910F910895FC01208131814281BF
:10405000538153FD02C080E0089580E02070307FDE
:104060005070BCE05695479537952795BA95D1F78E
:10407000285E3D4009F481E008950F931F938C0161
:10408000FB0186819781F80110A2248122602E7F96
:1040900024831582A0E0B0E09F70A070B07090689B
:1040A000A06AB96180839183A283B383FA01668198
:1040B0007781C8010E94961B1F910F910895DC0122
:1040C0001696FB0188E001900D928150E1F708956A
:1040D0000F931F938C01FB0186819781F80110A239
:1040E000248122602E7F2483A0E0B0E09F70A07026
:1040F000B0709067A465B96180839183A283B38314
:1041000088E08583C801BA010E945F201F910F914A
:1041100008950F931F938C01FB0186819781F8010D
:1041200010A2248122602E7F2483A0E0B0E09F7043
:10413000A070B0709067AC64B96180839183A283F2
:10414000B38388E08583C801BA010E945F201F9174
:104150000F9108950F931F938C01FB018681978126
:10416000F80110A2248122602E7F2483A0E0B0E019
:104170009F70A070B0709064A965B96180839183CD
:10418000A283B38388E08583C801BA010E945F20BF
:104190001F910F9108950F931F938C01FB0186814E
:1041A0009781F80110A2248122602E7F2483A0E051
:1041B000B0E09F70A070B0709064AB65B96180830F
:1041C0009183A283B38388E08583C801BA010E94EA
:1041D0005F201F910F910895FC01DB0116968D91D0
:1041E0009C91179710A2248122602E7F2483A0E047
:1041F000B0E09F70A070B070A761B96180839183B7
:10420000A283B38386E085833696DB010D9001920D
:104210008150E1F70895FC01DB0116968D919C9188
:10422000179710A2248122602E7F2483A0E0B0E0A3
:104230009F70A070B070A964B96180839183A283DC
:10424000B38386E085833696DA0186E00D9001928D
:104250008150E1F708958F929F92AF92BF92CF92D3
:10426000DF92EF92FF920F931F93CF93DF93EC01B6
:10427000962E872E8D81863008F48BC0E880F980D9
:104280000A811B81A12CB12CC12C68E0D62EAE2056
:10429000BF20C022D12213FF76C0D801C701807091
:1042A000907FB0705CE0B695A795979587955A95E5
:1042B000D1F78050914009F066C043C0A114B10409
:1042C000C104D10489F0D801C7018070907FB0701B
:1042D0004CE0B695A795979587954A95D1F7805765
:1042E000914009F056C02DC0D801C7018070907F61
:1042F000B7703CE0B695A795979587953A95D1F715
:10430000A7E081309A0779F18350974061F180E00E
:1043100090EFAFEFB0E0E822F9220A231B232CE054
:1043200016950795F794E7942A95D1F792E0E91648
:1043300097E0F90671F517C0A114B104C104D104C6
:1043400091F0D801C70180709070A070B770805054
:104350009040A040B14039F4C70180709078892B1B
:1043600011F082E001C080E0E82FF0E03696892D60
:10437000982D9C01D901EC0FFD1F86E001900D9254
:104380008150E1F706C0CE010E945C1D8823A1F692
:1043900095CFDF91CF911F910F91FF90EF90DF901C
:1043A000CF90BF90AF909F908F900895DB01FC015C
:1043B000369688E001900D928150E1F70895FC0156
:1043C000DB0116968D919C91179710A22481226093
:1043D0002E7F2483A0E0B0E09F70A070B070A06139
:1043E000B96180839183A283B38386E08583369607
:1043F000DB010D9001928150E1F70895FC01DB0192
:1044000016968D919C91179710A2248122602E7F81
:104410002483A0E0B0E09F70A070B0709061A067AE
:10442000B06180839183A283B38386E085833696CF
:10443000DB010D9001928150E1F70895FC01DB0151
:1044400016968D919C91179710A2248122602E7F41
:104450002483A0E0B0E09F70A070B0709063A0676C
:10446000B06180839183A283B38386E0858336968F
:10447000DB010D9001928150E1F7089580E00895ED
:10448000DF93CF93CDB7DEB729970FB6F894DEBF91
:104490000FBECDBFDC01198681E089838A831B8230
:1044A0001C821D821E828EEF8F831886ED91FC91F7
:1044B00011970288F389E02DCD01AE014F5F5F4F68
:1044C000099529960FB6F894DEBF0FBECDBFCF91E8
:1044D000DF910895FC01EF58FF4F80810895FC01A2
:1044E000EF58FF4F108208950F931F93CF93DF93E0
:1044F000EC010E94E6338823A9F08E010C5F1F4F68
:10450000C8010E94DB348823D9F3DE019596FE01B1
:10451000349681E201900D928150E1F7CB5BDF4F41
:1045200081E08883DF91CF911F910F9108950F93C0
:104530001F93CF93DF93EC01162F072F0E94E633D2
:10454000882389F0DE011496812F902F9C01F901B8
:1045500081E201900D928150E1F7CE010E94742218
:104560008823D9F381E0DF91CF911F910F910895B6
:104570000F931F93CF93DF93DC018B017C9160E05D
:1045800040E050E02BC0EA0129961196ED91FC9194
:104590001297E40FF51F26813781F80186819781F4
:1045A00028173907C9F41396ED91FC911497E60F7B
:1045B000F11D80818F3F11F08F5F80831196ED9107
:1045C000FC911297D801E40FF51F86E001900D923F
:1045D0008150E1F781E005C06F5FAE01671798F287
:1045E00080E0DF91CF911F910F910895EF92FF929C
:1045F0000F931F93CF93DF93EC01DB0116960D9180
:104600001C9117970115110509F460C0E88040E07E
:104610005FEFFF2420E030E03DC0642F70E0FC013C
:10462000E20FF31F86819781009721F08017910791
:1046300019F54CC090818C919817F1F491811196E5
:104640008C9111979817C1F4928112968C911297C0
:10465000981791F4938113968C911397981761F49E
:10466000948114968C911497981731F4958115962E
:104670008C911597981751F1EB81FC81E60FF71F8C
:10468000E081E51710F0E52F01C0F42E4F5F275FA2
:104690003F4F5E2F89819A814E1508F4BECF2F2D92
:1046A00030E0F90143E0EE0FFF1F4A95E1F7E20F1A
:1046B000F31FE80FF91F89E00D9001928150E1F797
:1046C000EB81FC81E20FF31F81E08083DF91CF91CA
:1046D0001F910F91FF90EF900895EF92FF920F932B
:1046E0001F937C018B010E942832F801668177813B
:1046F000C7018A5B9F4F0E9476171F910F91FF9011
:10470000EF900895EF92FF920F931F937C018B011E
:104710000E941B32F80166817781C7018A5B9F4F37
:104720000E944B161F910F91FF90EF900895EF920A
:10473000FF920F931F93CF93DF937C01EB018A01CC
:104740000E94E633882361F0C7010496BE01A801E8
:104750000E946820C7010E9474228823D9F381E057
:10476000DF91CF911F910F91FF90EF900895EF92FD
:10477000FF920F931F93CF93DF937C01EB018A018C
:104780000E94E633882361F0C7010496BE01A801A8
:104790000E94AA20C7010E9474228823D9F381E0D5
:1047A000DF91CF911F910F91FF90EF900895EF92BD
:1047B000FF920F931F93CF93DF937C01EB018A014C
:1047C0000E94E633882361F0C7010496BE01A80168
:1047D0000E948920C7010E9474228823D9F381E0B6
:1047E000DF91CF911F910F91FF90EF900895EF927D
:1047F000FF920F931F93CF93DF937C01EB018A010C
:104800000E94E633882361F0C7010496BE01A80127
:104810000E94CB20C7010E9474228823D9F381E033
:10482000DF91CF911F910F91FF90EF9008950F931B
:104830001F93CF93DF938C01EB010E94E633882313
:1048400059F0C8010496BE010E94FE21C8010E94D1
:1048500074228823D9F381E0DF91CF911F910F91CA
:1048600008950F931F93CF93DF938C01EB010E9468
:10487000E633882359F0C8010496BE010E941E2227
:10488000C8010E9474228823D9F381E0DF91CF917F
:104890001F910F9108950F931F93CF93DF938C0176
:1048A000EB010E94E633882359F0C8010496BE014B
:1048B0000E94EC20C8010E9474228823D9F381E071
:1048C000DF91CF911F910F910895CF92DF92EF92D8
:1048D000FF920F931F93CF93DF936C01EB018A013B
:1048E00079010E94E633882369F0C6010496BE016F
:1048F000A80197010E94AE1FC6010E94742288235E
:10490000D9F381E0DF91CF911F910F91FF90EF904C
:10491000DF90CF900895EF92FF920F931F93CF9364
:10492000DF937C01EB018A010E94E633882361F06A
:10493000C7010496BE01A8010E94731FC7010E940F
:1049400074228823D9F381E0DF91CF911F910F91D9
:10495000FF90EF9008950F931F93CF93DF93EC0197
:104960008B01C759DF4F88819981C956D040892B67
:1049700051F5CD59DF4F8881C356D040882319F5B2
:10498000CC59DF4F8881C456D0408823E1F4CB59FD
:10499000DF4F8881C556D0408823A9F4CA59DF4F1C
:1049A0008881C656D040882371F4C959DF4F888169
:1049B000C756D040882339F4C859DF4F8881C8567C
:1049C000D040882371F10E942836C459DF4F2881D6
:1049D00039814A815B81CC56D040621B730B840BBA
:1049E000950B605D774080409040D8F414C0CE01B4
:1049F0000496B8010E94131DCE010E9474228823E0
:104A0000D9F30E942836C459DF4F688379838A839B
:104A10009B8381E001C080E0DF91CF911F910F91D6
:104A200008950E94E6338823B1F3E1CFEF92FF921D
:104A30000F931F93CF93DF93EC018B01F42EE52EA0
:104A4000C759DF4F88819981C956D040892B59F5C4
:104A5000CD59DF4F8881C356D040882321F5CC59EA
:104A6000DF4F8881C456D0408823E9F4CB59DF4F0B
:104A70008881C556D0408823B1F4CA59DF4F888158
:104A8000C656D040882379F4C959DF4F8881C7566C
:104A9000D040882341F4C859DF4F8881C856D040A0
:104AA000882309F43EC00E942836C459DF4F28816C
:104AB00039814A815B81CC56D040621B730B840BD9
:104AC000950B605D77408040904058F522C0DE0134
:104AD000AD59BF4F8F2D9E2D9C01F90189E00190AA
:104AE0000D928150E1F7CE010496B8014F2D5E2D55
:104AF0000E940B21CE010E9474228823D9F30E94C8
:104B00002836C459DF4F688379838A839B8381E089
:104B100001C080E0DF91CF911F910F91FF90EF9046
:104B200008950E94E6338823A1F3D1CFFF920F931B
:104B30001F93CF93DF938C01EB01F42E8F8598891F
:104B4000892B09F04CC0025A1F4FD8015C910E55B9
:104B5000104040E020E030E0D801A15ABF4F3CC0F7
:104B6000ED91FC911197E20FF31F908189859817C1
:104B700081F591818A85981761F592818B859817C7
:104B800041F593818C85981721F594818D8598172F
:104B900001F595818E859817E1F40F591F4FD801C3
:104BA000ED91FC9101561040E40FF11D80818F3F83
:104BB00011F08F5F8083015A1F4FD801ED91FC9156
:104BC0000F551040E20FF31F86819781988B8F87D6
:104BD00006C04F5F275F3F4F451710F257C08A89C5
:104BE000FF2091F498012C5F3F4FAE01475F5F4F6C
:104BF000893028F0C901BE010E94FA1E19C0C901FE
:104C0000BE010E94DA1E14C090E08F19910998012C
:104C10002C5F3F4FAE01475F5F4F09972CF0C901F2
:104C2000BE010E941A1F04C0C901BE010E943A1FA2
:104C30004F2D50E08A8990E0841B950B89309105B7
:104C400014F088E090E0F82EF801818790E04C0F96
:104C50005D1F0BC0E92FF0E0D801AE0FBF1FE40FBE
:104C6000F51F83891A968C939F5FD80119968C91B2
:104C7000981780F3C8010E9474228823D9F38F2DDE
:104C8000DF91CF911F910F91FF900895D801ED9181
:104C9000FC910484F585E02DC801BE012996AE0182
:104CA0000995FF24ECCF2F923F924F925F926F9223
:104CB0007F928F929F92AF92BF92CF92DF92EF92AC
:104CC000FF920F931F93DF93CF93CDB7DEB7299752
:104CD0000FB6F894DEBF0FBECDBF7C0118861F82D1
:104CE000198619821A821B821C821D821E828C01E7
:104CF0000B5D1F4FC8010E945C1D882339F0C7015E
:104D00008A5B9F4FB8010E9403185FC1C8010E94CF
:104D10007C1D882309F46DC0C8013E010894611C04
:104D2000711CB3010E94551BC801B3010E942B21C5
:104D30008F819885892B09F446C1F3E62F2E312CFB
:104D40002E0C3F1C9981D1018C91981709F03DC11F
:104D5000E4E64E2E512C4E0C5F1C9A81F2018081AC
:104D6000981709F032C175E6872E912C8E0C9F1C86
:104D70009B81D4018C91981709F027C166E6A62E75
:104D8000B12CAE0CBF1C9C81F5018081981709F0F5
:104D90001CC157E6C52ED12CCE0CDF1C9D81D6013F
:104DA0008C91981709F011C1870108591F4F9E81F6
:104DB000F8018081981709F008C1C701825A9F4FF6
:104DC000B3010E94F62289E690E0E80EF91ED701B1
:104DD0001D921D92FD011082F1011082D2011C92E0
:104DE000F4011082D5011C92F6011082D8011C92A8
:104DF000ECC0C8010E94931C882371F0C8018E0189
:104E00000F5F1F4FB8010E942B21C7018A5B9F4F84
:104E1000B8010E94B717D9C0C8010E94611C88233D
:104E200009F45BC0C801BE016F5F7F4F0E94551B34
:104E3000C8010E94171BBC01EEE5F0E0EE0EFF1E5C
:104E4000D7015C91E2EAFFEFEE0EFF1E40E020E0AA
:104E500030E0D701A15ABF4F25C0ED91FC911197C9
:104E6000E20FF31F275F3F4F8681978186179707D1
:104E7000C1F4178216821086108211821282138268
:104E80001482158281E690E0E80EF91ED701ED91BB
:104E9000FC918FE99FEFE80EF91EE40FF11D1082DF
:104EA00003C04F5F4517C8F2D7011296ED90FC90F2
:104EB00013978E010F5F1F4F0CC0D701ED91FC912E
:104EC0000480F581E02DC701B8010995F701E28062
:104ED000F380E114F10489F778C0C8010E947A1CBC
:104EE000882309F470C0C801BE016F5F7F4F0E9424
:104EF0002B218F819885892B99F48981882381F4CE
:104F00008A81882369F48B81882351F48C818823DA
:104F100039F48D81882321F48E81882309F46FC0B0
:104F2000C8010E94171B98878F83C701825A9F4F21
:104F3000BE016F5F7F4F0E94F62247C0ED91FC914A
:104F40001197E20FF31F275F3F4F868197818617E6
:104F50009707C1F41782168210861082118212827E
:104F600013821482158281E690E0E80EF91ED701C3
:104F7000ED91FC918FE99FEFE80EF91EE40FF11D12
:104F8000108203C04F5F4517C8F2D7011296ED900B
:104F9000FC9013976E010894C11CD11C10C0C8016D
:104FA000B6010E94551BD701ED91FC910480F5815B
:104FB000E02DC701B6010995F701E280F380E11405
:104FC000F10469F702C080E001C081E029960FB6C4
:104FD000F894DEBF0FBECDBFCF91DF911F910F912F
:104FE000FF90EF90DF90CF90BF90AF909F908F9009
:104FF0007F906F905F904F903F902F900895C801E1
:105000000E94171BBC018EE590E0E80EF91ED70147
:105010005C91E2EAFFEFEE0EFF1E40E020E030E0A0
:10502000D701A15ABF4FAFCFCF92DF92EF92FF923D
:105030000F931F93CF93DF936C018B01EA017901EA
:105040000E94E633882379F0C6010496B801AE01C8
:10505000970100E010E00E94AC1CC6010E9474227F
:105060008823D9F381E0DF91CF911F910F91FF90B9
:10507000EF90DF90CF9008957F928F929F92AF92A2
:10508000BF92CF92DF92EF92FF920F931F93DF9325
:10509000CF93CDB7DEB729970FB6F894DEBF0FBE1A
:1050A000CDBF6C01B5E28B2E912C880E991E8A5BC8
:1050B0009F4FB4010E94B31AC6010E945326882351
:1050C00009F08BC018861F82198619821A821B82EA
:1050D0001C821D821E82C4018E010F5F1F4FB8010A
:1050E0000E94551BAEE5EA2EF12CEC0CFD1CC7010D
:1050F000B8010E94B822882321F0C401B8010E949F
:105100001D1BC4018E010F5F1F4FB8010E94901E2E
:10511000892B59F0C701B8010E94B822882371F089
:10512000C401B8010E94CB1B09C018861F821986D2
:1051300019821A821B821C821D821E82D60112963F
:105140000D911C9113977724AA24BB2422C02F8190
:1051500038852115310559F0F801E680F780D7012F
:1051600016968D919C9117972817390709F07501AC
:10517000D801ED91FC910280F381E02DC801B401CA
:105180000995882311F077247394F8010281138123
:10519000570101151105D9F625E430E0C20ED31EE2
:1051A000D6018C91EBEBFFEFCE0EDF1E8823A9F426
:1051B000A114B10491F0772081F4C4018E010F5F36
:1051C0001F4FB8010E94551BC4010E94D11B9C01B6
:1051D000C601B501A8010E94142829960FB6F894BB
:1051E000DEBF0FBECDBFCF91DF911F910F91FF901A
:1051F000EF90DF90CF90BF90AF909F908F907F9077
:1052000008950F931F93CF93DF93EC018C010B5BF9
:105210001F4FF8018081882329F0CE010E943C288D
:10522000F8011082CE0185960E943F34882371F0E8
:10523000CB5BDF4F1882C554D040CE010E943C2882
:10524000CF58DF4F81E08883C157D040CE018A5BC1
:105250009F4F0E94BC18CE010E944A32DF91CF912D
:105260001F910F9108950F931F93CF93DF938C019C
:10527000EB010E94E633882359F0C8010496BE0171
:105280000E94DF21C8010E9474228823D9F381E0A3
:10529000DF91CF911F910F9108950F931F93CF939B
:1052A000DF93EC018B010E94E6338823A9F0F8011B
:1052B00066817781CE0104960E94341CDE011A9625
:1052C000F80186E001900D928150E1F7CE010E9435
:1052D00074228823D9F381E0DF91CF911F910F9140
:1052E0000895EF92FF921F93CF93DF937C01EB0120
:1052F000142F0E94E6338823D1F1123059F0133075
:1053000081F01130D9F4898182958F70482F50E057
:1053100088810DC0998180E0AC0140705F708A8106
:1053200013C08C8182958F70482F50E08B8190E064
:1053300024E0880F991F2A95E1F709C09C8180E03D
:10534000AC0140705F708D8190E08F709070482B41
:10535000592B2E813F81C7010496612F70E00E9476
:10536000E21BC7010E9474228823D9F381E0DF91F8
:10537000CF911F91FF90EF900895EF92FF920F93BE
:105380001F93CF93DF93EC0184E00E947F33882347
:1053900009F45FC090E0892F8295807F8093ED00B3
:1053A0008091F40081608093F4009F5F9F3099F7B3
:1053B000CE018A5B9F4FBE010E94AC186EE5E62EBF
:1053C000F12CEC0EFD1E8AE0F70180838AE590E067
:1053D0000E9434048E01015A1F4FF801808391838B
:1053E000F701808190E00E943404FE01EF59FF4FE5
:1053F0008083918340E0B701D801EF0125C0242FBD
:1054000030E0C90153E0880F991F5A95E1F7820FE8
:10541000931FED91FC911197E80FF91F17821682E7
:105420001086108211821282138214821582ED91ED
:10543000FC911197E80FF91F17821682E881F98114
:10544000E20FF31F10824F5FFB0180814817B8F213
:1054500081E0DF91CF911F910F91FF90EF90089520
:1054600080E090E008950895CF93DF93EC01DB0195
:1054700088858823A1F5E889F98916962D913C91B4
:1054800017972115310541F086819781009721F00A
:105490002817390711F123C09C9180819817F9F4DE
:1054A00011969C91119781819817C9F412969C913D
:1054B00012978281981799F413969C911397838180
:1054C000981769F414969C9114978481981739F46D
:1054D00015969C918581981711F481E08887DF915A
:1054E000CF9108950F931F93CF93DF93EC01EE813B
:1054F000FF81309709F49FC08085882309F49BC001
:105500008D8D9E8D2FEF8F3F920761F18E010C5E86
:105510001F4F805F9F4F81F4AC81BD81ED91FC9165
:1055200011976E817F810688F789E02DCD01A80152
:105530000995882389F311C0AC81BD81ED91FC915F
:1055400011976E817F812D8D3E8D008CF18DE02D28
:10555000CD01A8010995882379F38FEF9FEF9E8FE6
:105560008D8F69C08E858823C9F1AC81BD81ED9195
:10557000FC9111976A897B890488F589E02DCD011A
:105580004F850995182F882309F048C00E942836B6
:105590002A853B854C855D85621B730B840B950BBF
:1055A0006958734180409040C8F181E089871E8628
:1055B000E881F9810084F185E02DCE0160E041E0D1
:1055C00050E12AC01E861F860E9428366A877B8784
:1055D0008C879D8730C0410F4F872DC089858823D8
:1055E00051F50E9428362A853B854C855D85621BD6
:1055F000730B840B950B6958734180409040D8F031
:1056000081E089871E86E881F9810084F185E02D9B
:10561000CE0160E042E050E109950DC04F85242F96
:1056200030E0210F311DEA89FB89828990E028173B
:10563000390789F6C7CFDF91CF911F910F91089558
:10564000CF93DF93EC01DC015496FB0189E00190DC
:105650000D928150E1F780EF9FEF9E8F8D8FDF914C
:10566000CF910895CF93DF93EC01DC015496FB01B9
:1056700089E001900D928150E1F75E8F4D8FDF91AF
:10568000CF910895CF93DF93EC0189858823A1F111
:1056900019862A893B89C901DC01FB018BE5019050
:1056A0000D928150E1F7AA89BB89EE81FF81868145
:1056B000978117969C938E93169780818C93818106
:1056C00011968C931197828112968C9312978381F5
:1056D00013968C931397848114968C9314978581D9
:1056E00015968C9381E08E871F860E9428366A87E4
:1056F0007B878C879D8781E0DF91CF910895BF9252
:10570000CF92DF92EF92FF920F931F93DF93CF938D
:10571000CDB7DEB762970FB6F894DEBF0FBECDBF30
:105720008C017B01DC011696ED91FC911797309767
:1057300009F4C3C18085882309F4BFC1CB010E944D
:10574000001E882309F0BEC0C7010E945A1F88238B
:1057500009F451C018861F82198619821A821B8289
:105760001C821D821E82C701BE016F5F7F4F0E9497
:10577000901ED8011696ED91FC911797309709F479
:105780009CC12F8138852115310541F08681978193
:10579000009721F028173907F9F08FC1998180818E
:1057A000981709F08AC19A818181981709F085C1FB
:1057B0009B818281981709F080C19C818381981711
:1057C00009F07BC19D818481981709F076C19E8183
:1057D0008581981709F071C1D801ED91FC91008481
:1057E000F185E02DC80161E040E050E0099581E0DD
:1057F000F801818765C1C7010E94951F882309F4BC
:105800005CC118861F82198619821A821B821C822B
:105810001D821E82C701BE016F5F7F4F0E94901ED6
:10582000D8011696ED91FC911797309709F445C170
:105830002F8138852115310541F0868197810097A8
:1058400021F028173907F9F038C19981808198171C
:1058500009F033C19A818181981709F02EC19B818B
:105860008281981709F029C19C818381981709F0DA
:1058700024C19D818481981709F01FC19E81858173
:10588000981709F01AC1C7010E94DA1FAC0195FFF1
:1058900005C081E0F801868717860AC0D8011E96E8
:1058A0001C921E971F961C921F9781E019968C934D
:1058B000D801ED91FC910084F185E02DC80160E0F4
:1058C0000995FDC0198A188A1A8A1A861B861C86B1
:1058D0001D861E861F86C701BE01665F7F4F0E9420
:1058E000901ED8011696ED91FC911797309709F408
:1058F000E4C0288939892115310549F086819781CD
:10590000009729F02817390709F4EAC0D6C09A850C
:105910008081981709F0D1C09B858181981709F083
:10592000CCC09C858281981709F0C7C09D85838172
:10593000981709F0C2C09E858481981709F0BDC0F0
:105940009F858581981709F0B8C0CAC0F801808585
:10595000882309F03FC0C7010E94C51E882329F093
:10596000D80118968C918823A9F5D8015096ED910D
:10597000FC915197288939892115310541F086819B
:105980009781009721F028173907F9F0BFC09A8551
:105990008081981709F0BAC09B858181981709F01A
:1059A000B5C09C858281981709F0B0C09D85838120
:1059B000981709F0ABC09E858481981709F0A6C09E
:1059C0009F858581981709F0A1C0F80180858823FB
:1059D00009F09CC0C7010E94B01E882329F4C701AA
:1059E0000E94C51E882381F0D80118961C92189732
:1059F0005096ED91FC915197128A50966D917C9141
:105A00005197C7010E94551B8C2D9B2D9C0190E046
:105A10000AC08289E90FF11DE80FF11DD9018D91AE
:105A20009D01838B9F5FD8015096ED91FC9151971A
:105A30009D1578F382898D0D828BC7010E949B1E74
:105A4000882329F4C7010E94C51E8823C1F1D8010B
:105A5000ED91FC910680F781E02DC8010995AC011C
:105A6000D8015096ED91FC915197BFEF803F9B0775
:105A700029F4C801BF010E94202B04C0C801BF0146
:105A80000E94322B81E0F80180871AC0C7010E9472
:105A9000C51E8823A1F0D80118968C91BE01665FBF
:105AA0007F4F882321F0C80140E050E603C0C801C1
:105AB00040E050E20E94322B02C080E001C081E051
:105AC00062960FB6F894DEBF0FBECDBFCF91DF91C7
:105AD0001F910F91FF90EF90DF90CF90BF900895AE
