:100000000C9447030C9472030C9472030C947203C7
:100010000C9472030C9472030C9472030C9472038C
:100020000C9472030C9472030C9472030C9472037C
:100030000C9472030C9472030C9472030C9472036C
:100040000C9472030C943F330C9443300C9439306D
:100050000C9472030C9472030C9472030C9472034C
:100060000C9472030C9472030C9472030C9472033C
:100070000C9472030C9472030C9472030C9472032C
:100080000C9472030C9472030C9472030C9472031C
:100090000C9472033C3F786D6C2076657273696FC7
:1000A0006E3D27312E302720656E636F64696E6761
:1000B0003D275554462D38273F3E3C3F786D6C2DEB
:1000C0007374796C65736865657420747970653DC7
:1000D00027746578742F78736C2720687265663D85
:1000E0002778736C742F6364692E78736C273F3E96
:1000F0003C63646920786D6C6E733A7873693D2750
:10010000687474703A2F2F7777772E77332E6F724B
:10011000672F323030312F584D4C536368656D6115
:100120002D696E7374616E636527207873693A6E0A
:100130006F4E616D657370616365536368656D6172
:100140004C6F636174696F6E3D27687474703A2FE9
:100150002F6F70656E6C63622E6F72672F7472758D
:100160006E6B2F70726F746F74797065732F786D0A
:100170006C2F736368656D612F6364692E78736497
:10018000273E3C6964656E74696669636174696F72
:100190006E3E3C6D616E7566616374757265723E2C
:1001A0005261696C7374617273204C696D69746516
:1001B000643C2F6D616E7566616374757265723E25
:1001C0003C6D6F64656C3E496F3C2F6D6F64656C70
:1001D0003E3C686172647761726556657273696FDF
:1001E0006E3E312E303C2F686172647761726556C5
:1001F000657273696F6E3E3C736F6674776172658A
:1002000056657273696F6E3E312E343C2F736F6684
:10021000747761726556657273696F6E3E3C2F69C3
:1002200064656E74696669636174696F6E3E3C7380
:1002300065676D656E74206F726967696E3D273101
:10024000303238272073706163653D27323533279C
:100250003E3C67726F7570206F66667365743D27EC
:1002600030273E3C6E616D653E5573657220496472
:10027000656E74696669636174696F6E3C2F6E6147
:100280006D653E3C6465736372697074696F6E3E40
:1002900041646420796F7572206F776E2064657396
:1002A0006372697074697665206E616D6520616E38
:1002B00064206465736372697074696F6E20666F21
:1002C000722074686973206E6F64652E3C2F6465BC
:1002D000736372697074696F6E3E3C737472696E99
:1002E000672073697A653D273332273E3C6E616D26
:1002F000653E4E6F6465204E616D653C2F6E616D8D
:10030000653E3C2F737472696E673E3C737472690C
:100310006E672073697A653D273634273E3C6E61EF
:100320006D653E4E6F6465204465736372697074D9
:10033000696F6E3C2F6E616D653E3C2F7374726900
:100340006E673E3C2F67726F75703E3C2F7365671A
:100350006D656E743E3C7365676D656E74206F727B
:100360006967696E3D2734272073706163653D2797
:10037000323533273E3C67726F7570207265706C42
:1003800069636174696F6E3D2738273E3C6E616D0D
:10039000653E496E707574733C2F6E616D653E3CB1
:1003A0007265706E616D653E496E7075743C2F723A
:1003B00065706E616D653E3C737472696E67207323
:1003C000697A653D27313627206F66667365743D0F
:1003D00027323630273E3C6E616D653E446573635F
:1003E00072697074696F6E3C2F6E616D653E3C2F53
:1003F000737472696E673E3C6576656E74696420DD
:100400006F66667365743D272D32373627203E3C74
:100410006E616D653E41637469766174696F6E20CB
:100420004576656E743C2F6E616D653E3C2F65763A
:10043000656E7469643E3C6576656E7469643E3CC5
:100440006E616D653E496E61637469766174696F52
:100450006E204576656E743C2F6E616D653E3C2F57
:100460006576656E7469643E3C2F67726F75703E89
:100470003C67726F7570207265706C696361746936
:100480006F6E3D2738273E3C6E616D653E4F75743B
:10049000707574733C2F6E616D653E3C7265706E55
:1004A000616D653E4F75747075743C2F7265706E2A
:1004B000616D653E3C737472696E672073697A651D
:1004C0003D27313627206F66667365743D273236C7
:1004D00030273E3C6E616D653E44657363726970A2
:1004E00074696F6E3C2F6E616D653E3C2F73747244
:1004F000696E673E3C6576656E746964206F6666FA
:100500007365743D272D32373627203E3C6E616D72
:10051000653E41637469766174696F6E20457665E6
:100520006E743C2F6E616D653E3C2F6576656E7412
:1005300069643E3C6576656E7469643E3C6E616DCF
:10054000653E496E61637469766174696F6E2045BA
:1005500076656E743C2F6E616D653E3C2F657665E9
:100560006E7469643E3C2F67726F75703E3C2F73EA
:1005700065676D656E743E3C2F6364693E00015291
:1005800061696C7374617273204C696D6974656420
:100590000A496F20446576656C6F70657227732019
:1005A000426F6172640A312E300A312E34007E6E41
:1005B0007F620C37260C37120C370E0C37060C37BF
:1005C000020C37000C3700002100240027002A000D
:1005D0002D003000330000002200250028002B00F1
:1005E0002E003100340000002000230026002900E6
:1005F0002C002F0032000101010101010101030360
:1006000003030303030302020202020202020404C0
:100610000404040707040505050505050505060688
:100620000606060606060707010204081020408099
:1006300001020408102040800102040810204080BC
:1006400001020408100810800102040810204080F4
:100650000102040810204080010200000000000098
:10066000000000000000000000000000000000008A
:10067000000000000000000000000000000000007A
:1006800000000000000000000000000082041124AF
:100690001FBECFEFD0E1DEBFCDBF11E0A0E0B1E0E3
:1006A000E8EFF9E600E00BBF02C007900D92AC3610
:1006B000B107D9F71BBE14E0ACE6B1E001C01D9252
:1006C000A633B107E1F716E0CEE8D6E004C02297E2
:1006D000FE010E94F634CC38D107C9F70E94B0342D
:1006E0000C94FA340C940000CF93DF93BC01823059
:1006F000910510F462E070E0A0913404B0913504EB
:10070000ED01E0E0F0E040E050E021C08881998117
:100710008617970769F48A819B81309719F0938334
:10072000828304C09093350480933404FE0134C066
:100730006817790738F44115510519F084179507A2
:1007400008F4AC01FE018A819B819C01E90120979C
:10075000E9F641155105A9F1CA01861B970B0497CB
:1007600008F4BA01E0E0F0E02AC08D919C91119765
:1007700084179507F9F46417750781F412968D9123
:100780009C911397309719F09383828304C09093C0
:10079000350480933404FD0132964CC0CA01861B97
:1007A000970BFD01E80FF91F6193719302978D93E9
:1007B0009C9340C0FD01828193819C01D9011097D7
:1007C000A1F68091320490913304892B41F48091F9
:1007D000020190910301909333048093320440917D
:1007E0000401509105014115510541F44DB75EB723
:1007F0008091000190910101481B590B2091320416
:1008000030913304CA01821B930B8617970780F03F
:10081000AB014E5F5F4F8417950750F0420F531F97
:100820005093330440933204F9016193719302C0F1
:10083000E0E0F0E0CF01DF91CF910895CF93DF9317
:10084000009709F450C0EC0122971B821A82A091F4
:100850003404B0913504109709F140E050E0AC1732
:10086000BD0708F1BB83AA83FE0121913191E20FFC
:10087000F31FAE17BF0779F48D919C911197280F44
:10088000391F2E5F3F4F3983288312968D919C919B
:1008900013979B838A834115510571F4D0933504D6
:1008A000C093340420C012968D919C911397AD0192
:1008B000009711F0DC01D3CFFA01D383C2832191D9
:1008C0003191E20FF31FCE17DF0769F48881998118
:1008D000280F391F2E5F3F4FFA01318320838A8111
:1008E0009B8193838283DF91CF910895FC010590D2
:1008F0000020E9F7809590958E0F9F1F089580E066
:10090000089508951092730110927201109274016B
:1009100010926C0110926D0110926E0110926F0195
:100920001092700110927101E5E7F1E010861082DB
:1009300011821282138214821582168217823996CE
:1009400082E0E539F80791F7109298021092970229
:100950008CE391E090939602809395021092AE0200
:100960001092AD021092AF021092A7021092A8024C
:100970001092A9021092AA021092AB021092AC023D
:100980001092B7021092B6021092B8021092B00202
:100990001092B1021092B2021092B3021092B402FD
:1009A0001092B5021092CF021092CE021092D00295
:1009B0001092C8021092C9021092CA021092CB0281
:1009C0001092CC021092CD021092D8021092D7024F
:1009D0001092D9021092D1021092D2021092D30238
:1009E0001092D4021092D5021092D6021092DB021D
:1009F0001092E6021092E5021092E3021092E202D7
:100A00001092E4021092F3021092FF021092FE0282
:100A1000109200031092F8021092F9021092FA025A
:100A20001092FB021092FC021092FD02109205033C
:100A300082E291E0909308038093070310921703DA
:100A400081E0809318038093190310921A03109287
:100A50001B03ECE1F3E088E081938F5F8031E1F7E5
:100A600082E691E0909325038093240381E08093B4
:100A70002C0380932D0310922E0310922F031092BB
:100A8000300310923103109232031092330310920C
:100A90003F0310923E0310924003109238031092CD
:100AA000390310923A0310923B0310923C031092C8
:100AB0003D038FEF9FEF90934203809341038BE5BB
:100AC00090E00E94740380933403909335038BE588
:100AD00090E00E947403809336039093370384E17F
:100AE00091E090932503809324038AE091E0909312
:100AF00046038093450382E391E0909360038093E3
:100B00005F03109295031092940310929603109233
:100B10008E0310928F031092900310929103109203
:100B200092031092930310929E0310929D031092D1
:100B30009F031092970310929803109299031092BA
:100B40009A0310929B0310929C0381EA93E060E366
:100B500040E00E94FF128DEB93E061E340E00E94D1
:100B6000FF12089585E992E00E94602685E992E0EF
:100B70000E94C91F882349F085E992E00E94CE1F98
:100B800081EA93E061E00E94DD1208950F931F93C4
:100B9000CF93DF938C01C0E0D0E0BE016650704F70
:100BA00089ED93E00E94B113F801EC0FFD1F8083E3
:100BB0002196C630D10589F7F80180818F3F81F4F5
:100BC00081818F3F69F482818F3F51F483818F3F10
:100BD00039F484818F3F21F485818F3F09F4FFCF61
:100BE000DF91CF911F910F910895EF92FF920F9394
:100BF0001F9300E0802F61E00E943C34802F60E072
:100C00000E9468340F5F0830A9F7802F60E00E94CF
:100C10003C34802F61E00E9468340F5F0031A9F7F7
:100C20008CE6E82E81E0F82EC7010E94C60505E992
:100C300012E0C8010E941C2710930C0300930B03C1
:100C4000F0920E03E0920D0387E093E065E771E018
:100C500040E20E94751084E293E0B801A70127E00A
:100C600033E00E94D30985E493E0B801A70127E0AF
:100C700033E00E947B068FE593E0B801A7010E9454
:100C8000B510C80167E073E00E94E120C80164E28A
:100C900073E00E94E120C80165E473E00E94E12056
:100CA000C8016FE573E00E94E1201F910F91FF9052
:100CB000EF900895CF93DF93FC0184819581EC013F
:100CC000A881B981668177815096ED91FC91519709
:100CD0000995DF91CF910895FC01868997890E943B
:100CE000210F64E670E080E090E00E949533E0E040
:100CF000F0E009950895EF92FF920F931F938C01F6
:100D0000FC0175836483578346838FEF82878387D3
:100D1000158A1186378B268B91EAE92E93E0F92EFE
:100D2000C70140E050E060E070E00E94D712C701C8
:100D30000E9407138091BC03F80184878DEBE82E95
:100D400083E0F82EC7014FEF50E06FEF70E00E9494
:100D5000D712C7010E9407138091D803F801858735
:100D6000868997894596918F808F1686128A1F9162
:100D70000F91FF90EF900895EF92FF921F93CF9302
:100D8000DF937C01162F81EA93E040E050E060E0C1
:100D900070E00E94D7128DEB93E041E050E060E0FC
:100DA00070E00E94D712112311F410E017C0C0E0C8
:100DB000D0E0D70156968D919C915797BE0140E0A7
:100DC0000E94BE2DF70186899789BE0140E00E94EE
:100DD000A22D2196C032D10561F7E7CF812F60E0C7
:100DE0000E9468341F5F1830C9F78FEFD7011A9639
:100DF0008C931A971B968C931B975696ED91FC91AA
:100E00005797108A18961C92DF91CF911F91FF90EF
:100E1000EF900895EF92FF920F931F93CF93DF937C
:100E2000EC01EE81FF81309709F4B6C280858823FA
:100E300009F4B2C28985882351F481E089878DEB5A
:100E400093E041E050E060E070E00E94D71281EA58
:100E500093E00E9407138DEB93E00E94071320910B
:100E6000BC0390E0222311F480E004C08091D803F9
:100E7000811181E08F879F5F9830A1F78823E9F087
:100E80002C878091D8038D878091B1039091B20314
:100E9000A091B303B091B40381342FE1920720E015
:100EA000A20720E0B20714F083E006C0895B9B40F4
:100EB000A040B04014F082E08F879F858E8589170F
:100EC00099F09E879A8B81EA93E040E050E060E0E1
:100ED00070E00E94D7128DEB93E041E050E060E0BB
:100EE00070E00E94D71201C01A8A2091BC038C8541
:100EF000821799F08091B1039091B203A091B3034E
:100F0000B091B4038C349105A105B1053CF02C8758
:100F1000222321F081E0888B01C0188A2091D80318
:100F20008D858217D1F08091CD039091CE03A09151
:100F3000CF03B091D0038C349105A105B1053CF0ED
:100F40002D878091D803882311F081E0898B00E000
:100F500010E0E1E0EE2EF12C02C0198AF8CFE88D06
:100F6000F98DE00FF11F80810E948A34782F6C89FF
:100F7000A701002E02C0440F551F0A94E2F7862FE6
:100F800090E084239523002E02C0959587950A94BE
:100F9000E2F7272F30E08217930761F0713029F4D0
:100FA000642B6C8B8B89842B09C0842F80958623BE
:100FB0008C8B05C0942F90958B8989238B8B0F5F29
:100FC0001F4F0830110559F68885883009F459C03B
:100FD000803809F4FAC0882309F0DEC18A89833099
:100FE00021F4CE010E946C06D7C1823079F48DEBDA
:100FF00093E04AEA5AEA6AEA7AEA0E94D71281EA58
:1010000093E045E555E565E575E5C4C1813021F41A
:10101000CE010E945A06C0C188898823B9F088E0B1
:101020008887EE89FF8981E0808B81EA93E040EF39
:1010300050EF60EF70EF0E94D71210E0812F60E058
:101040000E9468341F5F1830C9F7A6C189898823B8
:1010500009F4A2C180E88887EE89FF8981E0808B4E
:101060008DEB93E040EF50EF60EF70EF0E94D712EE
:1010700010E0812F60E00E9468341F5F1830C9F7CC
:101080008BC18A898823E1F488898823A9F18DEBB3
:1010900093E040E050E060E070E00E94D7128A8563
:1010A000992787FD9095029661E270E00E94CD3409
:1010B00081508A878F3F49F487E060E00E9468345E
:1010C000CE0161E00E94BC0667C1803154F0A7C028
:1010D00082300CF461C1812F815060E00E9468343D
:1010E0005BC1182F159580FFD1C081EA93E04AE0DB
:1010F00050E06AE070E0D0C08989882309F16B85EF
:1011000067FD08C0772767FD70958E899F8941E04C
:101110000E94A22D6A85603134F0772767FD7095B3
:101120006051704007C067FDE2C0772767FD70958A
:10113000605F7F4F8E899F8941E00E94A22DD7C0BA
:101140008B89882309F428C120E030E0482F50E043
:10115000122FCA01022E02C0959587950A94E2F7D4
:1011600080FD06C01F5F2F5F3F4F2830310581F79C
:101170008B858F3F51F0212F30E0992787FD909587
:10118000959587952817390751F08DEB93E04AE044
:1011900050E06AE070E00E94D712812FD1C08D89A3
:1011A000813021F4110F1F5F1B87DEC0823009F0F0
:1011B000F3C08DEB93E040E050E060E070E00E940F
:1011C000D7128FEF8B871D8A21C08A89882309F067
:1011D00077CF8889882309F467C08DEB93E040EFCF
:1011E00050EF60EF70EF0E94D7128A85992787FD34
:1011F0009095029661E270E00E94CD3481508A871A
:101200008F3F59F487E060E00E94683481EA93E000
:1012100040EF50EF60EF70EFBDC0803164F18DEBB7
:1012200093E04AE050E06AEA7AE00E94D7122A8509
:10123000332727FD3095C901409795958795182F3D
:1012400020FF07C081EA93E040E050EA60E070EAE6
:1012500006C081EA93E04FEF5FEF6FEF7FEF0E94F0
:10126000D712812F61E00E9468348A85803109F0AD
:101270002FCF87E032CF182F159580FF07C081EA66
:1012800093E040E050EA60E070EA06C081EA93E053
:101290004FEF5FEF6FEF7FEF0E94D712812F61E07A
:1012A0000E9468348A8514CF8989882319F16B8557
:1012B00067FD08C0772767FD70958E899F8941E09B
:1012C0000E94BE2D6A85603134F0772767FD7095E6
:1012D0006051704007C067FD0AC0772767FD7095B1
:1012E000605F7F4F8E899F8941E00E94BE2DCE01B5
:1012F00060E0E8CE8B89882309F44EC020E030E01E
:10130000682F70E0422FCB01022E02C09595879581
:101310000A94E2F780FD06C04F5F2F5F3F4F2830F1
:10132000310581F78B858F3F51F0242F30E09927CD
:1013300087FD9095959587952817390779F0842F23
:1013400090E0880F991F8B8781EA93E04FEF5FEF62
:101350006FEF7FEF0E94D71281E00FC08D8981303F
:1013600071F4440F4F5F4B8781EA93E04AE050E00D
:101370006AE070E00E94D71282E08D8B0DC082304F
:1013800059F48FEF8B871D8A81EA93E040E050E0AB
:1013900060E070E00E94D712DF91CF911F910F9112
:1013A000FF90EF900895FC0130A3278F758364832D
:1013B0005783468308950895DF92EF92FF920F932B
:1013C0001F93DF93CF93CDB7DEB7C456D0400FB68F
:1013D000F894DEBF0FBECDBF7C01198A188A1A8A25
:1013E0001A861B861C861D861E861F861A8E198EDF
:1013F0001B8E1B8A1C8A1D8A1E8A1F8A188E80E2F9
:101400008D8FDE015396F70120893189C901FC01D6
:1014100089E001900D928150E1F7D7015096ED914E
:10142000FC915197848990E09C012C7F3070243886
:10143000310529F1253831052CF42038310509F022
:10144000E4C009C02C38310509F4A6C0283A31059A
:1014500009F0DBC05AC087E08C8F82E88E8F8CE663
:101460008F8F18A282EF89A38FEF8AA38DEF8BA3B2
:10147000C701BE01665F7F4F0E94A128C6C088E0F9
:101480008C8F86E88E8F85898F8F18A219A21AA259
:101490001BA281E08CA385898D3F61F08F3F09F00D
:1014A000A6C087E88E8F18A219A284E08AA38AEECC
:1014B0008BA39DC087E88E8FF701878D90A10E9436
:1014C000DA0C692F77278827992768A3D7015F96B9
:1014D0008D919C9190970E94DA0CBC0188279927E6
:1014E00069A3F701878D90A10E94DA0C672F782FEE
:1014F000892F99276AA3D7015F968D919C91909728
:101500000E94DA0C6BA31CA272C0837090708130B1
:10151000910509F43DC0029709F077C018861F8233
:10152000198619821A821B821C821D821E82DE018C
:101530001196759686E001900D928150E1F7D701E2
:101540001696ED91FC91179799818081981709F073
:101550005CC09A818181981709F057C09B81828174
:10156000981709F052C09C818381981709F04DC0EB
:101570009D818481981709F048C09E8185819817C4
:1015800009F043C05F968D919C9190970E94210F26
:10159000E0E0F0E0099539C015891770812F90E0DF
:1015A000B3E0880F991FBA95E1F702968C8F8EE809
:1015B0008E8F89ED93E062E070E00E94B113D82E27
:1015C00089ED93E063E070E00E94B113082F1111E0
:1015D000FFCF89ED93E062E070E04D2D0E94B813DB
:1015E00089ED93E063E070E0402F0E94B813C701DB
:1015F000BE01665F7F4F0E94A128882319F020EF6B
:101600003FEF05C020E030E202C020E030E0C90139
:10161000CC59DF4F0FB6F894DEBF0FBECDBFCF91D0
:10162000DF911F910F91FF90EF90DF900895AF929F
:10163000BF92CF92DF92EF92FF920F931F93CF93BF
:10164000DF936C01DC015096ED91FC91519742893A
:10165000958956897789608D8489282F30E0237099
:1016600030702130310559F0223031052CF4232B14
:1016700019F4818D8D3F19F020E030E056C04650BE
:10168000892F90E0A0E0B0E0182F0027FF24EE247F
:10169000852F90E0A0E0B0E0DC0199278827E82AB8
:1016A000F92A0A2B1B2B862F90E0A0E0B0E0E82A55
:1016B000F92A0A2B1B2B872F90E0A0E0B0E0BA2F6D
:1016C000A92F982F8827E82AF92A0A2B1B2BB4E088
:1016D000EB16B1E0FB06B0E00B07B0E01B0728F00B
:1016E000C0E0D0E0A42EBB241BC07996D6015F9643
:1016F0008D919C919097B7019F010E942C0D13C072
:10170000BE016E0D7F1DD6015096ED91FC91519753
:10171000EC0FFD1F89ED93E0418D0E94B8132196D7
:10172000CA15DB0568F320EF3FEFC901DF91CF91C8
:101730001F910F91FF90EF90DF90CF90BF90AF90EF
:1017400008956F927F928F929F92AF92BF92CF92A5
:10175000DF92EF92FF920F931F93DF93CF93CDB75A
:10176000DEB7CB55D0400FB6F894DEBF0FBECDBF6D
:101770003C0118861F82198619821A821B821C82DC
:101780001D821E82198A188A1A8A1A861B861C864E
:101790001D861E861F86DE011A96FC0180899189AE
:1017A0009C01F90189E001900D928150E1F7D3018C
:1017B0005096ED91FC915197DE015496739686E018
:1017C00001900D928150E1F78D898F7080658D8B2E
:1017D000D3015096ED91FC915197418D858990E010
:1017E000A0E0B0E0182F0027FF24EE24868990E0C7
:1017F000A0E0B0E0DC0199278827E82AF92A0A2B23
:101800001B2B808D90E0A0E0B0E0E82AF92A0A2B9B
:101810001B2B878990E0A0E0B0E0BA2FA92F982F6A
:101820008827E82AF92A0A2B1B2B848990E08370E9
:10183000907081309105C1F1823091051CF4892BA3
:1018400039F00AC08230910539F0039729F407C0B6
:101850004D3F51F14F3F19F020E030E062C0B70139
:10186000C701840F911D8C5E944010F04BEE4E1911
:10187000DE015A9680E090E0242F30E00FC0E4E0D3
:101880006A3E7E0710F01C9205C0FB01EC56FF4F2C
:10189000E491EC93019611966F5F7F4F8217930747
:1018A00070F34A5F4B8B30C09E01265E3F4FF4E0E1
:1018B000EF16F1E0FF06F0E00F07F0E01F0758F425
:1018C000D3015F968D919C919097B7010E94E70C90
:1018D0008A5F8B8B19C04A5F4B8B46505901CC24D1
:1018E000DD24842E99240DC0B6016E0D7F1D89ED77
:1018F00093E00E94B113F50181935F010894C11C2C
:10190000D11CC814D90480F3C301BE016F5F7F4F9F
:101910000E94A128882319F020EF3FEF02C020E0A9
:1019200030E2C901C55ADF4F0FB6F894DEBF0FBED3
:10193000CDBFCF91DF911F910F91FF90EF90DF907E
:10194000CF90BF90AF909F908F907F906F900895B1
:10195000DC011696ED91FC911797309721F1808567
:10196000882309F15096ED91FC915197838980323B
:10197000E9F4848990E0807C90708034910531F0A6
:101980008038910559F0892B29F010C0CD010E94B3
:10199000A10B07C0CD010E94170B03C0CD010E940F
:1019A000DC099C0105C020E030E002C020E430E109
:1019B000C9010895FC018285938523E0880F991F52
:1019C0002A95E1F70197BC0180E090E008951F930C
:1019D000CF93DF93EC01D901CB0123E09695879556
:1019E0002A95E1F7182FFB0134972A853B8583E080
:1019F000220F331F8A95E1F7CF01840F911D28171D
:101A0000390710F4422F461B812F880F880F880F4B
:101A10005E2F581B712F60E018C0583011F47F5FA3
:101A200050E0272F30E0C901E3E0880F991FEA95C5
:101A3000E1F7820F931FE885F985E80FF91FE50F9D
:101A4000F11D80818D936F5F5F5F641730F3842F8A
:101A5000DF91CF911F910895FF920F931F93CF9322
:101A6000DF93DC01022FF32ECB0123E096958795BF
:101A70002A95E1F7182FFB0134971A962D913C9186
:101A80001B9783E0220F331F8A95E1F7CF01840F64
:101A9000911D2817390710F4422F461B812F880FFC
:101AA000880F880F5E2F581B202F3F2DC901EC0196
:101AB000712F60E01AC0583011F47F5F50E0272F7B
:101AC00030E0C901E3E0880F991FEA95E1F7820F42
:101AD000931F1896ED91FC911997E80FF91FE50FE8
:101AE000F11D899180836F5F5F5F641720F381E050
:101AF00054968C93DF91CF911F910F91FF90089591
:101B0000FC018089882341F4CB0140979695879505
:101B1000609561700E94683481E008958F929F9271
:101B2000BF92CF92DF92EF92FF920F931F93CF93CA
:101B3000DF93EC01EE81FF81309709F465C0808569
:101B4000882309F461C0CC2EBD2EDD2451E0852E02
:101B5000912C88898823E1F58A898823C9F57E013B
:101B600000E010E0F70185890E948A34382F2B8924
:101B7000A401002E02C0440F551F0A94E2F7822FE1
:101B800090E084239523002E02C0959587950A94B2
:101B9000E2F7381719F48989882389F024272B8BD9
:101BA000B801660F771F80E090E0313011F481E0DA
:101BB00090E0682B792B8C2D9B2D0E94BD2B0F5F05
:101BC0001F4F0894E11CF11C0830110559F6198AC1
:101BD000D394F8E0DF1609F0BCCF8C2D9B2D0E942A
:101BE000EC2A2E853F858A859B852817390709F4BD
:101BF0001A8A8C89882341F0E881F9810084F18573
:101C0000E02DCE0109951C8ADF91CF911F910F9194
:101C1000FF90EF90DF90CF90BF909F908F900895AE
:101C20008F929F92AF92BF92DF92EF92FF920F93AB
:101C30001F93CF93DF934C01DD2416C0F401008580
:101C400011850A0D1B1D89ED93E0B7010E94B113A8
:101C50000C0F1D1FF801808321960894E11CF11CD4
:101C6000C830D10559F7D3942D2D30E0F401828589
:101C700093852817390788F4C90173E0880F991FE5
:101C80007A95E1F75C01A20EB31E64E0E62EF12C1A
:101C9000E80EF91EC0E0D0E0D1CF81E0DF91CF9116
:101CA0001F910F91FF90EF90DF90BF90AF909F90AA
:101CB0008F9008951F93CF93DF93C4E0D0E010E09E
:101CC00089ED93E0BE0145E00E94B813219689EDAD
:101CD00093E0BE0142E00E94B813219689ED93E0A3
:101CE000BE0141E00E94B813219689ED93E0BE0148
:101CF00042E00E94B813219689ED93E0BE0142E0D4
:101D00000E94B813219689ED93E0BE0140E00E9445
:101D1000B813219689ED93E0BE0140E00E94B8130C
:101D2000219689ED93E0BE01412F0E94B8132196C0
:101D30001F5F103129F6C4E8D0E010E089ED93E090
:101D4000BE0145E00E94B813219689ED93E0BE01E3
:101D500042E00E94B813219689ED93E0BE0141E074
:101D60000E94B813219689ED93E0BE0142E00E94E3
:101D7000B813219689ED93E0BE0142E00E94B813AA
:101D8000219689ED93E0BE0140E00E94B8132196B0
:101D900089ED93E0BE0140E00E94B813219689EDE1
:101DA00093E0BE01412F0E94B81321961F5F1031AE
:101DB00029F6C4E0D1E089ED93E0BE010E94B113A1
:101DC000882331F089ED93E0BE0140E00E94B81312
:101DD000219682E0C430D80771F7C4E0D4E089EDE1
:101DE00093E0BE010E94B113882331F089ED93E0A6
:101DF000BE0140E00E94B813219684E0C43AD8079F
:101E000071F789ED93E062E070E040E00E94B81362
:101E100089ED93E063E070E040E10E94B81389ED42
:101E200093E060E070E049E40E94B81389ED93E02C
:101E300061E070E04FE60E94B813DF91CF911F91EF
:101E400008954F925F926F927F928F929F92AF927E
:101E5000BF92CF92DF92EF92FF920F931F93CF9397
:101E6000DF933C0189ED93E060E070E00E94B113E4
:101E7000893409F0E2C089ED93E061E070E00E94EE
:101E8000B1138F3609F0D9C089ED93E062E070E0BC
:101E90000E94B113B82E89ED93E063E070E00E94D8
:101EA000B113982E89ED93E060E070E048E50E9460
:101EB000B8138FED891538F44B2D4F5F89ED93E002
:101EC00062E070E005C089ED93E062E070E04B2DC8
:101ED0000E94B813492D405E89ED93E063E070E005
:101EE0000E94B813AA24492C55242EC0D30116965B
:101EF000ED91FC911797EC0FFD1F89ED93E0B80170
:101F000040810E94B81321960F5F1F4FC630D10544
:101F100069F7B601665F7F4F89ED93E04B2D0E9414
:101F2000B813E40CF51CBFEFEB16F10409F4B394FD
:101F3000EBE0F0E0CE0EDF1E4A2D490D89ED93E077
:101F4000B6010E94B813A394D3011A968D919C9167
:101F50001B9796958795EA2CFF24E816F90660F4FE
:101F60006701F3E0CC0CDD1CFA95E1F786010C5F0C
:101F70001F4FC0E0D0E0BACFA82E882E890C492C84
:101F800055242EC0D3011696ED91FC911797EC0FB6
:101F9000FD1F89ED93E0B80140810E94B81321969E
:101FA0000F5F1F4FC630D10569F7B601665F7F4FDF
:101FB00089ED93E04B2D0E94B813E40CF51CBFEFA4
:101FC000EB16F10409F4B394EBE0F0E0CE0EDF1E63
:101FD00089ED93E0B601482D0E94B813A394839431
:101FE000EA2CFF24D3011A968D919C911B97E81639
:101FF000F90660F46701E3E0CC0CDD1CEA95E1F73B
:1020000086010C5F1F4FC0E0D0E0BCCF89ED93E0AC
:1020100060E070E049E40E94B81389ED93E061E06C
:1020200070E00E94B1138F3659F089ED93E061E0C2
:1020300070E04FE60E94B81303C0C3010E945A0E1D
:10204000DF91CF911F910F91FF90EF90DF90CF9094
:10205000BF90AF909F908F907F906F905F904F90C8
:102060000895AF92BF92CF92DF92FF920F931F938A
:10207000CF93DF935C01FF2416C0D5011896ED9134
:10208000FC911997EC0DFD1DEC0FFD1F89ED93E000
:10209000B80140810E94B81321960F5F1F4FC830CE
:1020A000D10559F7F3942F2D30E0F5018285938502
:1020B0002817390778F4C901B3E0880F991FBA953A
:1020C000E1F76C01C20ED31E8C010C5F1F4FC0E004
:1020D000D0E0D3CF81E0DF91CF911F910F91FF909E
:1020E000DF90CF90BF90AF9008950F931F93CF9341
:1020F000DF93EC018C0150E00E94962B89ED93E078
:1021000060E070E00E94B113893441F489ED93E0FE
:1021100061E070E00E94B1138F3619F0CE010E9489
:10212000210FE881F9810284F385E02DCE01099524
:10213000C0E0D0E0C801BE0141E020E00E946C2D6B
:102140002196C031D105B1F7C0E1D0E0C801BE0190
:1021500040E021E00E946C2D2196C032D105B1F7FC
:10216000DF91CF911F910F910895CF92DF92EF925F
:10217000FF920F931F938C017B016A01FC01108673
:102180008FEF878F8FEF9FEF958F848F168E8EE75F
:1021900095E00E9476048F5FF80180A3F582E482C7
:1021A000D782C6821F910F91FF90EF90DF90CF9062
:1021B00008950F931F93CF93DF93EC01EE81FF817E
:1021C000309709F4E6C08085882309F4E2C09F8D2A
:1021D00097FD49C088A18E5F891B8EA3893010F0BE
:1021E00088E08EA322E016C0822F90E0EF8DFF27BB
:1021F000E7FDF095E80FF91FE458FA4FE491DE018E
:10220000A80FB91F9796EC939797EA3011F4979619
:102210001C922F5F8EA1281738F38E010F5D1F4F80
:10222000EC81FD81A081B18118962D913C91199787
:10223000CF01B801F9010995882391F38EA182504D
:102240002F8D820F8F8F992787FD909528A130E0E1
:10225000821793070CF49DC08FEF8F8F83E094E07B
:102260009D8F8C8F96C02C8D3D8D37FD7DC082E07B
:102270008EA32350344049F421E029A783E08EA3A4
:1022800084E094E09D8F8C8F2E8F8E8D813061F550
:102290002FEF11C089ED93E00E94B113282F8EA17A
:1022A000FE01E80FF11D27A38F5F8EA38C8D9D8DFE
:1022B00001969D8F8C8F8EA1883048F4222371F077
:1022C0006C8D7D8D24E06432720724F302C02223DA
:1022D00029F08C8D9D8D8452944034F084E294E0FA
:1022E0009D8F8C8F82E08E8F8E8D823059F52FEFEF
:1022F00011C089ED93E00E94B113282F8EA1FE0139
:10230000E80FF11D27A38F5F8EA38C8D9D8D019605
:102310009D8F8C8F8EA1883048F4222371F06C8DB4
:102320007D8D84E0643A780724F302C0222329F0EB
:102330008C8D9D8D845A94402CF08FEF9FEF9D8F54
:102340008C8F1E8E8E010F5D1F4FEC81FD81A08151
:10235000B18118962D913C911997CF01B801F901DF
:102360000995882391F315C08885882391F01886F4
:102370008E010F5D1F4FEC81FD81A081B181189608
:102380002D913C911997CF01B801F9010995882346
:1023900091F3DF91CF911F910F910895CF92DF922A
:1023A000EF92FF920F931F93DF93CF93CDB7DEB7DA
:1023B00062970FB6F894DEBF0FBECDBF7C016B01F4
:1023C000DC011696ED91FC911797309709F4DFC068
:1023D0008085882309F4DBC0CB010E94831D8823FC
:1023E00009F464C0198A188A1A8A1A861B861C8600
:1023F0001D861E861F86C601BE01665F7F4F0E9436
:10240000EF1BD7011696ED91FC9117972889398912
:102410002115310541F086819781009721F0281719
:102420003907F9F0B4C09A858081981709F0AFC0D8
:102430009B858181981709F0AAC09C858281981795
:1024400009F0A5C09D858381981709F0A0C09E85DD
:102450008481981709F09BC09F858581981709F0A2
:1024600096C0F701878D87FF92C0848D958D97FF69
:102470008EC0178E18861F82198619821A821B82B7
:102480001C821D821E82C6018E010F5F1F4FB80184
:102490000E94B418D70116966D917C911797C701C9
:1024A0008196A8010E949C1D81E072C0C6010E9415
:1024B000481D882309F46BC018861F82198619826B
:1024C0001A821B821C821D821E82C601BE016F5FA2
:1024D0007F4F0E94EF1BD7011696ED91FC91179745
:1024E0002F8138852115310541F08681978100972C
:1024F00021F028173907D9F04AC0998180819817AF
:1025000009F045C09A818181981709F040C09B81EC
:1025100082819817E1F59C8183819817C1F59D818F
:1025200084819817A1F59E818581981781F5F7011F
:10253000878D87FF2CC0848D958D97FF28C0198AC1
:10254000188A1A8A1A861B861C861D861E861F8676
:102550008E01065F1F4FC601B8010E94B418D70153
:1025600016966D917C911797C7018196A8010E94DC
:10257000611D88E0F70186A385ED81A788E182A728
:1025800013A614A615A616A681E0808701C080E0D8
:1025900062960FB6F894DEBF0FBECDBFCF91DF912C
:1025A0001F910F91FF90EF90DF90CF900895FC0165
:1025B00044875587668777870895FC01818D862B30
:1025C000818F08950F931F938C01FC0162871386FE
:1025D000808D61E00E943C34F801808D62850E940C
:1025E0006834F8011086148A158A168A178A108AA8
:1025F000118A128A138A138E1F910F910895FC017C
:1026000042871386608F642F0E94E2120895AF9272
:10261000BF92CF92DF92EF92FF920F931F93CF93CF
:10262000DF93EC010E948733D62EC72EB82EA92E39
:10263000E62EF72E9701207E8E819F81281739077D
:1026400009F449C03F832E83888D60E00E943C34AA
:10265000888D61E00E9468340A851B85888D0E9400
:102660008A3419860817190711F481E08987888D43
:1026700061E00E943C34888D6A8D0E94683499859F
:102680008885981711F0988726C08B8D8917A9F037
:102690009B8F88899989AA89BB898096A11DB11DC4
:1026A0008C8B9D8BAE8BBF8BD882C982BA82AB825A
:1026B000188A198A1A8A1B8A0EC00E9487332881B9
:1026C00039814A815B81621B730B840B950B688B8C
:1026D000798B8A8B9B8B9701207C30708C819D81BC
:1026E0002817390799F13D832C838C852A853B85F2
:1026F00080FF0FC080E0232B09F081E08A8F8C855A
:102700009D85AE85BF85B595A79597958795B0684A
:102710000DC080E0232B09F481E08A8F8C859D8594
:10272000AE85BF85B695A795979587958C879D872C
:10273000AE87BF87898D80FD1A8E898D90E0959533
:102740008795898F888D6A8D0E946834DF91CF913B
:102750001F910F91FF90EF90DF90CF90BF90AF90BF
:102760000895F999FECF72BD61BDF89A80B50895BC
:10277000F999FECF72BD61BD40BD0FB6F894FA9ACB
:10278000F99A0FBE0895EF92FF920F931F93CF9384
:10279000DF93DC01FB0117968D919C9118976817C8
:1027A000790709F470C0108619968C9119978130B9
:1027B00021F4ED01279639F405C0882319F4ED01C1
:1027C000279609F4FFCFF983E8838B819C810097DA
:1027D00021F09783868387E055C0E080FF2400E0E6
:1027E00010E08701FF24EE24818190E0A0E0B0E0BA
:1027F000BA2FA92F982F8827E82AF92A0A2B1B2BF2
:10280000828190E0A0E0B0E0E82AF92A0A2B1B2B95
:10281000238130E040E050E0A90133272227848162
:1028200090E0A0E0B0E0BA2FA92F982F8827282B9E
:10283000392B4A2B5B2B858190E0A0E0B0E0282B60
:10284000392B4A2B5B2BC9018E259F257CE01695E1
:102850000795F794E7947A95D1F78E259F256CE03C
:1028600056954795379527956A95D1F782279327EF
:102870009F709C838B83892B21F481E090E09C8363
:102880008B8382E08A83DF91CF911F910F91FF901C
:10289000EF9008956F927F928F929F92AF92BF9226
:1028A000CF92DF92EF92FF920F931F93CF93DF931C
:1028B000EB01E881F981309709F010866B817C810A
:1028C000ED84FE840F851889A8019701FFE05695D5
:1028D000479537952795FA95D1F73170407050702C
:1028E000A984BA84CB84DC84D601C501E9E0880FD1
:1028F000991FAA1FBB1FEA95D1F7282B392B4A2B0A
:102900005B2BD801C701F9E0880F991FAA1FBB1FD5
:10291000FA95D1F7B070E9EA6E2EEBE47E2EEAE785
:102920008E2E912CE60CF71C081D191D8E0D9F1D77
:10293000A01FB11F03EAE02E0CE0F02E0BE1002FE8
:10294000112DAE0CBF1CC01ED11E2A0D3B1D4C1DEF
:102950005D1D5070EB2EFF24002711272E293F29E3
:10296000402B512B29873A874B875C87B0708D8726
:102970009E87AF87B88B79018A01FCE01695079591
:10298000F794E794FA95D1F7AC014E255F254227DD
:102990005327ECE0B695A79597958795EA95D1F7DB
:1029A000482759275F705C834B834115510509F413
:1029B00087CF4617570709F483CF8FE08A83DF91CB
:1029C000CF911F910F91FF90EF90DF90CF90BF902C
:1029D000AF909F908F907F906F900895CF93DF93EB
:1029E000EC01DB01EF81F88516962D913C9117974C
:1029F0002115310541F086819781009721F0281734
:102A0000390749F521C09C918081981721F51196CD
:102A10009C91119781819817F1F412969C911297CD
:102A200082819817C1F413969C911397838198170C
:102A300091F414969C9114978481981761F41596DB
:102A40009C918581981739F48FE08987EF81F8850B
:102A5000108681E001C080E0DF91CF910895CF938F
:102A6000DF93EC01DB018A859B85892B41F1EF81A6
:102A7000F8859C918081981711F511969C9111977A
:102A800081819817E1F412969C9112978281981790
:102A9000B1F413969C9113978381981781F414963F
:102AA0009C9114978481981751F415969C91858177
:102AB000981729F489819A81BF010E947621DF91BC
:102AC000CF910895EF92FF920F931F93DF93CF93CF
:102AD000CDB7DEB729970FB6F894DEBF0FBECDBFD6
:102AE0008C017B01CB010E94891A882309F45FC005
:102AF000D70115968C91863031F0F8018285938547
:102B0000892BD9F554C018861F82198619821A821A
:102B10001B821C821D821E82C701BE016F5F7F4F18
:102B20000E948A1ED8011A968D919C911B97892B21
:102B3000F1F117964D915C91189741155105B9F136
:102B4000FA018085882399F199818081981779F518
:102B50009A818181981759F59B818281981739F55F
:102B60009C818381981719F59D8184819817F9F4C8
:102B70009E8185819817D9F40CC0D80117964D9184
:102B80005C9118974115510591F0FA0180858823D1
:102B900071F01196ED91FC911297A081B1811A9676
:102BA0002D913C911B97CF01BA01F9010995C701FD
:102BB0000E94A21A882311F1C7010E94891B9C015F
:102BC000D80117964D915C911897FA01808588235A
:102BD000A9F01A968D919C911B978217930771F417
:102BE0001196ED91FC911297A081B1811A962D91C9
:102BF0003C911B97CF01BA01F901099529960FB6AF
:102C0000F894DEBF0FBECDBFCF91DF911F910F9122
:102C1000FF90EF9008950F931F938C01FC01728336
:102C200061830E948733F80163837483858396836D
:102C30001F910F910895FF920F931F93CF93DF93EE
:102C40008C01EC01888190E0EC0134E0CC0FDD1FB9
:102C50003A95E1F7C80FD91FC00FD11FF984E6E0FC
:102C6000FE1609F4EFC0EF15A0F0F3E0FF1609F42B
:102C700093C0FF1528F022E0F21609F0CBC14CC03A
:102C800084E0F81609F49EC0E5E0FE1609F0C2C122
:102C9000B1C0FFE0FF16A1F0FF1548F027E0F216E3
:102CA00009F467C188E0F81609F0B4C17BC1E4E11A
:102CB000FE1609F410C1F9E1FF1609F0ABC138C1E5
:102CC0008F819885892B11F082E001C081E089878E
:102CD000E801888190E0FC0124E0EE0FFF1F2A95B7
:102CE000E1F7E80FF91FE00FF11F67817085898117
:102CF0009A810E949021882309F08CC1888190E0FC
:102D0000FC01B4E0EE0FFF1FBA95E1F7E80FF91FE1
:102D1000E00FF11F8FE03EC0EF81F8852A853B85EB
:102D2000868197818217930711F037832683F801F4
:102D3000808190E0FC01A4E0EE0FFF1FAA95E1F76F
:102D4000E80FF91FE00FF11F83E08187E801888118
:102D500090E0FC0174E0EE0FFF1F7A95E1F7E80FB9
:102D6000F91FE00FF11F6781708589819A8141E029
:102D70000E94D026882309F04DC1888190E0FC0193
:102D800064E0EE0FFF1F6A95E1F7E80FF91FE00F0F
:102D9000F11F82E081873EC184E08987F80180814C
:102DA00090E0FC0154E0EE0FFF1F5A95E1F7E80FA9
:102DB000F91FE00FF11F67817085E80189819A8111
:102DC00042E015C085E08987F801808190E0FC0130
:102DD00044E0EE0FFF1F4A95E1F7E80FF91FE00FFF
:102DE000F11F67817085E80189819A8143E00E9423
:102DF000D026D4C00E9487336C877D878E879F87BB
:102E0000F801808190E0FC0134E0EE0FFF1F3A955D
:102E1000E1F7E80FF91FE00FF11F86E08187E80175
:102E2000888190E0FC0124E0EE0FFF1F2A95E1F776
:102E3000E80FF91FE00FF11F6781708589819A8182
:102E400044E0D5CF0E948733F801208130E0F901BA
:102E5000B4E0EE0FFF1FBA95E1F7E20FF31FE00FAA
:102E6000F11F2485358546855785621B730B840BBE
:102E7000950B645F71408040904008F4CBC087811F
:102E80009085892B11F087E001C081E08187E801FE
:102E9000888190E0FC01A4E0EE0FFF1FAA95E1F706
:102EA000E80FF91FE00FF11F6781708589819A8112
:102EB0000E94AC26882309F0ADC0888190E0FC0117
:102EC00074E0EE0FFF1F7A95E1F7E80FF91FE00FAE
:102ED000F11F86E05FCF8F819885892B11F08EE1FD
:102EE00001C081E08987F801808190E0FC0164E005
:102EF000EE0FFF1F6A95E1F7E80FF91FE00FF11FD2
:102F000067817085E80189819A810E94AC268823B7
:102F100009F080C0888190E0FC0154E0EE0FFF1FB3
:102F20005A95E1F7E80FF91FE00FF11F84E132CF66
:102F30008EE18987F801A181B2812D913C91119791
:102F4000808190E0FC0144E0EE0FFF1F4A95E1F71D
:102F5000E80FF91FE00FF11F67817085E901EA852D
:102F6000FB85CD010995882309F054C0F8018081C3
:102F700033C088E08987E801888190E0FC0134E073
:102F8000EE0FFF1F3A95E1F7E80FF91FE00FF11F71
:102F90006781708589819A810E9476218823D1F585
:102FA00088811AC08EE18987F801808190E0FC0158
:102FB00024E0EE0FFF1F2A95E1F7E80FF91FE00F5D
:102FC000F11F67817085E80189819A810E949226AC
:102FD0009881882371F4892F90E0FC01B4E0EE0F12
:102FE000FF1FBA95E1F7E80FF91FE00FF11FF18617
:102FF00011C0892F90E0FC01A4E0EE0FFF1FAA95FD
:10300000E1F7E80FF91FE00FF11F0780F085E02DD1
:1030100081E08087F8011082DF91CF911F910F919D
:10302000FF9008950F931F93CF93DF93EC018B01D3
:10303000CB010E9476182A853B858217930709F0F9
:1030400048C08985873038F48330C0F4813081F1FD
:10305000823058F407C0883059F1883098F08E31AA
:10306000C1F526C01B861A8634C0F80180A18823CA
:1030700029F0C8010E94C019882359F5C8010E948F
:10308000771920C0F80180A1882329F4C8010E9483
:1030900077198823C9F0F80180A18823D1F0C801ED
:1030A0000E9477198823A9F4C8010E94A7190AC0B1
:1030B000C8010E947719882319F084E1898709C023
:1030C000F80180A1882329F4CE012796BE010E9431
:1030D0004A14DF91CF911F910F9108959C012A5FAF
:1030E0003F4FC9010895FC0185810895FC012081AD
:1030F00031813F70C90108950F931F93FC01DB01DB
:1031000016960D911C911797980140E050E03F7082
:103110004070507080819181A281B3818070907FD6
:10312000BF71282B392B4A2B5B2B208331834283A1
:103130005383158B048BDB018C91868711968C91C0
:103140001197878712968C911297808B13968C918A
:103150001397818B14968C911497828B15968C9172
:10316000838B1F910F910895FC01DB018489958960
:10317000892B91F48685882379F48785882361F4E7
:103180008089882349F48189882331F482898823BE
:1031900019F483898823F9F0808191819F70958B40
:1031A000848B17969C938E93169786858C93878530
:1031B00011968C931197808912968C93129781891E
:1031C00013968C931397828914968C931497838902
:1031D00015968C930895158A148A168A1686178672
:1031E000108A118A128A138AD7CF1F93FC0120817B
:1031F000318142815381DA01C90180709070A070E1
:10320000B77080509040A040B14051F48581882330
:1032100011F482E08583CB019F709683678318C089
:10322000CB01A0E0B0E06CE0880F991FAA1FBB1F84
:103230006A95D1F78070907FB0703F7040705F7179
:10324000822B932BA42BB52B80839183A283B383F2
:103250001F910895FB01668177810E94F5180895FA
:10326000FC0120813181428153812070307F507078
:10327000BCE05695479537952795BA95D1F7C90182
:1032800008950F931F93CF93DF938C01DA01EC0124
:1032900018A2EC81E260EE7FEC83709561957F4F20
:1032A00067707070762F66277295707FBF706A2B7B
:1032B0007B2B80E090E0ECE0660F771F881F991F62
:1032C000EA95D1F740E050E03F7040705070506197
:1032D000622B732B842B952BF8016083718382837F
:1032E00093831582DF91CF911F910F910895FC0177
:1032F00080819181A281B381B3FF02C020E011C01F
:1033000020E08070907FB7703CE0B695A7959795C8
:1033100087953A95D1F7807090778050904408F067
:1033200021E0822F0895FC0110A2248122602E7FCB
:10333000248380E090E07F7080709070806790615F
:10334000608371838283938386E085830895FC0183
:10335000208131814281538153FF02C080E0089572
:1033600080E02070307F57706CE056954795379518
:1033700027956A95D1F72050374009F481E00895E8
:10338000FC01208131814281538153FF02C080E0E2
:10339000089580E02070307F57707CE05695479507
:1033A000379527957A95D1F72350374009F481E076
:1033B0000895FC01208131814281538153FF02C075
:1033C00080E0089580E02070307F5770ECE05695E3
:1033D000479537952795EA95D1F72150374009F45D
:1033E00081E00895FC01208131814281538153FFA6
:1033F00002C080E0089580E02070307F5070FCE0D3
:103400005695479537952795FA95D1F7225037402D
:1034100009F481E00895CF92DF92EF92FF920F932B
:103420001F937C01FB01690186819781F70110A23E
:10343000248122602E7F24831582A0E0B0E09F705B
:10344000A070B0709068A660B96180839183A283F8
:10345000B383FA0166817781C7010E94F51886E07F
:10346000F7018583FFE0DF22F701D086C18612874E
:1034700003871F910F91FF90EF90DF90CF900895F9
:10348000FC01208131814281538153FD02C080E0E3
:10349000089580E02070307F50709CE056954795ED
:1034A000379527959A95D1F7245B354009F481E04B
:1034B0000895FC01208131814281538153FD02C076
:1034C00080E0089580E02070307F50706CE0569569
:1034D0004795379527956A95D1F72459354009F4D2
:1034E00081E00895AC01FB0186819781FA0110A269
:1034F000248122602E7F24831582A0E0B0E09F709B
:10350000A070B070A964B96180839183A283B383F2
:103510000895FC01208131814281538153FD02C015
:1035200080E0089580E02070307F5070ECE0569588
:10353000479537952795EA95D1F72059344009F4F6
:1035400081E00895FC01208131814281538153FD46
:1035500002C080E0089580E02070307F5070FCE071
:103560005695479537952795FA95D1F728583440C1
:1035700009F481E00895FC0180819181A281B381E9
:10358000B3FD02C080E008958070907FB0702CE0A1
:10359000B695A795979587952A95D1F7FC0184E074
:1035A000E039F80711F481E0089580E0E858F4402C
:1035B00009F481E00895FC01208131814281538129
:1035C00053FD02C080E0089580E02070307F50708D
:1035D0006CE056954795379527956A95D1F7205712
:1035E000314009F481E00895FC012081318142815C
:1035F000538153FD02C080E0089580E02070307F49
:1036000050707CE056954795379527957A95D1F778
:10361000245F384009F481E00895FC012081318164
:103620004281538153FD02C080E0089580E0207004
:10363000307F5070ECE05695479537952795EA9581
:10364000D1F72451394009F481E00895FC0120812B
:1036500031814281538153FD02C080E0089580E0B2
:103660002070307F5070ACE0569547953795279580
:10367000AA95D1F72856394009F481E00895FC0154
:1036800080819181A281B381B3FD02C080E0089561
:103690008070907FB0702CE0B695A7959795879530
:1036A0002A95D1F7FC0189E0E037F80711F481E0B1
:1036B000089580E0E856F94009F481E00895FC019E
:1036C00080819181A281B381B3FD02C080E0089521
:1036D00080709070A070B7702B2F33274427552728
:1036E000223031054105510591F023303105410566
:1036F000510569F0243031054105510541F080E064
:10370000253031054105510519F481E0089581E026
:103710000895AF92BF92CF92DF92EF92FF920F93F4
:103720001F93FC01E080F1800281138113FF4BC0E5
:10373000D801C70180709070A070B770AB2EBB2409
:10374000CC24DD2481E0A816B104C104D104F9F42D
:1037500080E090EFAFEFB0E0E822F9220A231B23CC
:103760005CE016950795F794E7945A95D1F7C70151
:1037700088709070892B39F18581823020F1968193
:1037800080E0278130E0282B392B3F701EC0CF010D
:103790000E945F1B882331F497E0A916B104C1048D
:1037A000D10489F480E090EFAFEFB0E0E822F92295
:1037B0000A231B234CE016950795F794E7944A9546
:1037C000D1F7970102C020E030E0C9011F910F91AD
:1037D000FF90EF90DF90CF90BF90AF9008950F9340
:1037E0001F938B010E94891BF801868397831F9189
:1037F0000F910895FC01208131814281538153FD55
:1038000002C080E0089580E02070307040705770F2
:10381000205030404040554009F481E00895FC01BB
:10382000208131814281538153FD02C080E008959F
:1038300080E0207030704070577020503040404021
:10384000534009F481E00895FC01208131814281D7
:10385000538153FD02C080E0089580E020703070F5
:1038600040705770205030404040524009F481E091
:1038700008950F931F938C01FB0186819781F801B6
:1038800010A2248122602E7F24831582A0E0B0E064
:103890009F70A070B070BA6180839183A283B3835C
:1038A000FA0166817781C8010E94F5181F910F9176
:1038B00008950F931F938C01FB0186819781F80176
:1038C00010A2248122602E7F24831582A0E0B0E024
:1038D0009F70A070B070BB6180839183A283B3831B
:1038E000FA0166817781C8010E94F5181F910F9136
:1038F00008950F931F938C01FB0186819781F80136
:1039000010A2248122602E7F24831582A0E0B0E0E3
:103910009F70A070B070BC6180839183A283B383D9
:10392000FA0166817781C8010E94F5181F910F91F5
:1039300008950F931F938C01FB0186819781F801F5
:1039400010A2248122602E7F24831582A0E0B0E0A3
:103950009F70A070B070BD6180839183A283B38398
:10396000FA0166817781C8010E94F5181F910F91B5
:103970000895FC01208131814281538153FD02C0B1
:1039800080E0089580E02070307F50707CE0569594
:103990004795379527957A95D1F728523A4009F4FB
:1039A00081E008950F931F938C01FB01868197811D
:1039B000F80110A2248122602E7F24831582A0E0CA
:1039C000B0E09F70A070B0709068A26AB961808307
:1039D0009183A283B383FA0166817781C8010E9433
:1039E000F5181F910F910895FC01208131814281CA
:1039F000538153FD02C080E0089580E02070307F45
:103A00005070ECE05695479537952795EA95D1F794
:103A100028543A4009F481E00895EF92FF920F9301
:103A20001F938C01FB01790186819781F80110A217
:103A3000248122602E7F24831582A0E0B0E09F7055
:103A4000A070B0709068A46AB96180839183A283EA
:103A5000B383FA0166817781C8010E94F51884E07A
:103A6000F8018583F086E1861F910F91FF90EF901A
:103A70000895FC018581833018F420E030E006C011
:103A8000978180E0208530E0282B392BC9010895EB
:103A9000FC01208131814281538153FD02C080E0CD
:103AA000089580E02070307F5070FCE05695479577
:103AB00037952795FA95D1F72852384009F481E0D7
:103AC00008950F931F938C01FB0186819781F80164
:103AD00010A2248122602E7F24831582A0E0B0E012
:103AE0009F70A070B0709068A666B9618083918362
:103AF000A283B383FA0166817781C8010E94F51819
:103B00001F910F910895FC012081318142815381E1
:103B100053FD02C080E0089580E02070307F507037
:103B2000BCE05695479537952795BA95D1F7285E0D
:103B30003D4009F481E008950F931F938C01FB0130
:103B400086819781F80110A2248122602E7F248330
:103B50001582A0E0B0E09F70A070B0709068A06A7D
:103B6000B96180839183A283B383FA0166817781EF
:103B7000C8010E94F5181F910F910895DC01169657
:103B8000FB0188E001900D928150E1F708950F93B9
:103B90001F938C01FB0186819781F80110A224817B
:103BA00022602E7F2483A0E0B0E09F70A070B070F0
:103BB0009067A465B96180839183A283B38388E011
:103BC0008583C801BA010E94BE1D1F910F910895FF
:103BD0000F931F938C01FB0186819781F80110A23E
:103BE000248122602E7F2483A0E0B0E09F70A0702B
:103BF000B0709067AC64B96180839183A283B38312
:103C000088E08583C801BA010E94BE1D1F910F91F3
:103C100008950F931F938C01FB0186819781F80112
:103C200010A2248122602E7F2483A0E0B0E09F7048
:103C3000A070B0709064A965B96180839183A283FC
:103C4000B38388E08583C801BA010E94BE1D1F911D
:103C50000F9108950F931F938C01FB01868197812B
:103C6000F80110A2248122602E7F2483A0E0B0E01E
:103C70009F70A070B0709064AB65B96180839183D0
:103C8000A283B38388E08583C801BA010E94BE1D68
:103C90001F910F910895FC01DB0116968D919C9167
:103CA000179710A2248122602E7F2483A0E0B0E029
:103CB0009F70A070B070A761B96180839183A28367
:103CC000B38386E085833696DB010D9001928150A7
:103CD000E1F70895FC01DB0116968D919C911797F1
:103CE00010A2248122602E7F2483A0E0B0E09F7088
:103CF000A070B070A964B96180839183A283B383FB
:103D000086E085833696DA0186E00D900192815037
:103D1000E1F708958F929F92AF92BF92CF92DF9278
:103D2000EF92FF920F931F93CF93DF93EC01962EA8
:103D3000872E8D81863008F48BC0E880F9800A8157
:103D40001B81A12CB12CC12C68E0D62EAE20BF2047
:103D5000C022D12213FF76C0D801C7018070907FA6
:103D6000B0705CE0B695A795979587955A95D1F771
:103D70008050914009F066C043C0A114B104C10451
:103D8000D10489F0D801C7018070907FB0704CE0F9
:103D9000B695A795979587954A95D1F78057914005
:103DA00009F056C02DC0D801C7018070907FB77050
:103DB0003CE0B695A795979587953A95D1F7A7E0FA
:103DC00081309A0779F18350974061F180E090EF5C
:103DD000AFEFB0E0E822F9220A231B232CE016956E
:103DE0000795F794E7942A95D1F792E0E91697E0C2
:103DF000F90671F517C0A114B104C104D10491F002
:103E0000D801C70180709070A070B770805090404A
:103E1000A040B14039F4C70180709078892B11F02F
:103E200082E001C080E0E82FF0E03696892D982DE1
:103E30009C01D901EC0FFD1F86E001900D9281508D
:103E4000E1F706C0CE010E94BB1A8823A1F695CFE8
:103E5000DF91CF911F910F91FF90EF90DF90CF9066
:103E6000BF90AF909F908F900895DB01FC01369634
:103E700088E001900D928150E1F70895FC01DB018B
:103E800016968D919C91179710A2248122602E7F07
:103E90002483A0E0B0E09F70A070B070A061B96111
:103EA00080839183A283B38386E085833696DB018A
:103EB0000D9001928150E1F70895FC01DB01169607
:103EC0008D919C91179710A2248122602E7F2483CC
:103ED000A0E0B0E09F70A070B0709061A067B0618A
:103EE00080839183A283B38386E085833696DB014A
:103EF0000D9001928150E1F70895FC01DB011696C7
:103F00008D919C91179710A2248122602E7F24838B
:103F1000A0E0B0E09F70A070B0709063A067B06147
:103F200080839183A283B38386E085833696DB0109
:103F30000D9001928150E1F7089580E00895DF939C
:103F4000CF93CDB7DEB729970FB6F894DEBF0FBE7B
:103F5000CDBFDC01198681E089838A831B821C82A4
:103F60001D821E828EEF8F831886ED91FC91119732
:103F70000288F389E02DCD01AE014F5F5F4F0995B7
:103F800029960FB6F894DEBF0FBECDBFCF91DF915B
:103F90000895FC01EF58FF4F80810895FC01EF5810
:103FA000FF4F108208950F931F93CF93DF93EC017F
:103FB0000E9445318823A9F08E010C5F1F4FC80174
:103FC0000E943A328823D9F3DE019596FE01349699
:103FD00081E201900D928150E1F7CB5BDF4F81E0F0
:103FE0008883DF91CF911F910F9108950F931F93B5
:103FF000CF93DF93EC01162F072F0E9445318823C2
:1040000089F0DE011496812F902F9C01F90181E245
:1040100001900D928150E1F7CE010E94D31F8823B9
:10402000D9F381E0DF91CF911F910F9108950F9304
:104030001F93CF93DF93DC018B017C9160E040E024
:1040400050E02BC0EA0129961196ED91FC91129750
:10405000E40FF51F26813781F801868197812817A3
:104060003907C9F41396ED91FC911497E60FF11DF1
:1040700080818F3F11F08F5F80831196ED91FC91CD
:104080001297D801E40FF51F86E001900D92815040
:10409000E1F781E005C06F5FAE01671798F280E03D
:1040A000DF91CF911F910F910895EF92FF920F939F
:1040B0001F93CF93DF93EC01DB0116960D911C91BA
:1040C00017970115110509F460C0E88040E05FEF23
:1040D000FF2420E030E03DC0642F70E0FC01E20FDF
:1040E000F31F86819781009721F08017910719F5BA
:1040F0004CC090818C919817F1F4918111968C911C
:1041000011979817C1F4928112968C911297981773
:1041100091F4938113968C911397981761F494817D
:1041200014968C911497981731F4958115968C916B
:104130001597981751F1EB81FC81E60FF71FE0818D
:10414000E51710F0E52F01C0F42E4F5F275F3F4FBA
:104150005E2F89819A814E1508F4BECF2F2D30E055
:10416000F90143E0EE0FFF1F4A95E1F7E20FF31F5D
:10417000E80FF91F89E00D9001928150E1F7EB8182
:10418000FC81E20FF31F81E08083DF91CF911F91CB
:104190000F91FF90EF900895EF92FF920F931F936E
:1041A0007C018B010E94872FF80166817781C7010E
:1041B0008A5B9F4F0E94EE141F910F91FF90EF902A
:1041C0000895EF92FF920F931F937C018B010E9441
:1041D0007A2FF80166817781C7018A5B9F4F0E9421
:1041E000C3131F910F91FF90EF900895EF92FF92EC
:1041F0000F931F93CF93DF937C01EB018A010E9401
:104200004531882361F0C7010496BE01A8010E94D0
:10421000C71DC7010E94D31F8823D9F381E0DF9116
:10422000CF911F910F91FF90EF900895EF92FF9221
:104230000F931F93CF93DF937C01EB018A010E94C0
:104240004531882361F0C7010496BE01A8010E9490
:10425000091EC7010E94D31F8823D9F381E0DF9193
:10426000CF911F910F91FF90EF900895EF92FF92E1
:104270000F931F93CF93DF937C01EB018A010E9480
:104280004531882361F0C7010496BE01A8010E9450
:10429000E81DC7010E94D31F8823D9F381E0DF9175
:1042A000CF911F910F91FF90EF900895EF92FF92A1
:1042B0000F931F93CF93DF937C01EB018A010E9440
:1042C0004531882361F0C7010496BE01A8010E9410
:1042D0002A1EC7010E94D31F8823D9F381E0DF91F2
:1042E000CF911F910F91FF90EF9008950F931F931F
:1042F000CF93DF938C01EB010E944531882359F065
:10430000C8010496BE010E945D1FC8010E94D31F10
:104310008823D9F381E0DF91CF911F910F91089508
:104320000F931F93CF93DF938C01EB010E944531D4
:10433000882359F0C8010496BE010E947D1FC80160
:104340000E94D31F8823D9F381E0DF91CF911F9181
:104350000F9108950F931F93CF93DF938C01EB017F
:104360000E944531882359F0C8010496BE010E947D
:104370004B1EC8010E94D31F8823D9F381E0DF912F
:10438000CF911F910F910895CF92DF92EF92FF92FC
:104390000F931F93CF93DF936C01EB018A01790197
:1043A0000E944531882369F0C6010496BE01A80128
:1043B00097010E940D1DC6010E94D31F8823D9F3C7
:1043C00081E0DF91CF911F910F91FF90EF90DF90EF
:1043D000CF900895EF92FF920F931F93CF93DF93A7
:1043E0007C01EB018A010E944531882361F0C701FD
:1043F0000496BE01A8010E94D21CC7010E94D31FCF
:104400008823D9F381E0DF91CF911F910F91FF9025
:10441000EF9008950F931F93CF93DF93EC018B01DF
:10442000C759DF4F88819981C956D040892B51F5F2
:10443000CD59DF4F8881C356D040882319F5CC5918
:10444000DF4F8881C456D0408823E1F4CB59DF4F39
:104450008881C556D0408823A9F4CA59DF4F888186
:10446000C656D040882371F4C959DF4F8881C7569A
:10447000D040882339F4C859DF4F8881C856D040CE
:10448000882371F10E948733C459DF4F2881398115
:104490004A815B81CC56D040621B730B840B950B19
:1044A000605D774080409040D8F414C0CE010496FF
:1044B000B8010E94721ACE010E94D31F8823D9F33B
:1044C0000E948733C459DF4F688379838A839B8333
:1044D00081E001C080E0DF91CF911F910F9108959D
:1044E0000E9445318823B1F3E1CFEF92FF920F9301
:1044F0001F93CF93DF93EC018B01F42EE52EC75968
:10450000DF4F88819981C956D040892B59F5CD5903
:10451000DF4F8881C356D040882321F5CC59DF4F27
:104520008881C456D0408823E9F4CB59DF4F888175
:10453000C556D0408823B1F4CA59DF4F8881C6568A
:10454000D040882379F4C959DF4F8881C756D040BD
:10455000882341F4C859DF4F8881C856D04088234A
:1045600009F43EC00E948733C459DF4F2881398146
:104570004A815B81CC56D040621B730B840B950B38
:10458000605D77408040904058F522C0DE01AD5913
:10459000BF4F8F2D9E2D9C01F90189E001900D9256
:1045A0008150E1F7CE010496B8014F2D5E2D0E9497
:1045B0006A1ECE010E94D31F8823D9F30E9487333D
:1045C000C459DF4F688379838A839B8381E001C06C
:1045D00080E0DF91CF911F910F91FF90EF900895B0
:1045E0000E9445318823A1F3D1CFFF920F931F93EF
:1045F000CF93DF938C01EB01F42E8F859889892B63
:1046000009F04CC0025A1F4FD8015C910E55104062
:1046100040E020E030E0D801A15ABF4F3CC0ED910E
:10462000FC911197E20FF31F90818985981781F50E
:1046300091818A85981761F592818B85981741F54C
:1046400093818C85981721F594818D85981701F5B4
:1046500095818E859817E1F40F591F4FD801ED9180
:10466000FC9101561040E40FF11D80818F3F11F045
:104670008F5F8083015A1F4FD801ED91FC910F5538
:104680001040E20FF31F86819781988B8F8706C0B9
:104690004F5F275F3F4F451710F257C08A89FF20B1
:1046A00091F498012C5F3F4FAE01475F5F4F893017
:1046B00028F0C901BE010E94591C19C0C901BE01E0
:1046C0000E94391C14C090E08F19910998012C5F49
:1046D0003F4FAE01475F5F4F09972CF0C901BE0104
:1046E0000E94791C04C0C901BE010E94991C4F2D73
:1046F00050E08A8990E0841B950B8930910514F075
:1047000088E090E0F82EF801818790E04C0F5D1F63
:104710000BC0E92FF0E0D801AE0FBF1FE40FF51F6B
:1047200083891A968C939F5FD80119968C9198175C
:1047300080F3C8010E94D31F8823D9F38F2DDF9106
:10474000CF911F910F91FF900895D801ED91FC91A9
:104750000484F585E02DC801BE012996AE010995B6
:10476000FF24ECCF2F923F924F925F926F927F92F5
:104770008F929F92AF92BF92CF92DF92EF92FF9271
:104780000F931F93DF93CF93CDB7DEB729970FB663
:10479000F894DEBF0FBECDBF7C0118861F8219863C
:1047A00019821A821B821C821D821E828C010B5D63
:1047B0001F4FC8010E94BB1A882339F0C7018A5BCA
:1047C0009F4FB8010E9462155FC1C8010E94DB1AA9
:1047D000882309F46DC0C8013E010894611C711C56
:1047E000B3010E94B418C801B3010E948A1E8F81D0
:1047F0009885892B09F446C1F3E62F2E312C2E0C17
:104800003F1C9981D1018C91981709F03DC1E4E6D4
:104810004E2E512C4E0C5F1C9A81F201808198170C
:1048200009F032C175E6872E912C8E0C9F1C9B815E
:10483000D4018C91981709F027C166E6A62EB12CF9
:10484000AE0CBF1C9C81F5018081981709F01CC13A
:1048500057E6C52ED12CCE0CDF1C9D81D6018C9144
:10486000981709F011C1870108591F4F9E81F8015F
:104870008081981709F008C1C701825A9F4FB30180
:104880000E94552089E690E0E80EF91ED7011D929E
:104890001D92FD011082F1011082D2011C92F401DF
:1048A0001082D5011C92F6011082D8011C92ECC036
:1048B000C8010E94F219882371F0C8018E010F5FB0
:1048C0001F4FB8010E948A1EC7018A5B9F4FB80123
:1048D0000E942F15D9C0C8010E94C019882309F46D
:1048E0005BC0C801BE016F5F7F4F0E94B418C80152
:1048F0000E947618BC01EEE5F0E0EE0EFF1ED70137
:104900005C91E2EAFFEFEE0EFF1E40E020E030E0B7
:10491000D701A15ABF4F25C0ED91FC911197E20F2D
:10492000F31F275F3F4F8681978186179707C1F452
:1049300017821682108610821182128213821482CC
:10494000158281E690E0E80EF91ED701ED91FC9109
:104950008FE99FEFE80EF91EE40FF11D108203C0EE
:104960004F5F4517C8F2D7011296ED90FC90139750
:104970008E010F5F1F4F0CC0D701ED91FC91048099
:10498000F581E02DC701B8010995F701E280F380B8
:10499000E114F10489F778C0C8010E94D91988236D
:1049A00009F470C0C801BE016F5F7F4F0E948A1E6C
:1049B0008F819885892B99F48981882381F48A8154
:1049C000882369F48B81882351F48C81882339F4FE
:1049D0008D81882321F48E81882309F46FC0C8015A
:1049E0000E94761898878F83C701825A9F4FBE0115
:1049F0006F5F7F4F0E94552047C0ED91FC9111974A
:104A0000E20FF31F275F3F4F868197818617970735
:104A1000C1F41782168210861082118212821382CC
:104A20001482158281E690E0E80EF91ED701ED911F
:104A3000FC918FE99FEFE80EF91EE40FF11D108243
:104A400003C04F5F4517C8F2D7011296ED90FC9056
:104A500013976E010894C11CD11C10C0C801B60187
:104A60000E94B418D701ED91FC910480F581E02DEE
:104A7000C701B6010995F701E280F380E114F10462
:104A800069F702C080E001C081E029960FB6F89472
:104A9000DEBF0FBECDBFCF91DF911F910F91FF9071
:104AA000EF90DF90CF90BF90AF909F908F907F90CE
:104AB0006F905F904F903F902F900895C8010E9493
:104AC0007618BC018EE590E0E80EF91ED7015C91E6
:104AD000E2EAFFEFEE0EFF1E40E020E030E0D701FB
:104AE000A15ABF4FAFCFCF92DF92EF92FF920F93B9
:104AF0001F93CF93DF936C018B01EA0179010E9430
:104B00004531882379F0C6010496B801AE019701BA
:104B100000E010E00E940B1AC6010E94D31F8823F8
:104B2000D9F381E0DF91CF911F910F91FF90EF902A
:104B3000DF90CF9008957F928F929F92AF92BF9215
:104B4000CF92DF92EF92FF920F931F93DF93CF9359
:104B5000CDB7DEB729970FB6F894DEBF0FBECDBF35
:104B60006C01B5E28B2E912C880E991E8A5B9F4FAB
:104B7000B4010E941218C6010E94B223882309F0D2
:104B80008BC018861F82198619821A821B821C828A
:104B90001D821E82C4018E010F5F1F4FB8010E944B
:104BA000B418AEE5EA2EF12CEC0CFD1CC701B801DF
:104BB0000E941720882321F0C401B8010E947C18AC
:104BC000C4018E010F5F1F4FB8010E94EF1B892B9C
:104BD00059F0C701B8010E941720882371F0C40161
:104BE000B8010E942A1909C018861F8219861982E5
:104BF0001A821B821C821D821E82D60112960D9182
:104C00001C9113977724AA24BB2422C02F813885B6
:104C10002115310559F0F801E680F780D701169685
:104C20008D919C9117972817390709F07501D801C4
:104C3000ED91FC910280F381E02DC801B40109954A
:104C4000882311F077247394F801028113815701AE
:104C500001151105D9F625E430E0C20ED31ED601A8
:104C60008C91EBEBFFEFCE0EDF1E8823A9F4A1148D
:104C7000B10491F0772081F4C4018E010F5F1F4FC2
:104C8000B8010E94B418C4010E9430199C01C601E9
:104C9000B501A8010E94732529960FB6F894DEBFCE
:104CA0000FBECDBFCF91DF911F910F91FF90EF907D
:104CB000DF90CF90BF90AF909F908F907F9008959E
:104CC0000F931F93CF93DF93EC018C010B5B1F4F6E
:104CD000F8018081882329F0CE010E949B25F801EC
:104CE0001082CE0185960E949E31882371F0CB5BA5
:104CF000DF4F1882C554D040CE010E949B25CF586B
:104D0000DF4F81E08883C157D040CE018A5B9F4F3F
:104D10000E941B16CE010E94A92FDF91CF911F91F7
:104D20000F9108950F931F93CF93DF938C01EB01A5
:104D30000E944531882359F0C8010496BE010E94A3
:104D40003E1FC8010E94D31F8823D9F381E0DF9161
:104D5000CF911F910F9108950F931F93CF93DF93DE
:104D6000EC018B010E9445318823A9F0F80166818E
:104D70007781CE0104960E949319DE011A96F801FC
:104D800086E001900D928150E1F7CE010E94D31F81
:104D90008823D9F381E0DF91CF911F910F9108957E
:104DA000EF92FF921F93CF93DF937C01EB01142FBF
:104DB0000E9445318823D1F1123059F0133081F02F
:104DC0001130D9F4898182958F70482F50E0888105
:104DD0000DC0998180E0AC0140705F708A8113C082
:104DE0008C8182958F70482F50E08B8190E024E079
:104DF000880F991F2A95E1F709C09C8180E0AC01DA
:104E000040705F708D8190E08F709070482B592BAF
:104E10002E813F81C7010496612F70E00E944119E5
:104E2000C7010E94D31F8823D9F381E0DF91CF917E
:104E30001F91FF90EF900895EF92FF920F931F93B1
:104E4000CF93DF93EC0184E00E94DE30882309F4E5
:104E50005FC090E0892F8295807F8093ED008091E4
:104E6000F40081608093F4009F5F9F3099F7CE013A
:104E70008A5B9F4FBE010E940B166EE5E62EF12C59
:104E8000EC0EFD1E8AE0F70180838AE590E00E9427
:104E900074038E01015A1F4FF80180839183F7013B
:104EA000808190E00E947403FE01EF59FF4F8083E0
:104EB000918340E0B701D801EF0125C0242F30E0F5
:104EC000C90153E0880F991F5A95E1F7820F931F8C
:104ED000ED91FC911197E80FF91F17821682108649
:104EE000108211821282138214821582ED91FC913C
:104EF0001197E80FF91F17821682E881F981E20FF6
:104F0000F31F10824F5FFB0180814817B8F281E0E8
:104F1000DF91CF911F910F91FF90EF90089580E066
:104F200090E008950895CF93DF93EC01DB0188852D
:104F30008823A1F5E889F98916962D913C91179758
:104F40002115310541F086819781009721F02817BE
:104F5000390711F123C09C9180819817F9F41196BB
:104F60009C91119781819817C9F412969C91129780
:104F70008281981799F413969C91139783819817BF
:104F800069F414969C9114978481981739F41596B6
:104F90009C918581981711F481E08887DF91CF91EA
:104FA00008950F931F93CF93DF93EC01EE81FF8160
:104FB000309709F49FC08085882309F49BC08D8DAC
:104FC0009E8D2FEF8F3F920761F18E010C5E1F4F78
:104FD000805F9F4F81F4AC81BD81ED91FC91119771
:104FE0006E817F810688F789E02DCD01A8010995A2
:104FF000882389F311C0AC81BD81ED91FC9111979B
:105000006E817F812D8D3E8D008CF18DE02DCD0147
:10501000A8010995882379F38FEF9FEF9E8F8D8FDD
:1050200069C08E858823C9F1AC81BD81ED91FC9169
:1050300011976A897B890488F589E02DCD014F8518
:105040000995182F882309F048C00E9487332A85C4
:105050003B854C855D85621B730B840B950B6958F2
:10506000734180409040C8F181E089871E86E881C5
:10507000F9810084F185E02DCE0160E041E050E14E
:105080002AC01E861F860E9487336A877B878C878B
:105090009D8730C0410F4F872DC08985882351F5EA
:1050A0000E9487332A853B854C855D85621B730B87
:1050B000840B950B6958734180409040D8F081E093
:1050C00089871E86E881F9810084F185E02DCE0173
:1050D00060E042E050E109950DC04F85242F30E09B
:1050E000210F311DEA89FB89828990E02817390751
:1050F00089F6C7CFDF91CF911F910F910895CF937C
:10510000DF93EC01DC015496FB0189E001900D92E4
:105110008150E1F780EF9FEF9E8F8D8FDF91CF91D0
:105120000895CF93DF93EC01DC015496FB0189E0F5
:1051300001900D928150E1F75E8F4D8FDF91CF91FD
:105140000895CF93DF93EC0189858823A1F1198617
:105150002A893B89C901DC01FB018BE501900D9295
:105160008150E1F7AA89BB89EE81FF818681978111
:1051700017969C938E93169780818C9381811196BC
:105180008C931197828112968C9312978381139638
:105190008C931397848114968C931497858115961C
:1051A0008C9381E08E871F860E9487336A877B8776
:1051B0008C879D8781E0DF91CF910895BF92CF9238
:1051C000DF92EF92FF920F931F93DF93CF93CDB7B0
:1051D000DEB762970FB6F894DEBF0FBECDBF8C016D
:1051E0007B01DC011696ED91FC911797309709F43D
:1051F000C3C18085882309F4BFC1CB010E945F1B16
:10520000882309F0BEC0C7010E94B91C882309F495
:1052100051C018861F82198619821A821B821C822D
:105220001D821E82C701BE016F5F7F4F0E94EF1B70
:10523000D8011696ED91FC911797309709F49CC10F
:105240002F8138852115310541F08681978100979E
:1052500021F028173907F9F08FC1998180819817BB
:1052600009F08AC19A818181981709F085C19B81D3
:105270008281981709F080C19C818381981709F079
:105280007BC19D818481981709F076C19E818581BB
:10529000981709F071C1D801ED91FC910084F18556
:1052A000E02DC80161E040E050E0099581E0F8019F
:1052B000818765C1C7010E94F41C882309F45CC181
:1052C00018861F82198619821A821B821C821D82EF
:1052D0001E82C701BE016F5F7F4F0E94EF1BD80186
:1052E0001696ED91FC911797309709F445C12F81DF
:1052F00038852115310541F086819781009721F08D
:1053000028173907F9F038C199818081981709F079
:1053100033C19A818181981709F02EC19B818281C6
:10532000981709F029C19C818381981709F024C13D
:105330009D818481981709F01FC19E8185819817EE
:1053400009F01AC1C7010E94391DAC0195FF05C0C3
:1053500081E0F801868717860AC0D8011E961C9244
:105360001E971F961C921F9781E019968C93D80167
:10537000ED91FC910084F185E02DC80160E0099574
:10538000FDC0198A188A1A8A1A861B861C861D86F1
:105390001E861F86C701BE01665F7F4F0E94EF1BFE
:1053A000D8011696ED91FC911797309709F4E4C057
:1053B000288939892115310549F08681978100971F
:1053C00029F02817390709F4EAC0D6C09A858081E8
:1053D000981709F0D1C09B858181981709F0CCC03E
:1053E0009C858281981709F0C7C09D858381981795
:1053F00009F0C2C09E858481981709F0BDC09F85C1
:105400008581981709F0B8C0CAC0F8018085882343
:1054100009F03FC0C7010E94241C882329F0D8014D
:1054200018968C918823A9F5D8015096ED91FC919E
:105430005197288939892115310541F08681978155
:10544000009721F028173907F9F0BFC09A858081AD
:10545000981709F0BAC09B858181981709F0B5C0EB
:105460009C858281981709F0B0C09D85838198172B
:1054700009F0ABC09E858481981709F0A6C09F856E
:105480008581981709F0A1C0F8018085882309F06B
:105490009CC0C7010E940F1C882329F4C7010E94E9
:1054A000241C882381F0D80118961C9218975096D6
:1054B000ED91FC915197128A50966D917C91519784
:1054C000C7010E94B4188C2D9B2D9C0190E00AC04E
:1054D0008289E90FF11DE80FF11DD9018D919D0120
:1054E000838B9F5FD8015096ED91FC9151979D154C
:1054F00078F382898D0D828BC7010E94FA1B882365
:1055000029F4C7010E94241C8823C1F1D801ED9120
:10551000FC910680F781E02DC8010995AC01D80106
:105520005096ED91FC915197BFEF803F9B0729F476
:10553000C801BF010E947F2804C0C801BF010E94AA
:10554000912881E0F80180871AC0C7010E94241CBD
:105550008823A1F0D80118968C91BE01665F7F4F19
:10556000882321F0C80140E050E603C0C80140E0B4
:1055700050E20E94912802C080E001C081E0629662
:105580000FB6F894DEBF0FBECDBFCF91DF911F9154
:105590000F91FF90EF90DF90CF90BF900895C701DB
:1055A000BE01665F7F4F0E94B418C7010E946E184B
:1055B000C82EB92EC7010E947318D82EC7010E94A9
:1055C0000F1C882309F021CF25CFC7010E94FA1BA9
:1055D000882309F0BFCFB9CF0F931F93CF93DF93E9
:1055E000EC01EE81FF81309709F49BC08085882310
:1055F00009F08FC096C0CA0173E0880F991F7A9591
:10560000E1F7840F951F08851985080F191FF80108
:105610008085282F30E0C901817490708134910514
:1056200059F4AC81BD81ED91FC9111976E817F8120
:1056300000A0F1A1E02D0FC0C90181729070819787
:1056400009F5AC81BD81ED91FC9111976E817F814F
:10565000048CF58DE02DCD01A8010995882309F46E
:1056600060C02E853F85C90163E0880F991F6A9548
:10567000E1F7820F931FE885F985E80FF91F808510
:105680008E7F41C021FF20C0AC81BD81ED91FC9196
:1056900011976E817F810288F389E02DCD01A801E9
:1056A00009958823F1F12E853F85C90153E0880FC4
:1056B000991F5A95E1F7820F931FE885F985E80F46
:1056C000F91F80858D7F1FC024FF1FC0AC81BD8165
:1056D000ED91FC9111976E817F81068CF78DE02D05
:1056E000CD01A80109952E853F85C90143E0880FAA
:1056F000991F4A95E1F7820F931FE885F985E80F16
:10570000F91F80858F7E80870CC04F5F5F4F5F875A
:105710004E874E855F858A859B854817590708F413
:105720006ACFDF91CF911F910F910895DC011996F7
:105730007C936E9318971B965C934E931A9756958D
:1057400047951D965C934E931C9740E050E020E0F7
:1057500030E00BC01896ED91FC911997E20FF31F02
:1057600010864F5F5F4F275F3F4F1A968D919C9138
:105770001B974817590770F30895DC01CB01F3E03C
:10578000880F991FFA95E1F7860F971F1896ED91EC
:10579000FC911997E80FF91F808586FD02C080E013
:1057A0000895826080871E968D919C911F97861721
:1057B000970708F4BC011F967C936E931E9781E0B7
:1057C0000895DF92EF92FF920F931F93CF93DF9391
:1057D0007C018B01DD24C0E0D0E024C0CE01B3E029
:1057E000880F991FBA95E1F78C0F9D1F680F791FDD
:1057F000DB0118968C9185FF0DC0D701ED91FC91CE
:105800000680F781E02DC701BE010995882311F0BC
:10581000DD24D3942196F70182859385C817D90793
:1058200008F04AC0D70118966D917C9119971A9685
:105830002D913C911B97C217D307F4F5F8014081D5
:10584000FE01A3E0EE0FFF1FAA95E1F7EC0FFD1F8D
:10585000E60FF71F80814817C1F5D80111969C917A
:1058600011978181981789F512969C9112978281E0
:10587000981759F513969C9113978381981729F5DA
:1058800014969C91149784819817F9F415969C911D
:10589000159785819817C9F416969C91169786815D
:1058A000981799F417969C918781981771F4BFEF18
:1058B000CF3FDB0709F092CF8D2DDF91CF911F9164
:1058C0000F91FF90EF90DF90089521963996C217BF
:1058D000D3070CF4BFCFF0CF0F931F93CF93DF9379
:1058E000EC01DB0100E020E030E025C0F90193E0AD
:1058F000EE0FFF1F9A95E1F7E20FF31FE60FF71F78
:10590000808586FF10C0816080874E855F85C901D4
:10591000622F892F4217530718F4CA01642F892F69
:105920006E878F8701E02F5F3F4F8A859B85281701
:10593000390708F044C0688579854A855B85241756
:105940003507ECF51C91F90183E0EE0FFF1F8A95F6
:10595000E1F7E20FF31FE60FF71F80811817A9F593
:1059600011969C9111978181981779F512969C91C7
:1059700012978281981749F513969C91139783810A
:10598000981719F514969C91149784819817E9F447
:1059900015969C91159785819817B9F416969C9148
:1059A00016978681981789F417969C911797878187
:1059B000981759F48FEF2F3F380709F097CF802FB2
:1059C000DF91CF911F910F9108952F5F3F4F39962F
:1059D0002417350714F2F3CF0F931F93CF93DF9360
:1059E000EC01DB0100E020E030E025C0F90193E0AC
:1059F000EE0FFF1F9A95E1F7E20FF31FE60FF71F77
:105A0000808585FF10C0816080874E855F85C901D4
:105A1000622F892F4217530718F4CA01642F892F68
:105A20006E878F8701E02F5F3F4F8A859B85281700
:105A3000390708F044C0688579854A855B85241755
:105A40003507ECF51C91F90183E0EE0FFF1F8A95F5
:105A5000E1F7E20FF31FE60FF71F80811817A9F592
:105A600011969C9111978181981779F512969C91C6
:105A700012978281981749F513969C911397838109
:105A8000981719F514969C91149784819817E9F446
:105A900015969C91159785819817B9F416969C9147
:105AA00016978681981789F417969C911797878186
:105AB000981759F48FEF2F3F380709F097CF802FB1
:105AC000DF91CF911F910F9108952F5F3F4F39962E
:105AD0002417350714F2F3CFDC01522FCB0123E05A
