:100000000C94EA010C9415020C9415020C94150240
:100010000C9415020C9415020C9415020C94150204
:100020000C9415020C9415020C9415020C941502F4
:100030000C9415020C9415020C9415020C941502E4
:100040000C9415020C941B2E0C941E2B0C94142B48
:100050000C9415020C9415020C9415020C941502C4
:100060000C9415020C9415020C9415020C941502B4
:100070000C9415020C9415020C9415020C941502A4
:100080000C9415020C9415020C9415020C94150294
:100090000C9415023C3F786D6C2076657273696F25
:1000A0006E3D22312E302220656E636F64696E676B
:1000B0003D225554462D38223F3E0A3C6364693E3A
:1000C0000A3C6964656E74696669636174696F6E20
:1000D0003E0A3C6D616E7566616374757265723E51
:1000E0005261696C7374617273204C696D697465D7
:1000F000643C2F6D616E7566616374757265723EE6
:100100000A3C6D6F64656C3E496F3C2F6D6F646592
:100110006C3E0A3C68617264776172655665727301
:10012000696F6E3E312E303C2F6861726477617268
:100130006556657273696F6E3E0A3C736F667477BD
:1001400061726556657273696F6E3E312E303C2F59
:10015000736F66747761726556657273696F6E3E10
:100160000A3C2F6964656E74696669636174696FBE
:100170006E3E0A3C7365676D656E74206F726967C9
:10018000696E3D2230222073706163653D2230220A
:100190003E0A3C67726F7570206F66667365743DCA
:1001A000223022207265706C69636174696F6E3DE4
:1001B0002238223E0A3C6E616D653E50726F647556
:1001C000636564204576656E74733C2F6E616D6562
:1001D0003E0A3C6465736372697074696F6E3E5465
:1001E0006865204576656E7449447320666F722099
:1001F000746865206F7574707574733C2F646573D3
:100200006372697074696F6E3E0A3C6576656E74E0
:1002100069642F3E0A3C6576656E7469642F3E0AF8
:100220003C2F67726F75703E0A3C67726F75702065
:100230007265706C69636174696F6E3D2238223E2D
:100240000A3C6E616D653E436F6E73756D6564202B
:100250004576656E74733C2F6E616D653E0A3C6435
:1002600065736372697074696F6E3E54686520458A
:1002700076656E7449447320666F722074686520D9
:10028000696E707574733C2F646573637269707402
:10029000696F6E3E0A3C6576656E7469642F3E0A2E
:1002A0003C6576656E7469642F3E0A3C2F67726FF9
:1002B00075703E0A3C2F7365676D656E743E0A3C2F
:1002C0002F6364693E0A00015261696C7374617244
:1002D00073204C696D697465640A496F20446576C2
:1002E000656C6F706572277320426F6172640A31AA
:1002F0002E30007E6E7F620C37260C37120C370EC4
:100300000C37060C37020C37000C37000021002494
:100310000027002A002D00300033000000220025B5
:100320000028002B002E00310034000000200023A4
:1003300000260029002C002F0032000101010101DC
:100340000101010303030303030303020202020288
:100350000202020404040404070704050505050558
:100360000505050606060606060606070701020439
:10037000081020408001020408102040800102047F
:1003800008102040800102040810081080010204B7
:100390000810204080010204081020408001020063
:1003A000000000000000000000000000000000004D
:1003B000000000000000000000000000000000003D
:1003C000000000000000000000000000000000002D
:1003D0000000690311241FBECFEFD0E1DEBFCDBF07
:1003E00011E0A0E0B1E0E4E9FFE500E00BBF02C0EE
:1003F00007900D92AE38B107D9F71BBE14E0AEE8F6
:10040000B1E001C01D92A734B107E1F713E0C4EDDC
:10041000D3E004C02297FE010E94C42FC23DD10741
:10042000C9F70E948C2F0C94C82F0C940000CF9316
:10043000DF93BC018230910510F462E070E0A0917E
:100440004504B0914604ED01E0E0F0E040E050E00A
:1004500021C0888199818617970769F48A819B81D9
:10046000309719F09383828304C09093460480935D
:100470004504FE0134C06817790738F44115510569
:1004800019F08417950708F4AC01FE018A819B815D
:100490009C01E9012097E9F641155105A9F1CA012E
:1004A000861B970B049708F4BA01E0E0F0E02AC03D
:1004B0008D919C91119784179507F9F4641775072E
:1004C00081F412968D919C911397309719F0938334
:1004D000828304C09093460480934504FD013296C4
:1004E0004CC0CA01861B970BFD01E80FF91F6193F1
:1004F000719302978D939C9340C0FD0182819381FB
:100500009C01D9011097A1F6809143049091440475
:10051000892B41F48091020190910301909344044E
:100520008093430440910401509105014115510508
:1005300041F44DB75EB78091000190910101481BD5
:10054000590B2091430430914404CA01821B930B40
:100550008617970780F0AB014E5F5F4F84179507B2
:1005600050F0420F531F5093440440934304F90149
:100570006193719302C0E0E0F0E0CF01DF91CF9191
:100580000895CF93DF93009709F450C0EC012297B0
:100590001B821A82A0914504B0914604109709F17C
:1005A00040E050E0AC17BD0708F1BB83AA83FE0111
:1005B00021913191E20FF31FAE17BF0779F48D91AE
:1005C0009C911197280F391F2E5F3F4F3983288345
:1005D00012968D919C9113979B838A8341155105A7
:1005E00071F4D0934604C093450420C012968D91B7
:1005F0009C911397AD01009711F0DC01D3CFFA0164
:10060000D383C28321913191E20FF31FCE17DF070D
:1006100069F488819981280F391F2E5F3F4FFA01B5
:10062000318320838A819B8193838283DF91CF9161
:100630000895FC0105900020E9F7809590958E0FB4
:100640009F1F089580E008950895CF93DF93DB0105
:10065000EC01EC81FD813097B9F180858823A1F10F
:1006600016964D915C9117974115510549F0868179
:100670009781009729F020E04817590731F522C0EB
:100680009C918081981701F511969C911197818119
:100690009817D1F412969C91129782819817A1F421
:1006A00013969C9113978381981771F414969C91DB
:1006B00014978481981741F420E015969C918581C8
:1006C000981719F421E001C020E0822FDF91CF912B
:1006D0000895109295011092940110929601109233
:1006E0008E0110928F011092900110929101109240
:1006F000920110929301E7E9F1E0108610821182D5
:10070000128213821482158216821782399682E031
:10071000E73BF80791F71092BA021092B90280E60F
:1007200091E09093B8028093B7021092D002109299
:10073000CF021092D1021092C9021092CA021092F6
:10074000CB021092CC021092CD021092CE021092E7
:10075000D9021092D8021092DA021092D2021092AC
:10076000D3021092D4021092D5021092D6021092A7
:10077000D7021092F1021092F0021092F20210923F
:10078000EA021092EB021092EC021092ED0210922B
:10079000EE021092EF021092FA021092F9021092F9
:1007A000FB021092F3021092F4021092F5021092E2
:1007B000F6021092F7021092F8021092FD021092C7
:1007C000080310920703109205031092040310927D
:1007D0000603109215031092210310922003109229
:1007E000220310921A0310921B0310921C03109202
:1007F0001D0310921E0310921F031092270388E31B
:1008000091E09093290380932803409690933103BD
:100810008093300310923E0310923F0310924003E6
:10082000E1E4F3E088E081938F5F8031E1F78AE0D3
:1008300091E090934A038093490386E891E0909376
:1008400052038093510381E08093570380935803B0
:100850001092590310925A0310925B0310925C039A
:1008600010925D0310925E0389E590E00E941702EA
:1008700080935F039093600389E590E00E941702E4
:1008800080936103909362038EE191E090934A0319
:10089000809349030E96909352038093510384E111
:1008A00091E0909366038093650386E591E09093D1
:1008B0007F0380937E031092B0031092AF031092D7
:1008C000B1031092A9031092AA031092AB031092E5
:1008D000AC031092AD031092AE031092B9031092C4
:1008E000B8031092BA031092B2031092B30310929D
:1008F000B4031092B5031092B6031092B7038CEBB9
:1009000093E060E340E00E94C51088ED93E061E36E
:1009100040E00E94C510089587EB92E00E945722A4
:1009200008950F931F93CF93DF938C01C0E0D0E025
:10093000BE016650704F84EF93E00E947711F8017A
:10094000EC0FFD1F80832196C630D10589F7F80191
:1009500080818F3F81F481818F3F69F482818F3F55
:1009600051F483818F3F39F484818F3F21F4858155
:100970008F3F09F4FFCFDF91CF911F910F91089521
:100980001F9310E0812F61E00E94182F812F60E0FB
:100990000E94442F1F5F1830A9F7812F60E00E944A
:1009A000182F812F61E00E94442F1F5F1031A9F79B
:1009B0008EE891E00E94910487EB92E00E940B2365
:1009C00088E293E067EB72E04EE851E00E94370B5B
:1009D00088E293E067E971E040E20E948B0E89E4CF
:1009E00093E067EB72E04EE851E028E233E00E94CA
:1009F000810885E693E067EB72E04EE851E028E27B
:100A000033E00E9445058EE793E067EB72E04EE825
:100A100051E00E941E0F87EB92E068E273E00E94B3
:100A2000251D87EB92E069E473E00E94251D87EBAA
:100A300092E065E673E00E94251D87EB92E06EE789
:100A400073E00E94251D1F91089580E00895DC0148
:100A50001296ED91FC911397A081B18150962D9142
:100A60003C915197CF01F90109950895FC018589C1
:100A700096890E944D0D64E670E080E090E00E944F
:100A8000712EE0E0F0E009950895EF92FF920F9348
:100A90001F938C01FC0173836283558344838FEF22
:100AA000828783871186368B258B9CEBE92E93E01A
:100AB000F92EC70140E050E060E070E00E94A21013
:100AC000C7010E94CD108091D703F801848788ED7B
:100AD000E82E83E0F82EC7014FEF50E06FEF70E093
:100AE0000E94A210C7010E94CD108091F303F8016B
:100AF0008587858996894996908F878B1686128A75
:100B00001F910F91FF90EF900895EF92FF921F9326
:100B1000CF93DF937C01162F8CEB93E040E050E005
:100B200060E070E00E94A21088ED93E041E050E0A8
:100B300060E070E00E94A210112311F410E019C0CF
:100B4000C0E0D0E0D70155968D919C9156970896BC
:100B5000BE0140E00E94D128F70185899689089658
:100B6000BE0140E00E94B5282196C032D10551F760
:100B7000E5CF812F60E00E94442F1F5F1830C9F736
:100B80008FEFD7011A968C931A971B968C931B970D
:100B90005596ED91FC915697168A18961C92DF9106
:100BA000CF911F91FF90EF900895EF92FF920F93D6
:100BB0001F93CF93DF93EC01EC81FD81309709F413
:100BC00099C28085882309F495C28985882351F4C8
:100BD00081E0898788ED93E041E050E060E070E0DB
:100BE0000E94A2108CEB93E00E94CD1088ED93E060
:100BF0000E94CD102091D70390E0222311F480E0D1
:100C000004C08091F303811181E08F879F5F98304A
:100C1000A1F78823E9F02C878091F3038D878091D9
:100C2000CC039091CD03A091CE03B091CF0381343A
:100C30002FE1920720E0A20720E0B20714F083E042
:100C400006C0895B9B40A040B04014F082E08F87D3
:100C50009F858E85891799F09E879A8B8CEB93E000
:100C600040E050E060E070E00E94A21088ED93E068
:100C700041E050E060E070E00E94A21001C01A8ADA
:100C80002091D7038C85821799F08091CC039091A5
:100C9000CD03A091CE03B091CF038C349105A10573
:100CA000B1053CF02C87222321F081E0888B01C024
:100CB000188A2091F3038D858217D1F08091E80383
:100CC0009091E903A091EA03B091EB038C34910574
:100CD000A105B1053CF02D878091F303882311F025
:100CE00081E0898B00E010E0A1E0EA2EF12C02C047
:100CF000198AF8CFEF89F88DE00FF11F80810E94EB
:100D0000662F782F6C89A701002E02C0440F551F53
:100D10000A94E2F7862F90E084239523002E02C0E8
:100D2000959587950A94E2F7272F30E0821793076D
:100D300061F0713029F4642B6C8B8B89842B09C092
:100D4000842F809586238C8B05C0942F90958B895A
:100D500089238B8B0F5F1F4F0830110559F688854B
:100D6000883009F459C0803809F4DBC0882309F0C1
:100D7000C1C18A89833021F4CE010E943605BAC1EF
:100D8000823079F488ED93E04AEA5AEA6AEA7AEA2C
:100D90000E94A2108CEB93E045E555E565E575E50D
:100DA000A7C1813021F4CE010E942705A3C1888903
:100DB0008823B9F088E08887ED89FE8981E0868BF9
:100DC0008CEB93E040EF50EF60EF70EF0E94A210C9
:100DD00010E0812F60E00E94442F1F5F1830C9F798
:100DE00089C18989882309F485C180E88887ED89CC
:100DF000FE8981E0868B88ED93E040EF50EF60EF55
:100E000070EF0E94A21010E0812F60E00E94442F3A
:100E10001F5F1830C9F76EC18A898823E1F4888979
:100E2000882351F188ED93E040E050E060E070E00D
:100E30000E94A2108A85992787FD9095029661E20B
:100E400070E00E949B2F81508A878F3F39F487E0A2
:100E500060E00E94442FCE0161E002C180310CF0BD
:100E60008AC0182F159580FFBCC08CEB93E04AE038
:100E700050E06AE070E0BBC08989882329F16B8566
:100E800067FD09C08D899E89772767FD7095089653
:100E900041E00E94B5286A85603144F08D899E89C1
:100EA000772767FD70956051704009C067FDD6C017
:100EB0008D899E89772767FD7095605F7F4F0896C3
:100EC00041E00E94B528CAC08B89882309F412C169
:100ED00020E030E0682F70E0422FCB01022E02C0EC
:100EE000959587950A94E2F780FD06C04F5F2F5FC6
:100EF0003F4F2830310581F7242F30E05B85652F87
:100F0000772767FD7095CB01959587952817390749
:100F100009F0CEC057FDE3C060FFE1C08FEF8B87C3
:100F200021C08A89882309F096CF8889882309F40B
:100F30006EC088ED93E040EF50EF60EF70EF0E94DD
:100F4000A2108A85992787FD9095029661E270E04C
:100F50000E949B2F81508A878F3F59F487E060E081
:100F60000E94442F8CEB93E040EF50EF60EF70EF66
:100F7000BFC080315CF188ED93E04AE050E06AEA5E
:100F80007AE00E94A2102A85332727FD3095C901F7
:100F9000409795958795182F20FF07C08CEB93E01D
:100FA00040E050EA60E070EA06C08CEB93E04FEF5F
:100FB0005FEF6FEF7FEF0E94A210812F61E00E9430
:100FC000442F8A858031D1F487E01DC0182F1595F4
:100FD00080FF07C08CEB93E040E050EA60E070EAED
:100FE00006C08CEB93E04FEF5FEF6FEF7FEF0E9457
:100FF000A210812F61E00E94442F8A8582300CF478
:1010000079C0812F815060E00E94442F73C089898C
:10101000882349F16B8567FD09C08D899E897727F3
:1010200067FD7095089641E00E94D1286A8560317D
:1010300044F08D899E89772767FD709560517040D7
:1010400009C067FD0BC08D899E89772767FD709564
:10105000605F7F4F089641E00E94D128CE0160E09A
:101060000E94850547C08B89882309F443C020E08E
:1010700030E0682F70E0422FCB01022E02C0959520
:1010800087950A94E2F780FD06C04F5F2F5F3F4FC0
:101090002830310581F7242F30E05B85652F7727D5
:1010A00067FD7095CB01959587952817390751F005
:1010B000220F331F2B878CEB93E04FEF5FEF6FEF27
:1010C0007FEF16C057FD0BC060FF09C08FEF8B8705
:1010D0008CEB93E040E050E060E070E009C0440F2A
:1010E0004F5F4B878CEB93E04AE050E06AE070E0A2
:1010F0000E94A210DF91CF911F910F91FF90EF906E
:101100000895FC01338F228F738762875587448748
:101110007383628355834483089508950895DF920D
:10112000EF92FF920F931F93DF93CF93CDB7DEB76C
:10113000C256D0400FB6F894DEBF0FBECDBF7C01C3
:10114000198A188A1A8A1A861B861C861D861E868C
:101150001F861A8E198E1B8E1B8A1C8A1D8A1E8A58
:101160001F8A188E80E28D8FDE015396F701268943
:101170003789C901FC0189E001900D928150E1F7A6
:10118000D7015696ED91FC915797848990E09C0188
:101190002C7F307024383105F1F0253831052CF4DE
:1011A0002038310509F0D8C009C02C38310509F4C0
:1011B000A1C0283A310509F0CFC057C087E08C8F15
:1011C00082E88E8F88E68F8F18A282EF89A38FEF37
:1011D0008AA38DEF17C088E08C8F86E88E8F858973
:1011E0008F8F18A219A21AA21BA21CA285898D3F5B
:1011F00059F08F3F91F587E88E8F18A219A282E0EF
:101200008AA383E38BA329C087E88E8FF701828DA1
:10121000938D0E94410B692F77278827992768A310
:10122000D7015A968D919C915B970E94410BBC010E
:101230008827992769A3F701828D938D0E94410B1E
:10124000672F782F892F99276AA3D7015A968D91F6
:101250009C915B970E94410B6BA3C7010896BE014E
:10126000665F7F4F0E94D52577C083709070813074
:101270009105E1F1029709F06FC018861F82198667
:1012800019821A821B821C821D821E82DE01119627
:10129000759686E001900D928150E1F7D701149682
:1012A000ED91FC91159799818081981709F054C0B0
:1012B0009A818181981709F04FC09B81828198178C
:1012C00009F04AC09C818381981709F045C09D812F
:1012D0008481981709F040C09E8185819817E1F5B7
:1012E0005A968D919C915B970E944D0DE0E0F0E045
:1012F000099532C015891770812F90E0B3E0880FEF
:10130000991FBA95E1F702968C8F8EE88E8F84EF45
:1013100093E062E070E00E947711D82E84EF93E0B2
:1013200063E070E00E947711082F1111FFCFC70111
:101330000896BE01665F7F4F0E94D52584EF93E03B
:1013400062E070E04D2D0E947E1184EF93E063E037
:1013500070E0402F0E947E11CE59DF4F0FB6F894F7
:10136000DEBF0FBECDBFCF91DF911F910F91FF90D8
:10137000EF90DF900895FF920F931F93CF93DF9329
:10138000EC01EE89FF89018D25899689F788108DFA
:101390008489682F70E0637070706130710561F04E
:1013A000623071051CF4672B29F006C062307105AC
:1013B00019F404C00D3F11F080E02FC030E040E090
:1013C00050E0522F442733272227892F90E0A0E0B6
:1013D000B0E0DC0199278827282B392B4A2B5B2B7F
:1013E000812F90E0A0E0B0E0282B392B4A2B5B2B1B
:1013F0008F2D90E0A0E0B0E0BA2FA92F982F88277A
:10140000282B392B4A2B5B2B79968A8D9B8DB90122
:10141000402F9F010E948F0B81E0DF91CF911F91A0
:101420000F91FF900895EF92FF921F93DF93CF9358
:10143000CDB7DEB7C955D0400FB6F894DEBF0FBEAA
:10144000CDBF7C0118861F82198619821A821B82E1
:101450001C821D821E82198A188A1A8A1A861B8685
:101460001C861D861E861F86DE011A96FC01868953
:1014700097899C01F90189E001900D928150E1F773
:10148000D7015696ED91FC915797DE0154967396CD
:1014900086E001900D928150E1F78D898F70806513
:1014A0008D8BD7015696ED91FC915797118D8589BB
:1014B00090E0A0E0B0E0582F442733272227868908
:1014C00090E0A0E0B0E0DC0199278827282B392B99
:1014D0004A2B5B2B808D90E0A0E0B0E0282B392BCD
:1014E0004A2B5B2B878990E0A0E0B0E0BA2FA92FB0
:1014F000982F8827282B392B4A2B5B2B848990E047
:10150000837090708130910581F0823091051CF4D8
:10151000892B39F00AC08230910571F1039729F4C3
:1015200006C01D3F49F11F3F11F080E03BC0B901EB
:10153000C901810F911D8553924010F014E3121BD5
:10154000DE015A9680E090E0212F30E00FC0E2E00B
:1015500063337E0710F01C9205C0FB01EC56FF4F71
:10156000E491EC93019611966F5F7F4F821793077A
:1015700070F31A5F1B8B0EC0D7015A968D919C9108
:101580005B97B901412F9E01265E3F4F0E944E0B93
:101590008A5F8B8BC7010896BE016F5F7F4F0E94E9
:1015A000D52581E0C75ADF4F0FB6F894DEBF0FBED6
:1015B000CDBFCF91DF911F91FF90EF9008950897D5
:1015C0000E94E30A0895DC011496ED91FC911597B1
:1015D000309719F18085882301F15696ED91FC91A1
:1015E000579783898032C9F4848990E0807C907019
:1015F0008034910531F08038910559F0892B29F01C
:101600000CC0CD010E94130A0895CD010E94BB09B0
:101610000895CD010E948F08089580E008950897ED
:101620000E94130B0895DC011496ED91FC9115971F
:10163000309739F08085882321F0CD0108960E94EB
:101640007323089508970E94260B0895DC011496D1
:10165000ED91FC911597309741F08085882329F012
:10166000CD0108960E94E423089580E00895FC01CE
:101670007387628755874487738362835583448366
:101680000895FC018089918923E0880F991F2A958C
:10169000E1F70197BC0180E090E00895CF93DF93DC
:1016A000EC01F901CB01B3E096958795BA95E1F786
:1016B000582F28893989A3E0220F331FAA95E1F713
:1016C000CB01840F911D2817390710F4422F461BB8
:1016D000852F880F880F880F681BDF01752F50E05A
:1016E00018C0683011F47F5F60E0272F30E0C90137
:1016F000E3E0880F991FEA95E1F7820F931FEE85CB
:10170000FF85E80FF91FE60FF11D80818D935F5F64
:101710006F5F541730F3842FDF91CF910895CF93EB
:10172000DF93DC01F90181E058968C935897CB0147
:1017300023E0969587952A95E1F7582F50962D919D
:101740003C91519783E0220F331F8A95E1F7CB013B
:10175000840F911D2817390710F4422F461B852F3F
:10176000880F880F880F681BEF01752F50E01AC093
:10177000683011F47F5F60E0272F30E0C901E3E0BB
:10178000880F991FEA95E1F7820F931F1E96ED913E
:10179000FC911F97E80FF91FE60FF11D89918083D7
:1017A0005F5F6F5F541720F3DF91CF910895089723
:1017B0000E94DB0B0895FC018689882341F4CB014C
:1017C000409796958795609561700E94442F81E0BF
:1017D000089508970E94ED0B08958F929F92AF9203
:1017E000BF92DF92EF92FF920F931F93CF93DF93FD
:1017F000EC01EC81FD81309709F456C08085882387
:1018000009F452C068E0A62EB12CAC0EBD1EDD243A
:1018100051E0852E912C8E898823A1F57E0100E070
:1018200010E0F701818D0E94662F382F2F89A401C7
:10183000002E02C0440F551F0A94E2F7822F90E059
:1018400084239523002E02C0959587950A94E2F78C
:10185000381781F024272F8BB801660F771F80E09F
:1018600090E0313011F481E090E0682B792BC501D4
:101870000E94D0260F5F1F4F0894E11CF11C083016
:10188000110579F6D394F8E0DF1629F6C5010E9418
:101890001226888D882341F0E881F9810084F18542
:1018A000E02DCE010995188EDF91CF911F910F91F8
:1018B000FF90EF90DF90BF90AF909F908F90089532
:1018C00008970E94640C08958F929F92AF92BF92E6
:1018D000DF92EF92FF920F931F93CF93DF934C0110
:1018E000DD2416C0F401068517850A0D1B1D84EF43
:1018F00093E0B7010E9477110C0F1D1FF801808340
:1019000021960894E11CF11CC830D10559F7D394F5
:101910002D2D30E0F401808991892817390788F44A
:10192000C901E3E0880F991FEA95E1F75C01A20E77
:10193000B31E74E0E72EF12CE80EF91EC0E0D0E0F3
:10194000D1CF81E0DF91CF911F910F91FF90EF9068
:10195000DF90BF90AF909F908F9008951F93CF938B
:10196000DF9310E0C4E0D0E084EF93E0BE0145E0F7
:101970000E947E11219684EF93E0BE0142E00E9416
:101980007E11219684EF93E0BE0141E00E947E111A
:10199000219684EF93E0BE0142E00E947E112196E1
:1019A00084EF93E0BE0142E00E947E11219684EF15
:1019B00093E0BE0140E00E947E11219684EF93E007
:1019C000BE0140E00E947E11219684EF93E0BE01AB
:1019D000412F0E947E111F5F2196103129F610E0E1
:1019E000C4E8D0E084EF93E0BE0145E00E947E11A0
:1019F000219684EF93E0BE0142E00E947E11219681
:101A000084EF93E0BE0141E00E947E11219684EFB5
:101A100093E0BE0142E00E947E11219684EF93E0A4
:101A2000BE0142E00E947E11219684EF93E0BE0148
:101A300040E00E947E11219684EF93E0BE0140E0D9
:101A40000E947E11219684EF93E0BE01412F0E94F7
:101A50007E111F5F2196103129F684EF93E062E03A
:101A600070E040E00E947E1184EF93E063E070E05C
:101A700047E10E947E1184EF93E060E070E049E46A
:101A80000E947E1184EF93E061E070E04FE60E94D7
:101A90007E11DF91CF911F9108959F92AF92BF92D7
:101AA000CF92DF92EF92FF920F931F93CF93DF932A
:101AB0005C0184EF93E060E070E00E94771189346C
:101AC00009F0D2C084EF93E061E070E00E947711EA
:101AD0008F3609F0C9C084EF93E062E070E00E94A5
:101AE0007711982E84EF93E063E070E00E94771105
:101AF000C82E84EF93E060E070E048E50E947E111C
:101B000080EFC81639F4492D4F5F84EF93E062E00F
:101B100070E005C084EF93E062E070E0492D0E9420
:101B20007E114C2D405F84EF93E063E070E00E94F3
:101B30007E11DD2425C0D5011496ED91FC911597F9
:101B4000E00FF11F84EF93E0B70140810E947E1106
:101B50000F5F1F4F0894E11CF11C0630110559F767
:101B60002A9684EF93E0BE01492D0E947E112196B2
:101B70004D2D4C0D84EF93E0BE010E947E11D39455
:101B8000F50180899189969587956D2D70E068178C
:101B9000790770F4EB0103E0CC0FDD1F0A95E1F744
:101BA00014E0E12EF12CEC0EFD1E00E010E0C3CF9E
:101BB000D82E2BC0D5011496ED91FC911597E00F0E
:101BC000F11F84EF93E0B70140810E947E110F5F07
:101BD0001F4F0894E11CF11C0630110559F72A9695
:101BE00084EF93E0BE01492D0E947E112196F501FC
:101BF00080899189969587954C2D481B4D0D84EFD2
:101C000093E0BE010E947E11D3946D2D70E0D5014A
:101C100050968D919C9151976817790770F4EB015C
:101C2000A3E0CC0FDD1FAA95E1F7F4E0EF2EF12C35
:101C3000EC0EFD1E00E010E0BDCF84EF93E060E00D
:101C400070E049E40E947E1184EF93E061E070E06F
:101C50000E9477118F3659F084EF93E061E070E0D5
:101C60004FE60E947E1103C0C5010E94AE0CDF91B9
:101C7000CF911F910F91FF90EF90DF90CF90BF9089
:101C8000AF909F90089508970E94470E0895AF92D5
:101C9000BF92CF92DF92FF920F931F93CF93DF9368
:101CA0005C01FF2416C0D5011E96ED91FC911F9793
:101CB000EC0DFD1DEC0FFD1F84EF93E0B80140819A
:101CC0000E947E1121960F5F1F4FC830D10559F732
:101CD000F3942F2D30E0F501808991892817390779
:101CE00078F4C90143E0880F991F4A95E1F76C0128
:101CF000C20ED31E8C010C5F1F4FC0E0D0E0D3CFCB
:101D000081E0DF91CF911F910F91FF90DF90CF90F5
:101D1000BF90AF9008950F931F93CF93DF93EC0183
:101D20008C01085F1F4FC80150E00E94A92684EF74
:101D300093E060E070E00E947711893441F484EF11
:101D400093E061E070E00E9477118F3619F0CE01C8
:101D50000E944D0DE881F9810284F385E02DCE01CA
:101D60000995C0E0D0E0C801BE0141E020E00E943A
:101D70007F282196C031D105B1F7C0E1D0E0C8017C
:101D8000BE0140E021E00E947F282196C032D105AB
:101D9000B1F7DF91CF911F910F91089508970E949D
:101DA000D20E089508960E945D290895CF93DF937F
:101DB000EC019B8D97FD3FC08C8D8F5F891B8AA3A3
:101DC000893010F088E08AA321E016C0822F90E0CD
:101DD000EB8DFF27E7FDF095E80FF91FEA53FD4F64
:101DE000E491DE01A80FB91F9396EC939397EA3024
:101DF00011F493961C922F5F8AA1281738F3AA81B9
:101E0000BB81ED91FC911197BE01635E7F4F008411
:101E1000F185E02DCD0109952AA121508B8D280F48
:101E20002B8F332727FD30958C8D90E028173907AD
:101E300014F08FEF8B8FDF91CF910895CF92DF92C7
:101E4000EF92FF920F931F938C017B016A018FEF3A
:101E5000F801838F87EC92E00E9419038F5FF801ED
:101E6000848FF382E282D582C4821F910F91FF900A
:101E7000EF90DF90CF900895CF93DF93EC010E9415
:101E80009316882329F0CE010E945417069729F053
:101E900020E0822FDF91CF91089520E08E818E3255
:101EA000C1F721E0F6CFCF93DF93EC010E949316A8
:101EB000882329F0CE010E945417069729F020E0CC
:101EC000822FDF91CF91089520E08E818235C1F776
:101ED00021E0F6CFCF92DF92EF92FF920F931F9304
:101EE000DF93CF93CDB7DEB7E3970FB6F894DEBF9D
:101EF0000FBECDBF6C018B01DC011496ED91FC91FE
:101F00001597309709F40EC18085882309F40AC11A
:101F1000CB010E94530F882309F46DC0198A188AD7
:101F20001A8A1A861B861C861D861E861F86C80175
:101F3000BE01665F7F4F0E946418D6011496ED9132
:101F4000FC911597288939892115310541F0868141
:101F50009781009721F028173907F9F0E3C09A8597
:101F60008081981709F0DEC09B858181981709F060
:101F7000D9C09C858281981709F0D4C09D85838142
:101F8000981709F0CFC09E858481981709F0CAC0C0
:101F90009F858581981709F0C5C0F601138E1886B4
:101FA0001F82198619821A821B821C821D821E8240
:101FB000C8017E010894E11CF11CB7010E9447167C
:101FC0008601035E1F4FD60114966D917C91159783
:101FD000C8010E94F615C801B7010E94CF18C801B8
:101FE0000E948816C80166E070E00E94721783E5BF
:101FF000F60183A395C0C8010E943C0F882309F411
:1020000091C018861F82198619821A821B821C822F
:102010001D821E82C801BE016F5F7F4F0E9464183F
:10202000D6011496ED91FC9115972F8138852115D5
:10203000310541F086819781009721F028173907F3
:10204000F9F070C099818081981709F06BC09A816E
:102050008181981709F066C09B818281981709F0E9
:1020600061C09C818381981709F05CC09D81848147
:10207000981709F057C09E818581981709F052C0C2
:1020800018A61FA219A619A21AA21BA21CA21DA261
:102090001EA219AA18AA1AAA1AA61BA61CA61DA631
:1020A0001EA61FA6198A188A1A8A1A861B861C86DB
:1020B0001D861E861F868AE0E82EF12CEC0EFD1E82
:1020C000C801B7010E9447168E010D5E1F4FF60131
:1020D00064817581C8010E94F615C801B7010E948C
:1020E000CF18C8010E948816C80166E070E00E94FF
:1020F00072178FE2898F87E0888F85ED8A8F1B8E1C
:102100001C8E1D8E1E8E1F8EF601A281B381ED9155
:10211000FC9111970084F185E02DCD01B80109955E
:1021200081E001C080E0E3960FB6F894DEBF0FBEF9
:10213000CDBFCF91DF911F910F91FF90EF90DF9076
:10214000CF900895FC014487558766877787089567
:102150000F931F938C01FC0162871386808D61E0D1
:102160000E94182FF801808D62850E94442FF8018B
:102170001086148A158A168A178A108A118A128A7A
:10218000138A138E1F910F910895FC0142871386C5
:10219000608F642F0E94A8100895AF92BF92CF92D3
:1021A000DF92EF92FF920F931F93CF93DF93EC0197
:1021B0000E94632ED62EC72EB82EA92EE62EF72EFD
:1021C0009701207E8E819F812817390709F449C025
:1021D0003F832E83888D60E00E94182F888D61E0F8
:1021E0000E94442F0A851B85888D0E94662F1986C0
:1021F0000817190711F481E08987888D61E00E9432
:10220000182F888D6A8D0E94442F9985888598178C
:1022100011F0988726C08B8D8917A9F09B8F88892C
:102220009989AA89BB898096A11DB11D8C8B9D8B34
:10223000AE8BBF8BD882C982BA82AB82188A198AC8
:102240001A8A1B8A0EC00E94632E288139814A8116
:102250005B81621B730B840B950B688B798B8A8B6C
:102260009B8B9701207C30708C819D8128173907CA
:1022700099F13D832C838C852A853B8580FF0FC097
:1022800080E0232B09F081E08A8F8C859D85AE85C7
:10229000BF85B595A79597958795B0680DC080E0E7
:1022A000232B09F481E08A8F8C859D85AE85BF85BF
:1022B000B695A795979587958C879D87AE87BF879D
:1022C000898D80FD1A8E898D90E095958795898FEF
:1022D000888D6A8D0E94442FDF91CF911F910F91BD
:1022E000FF90EF90DF90CF90BF90AF900895F99955
:1022F000FECF72BD61BDF89A80B50895F999FECF01
:1023000072BD61BD40BD0FB6F894FA9AF99A0FBE3E
:102310000895EF92FF920F931F93CF93DF93DC0109
:10232000FB0117968D919C9118976817790709F40E
:1023300070C0108619968C911997813021F4ED01A7
:10234000279639F405C0882319F4ED01279609F47E
:10235000FFCFF983E8838B819C81009721F09783DD
:10236000868387E055C0E080FF2400E010E087010D
:10237000FF24EE24818190E0A0E0B0E0BA2FA92FE5
:10238000982F8827E82AF92A0A2B1B2B828190E0B4
:10239000A0E0B0E0E82AF92A0A2B1B2B238130E0C9
:1023A00040E050E0A90133272227848190E0A0E09B
:1023B000B0E0BA2FA92F982F8827282B392B4A2B2A
:1023C0005B2B858190E0A0E0B0E0282B392B4A2BD5
:1023D0005B2BC9018E259F257CE016950795F79408
:1023E000E7947A95D1F78E259F256CE05695479511
:1023F000379527956A95D1F7822793279F709C83FD
:102400008B83892B21F481E090E09C838B8382E095
:102410008A83DF91CF911F910F91FF90EF900895E4
:102420006F927F928F929F92AF92BF92CF92DF92E4
:10243000EF92FF920F931F93CF93DF93EB01E8810D
:10244000F981309709F010866B817C81ED84FE84E0
:102450000F851889A8019701FFE056954795379594
:102460002795FA95D1F7317040705070A984BA84DD
:10247000CB84DC84D601C501E9E0880F991FAA1F2F
:10248000BB1FEA95D1F7282B392B4A2B5B2BD801A0
:10249000C701F9E0880F991FAA1FBB1FFA95D1F752
:1024A000B070E9EA6E2EEBE47E2EEAE78E2E912CD8
:1024B000E60CF71C081D191D8E0D9F1DA01FB11FD6
:1024C00003EAE02E0CE0F02E0BE1002F112DAE0CF4
:1024D000BF1CC01ED11E2A0D3B1D4C1D5D1D507022
:1024E000EB2EFF24002711272E293F29402B512BAB
:1024F00029873A874B875C87B0708D879E87AF8727
:10250000B88B79018A01FCE016950795F794E7945A
:10251000FA95D1F7AC014E255F2542275327ECE011
:10252000B695A79597958795EA95D1F748275927A6
:102530005F705C834B834115510509F487CF4617C3
:10254000570709F483CF8FE08A83DF91CF911F91E2
:102550000F91FF90EF90DF90CF90BF90AF909F9042
:102560008F907F906F900895CF93DF93EC01DB0104
:10257000EF81F88516962D913C911797211531051D
:1025800041F086819781009721F02817390749F596
:1025900021C09C918081981721F511969C911197EB
:1025A00081819817F1F412969C9112978281981765
:1025B000C1F413969C9113978381981791F4149604
:1025C0009C9114978481981761F415969C9185814C
:1025D000981739F48FE08987EF81F885108681E0BC
:1025E00001C080E0DF91CF910895CF93DF93DC01AC
:1025F000FB0186819781892B19F58081882301F55C
:1026000081818823E9F482818823D1F4838188231E
:10261000B9F484818823A1F48581882389F41A96EA
:102620008D919C911B97892B09F43FC01796CD91F2
:10263000DC9118972097C9F188858823B1F127C0CC
:102640001A968D919C911B97892B79F11796CD91B4
:10265000DC911897209749F18885882331F1908182
:102660008881981711F5918189819817F1F49281E9
:102670008A819817D1F493818B819817B1F4948152
:102680008C81981791F495818D81981771F411962A
:10269000ED91FC911297A081B1811A962D913C91F8
:1026A0001B97CF01BE01F9010995DF91CF910895E4
:1026B000CF93DF93EC01DB018A859B85892B41F168
:1026C000EF81F8859C918081981711F511969C9166
:1026D000119781819817E1F412969C91129782814B
:1026E0009817B1F413969C9113978381981781F4EE
:1026F00014969C9114978481981751F415969C9187
:102700008581981729F489819A81BF010E94A21DB1
:10271000DF91CF9108950F931F938C01FC01728379
:1027200061830E94632EF80163837483858396839B
:102730001F910F910895FF920F931F93CF93DF93F3
:102740008C01EC01888190E0EC0134E0CC0FDD1FBE
:102750003A95E1F7C80FD91FC00FD11FF984E6E001
:10276000FE1609F4EFC0EF15A0F0F3E0FF1609F430
:1027700093C0FF1528F022E0F21609F0CBC14CC03F
:1027800084E0F81609F49EC0E5E0FE1609F0C2C127
:10279000B1C0FFE0FF16A1F0FF1548F027E0F216E8
:1027A00009F467C188E0F81609F0B4C17BC1E4E11F
:1027B000FE1609F410C1F9E1FF1609F0ABC138C1EA
:1027C0008F819885892B11F082E001C081E0898793
:1027D000E801888190E0FC0124E0EE0FFF1F2A95BC
:1027E000E1F7E80FF91FE00FF11F6781708589811C
:1027F0009A810E94C61D882309F08CC1888190E0CF
:10280000FC01B4E0EE0FFF1FBA95E1F7E80FF91FE6
:10281000E00FF11F8FE03EC0EF81F8852A853B85F0
:10282000868197818217930711F037832683F801F9
:10283000808190E0FC01A4E0EE0FFF1FAA95E1F774
:10284000E80FF91FE00FF11F83E08187E80188811D
:1028500090E0FC0174E0EE0FFF1F7A95E1F7E80FBE
:10286000F91FE00FF11F6781708589819A8141E02E
:102870000E94BF22882309F04DC1888190E0FC01AD
:1028800064E0EE0FFF1F6A95E1F7E80FF91FE00F14
:10289000F11F82E081873EC184E08987F801808151
:1028A00090E0FC0154E0EE0FFF1F5A95E1F7E80FAE
:1028B000F91FE00FF11F67817085E80189819A8116
:1028C00042E015C085E08987F801808190E0FC0135
:1028D00044E0EE0FFF1F4A95E1F7E80FF91FE00F04
:1028E000F11F67817085E80189819A8143E00E9428
:1028F000BF22D4C00E94632E6C877D878E879F87FE
:10290000F801808190E0FC0134E0EE0FFF1F3A9562
:10291000E1F7E80FF91FE00FF11F86E08187E8017A
:10292000888190E0FC0124E0EE0FFF1F2A95E1F77B
:10293000E80FF91FE00FF11F6781708589819A8187
:1029400044E0D5CF0E94632EF801208130E0F901E8
:10295000B4E0EE0FFF1FBA95E1F7E20FF31FE00FAF
:10296000F11F2485358546855785621B730B840BC3
:10297000950B645F71408040904008F4CBC0878124
:102980009085892B11F087E001C081E08187E80103
:10299000888190E0FC01A4E0EE0FFF1FAA95E1F70B
:1029A000E80FF91FE00FF11F6781708589819A8117
:1029B0000E949B22882309F0ADC0888190E0FC0131
:1029C00074E0EE0FFF1F7A95E1F7E80FF91FE00FB3
:1029D000F11F86E05FCF8F819885892B11F08EE102
:1029E00001C081E08987F801808190E0FC0164E00A
:1029F000EE0FFF1F6A95E1F7E80FF91FE00FF11FD7
:102A000067817085E80189819A810E949B228823D1
:102A100009F080C0888190E0FC0154E0EE0FFF1FB8
:102A20005A95E1F7E80FF91FE00FF11F84E132CF6B
:102A30008EE18987F801A181B2812D913C91119796
:102A4000808190E0FC0144E0EE0FFF1F4A95E1F722
:102A5000E80FF91FE00FF11F67817085E901EA8532
:102A6000FB85CD010995882309F054C0F8018081C8
:102A700033C088E08987E801888190E0FC0134E078
:102A8000EE0FFF1F3A95E1F7E80FF91FE00FF11F76
:102A90006781708589819A810E94A21D8823D1F562
:102AA00088811AC08EE18987F801808190E0FC015D
:102AB00024E0EE0FFF1F2A95E1F7E80FF91FE00F62
:102AC000F11F67817085E80189819A810E948122C6
:102AD0009881882371F4892F90E0FC01B4E0EE0F17
:102AE000FF1FBA95E1F7E80FF91FE00FF11FF1861C
:102AF00011C0892F90E0FC01A4E0EE0FFF1FAA9502
:102B0000E1F7E80FF91FE00FF11F0780F085E02DD6
:102B100081E08087F8011082DF91CF911F910F91A2
:102B2000FF9008950F931F93CF93DF93EC018B01D8
:102B3000CB010E940A162A853B858217930709F06C
:102B400048C08985873038F48330C0F4813081F102
:102B5000823058F407C0883059F1883098F08E31AF
:102B6000C1F526C01B861A8634C0F80180A18823CF
:102B700029F0C8010E942217882359F5C8010E9434
:102B8000D91620C0F80180A1882329F4C8010E9429
:102B9000D9168823C9F0F80180A18823D1F0C80193
:102BA0000E94D9168823A9F4C8010E9409170AC0F7
:102BB000C8010E94D916882319F084E1898709C0C9
:102BC000F80180A1882329F4CE012796BE010E9436
:102BD0001012DF91CF911F910F9108959C012A5FF0
:102BE0003F4FC9010895FC0185810895AC01FB01A7
:102BF00086819781FA0110A2248122602E7F24838E
:102C0000A0E0B0E0906FAF6FBF6180839183A2833B
:102C1000B3830895FC01208131813F70C90108957B
:102C20000F931F93FC0120813181428153812070D9
:102C3000307FDB0116960D911C911797C801A0E01B
:102C4000B0E09F70A070B070822B932BA42BB52B9B
:102C500080839183A283B383158B048BDB018C91DA
:102C6000868711968C911197878712968C9112976F
:102C7000808B13968C911397818B14968C9114975B
:102C8000828B15968C91838B1F910F910895FC0177
:102C9000DB0184899589892B91F48685882379F4D1
:102CA0008785882361F48089882349F48189882372
:102CB00031F48289882319F483898823F9F080818B
:102CC00091819F70958B848B17969C938E9316970A
:102CD00086858C93878511968C931197808912969F
:102CE0008C931297818913968C93139782891496EB
:102CF0008C931497838915968C930895158A148A5A
:102D0000168A16861786108A118A128A138AD7CFD6
:102D1000FC0180819181A281B381B860808391831D
:102D2000A283B3830895FC0180819181A281B38144
:102D30003BE1B695A795979587953A95D1F7817020
:102D400008950F931F93CF93DF938C01DA01EC0169
:102D500018A2EC81E260EE7FEC83709561957F4F65
:102D600067707070762F66277295707FBF706A2BC0
:102D70007B2B80E090E0ECE0660F771F881F991FA7
:102D8000EA95D1F740E050E0306F4F6F5F613F70E0
:102D90004070507F622B732B842B952BF80160833E
:102DA0007183828393831582DF91CF911F910F915D
:102DB0000895FC0180819181A281B381B3FF02C09B
:102DC00020E011C020E08070907FB7703CE0B695A5
:102DD000A795979587953A95D1F780709077805011
:102DE000904408F021E0822F0895FC0110A2248174
:102DF00022602E7F248380E090E07F70807090704E
:102E000080679061608371838283938386E085838A
:102E10000895FC01208131814281538153FF02C01A
:102E200080E0089580E02070307F57706CE0569508
:102E30004795379527956A95D1F72050374009F483
:102E400081E00895FC01208131814281538153FF4B
:102E500002C080E0089580E02070307F57707CE0F1
:102E600056954795379527957A95D1F72350374052
:102E700009F481E00895FC01208131814281538170
:102E800053FF02C080E0089580E02070307F5770CB
:102E90009CE056954795379527959A95D1F72250FE
:102EA000374009F481E00895FC012081318142819D
:102EB00053812070307F57707CE056954795379549
:102EC00027957A95D1F740E050E020703077407038
:102ED00050706CE055954795379527956A95D1F7D1
:102EE000C9010895EF92FF920F931F93FC01E080B8
:102EF000F18002811381962F9295907F80E08070FF
:102F00009077A80197012070307F57706CE056953C
:102F10004795379527956A95D1F73F78822B932B64
:102F2000A0E0B0E02CE0880F991FAA1FBB1F2A95D4
:102F3000D1F78070907FB7702FEF3FE040E058EFFF
:102F4000E222F322042315238E299F29A02BB12BE3
:102F500080839183A283B3831F910F91FF90EF90A1
:102F600008950F931F93FC01A62F60E070E000818D
:102F700011812281338138605F77607070705F7873
:102F80009A2F9295907F80E080709077482B592BF4
:102F9000CA01A0E0B0E04CE0880F991FAA1FBB1F38
:102FA0004A95D1F78070907FB7701F702070387F7E
:102FB000802B912BA22BB32B80839183A283B3838D
:102FC0001F910F9108950F931F938C01FA01868131
:102FD0009781F80110A2248122602E7F2483A0E033
:102FE000B0E0906FAF6FBF6180839183A283B383A2
:102FF000FB0146815781C80166E070E00E94B1176D
:1030000081E0F80185838CE086831F910F910895FC
:10301000FC0180819181A281B381B3FF25C08070C2
:10302000907FB770ECE0B695A79597958795EA9550
:10303000D1F79C0140E050E0DA01C901807090773F
:10304000A070B0707CE0B595A795979587957A9517
:10305000D1F7892B49F480E03F782F5D3240404022
:10306000504019F481E0089580E00895FC018081CA
:103070009181A281B381B3FF25C08070907FB7702A
:103080002CE0B695A795979587952A95D1F79C0141
:1030900040E050E0DA01C90180709077A070B07014
:1030A000FCE0B595A79597958795FA95D1F7892B6B
:1030B00049F480E03F782F5C32404040504019F4A2
:1030C00081E0089580E00895CF93DF93FC01EB0148
:1030D00080819181A281B3818070907FB7704CE034
:1030E000B695A795979587954A95D1F7A0E0B0E05A
:1030F00080709077A070B0703CE0B595A7959795DB
:1031000087953A95D1F78430910539F0853091054E
:1031100021F0069711F080E035C0858D968D892BC2
:1031200091F48789882379F4808D882361F4818DD7
:10313000882349F4828D882331F4838D882319F400
:10314000848D882311F180819181A281B381807067
:10315000907FB0702CE0B695A795979587952A95A6
:10316000D1F7968F858F9F838E8387898883808D03
:103170008983818D8A83828D8B83838D8C83848DDB
:103180008D8381E0DF91CF910895168E158E178E75
:10319000178A108E118E128E138E148ED4CF0F9329
:1031A0001F93FC0120813181428153813F70407027
:1031B000DB0116960D911C911797C801A0E0B0E0B5
:1031C000072E7CE0880F991FAA1FBB1F7A95D1F7A5
:1031D000702D8070907FB070822B932BA42BB52B19
:1031E00080839183A283B383168F058FDB018C913B
:1031F000878B11968C911197808F12968C911297D4
:10320000818F13968C911397828F14968C911497BB
:10321000838F15968C91848F1F910F910895FC01D7
:1032200080819181A281B381B3FF25C08070907F9E
:10323000B7707CE0B695A795979587957A95D1F765
:103240009C0140E050E0DA01C90180709077A070E5
:10325000B0706CE0B595A795979587956A95D1F76D
:10326000892B49F480E03F78273A31054105510523
:1032700019F481E0089580E00895FC018081918136
:10328000A281B3818070907FB7703CE0B695A7951E
:10329000979587953A95D1F7A0E0B0E08070907748
:1032A000A070B0702CE0B595A795979587952A9555
:1032B000D1F7069749F48581882331F020E0868193
:1032C0008A3019F421E001C020E0822F0895FC012A
:1032D00080819181A281B381B3FF25C08070907FEE
:1032E000B7707CE0B695A795979587957A95D1F7B5
:1032F0009C0140E050E0DA01C90180709077A07035
:10330000B0706CE0B595A795979587956A95D1F7BC
:10331000892B49F480E03F78273B31054105510571
:1033200019F481E0089580E00895FC018081918185
:10333000A281B381B3FF25C08070907FB770FCE09D
:10334000B695A79597958795FA95D1F79C0140E09A
:1033500050E0DA01C90180709077A070B070ECE0A5
:10336000B595A79597958795EA95D1F7892B49F457
:1033700080E03F782F5432404040504019F481E0C3
:10338000089580E00895FC0180819181A281B3813C
:10339000B3FF25C08070907FB7707CE0B695A7958D
:1033A000979587957A95D1F79C0140E050E0DA0136
:1033B000C90180709077A070B0706CE0B595A7954A
:1033C000979587956A95D1F7892B49F480E03F78E6
:1033D0002F5832404040504019F481E0089580E079
:1033E0000895FC0180819181A281B381B3FF25C042
:1033F0008070907FB770FCE0B695A79597958795FC
:10340000FA95D1F79C0140E050E0DA01C9018070E3
:103410009077A070B070ECE0B595A79597958795DB
:10342000EA95D1F7892B49F480E03F78275B324059
:103430004040504019F481E0089580E00895FC0177
:1034400080819181A281B3818070907FB7703CE0D0
:10345000B695A795979587953A95D1F7A0E0B0E0F6
:1034600080709077A070B0702CE0B595A795979577
:1034700087952A95D1F7069749F48581882331F0FD
:1034800020E086818B3219F421E001C020E0822FF8
:103490000895FC0180819181A281B381B3FD02C0B6
:1034A00020E01EC08070907FB7705CE0B695A79555
:1034B000979587955A95D1F7A0E0B0E08070907706
:1034C000A070B0704CE0B595A795979587954A95F3
:1034D000D1F78430910519F020E0059709F421E037
:1034E000822F0895FC0180819181A281B381B3FD77
:1034F00002C020E01BC020E08070907FB7707CE0AD
:10350000B695A795979587957A95D1F7A0E0B0E005
:1035100080709077A070B0706CE0B595A795979586
:1035200087956A95D1F7059709F421E0822F0895D0
:10353000FC0180819181A281B381B3FF19C08070A9
:10354000907FB7703CE0B695A795979587953A958B
:10355000D1F7A0E0B0E080709077A070B0702CE060
:10356000B595A795979587952A95D1F7069719F060
:1035700020E0822F089520E086818C34D1F721E06D
:10358000F8CFFC0180819181A281B381B3FF19C082
:103590008070907FB7705CE0B695A79597958795FA
:1035A0005A95D1F7A0E0B0E080709077A070B0702D
:1035B0004CE0B595A795979587954A95D1F70697CD
:1035C00019F020E0822F089520E086818D34D1F714
:1035D00021E0F8CFFC018581833018F420E030E051
:1035E00006C0978180E0208530E0282B392BC90167
:1035F0000895DC011696FB0188E001900D92815040
:10360000E1F70895EF92FF920F931F938C017B01D6
:1036100061E070E04BEA52E00E94B11788E0F801E7
:103620008583C801B7010E94F91A1F910F91FF907D
:10363000EF900895EF92FF920F931F938C017B01FF
:1036400061E070E04BE652E00E94B11788E0F801BB
:103650008583C801B7010E94F91A1F910F91FF904D
:10366000EF900895EF92FF920F931F938C017B01CF
:1036700060E070E04FEC52E00E94B11788E0F80182
:103680008583C801B7010E94F91A1F910F91FF901D
:10369000EF900895EF92FF920F931F938C017B019F
:1036A00060E070E04FED52E00E94B11788E0F80151
:1036B0008583C801B7010E94F91A1F910F91FF90ED
:1036C000EF900895EF92FF920F931F938C01F62EC7
:1036D000E72E60E070E047EB50E00E94B11786E013
:1036E000F8018583D80116962F2D3E2DC901FC01C6
:1036F00086E001900D928150E1F71F910F91FF90AC
:10370000EF900895EF92FF920F931F938C01F62E86
:10371000E72E60E070E047EA50E00E94B11786E0D3
:10372000F8018583D80116962F2D3E2DC901FC0185
:1037300086E001900D928150E1F71F910F91FF906B
:10374000EF900895CF93DF93EC0188819981AA814E
:10375000BB818070907FB770FCE0B695A795979578
:103760008795FA95D1F7A0E0B0E080709077A070CF
:10377000B070ECE0B595A79597958795EA95D1F748
:10378000069779F48D81882361F08E818A3011F457
:1037900021E008C020E08B3209F021E081E02827F9
:1037A00001C020E0422F50E09A012B5F3F4F8D81F6
:1037B00090E02817390754F4FA013696DB01EC0F34
:1037C000FD1F86E001900D928150E1F7DF91CF91CE
:1037D0000895DB01FC01369688E001900D9281503E
:1037E000E1F70895EF92FF920F931F938C017B01F5
:1037F000FB0186819781F80110A2248122602E7F2F
:103800002483A0E0B0E0906FAF6FBF6180839183AD
:10381000A283B383C80161E070E047E850E00E94F2
:10382000B11786E0F8018583D8011696F70101905B
:103830000D928150E1F71F910F91FF90EF90089545
:10384000FC01DB0116968D919C91179710A22481A3
:1038500022602E7F2483A0E0B0E09F70A070B07043
:103860009061A067B06180839183A283B38386E077
:1038700085833696DB010D9001928150E1F7089522
:10388000FC01DB0116968D919C91179710A2248163
:1038900022602E7F2483A0E0B0E09F70A070B07003
:1038A0009063A067B06180839183A283B38386E035
:1038B00085833696DB010D9001928150E1F70895E2
:1038C00080E0089580E00895DF93CF93CDB7DEB711
:1038D00029970FB6F894DEBF0FBECDBFDC01198665
:1038E00081E089838A831B821C821D821E828EEF67
:1038F0008F831886ED91FC9111970288F389E02D52
:10390000CD01BE016F5F7F4F099529960FB6F894E0
:10391000DEBF0FBECDBFCF91DF9108950F931F93F0
:10392000CF93DF93EC010E94212C8823A9F08E0114
:103930000C5F1F4FC8010E94162D8823D9F3DE01AA
:103940009596FE01349681E201900D928150E1F747
:10395000CB5BDF4F81E08883DF91CF911F910F9187
:1039600008950F931F93CF93DF93EC01162F072F2A
:103970000E94212C882389F0DE011496812F902F3C
:103980009C01F90181E201900D928150E1F7CE0195
:103990000E948E1C8823D9F381E0DF91CF911F9183
:1039A0000F9108950F931F93CF93DF93DC018B0149
:1039B0007C9160E040E050E02BC0EA01299611962E
:1039C000ED91FC911297E40FF51F26813781F801E4
:1039D0008681978128173907C9F41396ED91FC91D8
:1039E0001497E60FF11D80818F3F11F08F5F808368
:1039F0001196ED91FC911297D801E40FF51F86E026
:103A000001900D928150E1F781E005C06F5FAE013A
:103A1000671798F280E0DF91CF911F910F91089581
:103A2000EF92FF920F931F937C018B010E949A2AC1
:103A3000F80164817581C7018A5B9F4F0E94B412AF
:103A40001F910F91FF90EF900895EF92FF920F93C7
:103A50001F937C018B010E948D2AF801648175817E
:103A6000C7018A5B9F4F0E9489111F910F91FF90A0
:103A7000EF9008950F931F93CF93DF938C01EB0189
:103A80000E94212C882359F0C8010496BE010E948F
:103A9000021BC8010E948E1C8823D9F381E0DF91AC
:103AA000CF911F910F9108950F931F93CF93DF93A1
:103AB0008C01EB010E94212C882359F0C801049647
:103AC000BE010E94321BC8010E948E1C8823D9F3BC
:103AD00081E0DF91CF911F910F9108950F931F9374
:103AE000CF93DF938C01EB010E94212C882359F0A6
:103AF000C8010496BE010E941A1BC8010E948E1CB8
:103B00008823D9F381E0DF91CF911F910F91089520
:103B10000F931F93CF93DF938C01EB010E94212C15
:103B2000882359F0C8010496BE010E944A1BC801AF
:103B30000E948E1C8823D9F381E0DF91CF911F91E1
:103B40000F910895EF92FF920F931F93CF93DF93FE
:103B50007C01EB010E94212C882389F087010C5FF6
:103B60001F4FC801BE010E94F615C801BE010E9488
:103B7000201CC7010E948E1C8823D9F381E0DF91AD
:103B8000CF911F910F91FF90EF900895EF92FF92C8
:103B90000F931F93CF93DF937C01EB010E94212CA5
:103BA000882389F087010C5F1F4FC801BE010E9466
:103BB000F615C801BE010E94401CC7010E948E1C60
:103BC0008823D9F381E0DF91CF911F910F91FF906E
:103BD000EF900895EF92FF920F931F93CF93DF938F
:103BE0007C01EB010E94212C882389F087010C5F66
:103BF0001F4FC801BE010E94F615C801BE010E94F8
:103C0000621BC7010E948E1C8823D9F381E0DF91DB
:103C1000CF911F910F91FF90EF900895AF92BF92B7
:103C2000CF92DF92EF92FF920F931F93CF93DF9388
:103C3000EC017B016A0159010E94212C8823F9F0D3
:103C40008E010C5F1F4FC801B7010E94F615C80115
:103C5000B6010E94CF18C8010E948816C80166E00C
:103C600070E00E9472178DE48A87BB86AC8683E081
:103C70008987CE010E948E1C8823D9F381E0DF91D1
:103C8000CF911F910F91FF90EF90DF90CF90BF9059
:103C9000AF900895CF92DF92EF92FF920F931F9310
:103CA000CF93DF93EC017B016A010E94212C8823D2
:103CB000E9F08E010C5F1F4FC801B7010E94F61595
:103CC000C801B6010E94CF18C8010E948816C80119
:103CD00066E070E00E9472178CE48A8781E0898731
:103CE000CE010E948E1C8823D9F381E0DF91CF9111
:103CF0001F910F91FF90EF90DF90CF900895DF928A
:103D0000EF92FF920F931F93CF93DF93EC018B0100
:103D1000D42EDB011F968D919C915097892B09F031
:103D200057C0C25ADF4F5881CE55D04040E020E006
:103D300030E0BE01615A7F4F47C0DB01ED91FC913D
:103D4000E20FF31F9081D80119968C91199798175B
:103D5000C1F591811A968C911A97981791F59281D5
:103D60001B968C911B97981761F593811C968C91EB
:103D70001C97981731F594811D968C911D97981773
:103D800001F595811E968C919817D9F4CF59DF4F84
:103D9000E881F981C156D040E40FF11D80818F3F49
:103DA00011F08F5F8083C15ADF4FE881F981CF55D1
:103DB000D040E20FF31F86819781F801908B8787AF
:103DC00007C04F5F275F3F4F451708F4B6CF52C07B
:103DD00084E0E82EF12CEC0EFD1EC701B8010E9414
:103DE000F615B801675F7F4FC7010E94CF18C70162
:103DF0000E9488164D2D50E0D80152968C9190E08B
:103E0000841B950B8930910514F088E090E0D82E42
:103E1000898790E00DC0E92FF0E0DE01AE0FBF1FF3
:103E2000E00FF11FE40FF51F83891A968C939F5FB3
:103E30008985981780F3480F511DF801828990E019
:103E40004817590724F4C70164E070E003C0C701B4
:103E500065E070E00E947217CE010E948E1C8823DC
:103E6000D9F38D2DDF91CF911F910F91FF90EF909E
:103E7000DF900895E881F9810484F585E02DCE0175
:103E8000B801075F1F4FA8010995DD24EACFCF9243
:103E9000DF92EF92FF920F931F93CF93DF93EC018A
:103EA0007B01D42EC52EC759DF4F88819981C95611
:103EB000D040892B59F5CD59DF4F8881C356D0406A
:103EC000882321F5CC59DF4F8881C456D040882300
:103ED000E9F4CB59DF4F8881C556D0408823B1F42F
:103EE000CA59DF4F8881C656D040882379F4C95912
:103EF000DF4F8881C756D040882341F4C859DF4F2F
:103F00008881C856D040882309F445C00E94632E9A
:103F1000C459DF4F288139814A815B81CC56D0401A
:103F2000621B730B840B950B605D77408040904063
:103F300090F527C0DE01AD59BF4F8D2D9C2D9C0102
:103F4000F90189E001900D928150E1F78E010C5F3B
:103F50001F4FC801B7010E94F615C8016D2D7C2DB9
:103F60000E94821BCE010E948E1C8823D9F30E94DE
:103F7000632EC459DF4F688379838A839B8381E0F2
:103F800001C080E0DF91CF911F910F91FF90EF90E2
:103F9000DF90CF9008950E94212C882391F3CACFFF
:103FA0003F924F925F926F927F928F929F92AF92C9
:103FB000BF92CF92DF92EF92FF920F931F93DF9306
:103FC000CF93CDB7DEB72B970FB6F894DEBF0FBEF9
:103FD000CDBF7C0118861F82198619821A821B8226
:103FE0001C821D821E82F5E2CF2ED12CC80ED91E56
:103FF000C6010E940F19882331F4C6010E943D19A1
:10400000882309F46CC1C6018E010F5F1F4FB801F0
:104010000E94A21BC7018A5B9F4FB8010E94F51244
:1040200045C1C6018E010F5F1F4FB8010E944716A0
:10403000C601B8010E94A21BAF80B884A114B104CC
:1040400009F432C1398023E630E0E20EF31ED701D5
:104050008C91EDE9FFEFEE0EFF1E381609F026C138
:104060004A8024E630E0E20EF31ED7018C91ECE9A1
:10407000FFEFEE0EFF1E481609F018C15B8025E623
:1040800030E0E20EF31ED7018C91EBE9FFEFEE0E6C
:10409000FF1E581609F00AC17C8026E630E0E20EC9
:1040A000F31ED7018C91EAE9FFEFEE0EFF1E7816A2
:1040B00009F0FCC08D8027E630E0E20EF31ED70148
:1040C0008C91E9E9FFEFEE0EFF1E881609F0EEC0B5
:1040D0009E8028E630E0E20EF31ED7018C91E8E9DD
:1040E000FFEFEE0EFF1E981609F0E0C02EE530E05F
:1040F000E20EF31ED7016C90E2EAFFEFEE0EFF1E18
:1041000060E090E07FEF40E050E0EFE5CE2ED12C74
:10411000CE0CDF1C87010F591F4F35C0262F30E012
:104120003B872A87D601ED91FC91E40FF51F26818C
:1041300037812115310521F02A153B0599F44AC034
:104140008081831579F48181841561F482818515DC
:1041500049F48381871531F48481881519F48581A8
:104160008915C1F1D801ED91FC912A853B85E20FBB
:10417000F31FE081E71710F0E72F01C0962F6F5F64
:10418000475F5F4F7E2F661548F2292F30E0C90147
:1041900043E0880F991F4A95E1F7820F931FD601DC
:1041A000ED91FC91E80FF91FDE01119689E00D9069
:1041B00001928150E1F7E1E6F0E0EE0EFF1ED7013B
:1041C000ED91FC918FE99FEFE80EF91EE20FF31FCE
:1041D00081E08083A9E6B0E0EA0EFB1EF7011192B0
:1041E00011927F01108228EF3FEFE20EF31ED701FC
:1041F0001D92FD011192DF011D92FD011192DF015F
:104200001D92FD01108252C0C6010E943B178823F7
:1042100071F0C6018E010F5F1F4FB8010E94A21BF3
:10422000C7018A5B9F4FB8010E9458133DC0C60169
:104230000E9422178823C1F1C6010E940A16BC0100
:10424000EEE5F0E0EE0EFF1ED7015C91E2EAFFEF33
:10425000EE0EFF1E40E020E030E0D701A15ABF4F34
:1042600021C0ED91FC911197E20FF31F275F3F4FA3
:104270008681978186179707A1F417821682108688
:1042800010821182128213821482158221E630E09C
:10429000E20EF31ED701ED91FC91E40FF11D1082A7
:1042A00003C04F5F4517E8F280E001C081E02B9624
:1042B0000FB6F894DEBF0FBECDBFCF91DF911F9137
:1042C0000F91FF90EF90DF90CF90BF90AF909F90B5
:1042D0008F907F906F905F904F903F900895C601B0
:1042E0000E946719882309F09CCE8ECFEF92FF922F
:1042F0000F931F93CF93DF937C01EB018A010E9400
:10430000212C882361F0C7010496BE01A8010E94F8
:10431000E317C7010E948E1C8823D9F381E0DF9147
:10432000CF911F910F91FF90EF9008957F928F9200
:104330009F92AF92BF92CF92DF92EF92FF920F9334
:104340001F93DF93CF93CDB7DEB729970FB6F894BD
:10435000DEBF0FBECDBF6C01B5E28B2E912C880E57
:10436000991E8A5B9F4FB4010E949215C6010E945C
:10437000D01F882309F087C018861F8219861982EA
:104380001A821B821C821D821E82C4018E010F5F55
:104390001F4FB8010E944716AEE5EA2EF12CEC0C37
:1043A000FD1CC701B8010E94D21C882321F0C40162
:1043B000B8010E941016C4018E010F5F1F4FB80193
:1043C0000E946418882359F0C701B8010E94D21CCA
:1043D000882371F0C401B8010E94CF1809C0188663
:1043E0001F82198619821A821B821C821D821E82DC
:1043F000D60112960D911C9113977724AA24BB2401
:1044000022C02F8138852115310559F0F801E4804B
:10441000F580D70116968D919C911797281739072B
:1044200009F07501D801ED91FC910190F081E02D2A
:10443000C801B4010995882311F077247394F80119
:1044400006811781570101151105D9F625E430E0E1
:10445000C20ED31ED6018C91EBEBFFEFCE0EDF1E0A
:10446000882389F4A114B10471F0772061F4C401A8
:104470008E010F5F1F4FB8010E944716C601B5019C
:10448000A8010E94762129960FB6F894DEBF0FBED0
:10449000CDBFCF91DF911F910F91FF90EF90DF90F3
:1044A000CF90BF90AF909F908F907F9008950F9383
:1044B0001F93CF93DF93EC018C010B5B1F4FF8012F
:1044C0008081882331F0CE010E949621F80110826C
:1044D0000BC0CE0185960E947A2C882329F0F80122
:1044E0001082CE010E949621CE018A5B9F4F0E94CE
:1044F0009B13CE010E94782ADF91CF911F910F91DB
:1045000008950F931F93CF93DF938C01EB010E94CB
:10451000212C882359F0C8010496BE010E94F21B89
:10452000C8010E948E1C8823D9F381E0DF91CF91CE
:104530001F910F9108950F931F93CF93DF93EC0179
:104540008B010E94212C8823A9F0F80166817781D4
:10455000CE0104960E94F516DE011A96F80186E057
:1045600001900D928150E1F7CE010E948E1C8823AC
:10457000D9F381E0DF91CF911F910F910895EF92D0
:10458000FF921F93CF93DF937C01EB01142F0E94C6
:10459000212C8823D1F1123059F0133081F01130E1
:1045A000D9F4898182958F70482F50E088810DC0A1
:1045B000998180E0AC0140705F708A8113C08C816A
:1045C00082958F70482F50E08B8190E024E0880F17
:1045D000991F2A95E1F709C09C8180E0AC014070E9
:1045E0005F708D8190E08F709070482B592B2E81D9
:1045F0003F81C7010496612F70E00E94A116C70198
:104600000E948E1C8823D9F381E0DF91CF911F9106
:10461000FF90EF900895EF92FF920F931F93CF9327
:10462000DF93EC0184E00E94B92B882309F451C088
:10463000CE018A5B9F4FBE010E948B136EE5E62E72
:10464000F12CEC0EFD1E8AE0F70180838AE590E0F4
:104650000E9417028E01015A1F4FF8018083918337
:10466000F701808190E00E941702FE01EF59FF4F91
:104670008083918340E0B701D801EF0125C0242F4A
:1046800030E0C90153E0880F991F5A95E1F7820F76
:10469000931FED91FC911197E80FF91F1782168275
:1046A0001086108211821282138214821582ED917B
:1046B000FC911197E80FF91F17821682E881F981A2
:1046C000E20FF31F10824F5FFB0180814817B8F2A1
:1046D00081E0DF91CF911F910F91FF90EF900895AE
:1046E00080E0089508951F93CF93DF93EC018C85AC
:1046F0008823C9F1AA81BB81ED91FC91119768894A
:1047000079890488F589E02DCD014D850995182F0B
:10471000882309F048C00E94632E288539854A8580
:104720005B85621B730B840B950B6958734180404A
:104730009040C8F181E08F831C86E881F981068072
:10474000F781E02DCE0160E041E050E12AC01C86F7
:104750001D860E94632E688779878A879B8730C071
:10476000410F4D872DC08F81882351F50E94632E04
:10477000288539854A855B85621B730B840B950BF5
:104780006958734180409040D8F081E08F831C8647
:10479000E881F9810680F781E02DCE0160E042E0FA
:1047A00050E109950DC04D85242F30E0210F311DBA
:1047B000E889F989828990E02817390789F6C7CFF7
:1047C000DF91CF911F910895BF92CF92DF92EF9228
:1047D000FF920F931F93DF93CF93CDB7DEB762970E
:1047E0000FB6F894DEBF0FBECDBF8C017B01CB01AD
:1047F0000E94491A882309F0BEC0C7010E94981A76
:10480000882309F451C018861F82198619821A82DA
:104810001B821C821D821E82C701BE016F5F7F4FFB
:104820000E946418D8011496ED91FC911597309769
:1048300009F492C12F8138852115310541F0868117
:104840009781009721F028173907F9F085C19981E0
:104850008081981709F080C19A818181981709F0A9
:104860007BC19B818281981709F076C19C818381ED
:10487000981709F071C19D818481981709F06CC166
:104880009E818581981709F067C1D801ED91FC914F
:104890000680F781E02DC80161E040E050E0099515
:1048A00081E0F80187835BC1C7010E94C11A882398
:1048B00009F452C118861F82198619821A821B8236
:1048C0001C821D821E82C701BE016F5F7F4F0E9446
:1048D0006418D8011496ED91FC911597309709F45E
:1048E0003BC12F8138852115310541F086819781A3
:1048F000009721F028173907F9F02EC1998180819E
:10490000981709F029C19A818181981709F024C16B
:104910009B818281981709F01FC19C818381981720
:1049200009F01AC19D818481981709F015C19E81F3
:104930008581981709F010C1C7010E94EA1AAC01DD
:1049400095FF05C081E0F801848715860AC0D8016B
:104950001C961C921C971D961C921D9781E0179621
:104960008C93D801ED91FC910680F781E02DC80170
:1049700060E00995F3C0198A188A1A8A1A861B867C
:104980001C861D861E861F86C701BE01665F7F4F7F
:104990000E946418D8011496ED91FC9115973097F8
:1049A00009F4DAC0288939892115310549F0868151
:1049B0009781009729F02817390709F4E0C0CCC087
:1049C0009A858081981709F0C7C09B8581819817C7
:1049D00009F0C2C09C858281981709F0BDC09D85F1
:1049E0008381981709F0B8C09E858481981709F0D3
:1049F000B3C09F858581981709F0AEC0C0C0D801AB
:104A00001E96ED91FC911F97288939892115310552
:104A100041F086819781009721F02817390771F1BD
:104A200082C09A858081981709F07DC09B8581811D
:104A3000981709F078C09C858281981709F073C097
:104A40009D858381981709F06EC09E858481981793
:104A500009F069C09F858581981709F064C00EC070
:104A6000F80116820684F785E02D128AD8011E9679
:104A70006D917C911F97C7010E9447168C2D9B2D2D
:104A80009C0190E00AC08289E90FF11DE80FF11D39
:104A9000D9018D919D01838B9F5FD8011E96ED9169
:104AA000FC911F979D1578F382898D0D828BC7012C
:104AB0000E94721A882309F451C0D801ED91FC912B
:104AC0000480F581E02DC8010995882399F0F8014B
:104AD000A281B3818D919C911197648175814685E6
:104AE0005785FC0126893789CD01F901099588236D
:104AF00071F314C0F801A281B3818D919C9111973B
:104B00006481758146855785FC01E08CF18CCD016F
:104B100020E430E1F7010995882361F381E0D801B1
:104B200016968C931CC08AE0E82EF12CEC0EFD1E2C
:104B3000F801A281B3818D919C9111976481758157
:104B4000FC01C08CD18CCD01A70120E030E2F60140
:104B50000995882369F302C080E001C081E0629674
:104B60000FB6F894DEBF0FBECDBFCF91DF911F917E
:104B70000F91FF90EF90DF90CF90BF900895C70105
:104B8000BE01665F7F4F0E944716C7010E94EE1567
:104B9000C82EB92EC7010E94F315D82ED80116963B
:104BA0008C91882309F05CCF2ACFCF93DF93EC015F
:104BB0008F818823A1F11F8228893989C901DC01ED
:104BC000FB0189E501900D928150E1F7A889B9892F
:104BD000EC81FD818681978117969C938E93169721
:104BE00080818C93818111968C931197828112968A
:104BF0008C931297838113968C93139784811496C8
:104C00008C931497858115968C9381E08C871D86F3
:104C10000E94632E688779878A879B8781E0DF916E
:104C2000CF910895CF93DF93EC0188C0CB01E3E0EF
:104C3000880F991FEA95E1F7860F971F4E815F81D4
:104C4000480F591FFA018085282F30E0C90181746F
:104C500090708134910549F4EA81FB81A081B18192
:104C600090962D913C9191970DC0C90181729070E1
:104C7000819701F5EA81FB81A081B1815C962D913C
:104C80003C915D97CF01BA01F9010995882309F498
:104C90005DC02C853D85C90163E0880F991F6A9529
:104CA000E1F7820F931FEE81FF81E80FF91F8085E6
:104CB0008E7F3EC021FF1FC0EA81FB81A081B181B0
:104CC00052962D913C915397CF01BA01F901099564
:104CD0008823E1F12C853D85C90153E0880F991F98
:104CE0005A95E1F7820F931FEE81FF81E80FF91FBC
:104CF00080858D7F1DC024FF1DC0AA81BB81ED91E1
:104D0000FC911197068CF78DE02DCD01BA01099524
:104D10002C853D85C90143E0880F991F4A95E1F72D
:104D2000820F931FEE81FF81E80FF91F80858F7E30
:104D300080870CC06F5F7F4F7D876C876C857D851A
:104D4000888599856817790708F470CFDF91CF912E
:104D50000895DC0117967C936E93169719965C93D1
:104D60004E931897569547951B965C934E931A97BA
:104D700040E050E020E030E00BC01696ED91FC9151
:104D80001797E20FF31F10864F5F5F4F275F3F4F6C
:104D900018968D919C9119974817590770F30895AB
:104DA000DC01CB0123E0880F991F2A95E1F7860FDC
:104DB000971F1696ED91FC911797E80FF91F8085C4
:104DC00086FD02C080E00895826080871C968D91E8
:104DD0009C911D978617970708F4BC011D967C933C
:104DE0006E931C9781E00895DF92EF92FF920F93EC
:104DF0001F93CF93DF937C018B01DD24C0E0D0E0D3
:104E000024C0CE01E3E0880F991FEA95E1F78C0FEB
:104E10009D1F680F791FDB0118968C9185FF0DC0CF
:104E2000D701ED91FC910480F581E02DC701BE0111
:104E30000995882311F0DD24D3942196F70180850C
:104E40009185C817D90708F04AC0D70116966D9109
:104E50007C91179718962D913C911997C217D307FB
:104E6000F4F5F8014081FE0153E0EE0FFF1F5A9563
:104E7000E1F7EC0FFD1FE60FF71F80814817C1F522
:104E8000D80111969C9111978181981789F51296F6
:104E90009C9112978281981759F513969C911397BC
:104EA0008381981729F514969C91149784819817FB
:104EB000F9F415969C91159785819817C9F4169663
:104EC0009C9116978681981799F417969C918781E3
:104ED000981771F4BFEFCF3FDB0709F092CF8D2D0C
:104EE000DF91CF911F910F91FF90EF90DF90089588
:104EF00021963996C217D3070CF4BFCFF0CF0F938A
:104F00001F93CF93DF93EC01DB0100E020E030E062
:104F100025C0F90193E0EE0FFF1F9A95E1F7E20F2C
:104F2000F31FE60FF71F808586FF10C08160808722
:104F30004C855D85C901622F892F4217530718F4EC
:104F4000CA01642F892F6C878D8701E02F5F3F4F47
:104F5000888599852817390708F044C06E817F81BC
:104F60004885598524173507ECF51C91F90183E034
:104F7000EE0FFF1F8A95E1F7E20FF31FE60FF71F11
:104F800080811817A9F511969C9111978181981726
:104F900079F512969C9112978281981749F513968C
:104FA0009C9113978381981719F514969C911497E7
:104FB00084819817E9F415969C9115978581981727
:104FC000B9F416969C9116978681981789F41796CE
:104FD0009C9117978781981759F48FEF2F3F3807C7
:104FE00009F097CF802FDF91CF911F910F910895F6
:104FF0002F5F3F4F39962417350714F2F3CF0F93E5
:105000001F93CF93DF93EC01DB0100E020E030E061
:1050100025C0F90193E0EE0FFF1F9A95E1F7E20F2B
:10502000F31FE60FF71F808585FF10C08160808722
:105030004C855D85C901622F892F4217530718F4EB
:10504000CA01642F892F6C878D8701E02F5F3F4F46
:10505000888599852817390708F044C06E817F81BB
:105060004885598524173507ECF51C91F90183E033
:10507000EE0FFF1F8A95E1F7E20FF31FE60FF71F10
:1050800080811817A9F511969C9111978181981725
:1050900079F512969C9112978281981749F513968B
:1050A0009C9113978381981719F514969C911497E6
:1050B00084819817E9F415969C9115978581981726
:1050C000B9F416969C9116978681981789F41796CD
:1050D0009C9117978781981759F48FEF2F3F3807C6
:1050E00009F097CF802FDF91CF911F910F910895F5
:1050F0002F5F3F4F39962417350714F2F3CFDC01A9
:10510000522FCB0123E0660F771F2A95E1F7680F36
:10511000791F1696ED91FC911797E60FF71F2085E2
:10512000216020871C962D913C911D9728173907E7
:1051300008F4C9011D969C938E931C97442349F053
:105140001696ED91FC911797E60FF71F8085806406
:105150008087552349F01696ED91FC911797E60F3D
:10516000F71F8085806280870895FB0133E0EE0F92
:10517000FF1F3A95E1F7DC0116968D919C911797E8
:10518000442339F0E60FF71FE80FF91F8085886088
:1051900006C0E60FF71FE80FF91F8085877F80871D
:1051A0000895DC01FB0153E0EE0FFF1F5A95E1F774
:1051B00016968D919C911797442339F0E60FF71FAF
:1051C000E80FF91F8085806106C0E60FF71FE80F22
:1051D000F91F80858F7E80871C968D919C911D97ED
:1051E0008617970708F4BC011D967C936E931C9755
:1051F0000895FF920F931F93CF93DF93DC01F62E58
:10520000072F10E060E070E040E050E03DC01696EF
:10521000ED91FC911797E40FF51F808583FF30C057
:10522000EF018F2D902F9C01F90188E001900992E8
:105230008150E1F71696ED91FC911797E40FF51F59
:105240008085816080871696ED91FC911797E40F19
:10525000F51F8085877F80871C962D913C911D9737
:10526000CB01E62F892F2617370718F4C901E22F43
:10527000892F1C96EC931C971D968C931D9711E01B
:105280006F5F7F4F475F5F4F18968D919C91199785
:105290006817790708F4BBCF112341F0ED91FC9119
:1052A00011970680F781E02DCD010995812FDF91BF
:1052B000CF911F910F91FF900895CF92DF92EF92BF
:1052C000FF920F931F93DF93CF93CDB7DEB7629713
:1052D0000FB6F894DEBF0FBECDBF6C017B01CB01D2
:1052E0000E9408188823A9F01A8A1A861B861C8631
:1052F0001D861E861F86188A198A8E01065F1F4F1B
:10530000C701B8010E94E91BC601B8010E94F4263A
:10531000DAC0C7010E94C3198823A9F01A8A1A8625
:105320001B861C861D861E861F86188A198A8E017A
:10533000065F1F4FC701B8010E94E91BC601B801F3
:105340000E947F27C0C0C7010E9495198823A9F039
:105350001A8A1A861B861C861D861E861F86188A38
:10536000198A8E01065F1F4FC701B8010E94E91B11
:10537000C601B8010E94FF27A6C0C7010E94F1190B
:10538000882331F4C7010E941F1A882309F4AAC098
:1053900018861F82198619821A821B821C821D821E
:1053A0001E82C7010E941F1A882329F440E050E0A2
:1053B00020E030E068C0C701BE016F5F7F4F0E94F0
:1053C000A21B8F819885892B91F48981882379F498
:1053D0008A81882361F48B81882349F48C81882316
:1053E00031F48D81882319F48E81882399F1D601B7
:1053F0001496ED91FC91159790818981981709F089
:1054000061C091818A81981709F05CC092818B817B
:10541000981709F057C093818C81981709F052C0F2
:1054200094818D81981709F04DC095818E819817D0
:1054300009F048C00FC0D6011696ED91FC91179760
:10544000E20FF31F8085816080874F5F5F4F275F8A
:105450003F4F04C040E050E020E030E0F60180859E
:1054600091854817590738F314C0D6011696ED9167
:10547000FC911797E20FF31F8085816080874F5F53
:105480005F4F275F3F4FF601808591854817590789
:1054900060F31586148681E016C01A8A1A861B8668
:1054A0001C861D861E861F86188A198A8E01065F35
:1054B0001F4FC701B8010E94E91BC601B8010E9435
:1054C000F92801C080E062960FB6F894DEBF0FBEE7
:1054D000CDBFCF91DF911F910F91FF90EF90DF90A3
:1054E000CF900895C7010E943618882359F3D5CF6D
:1054F000CF93DF93FC01C281D3810AC0E881F98197
:105500000280F381E02DCE0109950E80DF81C02D50
:105510002097A1F7DF91CF910895DC01FB0112964E
:105520008D919C9113979783868313967C936E93AA
:1055300012970895CF93DF93EC01DB01EA81FB81A1
:105540003097B9F0E617F70781F4868197819B833E
:105550008A830FC08A179B0739F416968D919C9108
:1055600017979783868305C0FC01868197810097F2
:1055700089F7DF91CF9108958091F503882369F42D
:1055800090E0892F8295807F8093ED008091EF00DD
:10559000807C21F09F5F9F30A1F79FEF892F0895B6
:1055A000382F883070F42091DE0081E090E002C056
:1055B000880F991F3A95E2F7809582238093DE0049
:1055C00008954091DF00282F30E02850304081E0DE
:1055D00090E002C0880F991F2A95E2F780958423F6
:1055E0008093DF000895382F883068F42091DE0022
:1055F00081E090E002C0880F991F3A95E2F7282BCE
:105600002093DE0008954091DF00282F30E02850DD
:10561000304081E090E002C0880F991F2A95E2F7A0
:10562000482B4093DF0008951F920F920FB60F9200
:1056300011240F900FBE0F901F9018951F920F927C
:105640000FB60F920BB60F9211240F931F932F9347
:105650003F934F935F936F937F938F939F93AF93FA
:10566000BF93EF93FF938091EC00807F803F09F41C
:1056700067C00091ED008091EC00807F8093ED0089
:105680001091EC008091EE0086FF3DC08091EE000D
:105690001092EE001092EF008DE094E00E94FD2D3C
:1056A000009751F00E94412D8DE094E00E940F2E52
:1056B0008091EF0080643FC0312F32953F703830C9
:1056C00070F42091DE0081E090E002C0880F991F05
:1056D0003A95E2F7809582238093DE0011C04091D5
:1056E000DF00232F30E02850304081E090E002C0FE
:1056F000880F991F2A95E2F7809584238093DF0015
:105700001092F5031AC08091EE0085FF16C08DE35C
:1057100094E00E94DE2D009731F00E94992C8DE3D9
:1057200094E00E94F12D8091EE001092EE008091A5
:10573000EF00807180688093EF000093ED0004C05B
:105740008091DA008093DA00FF91EF91BF91AF91E1
:105750009F918F917F916F915F914F913F912F9189
:105760001F910F910F900BBE0F900FBE0F901F90C7
:105770001895982F883010F080E008958091D80017
:1057800081608093D800E3E09E9FC0011124FC015A
:10579000ED50FD4FE491E093E200FC01EC50FD4F31
:1057A000E491E093E3008B509D4FFC018491809342
:1057B000E4001092DA0080EB8093DB0087EC8093AA
:1057C000E5008FEF0E94282C8DE394E063E043E135
:1057D00054E00E94CD2D8DE094E061E04FEF53E066
:1057E0000E94CD2D90E031E020E9892F8295807FC5
:1057F0008093ED001092EE001092F3001092F200F0
:105800001092F1001092F0001092F7001092F60042
:105810001092F5003093F400953018F02093EF00CB
:1058200002C01092EF009F5F9F30F9F682E08093F4
:10583000D8008FE78093DF008FEF8093DE0081E058
:1058400008958DE094E00E94D52D91E08927089578
:10585000982F8F30D0F08F3F11F080E00895109294
:10586000DF001092DE0090E0892F8295807F809388
:10587000ED008091EF001092EF008091EE00109209
:10588000EE009F5F9F3081F733C080E88093D8009F
:105890008091D90083FDFCCF1092D8008091D9006F
:1058A00082FDFCCF892F8295807F8093ED008091CF
:1058B000EE001092EE001092EF00892F0E94D02A85
:1058C0002091ED0090E0892F8295807F8093ED00FC
:1058D0008091EF008093EF009F5F9F30A1F72093AE
:1058E000ED0082E08093D8008091D90082FFFCCF48
:1058F00081E008950F931F93182F092F8DE394E0F3
:105900000E94FD2DAC01009711F480E00FC0812FA3
:10591000902F9C01D901FA018EE001900D928150E7
:10592000E1F78DE394E00E940F2E8FEF1F910F910E
:1059300008951F93DF93CF9300D000D0CDB7DEB78B
:10594000BC019091EF00892F8F70DB0115968C932D
:10595000159714961C9194FF2AC0FE013196198266
:105960008091F10081838091F20082838091F30025
:1059700083838091F00086958695869590E0A0E0DF
:10598000B0E029813A814B815C81E3E056954795EF
:1059900037952795EA95D1F7822B932BA42BB52B1E
:1059A000FB0180839183A283B383126018C020918E
:1059B000F20022952695277030E08091F30090E068
:1059C00043E0880F991F4A95E1F7822B932BA0E0C3
:1059D000B0E0FB0180839183A283B3831D7F148396
:1059E0008091F000DB0114961C91149782FF04C093
:1059F000116014961C9312C01E7FFB0114839B013F
:105A00002A5F3F4FF90103C08091FA0081939E2FD6
:105A1000921BDB0115968C919817B0F30F900F90A5
:105A20000F900F90CF91DF911F9108950F931F93C7
:105A3000182F092F8091F5038823E1F08DE094E081
:105A40000E94DE2D009711F480E018C0DC01812F48
:105A5000902F9C01F9018EE001900D928150E1F7A9
:105A60008091F503882331F08DE094E00E94F12DC0
:105A700081E004C0812F902F0E94A62D1F910F91CD
:105A80000895DF93CF9300D000D0CDB7DEB7AC013F
:105A9000FC0165816093EF00848181FF24C08091C7
:105AA000EF0080618093EF0080819181A281B381BA
:105AB000282F220F220F220F2093F00033E0880FAF
:105AC000991FAA1FBB1F3A95D1F789839A83AB838D
:105AD000BC83FE01319681818093F10082818093A5
