:100000000C94F5010C9420020C9420020C94200214
:100010000C9420020C9420020C9420020C942002D8
:100020000C9420020C9420020C9420020C942002C8
:100030000C9420020C9420020C9420020C942002B8
:100040000C9420020C94612F0C94652C0C945B2C66
:100050000C9420020C9420020C9420020C94200298
:100060000C9420020C9420020C9420020C94200288
:100070000C9420020C9420020C9420020C94200278
:100080000C9420020C9420020C9420020C94200268
:100090000C9420023C3F786D6C2076657273696F1A
:1000A0006E3D22312E302220656E636F64696E676B
:1000B0003D225554462D38223F3E0A3C6364693E3A
:1000C0000A3C6964656E74696669636174696F6E20
:1000D0003E0A3C6D616E7566616374757265723E51
:1000E0005261696C7374617273204C696D697465D7
:1000F000643C2F6D616E7566616374757265723EE6
:100100000A3C6D6F64656C3E496F20446576656C92
:100110006F706572277320426F6172643C2F6D6F40
:1001200064656C3E0A3C686172647761726556650D
:100130007273696F6E3E312E303C2F686172647746
:1001400061726556657273696F6E3E0A3C736F66C5
:10015000747761726556657273696F6E3E312E30C9
:100160003C2F736F66747761726556657273696F41
:100170006E3E0A3C2F6964656E74696669636174DA
:10018000696F6E3E0A3C7365676D656E74206F72B1
:100190006967696E3D2230222073706163653D227C
:1001A000323533223E0A3C67726F7570206F666687
:1001B0007365743D223022207265706C69636174CE
:1001C000696F6E3D2238223E0A3C6E616D653E507D
:1001D000726F6475636564204576656E74733C2F39
:1001E0006E616D653E0A3C64657363726970746923
:1001F0006F6E3E546865204576656E744944732081
:10020000666F7220746865206F7574707574733CC6
:100210002F6465736372697074696F6E3E0A3C6522
:1002200076656E7469642F3E0A3C6576656E746906
:10023000642F3E0A3C2F67726F75703E0A3C6772EE
:100240006F7570207265706C69636174696F6E3D63
:100250002238223E0A3C6E616D653E436F6E7375B7
:100260006D6564204576656E74733C2F6E616D65B7
:100270003E0A3C6465736372697074696F6E3E54C4
:100280006865204576656E7449447320666F7220F8
:1002900074686520696E707574733C2F6465736350
:1002A00072697074696F6E3E0A3C6576656E74693A
:1002B000642F3E0A3C6576656E7469642F3E0A3C85
:1002C0002F67726F75703E0A3C2F7365676D656EA0
:1002D000743E0A3C2F6364693E00015261696C738D
:1002E00074617273204C696D697465640A496F208A
:1002F000446576656C6F706572277320426F61721A
:10030000640A312E300A312E31007E6E7F620C3746
:10031000260C37120C370E0C37060C37020C370040
:100320000C3700002100240027002A002D00300097
:10033000330000002200250028002B002E00310091
:100340003400000020002300260029002C002F008C
:100350003200010101010101010103030303030351
:10036000030302020202020202020404040404075C
:100370000704050505050505050506060606060626
:100380000606070701020408102040800102040845
:10039000102040800102040810204080010204085F
:1003A0001008108001020408102040800102040897
:1003B000102040800102000000000000000000004A
:1003C000000000000000000000000000000000002D
:1003D000000000000000000000000000000000001D
:1003E0000000000000000000300311241FBECFEF0A
:1003F000D0E1DEBFCDBF11E0A0E0B1E0ECE3F2E67A
:1004000000E00BBF02C007900D92AC36B107D9F7E0
:100410001BBE14E0ACE6B1E001C01D92AF34B107E1
:10042000E1F713E0CAEED3E004C02297FE010E9478
:100430001831C83ED107C9F70E94D2300C941C3144
:100440000C940000CF93DF93BC018230910510F42F
:1004500062E070E0A0914D04B0914E04ED01E0E047
:10046000F0E040E050E021C088819981861797072D
:1004700069F48A819B81309719F09383828304C049
:1004800090934E0480934D04FE0134C068177907A1
:1004900038F44115510519F08417950708F4AC019B
:1004A000FE018A819B819C01E9012097E9F64115B3
:1004B0005105A9F1CA01861B970B049708F4BA01EC
:1004C000E0E0F0E02AC08D919C9111978417950788
:1004D000F9F46417750781F412968D919C91139726
:1004E000309719F09383828304C090934E048093D5
:1004F0004D04FD0132964CC0CA01861B970BFD01CD
:10050000E80FF91F6193719302978D939C9340C0FC
:10051000FD01828193819C01D9011097A1F6809100
:100520004B0490914C04892B41F4809102019091ED
:10053000030190934C0480934B044091040150912B
:1005400005014115510541F44DB75EB78091000199
:1005500090910101481B590B20914B0430914C04A0
:10056000CA01821B930B8617970780F0AB014E5F81
:100570005F4F8417950750F0420F531F50934C0460
:1005800040934B04F9016193719302C0E0E0F0E005
:10059000CF01DF91CF910895CF93DF93009709F4B6
:1005A00050C0EC0122971B821A82A0914D04B09199
:1005B0004E04109709F140E050E0AC17BD0708F178
:1005C000BB83AA83FE0121913191E20FF31FAE1785
:1005D000BF0779F48D919C911197280F391F2E5FD9
:1005E0003F4F3983288312968D919C9113979B835B
:1005F0008A834115510571F4D0934E04C0934D0484
:1006000020C012968D919C911397AD01009711F027
:10061000DC01D3CFFA01D383C28321913191E20F60
:10062000F31FCE17DF0769F488819981280F391FDE
:100630002E5F3F4FFA01318320838A819B81938310
:100640008283DF91CF910895FC0105900020E9F7A6
:10065000809590958E0F9F1F089580E008950895CE
:1006600010927301109272011092740110926C0139
:1006700010926D0110926E0110926F011092700134
:1006800010927101E5E7F1E010861082118212826A
:1006900013821482158216821782399682E0E53918
:1006A000F80791F710929802109297028CE391E06C
:1006B00090939602809395021092AE021092AD0232
:1006C0001092AF021092A7021092A8021092A902F3
:1006D0001092AA021092AB021092AC021092B702D2
:1006E0001092B6021092B8021092B0021092B102AB
:1006F0001092B2021092B3021092B4021092B5029C
:100700001092CF021092CE021092D0021092C80224
:100710001092C9021092CA021092CB021092CC021F
:100720001092CD021092D8021092D7021092D902E4
:100730001092D1021092D2021092D3021092D402DF
:100740001092D5021092D6021092DB021092E602AD
:100750001092E5021092E3021092E2021092E4027B
:100760001092F3021092FF021092FE021092000308
:100770001092F8021092F9021092FA021092FB0203
:100780001092FC021092FD021092050382E291E0A9
:1007900090930803809307031092170381E08093DE
:1007A00018038093190310921A0310921B03ECE1B3
:1007B000F3E088E081938F5F8031E1F782E691E09A
:1007C000909325038093240381E080932C038093EE
:1007D0002D0310922E0310922F03109230031092CB
:1007E0003103109232031092330310923F031092A0
:1007F0003E03109240031092380310923903109276
:100800003A0310923B0310923C0310923D038FEF8A
:100810009FEF909342038093410389E590E00E940B
:100820002202809334039093350389E590E00E947F
:100830002202809336039093370384E191E09093F2
:100840002503809324038AE091E0909346038093EC
:10085000450382E391E09093600380935F031092DD
:100860009203109291031092930310928B031092B3
:100870008C0310928D0310928E0310928F031092AE
:10088000900310929B0310929A0310929C03109273
:10089000940310929503109296031092970310926E
:1008A0009803109299038EE993E060E340E00E9480
:1008B000D3108AEB93E061E340E00E94D3100895E7
:1008C00085E992E00E94AD2285E992E00E942F1C0A
:1008D000882349F085E992E00E94341C8EE993E078
:1008E00061E00E94B11008950F931F93CF93DF939F
:1008F0008C01C0E0D0E0BE016650704F86ED93E001
:100900000E948511F801EC0FFD1F80832196C630EF
:10091000D10589F7F80180818F3F81F481818F3F74
:1009200069F482818F3F51F483818F3F39F4848150
:100930008F3F21F485818F3F09F4FFCFDF91CF9165
:100940001F910F910895EF92FF920F931F9300E074
:10095000802F61E00E945E30802F60E00E948A302C
:100960000F5F0830A9F7802F60E00E945E30802F73
:1009700061E00E948A300F5F0031A9F78CE6E82E13
:1009800081E0F82EC7010E94740405E912E0C80155
:100990000E94692310930C0300930B03F0920E0343
:1009A000E0920D0387E093E065E771E040E20E948A
:1009B000810E84E293E0B801A70127E033E00E94B2
:1009C0007E0885E493E0B801A70127E033E00E94A8
:1009D00026058FE593E0B801A7010E94300FC801FA
:1009E00067E073E00E94471DC80164E273E00E9463
:1009F000471DC80165E473E00E94471DC8016FE50B
:100A000073E00E94471D1F910F91FF90EF90089592
:100A1000DC011496ED91FC911597A081B18150965F
:100A20002D913C915197CF01F90109950895FC0151
:100A3000868997890E942D0D64E670E080E090E041
:100A40000E94B72FE0E0F0E009950895EF92FF9241
:100A50000F931F938C01FC01758364835783468336
:100A60008FEF82878387158A1186378B268B9EE9C5
:100A7000E92E93E0F92EC70140E050E060E070E01D
:100A80000E94AB10C7010E94DB108091B903F801EE
:100A900084878AEBE82E83E0F82EC7014FEF50E001
:100AA0006FEF70E00E94AB10C7010E94DB108091D5
:100AB000D503F8018587868997894596918F808F20
:100AC0001686128A1F910F91FF90EF900895EF9272
:100AD000FF921F93CF93DF937C01162F8EE993E053
:100AE00040E050E060E070E00E94AB108AEB93E0E1
:100AF00041E050E060E070E00E94AB10112311F47F
:100B000010E017C0C0E0D0E0D70156968D919C91BF
:100B10005797BE0140E00E94E729F701868997892F
:100B2000BE0140E00E94CB292196C032D10561F779
:100B3000E7CF812F60E00E948A301F5F1830C9F72D
:100B40008FEFD7011A968C931A971B968C931B974D
:100B50005696ED91FC915797108A18961C92DF914A
:100B6000CF911F91FF90EF900895EF92FF920F9316
:100B70001F93CF93DF93EC01EE81FF81309709F44F
:100B8000B6C28085882309F4B2C28985882351F4CE
:100B900081E089878AEB93E041E050E060E070E01B
:100BA0000E94AB108EE993E00E94DB108AEB93E089
:100BB0000E94DB102091B90390E0222311F480E021
:100BC00004C08091D503811181E08F879F5F9830A9
:100BD000A1F78823E9F02C878091D5038D87809138
:100BE000AE039091AF03A091B003B091B1038134F3
:100BF0002FE1920720E0A20720E0B20714F083E083
:100C000006C0895B9B40A040B04014F082E08F8713
:100C10009F858E85891799F09E879A8B8EE993E040
:100C200040E050E060E070E00E94AB108AEB93E09F
:100C300041E050E060E070E00E94AB1001C01A8A11
:100C40002091B9038C85821799F08091AE03909121
:100C5000AF03A091B003B091B1038C349105A1050D
:100C6000B1053CF02C87222321F081E0888B01C064
:100C7000188A2091D5038D858217D1F08091CA03FF
:100C80009091CB03A091CC03B091CD038C3491050E
:100C9000A105B1053CF02D878091D503882311F083
:100CA00081E0898B00E010E0E1E0EE2EF12C02C043
:100CB000198AF8CFE88DF98DE00FF11F80810E942D
:100CC000AC30782F6C89A701002E02C0440F551F4D
:100CD0000A94E2F7862F90E084239523002E02C029
:100CE000959587950A94E2F7272F30E082179307AE
:100CF00061F0713029F4642B6C8B8B89842B09C0D3
:100D0000842F809586238C8B05C0942F90958B899A
:100D100089238B8B0F5F1F4F0830110559F688858B
:100D2000883009F459C0803809F4FAC0882309F0E2
:100D3000DEC18A89833021F4CE010E941705D7C114
:100D4000823079F48AEB93E04AEA5AEA6AEA7AEA6C
:100D50000E94AB108EE993E045E555E565E575E544
:100D6000C4C1813021F4CE010E940805C0C1888928
:100D70008823B9F088E08887EE89FF8981E0808B3D
:100D80008EE993E040EF50EF60EF70EF0E94AB1000
:100D900010E0812F60E00E948A301F5F1830C9F791
:100DA000A6C18989882309F4A2C180E88887EE89D1
:100DB000FF8981E0808B8AEB93E040EF50EF60EF9A
:100DC00070EF0E94AB1010E0812F60E00E948A302B
:100DD0001F5F1830C9F78BC18A898823E1F488899D
:100DE0008823A9F18AEB93E040E050E060E070E0F6
:100DF0000E94AB108A85992787FD9095029661E243
:100E000070E00E94EF3081508A878F3F49F487E07D
:100E100060E00E948A30CE0161E00E94670567C1F0
:100E2000803154F0A7C082300CF461C1812F815011
:100E300060E00E948A305BC1182F159580FFD1C0F9
:100E40008EE993E04AE050E06AE070E0D0C0898922
:100E5000882309F16B8567FD08C0772767FD7095CA
:100E60008E899F8941E00E94CB296A85603134F0E8
:100E7000772767FD70956051704007C067FDE2C03D
:100E8000772767FD7095605F7F4F8E899F8941E06E
:100E90000E94CB29D7C08B89882309F428C120E080
:100EA00030E0482F50E0122FCA01022E02C0959563
:100EB00087950A94E2F780FD06C01F5F2F5F3F4FC2
:100EC0002830310581F78B858F3F51F0212F30E09D
:100ED000992787FD9095959587952817390751F0A3
:100EE0008AEB93E04AE050E06AE070E00E94AB10C9
:100EF000812FD1C08D89813021F4110F1F5F1B8795
:100F0000DEC0823009F0F3C08AEB93E040E050E0AD
:100F100060E070E00E94AB108FEF8B871D8A21C0CC
:100F20008A89882309F077CF8889882309F467C0E4
:100F30008AEB93E040EF50EF60EF70EF0E94AB1050
:100F40008A85992787FD9095029661E270E00E945C
:100F5000EF3081508A878F3F59F487E060E00E942C
:100F60008A308EE993E040EF50EF60EF70EFBDC044
:100F7000803164F18AEB93E04AE050E06AEA7AE07B
:100F80000E94AB102A85332727FD3095C901409771
:100F900095958795182F20FF07C08EE993E040E0D4
:100FA00050EA60E070EA06C08EE993E04FEF5FEF31
:100FB0006FEF7FEF0E94AB10812F61E00E948A30BB
:100FC0008A85803109F02FCF87E032CF182F159511
:100FD00080FF07C08EE993E040E050EA60E070EAED
:100FE00006C08EE993E04FEF5FEF6FEF7FEF0E9457
:100FF000AB10812F61E00E948A308A8514CF8989E5
:10100000882319F16B8567FD08C0772767FD709508
:101010008E899F8941E00E94E7296A85603134F01A
:10102000772767FD70956051704007C067FD0AC063
:10103000772767FD7095605F7F4F8E899F8941E0BC
:101040000E94E729CE0160E0E8CE8B89882309F46D
:101050004EC020E030E0682F70E0422FCB01022E1E
:1010600002C0959587950A94E2F780FD06C04F5F10
:101070002F5F3F4F2830310581F78B858F3F51F02F
:10108000242F30E0992787FD90959595879528170F
:10109000390779F0842F90E0880F991F8B878EE9AC
:1010A00093E04FEF5FEF6FEF7FEF0E94AB1081E0B7
:1010B0000FC08D89813071F4440F4F5F4B878EE9EB
:1010C00093E04AE050E06AE070E00E94AB1082E0FA
:1010D0008D8B0DC0823059F48FEF8B871D8A8EE97E
:1010E00093E040E050E060E070E00E94AB10DF91E0
:1010F000CF911F910F91FF90EF900895FC0130A3C5
:10110000278F758364835783468308950895DF92FC
:10111000EF92FF920F931F93DF93CF93CDB7DEB77C
:10112000C256D0400FB6F894DEBF0FBECDBF7C01D3
:10113000198A188A1A8A1A861B861C861D861E869C
:101140001F861A8E198E1B8E1B8A1C8A1D8A1E8A68
:101150001F8A188E80E28D8FDE015396F701208959
:101160003189C901FC0189E001900D928150E1F7BC
:10117000D7015096ED91FC915197848990E09C01A4
:101180002C7F30702438310529F1253831052CF4B5
:101190002038310509F0E4C009C02C38310509F4C4
:1011A000A6C0283A310509F0DBC05AC087E08C8F11
:1011B00082E88E8F88E68F8F18A282EF89A38FEF47
:1011C0008AA38DEF8BA3C701BE01665F7F4F0E948C
:1011D000EE24C6C088E08C8F86E88E8F85898F8F3D
:1011E00018A219A21AA21BA281E08CA385898D3FA7
:1011F00061F08F3F09F0A6C087E88E8F18A219A270
:1012000082E08AA386E48BA39DC087E88E8FF701D6
:10121000878D90A10E941F0B692F77278827992718
:1012200068A3D7015F968D919C9190970E941F0BA8
:10123000BC018827992769A3F701878D90A10E9497
:101240001F0B672F782F892F99276AA3D7015F96E5
:101250008D919C9190970E941F0B6BA31CA272C052
:10126000837090708130910509F43DC0029709F0B8
:1012700077C018861F82198619821A821B821C82E7
:101280001D821E82DE011196759686E001900D92F8
:101290008150E1F7D7011696ED91FC91179799814E
:1012A0008081981709F05CC09A818181981709F0B4
:1012B00057C09B818281981709F052C09C8183811D
:1012C000981709F04DC09D818481981709F048C096
:1012D0009E818581981709F043C05F968D919C91FE
:1012E00090970E942D0DE0E0F0E0099539C0158936
:1012F0001770812F90E0B3E0880F991FBA95E1F73E
:1013000002968C8F8EE88E8F86ED93E062E070E01F
:101310000E948511D82E86ED93E063E070E00E9474
:101320008511082F1111FFCF86ED93E062E070E088
:101330004D2D0E948C1186ED93E063E070E0402F0C
:101340000E948C11C701BE01665F7F4F0E94EE2490
:10135000882319F020EF3FEF05C020E030E202C003
:1013600020E030E0C901CE59DF4F0FB6F894DEBF60
:101370000FBECDBFCF91DF911F910F91FF90EF90E6
:10138000DF900895FF920F931F93CF93DF93EC01AB
:10139000E889F989128925899689F788008D8489D9
:1013A000682F70E0637070706130710559F06230C1
:1013B00071052CF4672B19F4818D8D3F19F020E015
:1013C00030E031C030E040E050E0522F4427332776
:1013D0002227892F90E0A0E0B0E0DC019927882740
:1013E000282B392B4A2B5B2B802F90E0A0E0B0E01C
:1013F000282B392B4A2B5B2B8F2D90E0A0E0B0E0FF
:10140000BA2FA92F982F8827282B392B4A2B5B2BF3
:10141000165079968F8D98A1B901412F9F010E9496
:101420006D0B20EF3FEFC901DF91CF911F910F911D
:10143000FF900895EF92FF921F93DF93CF93CDB764
:10144000DEB7C955D0400FB6F894DEBF0FBECDBF92
:101450007C0118861F82198619821A821B821C82BF
:101460001D821E82198A188A1A8A1A861B861C8671
:101470001D861E861F86DE011A96FC0180899189D1
:101480009C01F90189E001900D928150E1F7D701AB
:101490005096ED91FC915197DE015496739686E03B
:1014A00001900D928150E1F78D898F7080658D8B51
:1014B000D7015096ED91FC915197118D858990E05F
:1014C000A0E0B0E0582F442733272227868990E0F8
:1014D000A0E0B0E0DC0199278827282B392B4A2B84
:1014E0005B2B808D90E0A0E0B0E0282B392B4A2BBD
:1014F0005B2B878990E0A0E0B0E0BA2FA92F982F4E
:101500008827282B392B4A2B5B2B848990E083700A
:10151000907081309105C1F1823091051CF4892BC6
:1015200039F00AC08230910539F0039729F407C0D9
:101530001D3F51F11F3F19F020E030E040C0B901DC
:10154000C901810F911D8854924010F017E4121BBD
:10155000DE015A9680E090E0212F30E00FC0E2E0FB
:1015600066347E0710F01C9205C0FB01EC56FF4F5D
:10157000E491EC93019611966F5F7F4F821793076A
:1015800070F31A5F1B8B0EC0D7015F968D919C91F3
:101590009097B901412F9E01265E3F4F0E942C0B70
:1015A0008A5F8B8BC701BE016F5F7F4F0E94EE2465
:1015B000882319F020EF3FEF02C020E030E2C9019C
:1015C000C75ADF4F0FB6F894DEBF0FBECDBFCF9125
:1015D000DF911F91FF90EF900895DC011696ED9139
:1015E000FC911797309721F18085882309F1509657
:1015F000ED91FC91519783898032E9F4848990E0E0
:10160000807C90708034910531F08038910559F0DC
:10161000892B29F010C0CD010E941A0A07C0CD0104
:101620000E94C20903C0CD010E9487089C0105C029
:1016300020E030E002C020E430E1C9010895FC015F
:101640008285938523E0880F991F2A95E1F70197FA
:10165000BC0180E090E00895CF93DF93EC01F901A5
:10166000CB01B3E096958795BA95E1F7582F2A8577
:101670003B85A3E0220F331FAA95E1F7CB01840F2E
:10168000911D2817390710F4422F461B852F880F0C
:10169000880F880F681BDF01752F50E018C0683075
:1016A00011F47F5F60E0272F30E0C901E3E0880F8D
:1016B000991FEA95E1F7820F931FE885F985E80FF6
:1016C000F91FE60FF11D80818D935F5F6F5F5417E7
:1016D00030F3842FDF91CF910895CF93DF93DC0116
:1016E000F901CB0123E0969587952A95E1F7582FCC
:1016F0001A962D913C911B9783E0220F331F8A95F8
:10170000E1F7CB01840F911D2817390710F4422F00
:10171000461B852F880F880F880F681BEF01752FD8
:1017200050E01AC0683011F47F5F60E0272F30E08E
:10173000C901E3E0880F991FEA95E1F7820F931F33
:101740001896ED91FC911997E80FF91FE60FF11D1E
:10175000899180835F5F6F5F541720F381E0549617
:101760008C93DF91CF910895FC018089882341F407
:10177000CB01409796958795609561700E948A305D
:1017800081E008958F929F92BF92CF92DF92EF9265
:10179000FF920F931F93CF93DF93EC01EE81FF81B4
:1017A000309709F465C08085882309F461C0CC2E88
:1017B000BD2EDD2451E0852E912C88898823E1F50A
:1017C0008A898823C9F57E0100E010E0F701858948
:1017D0000E94AC30382F2B89A401002E02C0440F88
:1017E000551F0A94E2F7822F90E084239523002E60
:1017F00002C0959587950A94E2F7381719F48989FC
:10180000882389F024272B8BB801660F771F80E08F
:1018100090E0313011F481E090E0682B792B8C2D31
:101820009B2D0E94E6270F5F1F4F0894E11CF11CBF
:101830000830110559F6198AD394F8E0DF1609F03B
:10184000BCCF8C2D9B2D0E941F272E853F858A851E
:101850009B852817390709F41A8A8C89882341F057
:10186000E881F9810084F185E02DCE0109951C8A7B
:10187000DF91CF911F910F91FF90EF90DF90CF906C
:10188000BF909F908F9008958F929F92AF92BF923A
:10189000DF92EF92FF920F931F93CF93DF934C0150
:1018A000DD2416C0F401008511850A0D1B1D86ED8F
:1018B00093E0B7010E9485110C0F1D1FF801808372
:1018C00021960894E11CF11CC830D10559F7D39436
:1018D0002D2D30E0F401828593852817390788F48F
:1018E000C90173E0880F991F7A95E1F75C01A20E98
:1018F000B31E64E0E62EF12CE80EF91EC0E0D0E045
:10190000D1CF81E0DF91CF911F910F91FF90EF90A8
:10191000DF90BF90AF909F908F9008951F93CF93CB
:10192000DF9310E0C4E0D0E086ED93E0BE0145E037
:101930000E948C11219686ED93E0BE0142E00E9448
:101940008C11219686ED93E0BE0141E00E948C113E
:10195000219686ED93E0BE0142E00E948C11219613
:1019600086ED93E0BE0142E00E948C11219686ED47
:1019700093E0BE0140E00E948C11219686ED93E039
:10198000BE0140E00E948C11219686ED93E0BE01DD
:10199000412F0E948C111F5F2196103129F610E013
:1019A000C4E8D0E086ED93E0BE0145E00E948C11D2
:1019B000219686ED93E0BE0142E00E948C112196B3
:1019C00086ED93E0BE0141E00E948C11219686EDE8
:1019D00093E0BE0142E00E948C11219686ED93E0D7
:1019E000BE0142E00E948C11219686ED93E0BE017B
:1019F00040E00E948C11219686ED93E0BE0140E00C
:101A00000E948C11219686ED93E0BE01412F0E9429
:101A10008C111F5F2196103129F686ED93E062E06C
:101A200070E040E00E948C1186ED93E063E070E08E
:101A300040E10E948C1186ED93E060E070E049E4A3
:101A40000E948C1186ED93E061E070E04FE60E9409
:101A50008C11DF91CF911F9108954F925F926F92F9
:101A60007F928F929F92AF92BF92CF92DF92EF922E
:101A7000FF920F931F93CF93DF933C0186ED93E08A
:101A800060E070E00E948511893409F0E2C086EDC3
:101A900093E061E070E00E9485118F3609F0D9C0B3
:101AA00086ED93E062E070E00E948511B82E86ED2D
:101AB00093E063E070E00E948511982E86ED93E03C
:101AC00060E070E048E50E948C118FED891538F4D4
:101AD0004B2D4F5F86ED93E062E070E005C086ED30
:101AE00093E062E070E04B2D0E948C11492D405E26
:101AF00086ED93E063E070E00E948C11AA24492CEB
:101B000055242EC0D3011696ED91FC911797EC0F3A
:101B1000FD1F86ED93E0B80140810E948C11219653
:101B20000F5F1F4FC630D10569F7B601665F7F4F63
:101B300086ED93E04B2D0E948C11E40CF51CBFEF59
:101B4000EB16F10409F4B394EBE0F0E0CE0EDF1EE7
:101B50004A2D490D86ED93E0B6010E948C11A394A5
:101B6000D3011A968D919C911B9796958795EA2C97
:101B7000FF24E816F90660F46701F3E0CC0CDD1CE5
:101B8000FA95E1F786010C5F1F4FC0E0D0E0BACFB5
:101B9000A82E882E890C492C55242EC0D3011696C8
:101BA000ED91FC911797EC0FFD1F86ED93E0B801C6
:101BB00040810E948C1121960F5F1F4FC630D105C6
:101BC00069F7B601665F7F4F86ED93E04B2D0E946B
:101BD0008C11E40CF51CBFEFEB16F10409F4B3947F
:101BE000EBE0F0E0CE0EDF1E86ED93E0B601482D6F
:101BF0000E948C11A3948394EA2CFF24D3011A969B
:101C00008D919C911B97E816F90660F46701E3E05B
:101C1000CC0CDD1CEA95E1F786010C5F1F4FC0E09C
:101C2000D0E0BCCF86ED93E060E070E049E40E9434
:101C30008C1186ED93E061E070E00E9485118F3693
:101C400059F086ED93E061E070E04FE60E948C1160
:101C500003C0C3010E948E0CDF91CF911F910F91A1
:101C6000FF90EF90DF90CF90BF90AF909F908F90BC
:101C70007F906F905F904F900895AF92BF92CF92F8
:101C8000DF92FF920F931F93CF93DF935C01FF24AA
:101C900016C0D5011896ED91FC911997EC0DFD1D1C
:101CA000EC0FFD1F86ED93E0B80140810E948C117E
:101CB00021960F5F1F4FC830D10559F7F3942F2D90
:101CC00030E0F501828593852817390778F4C9013A
:101CD000B3E0880F991FBA95E1F76C01C20ED31ECD
:101CE0008C010C5F1F4FC0E0D0E0D3CF81E0DF91CB
:101CF000CF911F910F91FF90DF90CF90BF90AF9049
:101D000008950F931F93CF93DF93EC018C0150E064
:101D10000E94BF2786ED93E060E070E00E9485118D
:101D2000893441F486ED93E061E070E00E94851112
:101D30008F3619F0CE010E942D0DE881F9810284C1
:101D4000F385E02DCE010995C0E0D0E0C801BE01C9
:101D500041E020E00E9495292196C031D105B1F7DC
:101D6000C0E1D0E0C801BE0140E021E00E94952919
:101D70002196C032D105B1F7DF91CF911F910F911C
:101D800008950F931F93CF93DF93EC01EE81FF81B2
:101D9000309709F460C08085882309F45CC09C8D6D
:101DA00097FD44C08D8D8F5F891B8BA3893010F008
:101DB00088E08BA321E016C0822F90E0EC8DFF27F6
:101DC000E7FDF095E80FF91FE752FD4FE491DE01C2
:101DD000A80FB91F9496EC939497EA3011F4949657
:101DE0001C922F5F8BA1281738F38E01025E1F4FC4
:101DF000EC81FD81A081B18118962D913C911997BC
:101E0000CF01B801F9010995882391F38BA1815085
:101E10002C8D820F8C8F992787FD90952D8D30E02A
:101E200082179307C4F08FEF8C8F15C088858823A5
:101E300091F018868E01025E1F4FEC81FD81A0811A
:101E4000B18118962D913C911997CF01B801F901F4
:101E50000995882391F3DF91CF911F910F910895F8
:101E6000CF92DF92EF92FF920F931F938C017B0131
:101E70006A01FC0110868FEF848F8AED92E00E9448
:101E800024038F5FF801858FF582E482D782C682B2
:101E90001F910F91FF90EF90DF90CF900895CF9317
:101EA000DF93EC010E94A116882329F0CE010E9445
:101EB0007B170E9729F020E0822FDF91CF910895B4
:101EC00020E08E818E32C1F721E0F6CFCF93DF93F1
:101ED000EC010E94A116882329F0CE010E947B17F5
:101EE0000E9729F020E0822FDF91CF91089520E016
:101EF0008E818235C1F721E0F6CFCF92DF92EF924B
:101F0000FF920F931F93DF93CF93CDB7DEB7629706
:101F10000FB6F894DEBF0FBECDBF6C018B01DC01A4
:101F20001696ED91FC911797309709F404C18085BE
:101F3000882309F400C1CB010E94660F882309F4AD
:101F40006EC0198A188A1A8A1A861B861C861D86F4
:101F50001E861F86C801BE01665F7F4F0E9456180D
:101F6000D6011696ED91FC9117972889398921158C
:101F7000310541F086819781009721F028173907B4
:101F8000F9F0D9C09A858081981709F0D4C09B8553
:101F90008181981709F0CFC09C858281981709F03C
:101FA000CAC09D858381981709F0C5C09E8584812C
:101FB000981709F0C0C09F858581981709F0BBC0AC
:101FC000F601148E18861F82198619821A821B82C6
:101FD0001C821D821E82C8017E010894E11CF11C36
:101FE000B7010E9455168601025E1F4FD601169654
:101FF0006D917C911797C8010E940416C801B70122
:102000000E94C118C8010E949616C8016EE070E0D7
:102010000E94901783E5F60184A381E08DC0C8017A
:102020000E944F0F882309F486C018861F821986E4
:1020300019821A821B821C821D821E82C801BE0167
:102040006F5F7F4F0E945618D6011696ED91FC9156
:1020500017972F8138852115310541F086819781A9
:10206000009721F028173907F9F065C09981808120
:10207000981709F060C09A818181981709F05BC0B8
:102080009B818281981709F056C09C8183819817A3
:1020900009F051C09D818481981709F04CC09E8140
:1020A0008581981709F047C0198A188A1A8A1A86F2
:1020B0001B861C861D861E861F868AE0E82EF12C54
:1020C000EC0EFD1EC801B7010E9455168601025E86
:1020D0001F4FF60166817781C8010E940416C8016E
:1020E000B7010E94C118C8010E949616C8016EE08F
:1020F00070E00E9490178FE2D60194968C9394978B
:1021000087E093968C93939785ED95968C9395970E
:1021100096961C92969797961C92979798961C92D3
:10212000989799961C9299979A961C929A9781E003
:1021300018968C9301C080E062960FB6F894DEBFCB
:102140000FBECDBFCF91DF911F910F91FF90EF9008
:10215000DF90CF900895FC01448755876687778785
:102160000895FC01818D862B818F08950F931F9315
:102170008C01FC0162871386808D61E00E945E30D5
:10218000F801808D62850E948A30F8011086148AD9
:10219000158A168A178A108A118A128A138A138E50
:1021A0001F910F910895FC0142871386608F642F61
:1021B0000E94B6100895AF92BF92CF92DF92EF9235
:1021C000FF920F931F93CF93DF93EC010E94A92FEF
:1021D000D62EC72EB82EA92EE62EF72E9701207EDA
:1021E0008E819F812817390709F449C03F832E83C8
:1021F000888D60E00E945E30888D61E00E948A30A8
:102200000A851B85888D0E94AC301986081719072E
:1022100011F481E08987888D61E00E945E30888DAD
:102220006A8D0E948A3099858885981711F0988761
:1022300026C08B8D8917A9F09B8F88899989AA89D7
:10224000BB898096A11DB11D8C8B9D8BAE8BBF8BE6
:10225000D882C982BA82AB82188A198A1A8A1B8AE2
:102260000EC00E94A92F288139814A815B81621B9F
:10227000730B840B950B688B798B8A8B9B8B9701E7
:10228000207C30708C819D812817390799F13D831E
:102290002C838C852A853B8580FF0FC080E0232B13
:1022A00009F081E08A8F8C859D85AE85BF85B595C7
:1022B000A79597958795B0680DC080E0232B09F40A
:1022C00081E08A8F8C859D85AE85BF85B695A79563
:1022D000979587958C879D87AE87BF87898D80FD71
:1022E0001A8E898D90E095958795898F888D6A8D56
:1022F0000E948A30DF91CF911F910F91FF90EF9054
:10230000DF90CF90BF90AF900895F999FECF72BD46
:1023100061BDF89A80B50895F999FECF72BD61BD8F
:1023200040BD0FB6F894FA9AF99A0FBE0895EF924D
:10233000FF920F931F93CF93DF93DC01FB0117965E
:102340008D919C9118976817790709F470C01086D1
:1023500019968C911997813021F4ED01279639F463
:1023600005C0882319F4ED01279609F4FFCFF983FE
:10237000E8838B819C81009721F09783868387E097
:1023800055C0E080FF2400E010E08701FF24EE2428
:10239000818190E0A0E0B0E0BA2FA92F982F882784
:1023A000E82AF92A0A2B1B2B828190E0A0E0B0E0FA
:1023B000E82AF92A0A2B1B2B238130E040E050E069
:1023C000A90133272227848190E0A0E0B0E0BA2F52
:1023D000A92F982F8827282B392B4A2B5B2B8581F7
:1023E00090E0A0E0B0E0282B392B4A2B5B2BC901F1
:1023F0008E259F257CE016950795F794E7947A95AE
:10240000D1F78E259F256CE05695479537952795F2
:102410006A95D1F7822793279F709C838B83892BA2
:1024200021F481E090E09C838B8382E08A83DF91BA
:10243000CF911F910F91FF90EF9008956F927F922F
:102440008F929F92AF92BF92CF92DF92EF92FF92C4
:102450000F931F93CF93DF93EB01E881F9813097BE
:1024600009F010866B817C81ED84FE840F851889CC
:10247000A8019701FFE05695479537952795FA955E
:10248000D1F7317040705070A984BA84CB84DC8459
:10249000D601C501E9E0880F991FAA1FBB1FEA9565
:1024A000D1F7282B392B4A2B5B2BD801C701F9E038
:1024B000880F991FAA1FBB1FFA95D1F7B070E9EAE0
:1024C0006E2EEBE47E2EEAE78E2E912CE60CF71CA6
:1024D000081D191D8E0D9F1DA01FB11F03EAE02EC0
:1024E0000CE0F02E0BE1002F112DAE0CBF1CC01E16
:1024F000D11E2A0D3B1D4C1D5D1D5070EB2EFF247F
:10250000002711272E293F29402B512B29873A8755
:102510004B875C87B0708D879E87AF87B88B7901BA
:102520008A01FCE016950795F794E794FA95D1F7A0
:10253000AC014E255F2542275327ECE0B695A795C1
:1025400097958795EA95D1F7482759275F705C835F
:102550004B834115510509F487CF4617570709F4F6
:1025600083CF8FE08A83DF91CF911F910F91FF90EE
:10257000EF90DF90CF90BF90AF909F908F907F9023
:102580006F900895CF93DF93EC01DB01EF81F88525
:1025900016962D913C9117972115310541F08681B2
:1025A0009781009721F02817390749F521C09C91A0
:1025B0008081981721F511969C9111978181981728
:1025C000F1F412969C91129782819817C1F4139698
:1025D0009C9113978381981791F414969C9114976A
:1025E0008481981761F415969C918581981739F428
:1025F0008FE08987EF81F885108681E001C080E057
:10260000DF91CF910895CF93DF93DC01FB018681A9
:102610009781892B19F58081882301F58181882391
:10262000E9F482818823D1F483818823B9F48481F9
:102630008823A1F48581882389F41A968D919C9131
:102640001B97892B09F43FC01796CD91DC91189701
:102650002097C9F188858823B1F127C01A968D91FA
:102660009C911B97892B79F11796CD91DC91189746
:10267000209749F18885882331F1908188819817C6
:1026800011F5918189819817F1F492818A819817C7
:10269000D1F493818B819817B1F494818C81981730
:1026A00091F495818D81981771F41196ED91FC91BB
:1026B0001297A081B1811A962D913C911B97CF0161
:1026C000BE01F9010995DF91CF910895CF93DF9372
:1026D000EC01DB018A859B85892B41F1EF81F8852F
:1026E0009C918081981711F511969C911197818189
:1026F0009817E1F412969C91129782819817B1F481
:1027000013969C9113978381981781F414969C914A
:1027100014978481981751F415969C918581981788
:1027200029F489819A81BF010E94C41DDF91CF9154
:1027300008950F931F938C01FC01728361830E94A3
:10274000A92FF80163837483858396831F910F916A
:102750000895FF920F931F93CF93DF938C01EC01A9
:10276000888190E0EC0134E0CC0FDD1F3A95E1F771
:10277000C80FD91FC00FD11FF984E6E0FE1609F477
:10278000EFC0EF15A0F0F3E0FF1609F493C0FF15BA
:1027900028F022E0F21609F0CBC14CC084E0F81614
:1027A00009F49EC0E5E0FE1609F0C2C1B1C0FFE029
:1027B000FF16A1F0FF1548F027E0F21609F467C1F3
:1027C00088E0F81609F0B4C17BC1E4E1FE1609F413
:1027D00010C1F9E1FF1609F0ABC138C18F819885AE
:1027E000892B11F082E001C081E08987E8018881AE
:1027F00090E0FC0124E0EE0FFF1F2A95E1F7E80FBF
:10280000F91FE00FF11F6781708589819A810E940D
:10281000E81D882309F08CC1888190E0FC01B4E0B8
:10282000EE0FFF1FBA95E1F7E80FF91FE00FF11F58
:102830008FE03EC0EF81F8852A853B8586819781B0
:102840008217930711F037832683F801808190E087
:10285000FC01A4E0EE0FFF1FAA95E1F7E80FF91FB6
:10286000E00FF11F83E08187E801888190E0FC019F
:1028700074E0EE0FFF1F7A95E1F7E80FF91FE00F04
:10288000F11F6781708589819A8141E00E941D2333
:10289000882309F04DC1888190E0FC0164E0EE0FCF
:1028A000FF1F6A95E1F7E80FF91FE00FF11F82E0C3
:1028B00081873EC184E08987F801808190E0FC0136
:1028C00054E0EE0FFF1F5A95E1F7E80FF91FE00FF4
:1028D000F11F67817085E80189819A8142E015C006
:1028E00085E08987F801808190E0FC0144E0EE0FEB
:1028F000FF1F4A95E1F7E80FF91FE00FF11F67810D
:102900007085E80189819A8143E00E941D23D4C02B
:102910000E94A92F6C877D878E879F87F801808111
:1029200090E0FC0134E0EE0FFF1F3A95E1F7E80F6D
:10293000F91FE00FF11F86E08187E801888190E0B0
:10294000FC0124E0EE0FFF1F2A95E1F7E80FF91FC5
:10295000E00FF11F6781708589819A8144E0D5CFAE
:102960000E94A92FF801208130E0F901B4E0EE0FB8
:10297000FF1FBA95E1F7E20FF31FE00FF11F248567
:10298000358546855785621B730B840B950B645FF9
:1029900071408040904008F4CBC087819085892B9E
:1029A00011F087E001C081E08187E801888190E033
:1029B000FC01A4E0EE0FFF1FAA95E1F7E80FF91F55
:1029C000E00FF11F6781708589819A810E94F92249
:1029D000882309F0ADC0888190E0FC0174E0EE0F1F
:1029E000FF1F7A95E1F7E80FF91FE00FF11F86E06E
:1029F0005FCF8F819885892B11F08EE101C081E036
:102A00008987F801808190E0FC0164E0EE0FFF1FF0
:102A10006A95E1F7E80FF91FE00FF11F67817085F4
:102A2000E80189819A810E94F922882309F080C0F7
:102A3000888190E0FC0154E0EE0FFF1F5A95E1F70A
:102A4000E80FF91FE00FF11F84E132CF8EE1898793
:102A5000F801A181B2812D913C911197808190E084
:102A6000FC0144E0EE0FFF1F4A95E1F7E80FF91F64
:102A7000E00FF11F67817085E901EA85FB85CD01D3
:102A80000995882309F054C0F801808133C088E09B
:102A90008987E801888190E0FC0134E0EE0FFF1F98
:102AA0003A95E1F7E80FF91FE00FF11F6781708594
:102AB00089819A810E94C41D8823D1F588811AC01A
:102AC0008EE18987F801808190E0FC0124E0EE0F1F
:102AD000FF1F2A95E1F7E80FF91FE00FF11F67814B
:102AE0007085E80189819A810E94DF22988188237C
:102AF00071F4892F90E0FC01B4E0EE0FFF1FBA954E
:102B0000E1F7E80FF91FE00FF11FF18611C0892FDF
:102B100090E0FC01A4E0EE0FFF1FAA95E1F7E80F9B
:102B2000F91FE00FF11F0780F085E02D81E080871D
:102B3000F8011082DF91CF911F910F91FF900895BE
:102B40000F931F93CF93DF93EC018B01CB010E9476
:102B500018162A853B858217930709F048C0898596
:102B6000873038F48330C0F4813081F1823058F4FA
:102B700007C0883059F1883098F08E31C1F526C0F1
:102B80001B861A8634C0F80180A1882329F0C80169
:102B90000E943017882359F5C8010E94E71620C00B
:102BA000F80180A1882329F4C8010E94E716882330
:102BB000C9F0F80180A18823D1F0C8010E94E7166E
:102BC0008823A9F4C8010E9417170AC0C8010E94EF
:102BD000E716882319F084E1898709C0F80180A1EC
:102BE000882329F4CE012796BE010E941E12DF9190
:102BF000CF911F910F9108959C012A5F3F4FC9010A
:102C00000895FC0185810895AC01FB0186819781BF
:102C1000FA0110A2248122602E7F2483A0E0B0E07C
:102C2000906FAF6FBF6180839183A283B383089558
:102C3000FC01208131813F70C90108950F931F93DA
:102C4000FC01DB0116960D911C911797980140E04D
:102C500050E03F704070507080819181A281B381BB
:102C60008070907F282B392B4A2B5B2B208331835C
:102C700042835383158B048BDB018C9186871196DD
:102C80008C911197878712968C911297808B13964F
:102C90008C911397818B14968C911497828B159637
:102CA0008C91838B1F910F910895FC01DB01848926
:102CB0009589892B91F48685882379F487858823E3
:102CC00061F48089882349F48189882331F48289D9
:102CD000882319F483898823F9F0808191819F707A
:102CE000958B848B17969C938E93169786858C93E1
:102CF000878511968C931197808912968C931297E1
:102D0000818913968C931397828914968C931497C8
:102D1000838915968C930895158A148A168A1686C7
:102D20001786108A118A128A138AD7CFFC018081F4
:102D30009181A281B381B86080839183A283B383A0
:102D40000895FC0180819181A281B3813BE1B69518
:102D5000A795979587953A95D1F7817008950F9328
:102D60001F93CF93DF938C01DA01EC0118A2EC8161
:102D7000E260EE7FEC83709561957F4F67707070B5
:102D8000762F66277295707FBF706A2B7B2B80E051
:102D900090E0ECE0660F771F881F991FEA95D1F746
:102DA00040E050E0306F4F6F5F613F704070507F88
:102DB000622B732B842B952BF801608371838283A4
:102DC00093831582DF91CF911F910F910895FC019C
:102DD00080819181A281B381B3FF02C020E011C044
:102DE00020E08070907FBF703CE0B695A7959795E6
:102DF00087953A95D1F7807090778050904408F08D
:102E000021E0822F0895FC0110A2248122602E7FF0
:102E1000248380E090E07F70807090708067906184
:102E2000608371838283938386E085830895FC01A8
:102E3000208131814281538153FF02C080E0089597
:102E400080E02070307F5F706CE056954795379535
:102E500027956A95D1F72050374009F481E008950D
:102E6000FC01208131814281538153FF02C080E007
:102E7000089580E02070307F5F707CE05695479524
:102E8000379527957A95D1F72350374009F481E09B
:102E90000895FC01208131814281538153FF02C09A
:102EA00080E0089580E02070307F5F70ECE0569500
:102EB000479537952795EA95D1F72150374009F482
:102EC00081E00895FC01208131814281538153FFCB
:102ED00002C080E0089580E02070307F5F709CE049
:102EE00056954795379527959A95D1F722503740B3
:102EF00009F481E00895FC012081318142815381F0
:102F00002070307F5F706CE0569547953795279518
:102F10006A95D1F7232F332722952F70C901089581
:102F2000EF92FF920F931F93FC01E080F1800281EA
:102F30001381362F3295307F20E0D801C701807091
:102F4000907FBF704CE0B695A795979587954A9569
:102F5000D1F79F70282B392B40E050E07CE0220F06
:102F6000331F441F551F7A95D1F78FEF9FE0A0E0E4
:102F7000B0EFE822F9220A231B232E293F29402BF8
:102F8000512B20833183428353831F910F91FF90F4
:102F9000EF9008950F931F93FC010081118122810E
:102FA00033815F70962F9295907F80E0842B952BD4
:102FB000A0E0B0E04CE0880F991FAA1FBB1F4A9504
:102FC000D1F71F702070307F802B912BA22BB32B59
:102FD00080839183A283B3831F910F9108950F93F0
:102FE0001F938C01FA0186819781F80110A2248138
:102FF00022602E7F2483A0E0B0E0906FAF6FBF61AE
:1030000080839183A283B383FB0146815781C801EA
:103010006EE070E00E94CA1781E0F80185838CE0C1
:1030200086831F910F910895FC0180819181A28177
:10303000B381B3FF18C08070907FBF70ECE0B6958D
:10304000A79597958795EA95D1F7FC01892F992740
:1030500082958F70089739F480E0FF70EF5DFA4039
:1030600019F481E0089580E00895FC018081918148
:10307000A281B381B3FF18C08070907FBF702CE035
:10308000B695A795979587952A95D1F7FC01892F35
:10309000992782958F70089739F480E0FF70EF5C74
:1030A000FA4019F481E0089580E00895CF93DF930A
:1030B000FC01EB0180819181A281B3818070907FBE
:1030C000BF707CE0B695A795979587957A95D1F7CF
:1030D000892F992782958F708F30910581F08A30E2
:1030E000910569F08B30910551F08C30910539F0E4
:1030F0008D30910521F00E9711F080E035C0858D5F
:10310000968D892B91F48789882379F4808D882383
:1031100061F4818D882349F4828D882331F4838D75
:10312000882319F4848D882311F180819181A281F3
:10313000B3818070907FB0705CE0B695A79597954D
:1031400087955A95D1F7968F858F9F838E83878930
:103150008883808D8983818D8A83828D8B83838D03
:103160008C83848D8D8381E0DF91CF910895168EBD
:10317000158E178E178A108E118E128E138E148E46
:10318000D4CF0F931F93FC01208131814281538161
:103190003F704070DB0116960D911C911797C80186
:1031A000A0E0B0E0072E7CE0880F991FAA1FBB1F8C
:1031B0007A95D1F7702D8070907FB070822B932B11
:1031C000A42BB52B80839183A283B383168F058FA5
:1031D000DB018C91878B11968C911197808F1296C1
:1031E0008C911297818F13968C911397828F1496DE
:1031F0008C911497838F15968C91848F1F910F91CA
:103200000895FC0180819181A281B381B3FF18C030
:103210008070907FBF703CE0B695A7959795879595
:103220003A95D1F7FC01892F992782958F700897DD
:1032300039F480E0FF70E75AF84019F481E008950E
:1032400080E00895FC0180819181A281B38180702A
:10325000907FBF705CE0B695A795979587955A9536
:10326000D1F7892F992782958F700E9749F4858120
:10327000882331F020E086818A3019F421E001C0F2
:1032800020E0822F0895FC0180819181A281B38189
:10329000B3FF18C08070907FBF707CE0B695A79593
:1032A000979587957A95D1F7FC01892F9927829573
:1032B0008F70089739F480E0FF70E75BF84019F4ED
:1032C00081E0089580E00895FC0180819181A281D0
:1032D000B381B3FF18C08070907FBF702CE0B695AB
:1032E000A795979587952A95D1F7FC01892F99275E
:1032F00082958F70089739F480E0FF70EF54FA40A0
:1033000019F481E0089580E00895FC0180819181A5
:10331000A281B381B3FF18C08070907FBF704CE072
:10332000B695A795979587954A95D1F7FC01892F72
:10333000992782958F70089739F480E0FF70EF58D5
:10334000FA4019F481E0089580E00895FC0180813D
:103350009181A281B381B3FF18C08070907FBF704C
:103360006CE0B695A795979587956A95D1F7FC017E
:10337000892F992782958F70089739F480E0FF7024
:10338000E75BFA4019F481E0089580E00895FC01BC
:1033900080819181A281B3818070907FBF702CE089
:1033A000B695A795979587952A95D1F7892F99274F
:1033B00082958F700E9749F48581882331F020E043
:1033C00086818B3219F421E001C020E0822F08951C
:1033D000FC0180819181A281B381B3FD02C080E0B4
:1033E00008958070907FBF704CE0B695A795979533
:1033F00087954A95D1F7FC01EF2FFF27E295EF70F3
:10340000EA30F10559F0EB30F10541F0EC30F1050F
:1034100029F080E03D9719F481E0089581E0089556
:10342000FC0180819181A281B381B3FD02C080E063
:1034300008958070907FBF706CE0B695A7959795C2
:1034400087956A95D1F7FC01EF2FFF27E295EF7082
:10345000EA30F10511F481E0089580E03D9709F428
:1034600081E00895FC0180819181A281B381B3FD47
:1034700002C080E008958070907FBF70ECE0B69548
:10348000A79597958795EA95D1F7FC01EF2FFF2730
:10349000E295EF70EA30F10511F481E0089580E0E3
:1034A0003B9709F481E00895FC0180819181A2811C
:1034B000B381B3FF10C08070907FBF702CE0B695D1
:1034C000A795979587952A95D1F7892F9927829562
:1034D0008F700E9719F020E0822F089520E08681EA
:1034E0008C34D1F721E0F8CFFC0180819181A28159
:1034F000B381B3FF10C08070907FBF704CE0B69571
:10350000A795979587954A95D1F7892F9927829501
:103510008F700E9719F020E0822F089520E08681A9
:103520008D34D1F721E0F8CFFC018581833018F488
:1035300020E030E006C0978180E0208530E0282B35
:10354000392BC9010895DC011696FB0188E0019032
:103550000D928150E1F70895EF92FF920F931F9320
:103560008C017B0168E070E04BEA52E00E94CA17D0
:1035700088E0F8018583C801B7010E94A31A1F9152
:103580000F91FF90EF900895EF92FF920F931F938A
:103590008C017B0168E070E04BE652E00E94CA17A4
:1035A00088E0F8018583C801B7010E94A31A1F9122
:1035B0000F91FF90EF900895EF92FF920F931F935A
:1035C0008C017B0168E070E04FEC5AE00E94CA1762
:1035D00088E0F8018583C801B7010E94A31A1F91F2
:1035E0000F91FF90EF900895EF92FF920F931F932A
:1035F0008C017B0168E070E04FED5AE00E94CA1731
:1036000088E0F8018583C801B7010E94A31A1F91C1
:103610000F91FF90EF900895EF92FF920F931F93F9
:103620008C01F62EE72E68E070E047EB58E00E9430
:10363000CA1786E0F8018583D80116962F2D3E2DF6
:10364000C901FC0186E001900D928150E1F71F91C4
:103650000F91FF90EF900895EF92FF920F931F93B9
:103660008C01F62EE72E68E070E047EA58E00E94F1
:10367000CA1786E0F8018583D80116962F2D3E2DB6
:10368000C901FC0186E001900D928150E1F71F9184
:103690000F91FF90EF900895CF93DF93EC01888115
:1036A0009981AA81BB818070907FBF70FCE0B69544
:1036B000A79597958795FA95D1F7892F99278295A0
:1036C0008F700E9779F48D81882361F08E818A3016
:1036D00011F421E008C020E08B3209F021E081E004
:1036E000282701C020E0422F50E09A012B5F3F4F76
:1036F0008D8190E02817390754F4FA013696DB01E2
:10370000EC0FFD1F86E001900D928150E1F7DF91F3
:10371000CF910895DB01FC01369688E001900D926F
:103720008150E1F70895EF92FF920F931F938C0160
:103730007B01FB0186819781F80110A22481226020
:103740002E7F2483A0E0B0E0906FAF6FBF618083D5
:103750009183A283B383C80168E070E047E850E03A
:103760000E94CA1786E0F8018583D8011696F701F2
:1037700001900D928150E1F71F910F91FF90EF9012
:103780000895FC01DB0116968D919C91179710A26C
:10379000248122602E7F2483A0E0B0E09F70A0707F
:1037A000B0709061A067B06180839183A283B3837E
:1037B00086E085833696DB010D9001928150E1F71A
:1037C0000895FC01DB0116968D919C91179710A22C
:1037D000248122602E7F2483A0E0B0E09F70A0703F
:1037E000B0709063A067B06180839183A283B3833C
:1037F00086E085833696DB010D9001928150E1F7DA
:10380000089580E0089580E00895DF93CF93CDB7C9
:10381000DEB729970FB6F894DEBF0FBECDBFDC012F
:10382000198681E089838A831B821C821D821E8205
:103830008EEF8F831886ED91FC9111970288F389A2
:10384000E02DCD01BE016F5F7F4F099529960FB620
:10385000F894DEBF0FBECDBFCF91DF910895FC017C
:10386000EF58FF4F80810895FC01EF58FF4F108201
:1038700008950F931F93CF93DF93EC010E94672D60
:103880008823A9F08E010C5F1F4FC8010E945C2E97
:103890008823D9F3DE019596FE01349681E20190EA
:1038A0000D928150E1F7CB5BDF4F81E08883DF91A0
:1038B000CF911F910F9108950F931F93CF93DF9393
:1038C000EC01162F072F0E94672D882389F0DE0157
:1038D0001496812F902F9C01F90181E201900D92A5
:1038E0008150E1F7CE010E94391C8823D9F381E091
:1038F000DF91CF911F910F9108950F931F93CF9355
:10390000DF93DC018B017C9160E040E050E02BC054
:10391000EA0129961196ED91FC911297E40FF51F9B
:1039200026813781F8018681978128173907C9F4E4
:103930001396ED91FC911497E60FF11D80818F3F56
:1039400011F08F5F80831196ED91FC911297D80151
:10395000E40FF51F86E001900D928150E1F781E0C0
:1039600005C06F5FAE01671798F280E0DF91CF91DD
:103970001F910F910895EF92FF920F931F93CF9392
:10398000DF93EC01DB0116960D911C911797011541
:10399000110509F460C0E8805FEFFF2440E020E0FB
:1039A00030E03DC0642F70E0FC01E20FF31F868120
:1039B0009781009721F08017910719F54CC09081ED
:1039C0008C919817F1F4918111968C911197981719
:1039D000C1F4928112968C911297981791F4938169
:1039E00013968C911397981761F4948114968C9187
:1039F0001497981731F4958115968C91159798170F
:103A000051F1EB81FC81E60FF71FE081E51710F023
:103A1000E52F01C0F42E4F5F275F3F4F5E2F898156
:103A20009A814E1508F4BECF2F2D30E0F90143E006
:103A3000EE0FFF1F4A95E1F7E20FF31FE80FF91FA2
:103A400089E00D9001928150E1F7EB81FC81E20F5A
:103A5000F31F81E08083DF91CF911F910F91FF9041
:103A6000EF900895EF92FF920F931F937C018B01CB
:103A70000E94A92BF80166817781C7018A5B9F4F5D
:103A80000E94C2121F910F91FF90EF900895EF9244
:103A9000FF920F931F937C018B010E949C2BF801D6
:103AA00066817781C7018A5B9F4F0E9497111F91A2
:103AB0000F91FF90EF9008950F931F93CF93DF9393
:103AC0008C01EB010E94672D882359F0C8010496F0
:103AD000BE010E94AC1AC8010E94391C8823D9F388
:103AE00081E0DF91CF911F910F9108950F931F9364
:103AF000CF93DF938C01EB010E94672D882359F04F
:103B0000C8010496BE010E94DC1AC8010E94391C3B
:103B10008823D9F381E0DF91CF911F910F91089510
:103B20000F931F93CF93DF938C01EB010E94672DBE
:103B3000882359F0C8010496BE010E94C41AC80126
:103B40000E94391C8823D9F381E0DF91CF911F9126
:103B50000F9108950F931F93CF93DF938C01EB0187
:103B60000E94672D882359F0C8010496BE010E9467
:103B7000F41AC8010E94391C8823D9F381E0DF912F
:103B8000CF911F910F910895EF92FF920F931F9382
:103B9000CF93DF937C01EB010E94672D882389F08E
:103BA00087010C5F1F4FC801BE010E940416C801A7
:103BB000BE010E94C11BC7010E94391C8823D9F392
:103BC00081E0DF91CF911F910F91FF90EF900895C9
:103BD000EF92FF920F931F93CF93DF937C01EB0142
:103BE0000E94672D882389F087010C5F1F4FC80151
:103BF000BE010E940416C801BE010E94E11BC7015C
:103C00000E94391C8823D9F381E0DF91CF911F9165
:103C10000F91FF90EF900895EF92FF920F931F93F3
:103C2000CF93DF937C01EB010E94672D882389F0FD
:103C300087010C5F1F4FC801BE010E940416C80116
:103C4000BE010E940C1BC7010E94391C8823D9F3B6
:103C500081E0DF91CF911F910F91FF90EF90089538
:103C6000AF92BF92CF92DF92EF92FF920F931F938A
:103C7000CF93DF93EC017B016A0159010E94672D0C
:103C80008823F9F08E010C5F1F4FC801B7010E9415
:103C90000416C801B6010E94C118C8010E949616F8
:103CA000C8016EE070E00E9490178DE48A87BB86A1
:103CB000AC8683E08987CE010E94391C8823D9F322
:103CC00081E0DF91CF911F910F91FF90EF90DF90F6
:103CD000CF90BF90AF900895CF92DF92EF92FF9276
:103CE0000F931F93CF93DF93EC017B016A010E9436
:103CF000672D8823E9F08E010C5F1F4FC801B701C3
:103D00000E940416C801B6010E94C118C8010E9491
:103D10009616C8016EE070E00E9490178CE48A87C6
:103D200081E08987CE010E94391C8823D9F381E084
:103D3000DF91CF911F910F91FF90EF90DF90CF9087
:103D40000895CF92DF92EF92FF920F931F93CF933C
:103D5000DF938C01EB01C42E8F859889892B09F0A4
:103D60004CC0025A1F4FD8015C910E55104040E0E4
:103D700020E030E0D801A15ABF4F3CC0ED91FC914A
:103D80001197E20FF31F90818985981781F5918132
:103D90008A85981761F592818B85981741F59381F3
:103DA0008C85981721F594818D85981701F595815B
:103DB0008E859817E1F40F591F4FD801ED91FC91B2
:103DC00001561040E40FF11D80818F3F11F08F5F8D
:103DD0008083015A1F4FD801ED91FC910F5510407F
:103DE000E20FF31F86819781988B8F8706C04F5F04
:103DF000275F3F4F451710F266C054E0E52EF12CC7
:103E0000E00EF11EC701BE010E940416BE01675FED
:103E10007F4FC7010E94C118C7010E9496164C2D02
:103E200050E08A8990E0841B950B8930910514F04D
:103E300088E090E0D82EF801818790E00DC0E92F4E
:103E4000F0E0D801AE0FBF1FEC0FFD1FE40FF51F10
:103E500083891A968C939F5FD80119962C9192179B
:103E600070F36A8930E0CC2079F4240F351F862F57
:103E700090E02817390724F4C7016BE070E012C006
:103E8000C7016AE070E00EC0240F351F862F90E056
:103E90002817390724F4C7016CE070E003C0C7019C
:103EA0006DE070E00E949017C8010E94391C8823C1
:103EB000D9F38D2DDF91CF911F910F91FF90EF904E
:103EC000DF90CF900895D801ED91FC910484F585A1
:103ED000E02DC801BE012996AE010995DD24E9CF88
:103EE000CF92DF92EF92FF920F931F93CF93DF93C6
:103EF000EC017B01D42EC52EC759DF4F88819981F3
:103F0000C956D040892B59F5CD59DF4F8881C3560A
:103F1000D040882321F5CC59DF4F8881C456D0404A
:103F20008823E9F4CB59DF4F8881C556D0408823D8
:103F3000B1F4CA59DF4F8881C656D040882379F43E
:103F4000C959DF4F8881C756D040882341F4C859EA
:103F5000DF4F8881C856D040882309F445C00E94AD
:103F6000A92FC459DF4F288139814A815B81CC5602
:103F7000D040621B730B840B950B605D77408040D3
:103F8000904090F527C0DE01AD59BF4F8D2D9C2D7F
:103F90009C01F90189E001900D928150E1F78E01B9
:103FA0000C5F1F4FC801B7010E940416C8016D2D98
:103FB0007C2D0E942C1BCE010E94391C8823D9F332
:103FC0000E94A92FC459DF4F688379838A839B831A
:103FD00081E001C080E0DF91CF911F910F91FF90B0
:103FE000EF90DF90CF9008950E94672D882391F382
:103FF000CACFCF92DF92EF92FF920F931F93DF937E
:10400000CF93CDB7DEB729970FB6F894DEBF0FBEBA
:10401000CDBF7C0118861F82198619821A821B82E5
:104020001C821D821E8265E2C62ED12CC80ED91EAE
:10403000C6010E940119882331F4C6010E94221989
:10404000882309F48DC1C6018E010F5F1F4FB8018F
:104050000E944C1BC7018A5B9F4FB8010E9403134B
:104060006FC1C6018E010F5F1F4FB8010E94551628
:10407000C601B8010E944C1B8F819885892B09F4D9
:104080005DC123E630E0E20EF31E9981D7018C91E9
:10409000EDE9FFEFEE0EFF1E981709F051C124E67F
:1040A00030E0E20EF31E9A81D7018C91ECE9FFEF2C
:1040B000EE0EFF1E981709F043C125E630E0E20E30
:1040C000F31E9B81D7018C91EBE9FFEFEE0EFF1EF3
:1040D000981709F035C126E630E0E20EF31E9C8108
:1040E000D7018C91EAE9FFEFEE0EFF1E981709F059
:1040F00027C127E630E0E20EF31E9D81D7018C91A7
:10410000E9E9FFEFEE0EFF1E981709F019C128E646
:1041100030E0E20EF31E9E81D7018C91E8E9FFEFBB
:10412000EE0EFF1E981709F00BC1C701825A9F4F70
:10413000B8010E94BB1C29E630E0E20EF31ED70155
:104140001D921D927D011C92E8EFFFEFEE0EFF1E07
:10415000D7011D92FD011192DF011D92FD01119207
:10416000DF011D92FD011082EBC0C6010E946217A3
:10417000882371F0C6018E010F5F1F4FB8010E94A6
:104180004C1BC7018A5B9F4FB8010E946613D8C0C1
:10419000C6010E943017882309F45BC0C601BE0126
:1041A0006F5F7F4F0E945516C6010E941816BC0112
:1041B000EEE5F0E0EE0EFF1ED7015C91E2EAFFEFC4
:1041C000EE0EFF1E40E020E030E0D701A15ABF4FC5
:1041D00025C0ED91FC911197E20FF31F275F3F4F30
:1041E0008681978186179707C1F4178216821086F9
:1041F00010821182128213821482158221E630E02D
:10420000E20EF31ED701ED91FC912FE93FEFE20E94
:10421000F31EE40FF11D108203C04F5F4517C8F273
:10422000D7011296ED90FC9013978E010F5F1F4FF0
:104230000CC0D701ED91FC910480F581E02DC70100
:10424000B8010995F701E280F380E114F10489F7E0
:1042500077C0C6010E944917882309F46FC0C601C0
:10426000BE016F5F7F4F0E944C1B8F819885892B09
:1042700099F48981882381F48A81882369F48B8168
:10428000882351F48C81882339F48D81882321F48B
:104290008E81882309F46BC0C6010E941816988786
:1042A0008F83C701825A9F4FBE016F5F7F4F0E946D
:1042B000BB1C46C0ED91FC911197E20FF31F275FE5
:1042C0003F4F8681978186179707C1F41782168220
:1042D000108610821182128213821482158221E6C6
:1042E00030E0E20EF31ED701ED91FC912FE93FEF94
:1042F000E20EF31EE40FF11D108203C04F5F45175D
:10430000C8F2D7011296ED90FC9013978E010F5FC3
:104310001F4F10C0C601B8010E945516D701ED917C
:10432000FC910480F581E02DC701B8010995F701E2
:10433000E280F380E114F10469F702C080E001C07B
:1043400081E029960FB6F894DEBF0FBECDBFCF91A6
:10435000DF911F910F91FF90EF90DF90CF90089524
:10436000C6010E944319882309F07BCEFECEC60108
:104370000E941816BC012EE530E0E20EF31ED701B4
:104380005C91E2EAFFEFEE0EFF1E40E020E030E03D
:10439000D701A15ABF4FB3CFEF92FF920F931F9354
:1043A000CF93DF937C01EB018A010E94672D882364
:1043B00061F0C7010496BE01A8010E94EF17C70172
:1043C0000E94391C8823D9F381E0DF91CF911F919E
:1043D0000F91FF90EF9008957F928F929F92AF92EE
:1043E000BF92CF92DF92EF92FF920F931F93DF93D2
:1043F000CF93CDB7DEB729970FB6F894DEBF0FBEC7
:10440000CDBF6C01E5E28E2E912C880E991E8A5B41
:104410009F4FB4010E94A015C6010E94F91F882376
:1044200009F087C018861F82198619821A821B829A
:104430001C821D821E82C4018E010F5F1F4FB801B6
:104440000E9455167EE5E72EF12CEC0CFD1CC701F1
:10445000B8010E947D1C882321F0C401B8010E948C
:104460001E16C4018E010F5F1F4FB8010E9456181F
:10447000882359F0C701B8010E947D1C882371F080
:10448000C401B8010E94C11809C018861F8219868C
:1044900019821A821B821C821D821E82D6011296EC
:1044A0000D911C9113977724AA24BB2422C02F813D
:1044B00038852115310559F0F801E680F780D701DC
:1044C00016968D919C9117972817390709F0750159
:1044D000D801ED91FC910280F381E02DC801B40177
:1044E0000995882311F077247394F80102811381D0
:1044F000570101151105D9F625E430E0C20ED31E8F
:10450000D6018C91EBEBFFEFCE0EDF1E882389F4F2
:10451000A114B10471F0772061F4C4018E010F5F22
:104520001F4FB8010E945516C601B501A8010E948F
:10453000CC2129960FB6F894DEBF0FBECDBFCF9128
:10454000DF911F910F91FF90EF90DF90CF90BF9080
:10455000AF909F908F907F9008950F931F93CF936C
:10456000DF93EC018C010B5B1F4FF80180818823E6
:1045700029F0CE010E94EC21F8011082CE0185962F
:104580000E94C02D882371F0CB5BDF4F1882C55489
:10459000D040CE010E94EC21CF58DF4F81E08883CC
:1045A000C157D040CE018A5B9F4F0E94A913CE0114
:1045B0000E94CB2BDF91CF911F910F9108950F9304
:1045C0001F93CF93DF938C01EB010E94672D88230B
:1045D00059F0C8010496BE010E94931BC8010E94B5
:1045E000391C8823D9F381E0DF91CF911F910F917E
:1045F00008950F931F93CF93DF93EC018B010E94DB
:10460000672D8823A9F0F80166817781CE01049691
:104610000E940317DE011A96F80186E001900D92C0
:104620008150E1F7CE010E94391C8823D9F381E043
:10463000DF91CF911F910F910895EF92FF921F93F9
:10464000CF93DF937C01EB01142F0E94672D882309
:10465000D1F1123059F0133081F01130D9F4898141
:1046600082958F70482F50E088810DC0998180E03D
:10467000AC0140705F708A8113C08C8182958F700D
:10468000482F50E08B8190E0F4E0880F991FFA9555
:10469000E1F709C09C8180E0AC0140705F708D81C2
:1046A00090E08F709070482B592B2E813F81C7016D
:1046B0000496612F70E00E94AF16C7010E94391C5A
:1046C0008823D9F381E0DF91CF911F91FF90EF9084
:1046D0000895EF92FF920F931F93CF93DF93EC0116
:1046E00084E00E94002D882309F45FC090E0892FA8
:1046F0008295807F8093ED008091F40081608093AB
:10470000F4009F5F9F3099F7CE018A5B9F4FBE01F7
:104710000E9499130EE5E02EF12CEC0EFD1E8AE0AE
:10472000F70180838AE590E00E9422028E01015AFF
:104730001F4FF80180839183F701808190E00E94F0
:104740002202FE01EF59FF4F8083918340E0B701C1
:10475000D801EF0125C0242F30E0C90113E0880FF4
:10476000991F1A95E1F7820F931FED91FC91119714
:10477000E80FF91F178216821086108211821282AA
:10478000138214821582ED91FC911197E80FF91FA5
:1047900017821682E881F981E20FF31F10824F5FC2
:1047A000FB0180814817B8F281E0DF91CF911F9122
:1047B0000F91FF90EF90089580E090E008950895A4
:1047C000CF93DF93EC01DB0188858823A1F5E8898D
:1047D000F98916962D913C9117972115310541F0D5
:1047E00086819781009721F02817390711F123C09E
:1047F0009C9180819817F9F411969C911197818171
:104800009817C9F412969C9112978281981799F47F
:1048100013969C9113978381981769F414969C9131
:1048200014978481981739F415969C91858198176F
:1048300011F481E08887DF91CF9108950F931F9342
:10484000CF93DF93EC01EE81FF81309709F49FC095
:104850008085882309F49BC08D8D9E8D2FEF8F3F1F
:10486000920761F18E010C5E1F4F805F9F4F81F4B4
:10487000AC81BD81ED91FC9111976E817F8106889D
:10488000F789E02DCD01A8010995882389F311C08E
:10489000AC81BD81ED91FC9111976E817F812D8D51
:1048A0003E8D008CF18DE02DCD01A8010995882366
:1048B00079F38FEF9FEF9E8F8D8F69C08E85882350
:1048C000C9F1AC81BD81ED91FC9111976A897B8919
:1048D0000488F589E02DCD014F850995182F88238F
:1048E00009F048C00E94A92F2A853B854C855D852B
:1048F000621B730B840B950B695873418040904089
:10490000C8F181E089871E86E881F9810084F185FC
:10491000E02DCE0160E041E050E12AC01E861F86F6
:104920000E94A92F6A877B878C879D8730C0410FA3
:104930004F872DC08985882351F50E94A92F2A858C
:104940003B854C855D85621B730B840B950B695809
:10495000734180409040D8F081E089871E86E881CD
:10496000F9810084F185E02DCE0160E042E050E164
:1049700009950DC04F85242F30E0210F311DEA89A4
:10498000FB89828990E02817390789F6C7CFDF9124
:10499000CF911F910F910895CF93DF93EC01DC012C
:1049A0005496FB0189E001900D928150E1F780EF70
:1049B0009FEF9E8F8D8FDF91CF910895CF93DF93DF
:1049C000EC01DC015496FB0189E001900D928150CD
:1049D000E1F75E8F4D8FDF91CF910895CF93DF93F5
:1049E000EC0189858823A1F119862A893B89C901AF
:1049F000DC01FB0189E501900D928150E1F7AA8964
:104A0000BB89EE81FF818681978117969C938E9357
:104A1000169780818C93818111968C931197828156
:104A200012968C931297838113968C93139784819B
:104A300014968C931497858115968C9381E08E87BC
:104A40001F860E94A92F6A877B878C879D8781E0BC
:104A5000DF91CF910895BF92CF92DF92EF92FF92B4
:104A60000F931F93DF93CF93CDB7DEB762970FB647
:104A7000F894DEBF0FBECDBF8C017B01DC01169622
:104A8000ED91FC911797309709F4A9C1808588238F
:104A900009F4A5C1CB010E94E819882309F0BEC022
:104AA000C7010E94541A882309F451C018861F8236
:104AB000198619821A821B821C821D821E82C701DE
:104AC000BE016F5F7F4F0E945618D8011696ED9178
:104AD000FC911797309709F482C12F8138852115F1
:104AE000310541F086819781009721F02817390719
:104AF000F9F075C199818081981709F070C19A8188
:104B00008181981709F06BC19B818281981709F008
:104B100066C19C818381981709F061C19D81848160
:104B2000981709F05CC19E818581981709F057C1DB
:104B3000D801ED91FC910084F185E02DC80161E080
:104B400040E050E0099581E0F80181874BC1C70141
:104B50000E94741A882309F442C118861F8219869C
:104B600019821A821B821C821D821E82C701BE010D
:104B70006F5F7F4F0E945618D8011696ED91FC91F9
:104B80001797309709F42BC12F81388521153105EE
:104B900041F086819781009721F028173907F9F0B5
:104BA0001EC199818081981709F019C19A8181816C
:104BB000981709F014C19B818281981709F00FC1E1
:104BC0009C818381981709F00AC19D81848198177F
:104BD00009F005C19E818581981709F000C1C701C0
:104BE0000E94941AAC0195FF05C081E0F801868708
:104BF00017860AC0D8011E961C921E971F961C92FB
:104C00001F9781E019968C93D801ED91FC91008457
:104C1000F185E02DC80160E00995E3C0198A188A82
:104C20001A8A1A861B861C861D861E861F86C70149
:104C3000BE01665F7F4F0E945618D8011696ED910F
:104C4000FC911797309709F4CAC028893989211532
:104C5000310549F086819781009729F02817390797
:104C600009F4D0C0BCC09A858081981709F0B7C0FC
:104C70009B858181981709F0B2C09C858281981725
:104C800009F0ADC09D858381981709F0A8C09E8565
:104C90008481981709F0A3C09F858581981709F032
:104CA0009EC0B0C0F80180858823A9F5D801509630
:104CB000ED91FC915197288939892115310541F0F1
:104CC00086819781009721F028173907F9F0B0C045
:104CD0009A858081981709F0ABC09B8581819817D0
:104CE00009F0A6C09C858281981709F0A1C09D8516
:104CF0008381981709F09CC09E858481981709F0DC
:104D000097C09F858581981709F092C0F80180852A
:104D1000882309F08DC0C7010E94321A882381F0D0
:104D2000D80118961C9218975096ED91FC915197C6
:104D3000128A50966D917C915197C7010E94551629
:104D40008C2D9B2D9C0190E00AC08289E90FF11DFA
:104D5000E80FF11DD9018D919D01838B9F5FD801D3
:104D60005096ED91FC9151979D1578F382898D0DA8
:104D7000828BC7010E94101A882399F1D801ED9106
:104D8000FC910680F781E02DC8010995AC01D8019E
:104D90005096ED91FC915197BFEF803F9B0729F40E
:104DA000C801BF010E94CC2404C0C801BF010E94F9
:104DB000DE2481E0F801808715C0D80118968C9117
:104DC000BE01665F7F4F882321F0C80140E050E6B6
:104DD00003C0C80140E050E20E94DE2402C080E02F
:104DE00001C081E062960FB6F894DEBF0FBECDBF62
:104DF000CF91DF911F910F91FF90EF90DF90CF90B7
:104E0000BF900895C701BE01665F7F4F0E9455168F
:104E1000C7010E94FC15C82EB92EC7010E940116B9
:104E2000D82EC7010E94321A882309F43FCF3ACF07
:104E3000C7010E94101A882309F0BFCFD2CFCF93A9
:104E4000DF93EC01EE81FF81309709F495C08085F6
:104E5000882309F089C090C0CB01E3E0880F991F37
:104E6000EA95E1F7860F971F48855985480F591F26
:104E7000FA018085282F30E0C90181749070813457
:104E8000910549F4EC81FD81A081B18190962D912D
:104E90003C9191970DC0C90181729070819701F585
:104EA000EC81FD81A081B1815C962D913C915D9753
:104EB000CF01BA01F9010995882309F45DC02E8557
:104EC0003F85C90163E0880F991F6A95E1F7820F5A
:104ED000931FE885F985E80FF91F80858E7F3EC016
:104EE00021FF1FC0EC81FD81A081B18152962D91DF
:104EF0003C915397CF01BA01F90109958823E1F15B
:104F00002E853F85C90153E0880F991F5A95E1F717
:104F1000820F931FE885F985E80FF91F80858D7F43
:104F20001DC024FF1DC0AC81BD81ED91FC91119786
:104F3000068CF78DE02DCD01BA0109952E853F85B0
:104F4000C90143E0880F991F4A95E1F7820F931F2B
:104F5000E885F985E80FF91F80858F7E80870CC072
:104F60006F5F7F4F7F876E876E857F858A859B8584
:104F70006817790708F470CFDF91CF910895DC01AD
:104F800019967C936E9318971B965C934E931A9781
:104F9000569547951D965C934E931C9740E050E0C4
:104FA00020E030E00BC01896ED91FC911997E20FCC
:104FB000F31F10864F5F5F4F275F3F4F1A968D910B
:104FC0009C911B974817590770F30895DC01CB019A
:104FD00023E0880F991F2A95E1F7860F971F1896EF
:104FE000ED91FC911997E80FF91F808586FD02C0AD
:104FF00080E00895826080871E968D919C911F9716
:105000008617970708F4BC011F967C936E931E9732
:1050100081E00895DF92EF92FF920F931F93CF9359
:10502000DF937C018B01C0E0D0E0DD2424C0CE0101
:10503000E3E0880F991FEA95E1F78C0F9D1F680F39
:10504000791FDB0118968C9185FF0DC0D701ED917A
:10505000FC910680F781E02DC701BE0109958823E8
:1050600011F0DD24D3942196F70182859385C8172A
:10507000D90708F04AC0D70118966D917C9119970D
:105080001A962D913C911B97C217D307F4F5F8019E
:105090004081FE0153E0EE0FFF1F5A95E1F7EC0F40
:1050A000FD1FE60FF71F80814817C1F5D801119643
:1050B0009C9111978181981789F512969C9112976E
:1050C0008281981759F513969C91139783819817AD
:1050D00029F514969C91149784819817F9F41596E4
:1050E0009C91159785819817C9F416969C911697EF
:1050F0008681981799F417969C918781981771F477
:10510000BFEFCF3FDB0709F092CF8D2DDF91CF911D
:105110001F910F91FF90EF90DF900895219639969F
:10512000C217D3070CF4BFCFF0CF0F931F93CF93C9
:10513000DF93EC01DB0100E020E030E025C0F90165
:1051400093E0EE0FFF1F9A95E1F7E20FF31FE60FD2
:10515000F71F808586FF10C0816080874E855F8540
:10516000C901622F892F4217530718F4CA01642F0F
:10517000892F6E878F8701E02F5F3F4F8A859B8540
:105180002817390708F044C0688579854A855B850A
:1051900024173507ECF51C91F90183E0EE0FFF1F92
:1051A0008A95E1F7E20FF31FE60FF71F80811817CA
:1051B000A9F511969C9111978181981779F512960E
:1051C0009C9112978281981749F513969C91139799
:1051D0008381981719F514969C91149784819817D8
:1051E000E9F415969C91159785819817B9F4169650
:1051F0009C9116978681981789F417969C9117971A
:105200008781981759F48FEF2F3F380709F097CF10
:10521000802FDF91CF911F910F9108952F5F3F4F06
:1052200039962417350714F2F3CF0F931F93CF93BA
:10523000DF93EC01DB0100E020E030E025C0F90164
:1052400093E0EE0FFF1F9A95E1F7E20FF31FE60FD1
:10525000F71F808585FF10C0816080874E855F8540
:10526000C901622F892F4217530718F4CA01642F0E
:10527000892F6E878F8701E02F5F3F4F8A859B853F
:105280002817390708F044C0688579854A855B8509
:1052900024173507ECF51C91F90183E0EE0FFF1F91
:1052A0008A95E1F7E20FF31FE60FF71F80811817C9
:1052B000A9F511969C9111978181981779F512960D
:1052C0009C9112978281981749F513969C91139798
:1052D0008381981719F514969C91149784819817D7
:1052E000E9F415969C91159785819817B9F416964F
:1052F0009C9116978681981789F417969C91179719
:105300008781981759F48FEF2F3F380709F097CF0F
:10531000802FDF91CF911F910F9108952F5F3F4F05
:1053200039962417350714F2F3CFDC01522FCB0145
:1053300023E0660F771F2A95E1F7680F791F18960B
:10534000ED91FC911997E60FF71F208521602087CA
:105350001E962D913C911F972817390708F4C90113
:105360001F969C938E931E97442349F01896ED91B7
:10537000FC911997E60FF71F80858064808755237D
:1053800049F01896ED91FC911997E60FF71F80856B
:10539000806280870895FB0133E0EE0FFF1F3A958E
:1053A000E1F7DC0118968D919C911997442339F00F
:1053B000E60FF71FE80FF91F8085886006C0E60F2B
:1053C000F71FE80FF91F8085877F80870895DC012C
:1053D000FB0153E0EE0FFF1F5A95E1F718968D91F0
:1053E0009C911997442339F0E60FF71FE80FF91F36
:1053F0008085806106C0E60FF71FE80FF91F8085E2
:105400008F7E80871E968D919C911F978617970798
:1054100008F4BC011F967C936E931E970895FF922B
:105420000F931F93CF93DF93DC01F62E072F10E02D
:1054300060E070E040E050E03DC01896ED91FC91D6
:105440001997E40FF51F808583FF30C0EF018F2D82
:10545000902F9C01F90188E0019009928150E1F7B9
:105460001896ED91FC911997E40FF51F80858160E6
:1054700080871896ED91FC911997E40FF51F8085B0
:10548000877F80871E962D913C911F97CB01E62F39
:10549000892F2617370718F4C901E22F892F1E9686
:1054A000EC931E971F968C931F9711E06F5F7F4FB1
:1054B000475F5F4F1A968D919C911B9768177907EC
:1054C00008F4BBCF112341F0ED91FC9111970084BA
:1054D000F185E02DCD010995812FDF91CF911F91AD
:1054E0000F91FF900895CF92DF92EF92FF920F936A
:1054F0001F93DF93CF93CDB7DEB762970FB6F894C3
:10550000DEBF0FBECDBF6C017B01CB010E94141822
:105510008823A9F01A8A1A861B861C861D861E8679
:105520001F86188A198A8E01065F1F4FC701B801AE
:105530000E948A1BC601B8010E940A28E8C0C70160
:105540000E9485198823A9F01A8A1A861B861C8650
:105550001D861E861F86188A198A8E01065F1F4FB8
:10556000C701B8010E948A1BC601B8010E94952894
:10557000CEC0C7010E9464198823A9F01A8A1A862E
:105580001B861C861D861E861F86188A198A8E0118
:10559000065F1F4FC701B8010E948A1BC601B801F0
:1055A0000E941529B4C0C7010E94A619882331F4AE
:1055B000C7010E94C719882309F4B8C0C7010E9417
:1055C000C719882381F4D6011A968D919C911B9757
:1055D00020E030E0AC0113E0440F551F1A95E1F7CD
:1055E000480F591F76C018861F82198619821A82A1
:1055F0001B821C821D821E82C7018E010F5F1F4FFE
:10560000B8010E945618C701B8010E9456188F8130
:105610009885892B01F589818823E9F48A8188237B
:10562000D1F48B818823B9F48C818823A1F48D81F6
:10563000882389F48E81882371F4F601828593850D
:1056400020E030E0AC01B3E0440F551FBA95E1F71C
:10565000480F591F2EC0D6011696ED91FC91179751
:1056600090818981981709F051C091818A8198179A
:1056700009F04CC092818B81981709F047C0938143
:105680008C81981709F042C094818D819817F1F5AB
:1056900095818E819817D1F5D0CFD6011896ED91CE
:1056A000FC911997E20FF31F808581608087275F47
:1056B0003F4F2417350789F70FC0D6011896ED9193
:1056C000FC911997E20FF31F808581608087275F27
:1056D0003F4F2417350789F7F6011786168681E0B4
:1056E00016C01A8A1A861B861C861D861E861F8671
:1056F000188A198A8E01065F1F4FC701B8010E94E0
:105700008A1BC601B8010E940F2A01C080E0629680
:105710000FB6F894DEBF0FBECDBFCF91DF911F91C2
:105720000F91FF90EF90DF90CF900895C7010E94F6
:105730003518882359F3D5CFDC01FB0112968D91E2
:105740009C9113979383828313967C936E93129705
:105750000895CF93DF93EC01DB01EA81FB81309761
:10576000B9F0E617F70781F4828193819B838A83DE
:105770000FC08A179B0739F412968D919C9113974D
:105780009383828305C0FC0182819381009789F70E
:10579000DF91CF910895CF93DF93EC018091D703F0
:1057A000882381F487ED93E00E94E130892B51F04A
:1057B0008A819B819093E0038093DF0387ED93E0E0
:1057C0000E94EB30A091DF03B091E003ED91FC91DA
:1057D00011970190F081E02DCD010995E091DF0353
:1057E000F091E003828193819093E0038093DF0343
:1057F000892B31F48A819B819093E0038093DF03AE
:10580000DF91CF9108958091E103882369F490E0BE
:10581000892F8295807F8093ED008091EF00807CBE
:1058200021F09F5F9F30A1F79FEF892F0895382FB8
:10583000883070F42091DE0081E090E002C0880F93
:10584000991F3A95E2F7809582238093DE000895B0
:105850004091DF00282F30E02850304081E090E078
:1058600002C0880F991F2A95E2F7809584238093C0
:10587000DF000895382F883068F42091DE0081E041
:1058800090E002C0880F991F3A95E2F7282B2093E9
:10589000DE0008954091DF00282F30E0285030408E
:1058A00081E090E002C0880F991F2A95E2F7482B0B
:1058B0004093DF0008951F920F920FB60F921124AC
:1058C0000F900FBE0F901F9018951F920F920FB65A
:1058D0000F920BB60F9211240F931F932F933F93A8
:1058E0004F935F936F937F938F939F93AF93BF93E8
:1058F000EF93FF938091EC00807F803F09F467C0B5
:105900000091ED008091EC00807F8093ED0010917C
:10591000EC008091EE0086FF3DC08091EE00109279
:10592000EE001092EF0085E194E00E94432F009773
:1059300051F00E94872E85E194E00E94552F8091BE
:10594000EF0080643FC0312F32953F70383070F4E3
:105950002091DE0081E090E002C0880F991F3A9507
:10596000E2F7809582238093DE0011C04091DF0032
:10597000232F30E02850304081E090E002C0880FB3
:10598000991F2A95E2F7809584238093DF00109277
:10599000E1031AC08091EE0085FF16C085E494E013
:1059A0000E94242F009731F00E94DF2D85E494E0BF
:1059B0000E94372F8091EE001092EE008091EF0050
:1059C000807180688093EF000093ED0004C08091A7
:1059D000DA008093DA00FF91EF91BF91AF919F9130
:1059E0008F917F916F915F914F913F912F911F9177
:1059F0000F910F900BBE0F900FBE0F901F90189538
:105A0000982F883010F080E008958091D800816050
:105A10008093D800E3E09E9FC0011124FC01E65F63
:105A2000FC4FE491E093E200FC01E55FFC4FE49160
:105A3000E093E300845F9C4FFC0184918093E40039
:105A40001092DA0080EB8093DB0087EC8093E50016
:105A50008FEF0E946E2D85E494E063E04BE154E00B
:105A60000E94132F85E194E063E04BEE53E00E9427
:105A7000132F90E020E9892F8295807F8093ED009D
:105A80001092EE001092F3001092F2001092F100CA
:105A90001092F0001092F7001092F6001092F500AC
:105AA0001092F400953018F02093EF0002C010928D
:105AB000EF009F5F9F30F9F682E08093D8008FE778
:105AC0008093DF008FEF8093DE0081E0089585E111
:105AD00094E00E941B2F91E089270895982F8F3022
