:100000000C94ED010C9418020C9418020C94180234
:100010000C9418020C9418020C9418020C941802F8
:100020000C9418020C9418020C9418020C941802E8
:100030000C9418020C9418020C9418020C941802D8
:100040000C9418020C94F32F0C94F72C0C94ED2CB8
:100050000C9418020C9465310C94FB310C9418022A
:100060000C9418020C9418020C9418020C941802A8
:100070000C9418020C9418020C9418020C94180298
:100080000C949E310C9448320C9418020C94180273
:100090000C9418023C3F786D6C2076657273696F22
:1000A0006E3D22312E302220656E636F64696E676B
:1000B0003D225554462D38223F3E0A3C6364693E3A
:1000C0000A3C6964656E74696669636174696F6E20
:1000D0003E0A3C6D616E7566616374757265723E51
:1000E0005261696C7374617273204C696D697465D7
:1000F000643C2F6D616E7566616374757265723EE6
:100100000A3C6D6F64656C3E496F3C2F6D6F646592
:100110006C3E0A3C68617264776172655665727301
:10012000696F6E3E312E303C2F6861726477617268
:100130006556657273696F6E3E0A3C736F667477BD
:1001400061726556657273696F6E3E312E303C2F59
:10015000736F66747761726556657273696F6E3E10
:100160000A3C2F6964656E74696669636174696FBE
:100170006E3E0A3C7365676D656E74206F726967C9
:10018000696E3D2230222073706163653D2230220A
:100190003E0A3C67726F7570206F66667365743DCA
:1001A000223022207265706C69636174696F6E3DE4
:1001B0002238223E0A3C6E616D653E50726F647556
:1001C000636564204576656E74733C2F6E616D6562
:1001D0003E0A3C6465736372697074696F6E3E5465
:1001E0006865204576656E7449447320666F722099
:1001F000746865206F7574707574733C2F646573D3
:100200006372697074696F6E3E0A3C6576656E74E0
:1002100069642F3E0A3C6576656E7469642F3E0AF8
:100220003C2F67726F75703E0A3C67726F75702065
:100230007265706C69636174696F6E3D2238223E2D
:100240000A3C6E616D653E436F6E73756D6564202B
:100250004576656E74733C2F6E616D653E0A3C6435
:1002600065736372697074696F6E3E54686520458A
:1002700076656E7449447320666F722074686520D9
:10028000696E707574733C2F646573637269707402
:10029000696F6E3E0A3C6576656E7469642F3E0A2E
:1002A0003C6576656E7469642F3E0A3C2F67726FF9
:1002B00075703E0A3C2F7365676D656E743E0A3C2F
:1002C0002F6364693E0A00015261696C7374617244
:1002D00073204C696D697465640A496F20446576C2
:1002E000656C6F706572277320426F6172640A31AA
:1002F0002E300A312E30007E6E7F620C37260C378E
:10030000120C370E0C37060C37020C37000C370076
:10031000002100240027002A002D003000330000B7
:10032000002200250028002B002E003100340000A0
:100330000020002300260029002C002F003200019D
:10034000010101010101010303030303030303028C
:100350000202020202020204040404040707040564
:100360000505050505050506060606060606060733
:1003700007010204081020408001020408102040F8
:1003800080010204081020408001020408100810B7
:10039000800102040810204080010204081020405F
:1003A00080010200000000000000000000000000CA
:1003B000000000000000000000000000000000003D
:1003C000000000000000000000000000000000002D
:1003D0000000000000002C03C33311241FBECFEF28
:1003E000D0E1DEBFCDBF13E0A0E0B1E0E8E1FCE684
:1003F00000E00BBF02C007900D92A631B107D9F7FC
:100400001BBE17E0A6E1B3E001C01D92A431B10705
:10041000E1F713E0CAEDD3E004C02297FE010E9489
:100420000636C63DD107C9F70E9459340C940A36E6
:100430000C940000CF93DF93BC018230910510F43F
:1004400062E070E0A0911207B0911307ED01E0E0C7
:10045000F0E040E050E021C088819981861797073D
:1004600069F48A819B81309719F09383828304C059
:100470009093130780931207FE0134C06817790721
:1004800038F44115510519F08417950708F4AC01AB
:10049000FE018A819B819C01E9012097E9F64115C3
:1004A0005105A9F1CA01861B970B049708F4BA01FC
:1004B000E0E0F0E02AC08D919C9111978417950798
:1004C000F9F46417750781F412968D919C91139736
:1004D000309719F09383828304C09093130780931D
:1004E0001207FD0132964CC0CA01861B970BFD0115
:1004F000E80FF91F6193719302978D939C9340C00D
:10050000FD01828193819C01D9011097A1F6809110
:10051000100790911107892B41F480919C029091D2
:100520009D02909311078093100740919E02509175
:100530009F024115510541F44DB75EB780919A0273
:1005400090919B02481B590B209110073091110785
:10055000CA01821B930B8617970780F0AB014E5F91
:100560005F4F8417950750F0420F531F50931107A8
:1005700040931007F9016193719302C0E0E0F0E04D
:10058000CF01DF91CF910895CF93DF93009709F4C6
:1005900050C0EC0122971B821A82A0911207B091E1
:1005A0001307109709F140E050E0AC17BD0708F1C0
:1005B000BB83AA83FE0121913191E20FF31FAE1795
:1005C000BF0779F48D919C911197280F391F2E5FE9
:1005D0003F4F3983288312968D919C9113979B836B
:1005E0008A834115510571F4D0931307C093120704
:1005F00020C012968D919C911397AD01009711F038
:10060000DC01D3CFFA01D383C28321913191E20F70
:10061000F31FCE17DF0769F488819981280F391FEE
:100620002E5F3F4FFA01318320838A819B81938320
:100630008283DF91CF910895FC0105900020E9F7B6
:10064000809590958E0F9F1F08958EE896E060E04C
:1006500071E00E948935089510921D0310921C03C9
:1006600010921E0310921603109217031092180393
:100670001092190310921A0310921B03EFE1F3E09A
:1006800010861082118212821382148215821682C1
:100690001782399684E0EF33F80791F710924204FD
:1006A0001092410486ED92E09093400480933F04C1
:1006B0001092580410925704109259041092510449
:1006C0001092520410925304109254041092550444
:1006D0001092560410926104109260041092620409
:1006E00010925A0410925B0410925C0410925D0404
:1006F00010925E0410925F041092790410927804B4
:1007000010927A041092720410927304109274047E
:10071000109275041092760410927704109282045D
:10072000109281041092830410927B0410927C0436
:1007300010927D0410927E0410927F041092800427
:10074000109285041092900410928F0410928D04E0
:1007500010928C0410928E0410929D041092A904A1
:100760001092A8041092AA041092A2041092A3045A
:100770001092A4041092A5041092A6041092A7044B
:100780001092AF048CEB92E09093B1048093B0048C
:100790001092C00481E08093C1048093C20410923F
:1007A000C3041092C404E5ECF4E088E081938F5F09
:1007B0008031E1F78CEF92E09093CE048093CD04EA
:1007C00081E08093D5048093D6041092D7041092D0
:1007D000D8041092D9041092DA041092DB0410921B
:1007E000DC0489E590E00E941A028093DD04909376
:1007F000DE0489E590E00E941A028093DF04909362
:10080000E0048EEA92E09093CE048093CD0484EAD3
:1008100092E09093E4048093E3048CEC92E0909354
:10082000FE048093FD0410922F0510922E05109265
:100830003005109228051092290510922A05109271
:100840002B0510922C0510922D0510923805109250
:100850003705109239051092310510923205109229
:1008600033051092340510923505109236058BE34E
:1008700095E060E340E00E94841087E595E061E345
:1008800040E00E94841008958FE394E00E94692361
:1008900008950F931F93CF93DF938C01C0E0D0E0B6
:1008A000BE016650704F83E795E00E943611F80153
:1008B000EC0FFD1F80832196C630D10589F7F80122
:1008C00080818F3F81F481818F3F69F482818F3FE6
:1008D00051F483818F3F39F484818F3F21F48581E6
:1008E0008F3F09F4FFCFDF91CF911F910F910895B2
:1008F0001F938EE896E040E052EC61E070E00E94C9
:1009000095328EE896E068E071E00E94893510E04B
:10091000812F61E00E94F030812F60E00E941C3145
:100920001F5F1830A9F7812F60E00E94F030812FFF
:1009300061E00E941C311F5F1031A9F786E193E04E
:100940000E9449048FE394E00E941D2480EB94E010
:100950006FE374E046E153E00E94030B80EB94E008
:100960006FE173E040E20E94520E8DEC94E06FE381
:1009700074E046E153E020EB34E00E94630883EE2C
:1009800094E06FE374E046E153E020EB34E00E9432
:100990000B058DEF94E06FE374E046E153E00E94B5
:1009A000DD0E8FE394E060EB74E00E94951D8FE311
:1009B00094E06DEC74E00E94951D8FE394E063EE8B
:1009C00074E00E94951D8FE394E06DEF74E00E9447
:1009D000951D1F91089580E00895DC011496ED9116
:1009E000FC911597A081B18150962D913C91519722
:1009F000CF01F90109950895FC01868997890E9424
:100A0000180D64E670E080E090E00E944930E0E07C
:100A1000F0E009950895EF92FF920F931F938C01D8
:100A2000FC0175836483578346838FEF82878387B6
:100A3000158A1186378B268B9BE3E92E95E0F92EDC
:100A4000C70140E050E060E070E00E946110C70123
:100A50000E948C1080915605F801848787E5E82E66
:100A600085E0F82EC7014FEF50E06FEF70E00E9475
:100A70006110C7010E948C1080917205F801858772
:100A8000868997894596918F808F1686128A1F9145
:100A90000F91FF90EF900895EF92FF921F93CF93E5
:100AA000DF937C01162F8BE395E040E050E060E09F
:100AB00070E00E94611087E595E041E050E060E061
:100AC00070E00E946110112311F410E017C0C0E023
:100AD000D0E0D70156968D919C915797BE0140E08A
:100AE0000E94AF29F70186899789BE0140E00E94E4
:100AF00093292196C032D10561F7E7CF812F60E0BD
:100B00000E941C311F5F1830C9F78FEFD7011A966A
:100B10008C931A971B968C931B975696ED91FC918C
:100B20005797108A18961C92DF91CF911F91FF90D2
:100B3000EF900895EF92FF920F931F93CF93DF935F
:100B4000EC01EE81FF81309709F4B6C280858823DD
:100B500009F4B2C28985882351F481E0898787E549
:100B600095E041E050E060E070E00E9461108BE3AE
:100B700095E00E948C1087E595E00E948C102091F2
:100B8000560590E0222311F480E004C080917205A4
:100B9000811181E08F879F5F9830A1F78823E9F06A
:100BA0002C87809172058D8780914B0590914C0523
:100BB000A0914D05B0914E0581342FE1920720E0C0
:100BC000A20720E0B20714F083E006C0895B9B40D7
:100BD000A040B04014F082E08F879F858E858917F2
:100BE00099F09E879A8B8BE395E040E050E060E0BF
:100BF00070E00E94611087E595E041E050E060E020
:100C000070E00E94611001C01A8A209156058C85FF
:100C1000821799F080914B0590914C05A0914D055C
:100C2000B0914E058C349105A105B1053CF02C879F
:100C3000222321F081E0888B01C0188A209172055F
:100C40008D858217D1F08091670590916805A091FC
:100C50006905B0916A058C349105A105B1053CF098
:100C60002D8780917205882311F081E0898B00E047
:100C700010E0E1E0EE2EF12C02C0198AF8CFE88DE9
:100C8000F98DE00FF11F80810E943E31782F6C8931
:100C9000A701002E02C0440F551F0A94E2F7862FC9
:100CA00090E084239523002E02C0959587950A94A1
:100CB000E2F7272F30E08217930761F0713029F4B3
:100CC000642B6C8B8B89842B09C0842F80958623A1
:100CD0008C8B05C0942F90958B8989238B8B0F5F0C
:100CE0001F4F0830110559F68885883009F459C01E
:100CF000803809F4FAC0882309F0DEC18A8983307C
:100D000021F4CE010E94FC04D7C1823079F487E53A
:100D100095E04AEA5AEA6AEA7AEA0E9461108BE3AD
:100D200095E045E555E565E575E5C4C1813021F4FB
:100D3000CE010E94ED04C0C188898823B9F088E003
:100D40008887EE89FF8981E0808B8BE395E040EF17
:100D500050EF60EF70EF0E94611010E0812F60E0B3
:100D60000E941C311F5F1830C9F7A6C189898823EA
:100D700009F4A2C180E88887EE89FF8981E0808B31
:100D800087E595E040EF50EF60EF70EF0E94611053
:100D900010E0812F60E00E941C311F5F1830C9F7FE
:100DA0008BC18A898823E1F488898823A9F187E5A2
:100DB00095E040E050E060E070E00E9461108A85BC
:100DC000992787FD9095029661E270E00E94BB35FD
:100DD00081508A878F3F49F487E060E00E941C3190
:100DE000CE0161E00E944C0567C1803154F0A7C07C
:100DF00082300CF461C1812F815060E00E941C316F
:100E00005BC1182F159580FFD1C08BE395E04AE0B8
:100E100050E06AE070E0D0C08989882309F16B85D1
:100E200067FD08C0772767FD70958E899F8941E02F
:100E30000E9493296A85603134F0772767FD7095A9
:100E40006051704007C067FDE2C0772767FD70956D
:100E5000605F7F4F8E899F8941E00E949329D7C0B0
:100E60008B89882309F428C120E030E0482F50E026
:100E7000122FCA01022E02C0959587950A94E2F7B7
:100E800080FD06C01F5F2F5F3F4F2830310581F77F
:100E90008B858F3F51F0212F30E0992787FD90956A
:100EA000959587952817390751F087E595E04AE031
:100EB00050E06AE070E00E946110812FD1C08D89FE
:100EC000813021F4110F1F5F1B87DEC0823009F0D3
:100ED000F3C087E595E040E050E060E070E00E94FC
:100EE00061108FEF8B871D8A21C08A89882309F0C2
:100EF00077CF8889882309F467C087E595E040EFBC
:100F000050EF60EF70EF0E9461108A85992787FD8E
:100F10009095029661E270E00E94BB3581508A870D
:100F20008F3F59F487E060E00E941C318BE395E02D
:100F300040EF50EF60EF70EFBDC0803164F187E5A6
:100F400095E04AE050E06AEA7AE00E9461102A8562
:100F5000332727FD3095C901409795958795182F20
:100F600020FF07C08BE395E040E050EA60E070EAC4
:100F700006C08BE395E04FEF5FEF6FEF7FEF0E94CE
:100F80006110812F61E00E941C318A85803109F057
:100F90002FCF87E032CF182F159580FF07C08BE346
:100FA00095E040E050EA60E070EA06C08BE395E02F
:100FB0004FEF5FEF6FEF7FEF0E946110812F61E0D5
:100FC0000E941C318A8514CF8989882319F16B8589
:100FD00067FD08C0772767FD70958E899F8941E07E
:100FE0000E94AF296A85603134F0772767FD7095DC
:100FF0006051704007C067FD0AC0772767FD709594
:10100000605F7F4F8E899F8941E00E94AF29CE01AA
:1010100060E0E8CE8B89882309F44EC020E030E000
:10102000682F70E0422FCB01022E02C09595879564
:101030000A94E2F780FD06C04F5F2F5F3F4F2830D4
:10104000310581F78B858F3F51F0242F30E09927B0
:1010500087FD9095959587952817390779F0842F06
:1010600090E0880F991F8B878BE395E04FEF5FEF40
:101070006FEF7FEF0E94611081E00FC08D8981309A
:1010800071F4440F4F5F4B878BE395E04AE050E0EB
:101090006AE070E00E94611082E08D8B0DC08230AA
:1010A00059F48FEF8B871D8A8BE395E040E050E089
:1010B00060E070E00E946110DF91CF911F910F916D
:1010C000FF90EF900895FC01358B248B758364832A
:1010D0005783468308950895DF92EF92FF920F930E
:1010E0001F93DF93CF93CDB7DEB7C256D0400FB674
:1010F000F894DEBF0FBECDBF7C01198A188A1A8A08
:101100001A861B861C861D861E861F861A8E198EC1
:101110001B8E1B8A1C8A1D8A1E8A1F8A188E80E2DB
:101120008D8FDE015396F70120893189C901FC01B9
:1011300089E001900D928150E1F7D7015096ED9131
:10114000FC915197848990E09C012C7F3070243869
:101150003105F1F0253831052CF42038310509F03E
:10116000D6C009C02C38310509F4A0C0283A310591
:1011700009F0CDC056C087E08C8F82E88E8F88E65C
:101180008F8F18A282EF89A38FEF8AA38DEF17C0EC
:1011900088E08C8F86E88E8F85898F8F18A219A2A0
:1011A0001AA21BA21CA285898D3F59F08F3F91F591
:1011B00087E88E8F18A219A282E08AA383E38BA30B
:1011C00029C087E88E8FF701848995890E94090BD1
:1011D000692F77278827992768A3D70154968D917F
:1011E0009C9155970E94090BBC018827992769A3F8
:1011F000F701848995890E94090B672F782F892F21
:1012000099276AA3D70154968D919C9155970E9476
:10121000090B6BA3C701BE01665F7F4F0E944A277F
:1012200076C08370907081309105E1F1029709F0EA
:101230006EC018861F82198619821A821B821C8230
:101240001D821E82DE011196759686E001900D9238
:101250008150E1F7D7011696ED91FC91179799818E
:101260008081981709F053C09A818181981709F0FD
:101270004EC09B818281981709F049C09C8183816F
:10128000981709F044C09D818481981709F03FC0E8
:101290009E8185819817D9F554968D919C9155978B
:1012A0000E94180DE0E0F0E0099531C01589177033
:1012B000812F90E0B3E0880F991FBA95E1F702966D
:1012C0008C8F8EE88E8F83E795E062E070E00E945D
:1012D0003611D82E83E795E063E070E00E94361166
:1012E000082F1111FFCFC701BE01665F7F4F0E941B
:1012F0004A2783E795E062E070E04D2D0E943D11A2
:1013000083E795E063E070E0402F0E943D11CE59E5
:10131000DF4F0FB6F894DEBF0FBECDBFCF91DF9188
:101320001F910F91FF90EF90DF900895FF920F9320
:101330001F93CF93DF93EC01E889F989018D25890B
:101340009689F788108D8489682F70E063707070BB
:101350006130710561F0623071051CF4672B29F072
:1013600006C06230710519F404C00D3F11F080E031
:101370002FC030E040E050E0522F4427332722278F
:10138000892F90E0A0E0B0E0DC0199278827282B86
:10139000392B4A2B5B2B812F90E0A0E0B0E0282B6B
:1013A000392B4A2B5B2B8F2D90E0A0E0B0E0BA2FB9
:1013B000A92F982F8827282B392B4A2B5B2B79961E
:1013C0008C899D89B901402F9F010E94570B81E0B4
:1013D000DF91CF911F910F91FF900895EF92FF92AF
:1013E0001F93DF93CF93CDB7DEB7C955D0400FB66B
:1013F000F894DEBF0FBECDBF7C0118861F82198610
:1014000019821A821B821C821D821E82198A188AE6
:101410001A8A1A861B861C861D861E861F86DE017A
:101420001A96FC01808991899C01F90189E001905B
:101430000D928150E1F7D7015096ED91FC915197B3
:10144000DE015496739686E001900D928150E1F78B
:101450008D898F7080658D8BD7015096ED91FC91B1
:101460005197118D858990E0A0E0B0E0582F442776
:1014700033272227868990E0A0E0B0E0DC0199279D
:101480008827282B392B4A2B5B2B808D90E0A0E0FE
:10149000B0E0282B392B4A2B5B2B878990E0A0E00A
:1014A000B0E0BA2FA92F982F8827282B392B4A2B49
:1014B0005B2B848990E0837090708130910581F07E
:1014C000823091051CF4892B39F00AC082309105D5
:1014D00071F1039729F406C01D3F49F11F3F11F038
:1014E00080E03AC0B901C901810F911D8553924036
:1014F00010F014E3121BDE015A9680E090E0212FD9
:1015000030E00FC0E2E063337E0710F01C9205C0AC
:10151000FB01EC56FF4FE491EC93019611966F5F3F
:101520007F4F8217930770F31A5F1B8B0EC0D70192
:1015300054968D919C915597B901412F9E01265E3D
:101540003F4F0E94160B8A5F8B8BC701BE016F5FF6
:101550007F4F0E944A2781E0C75ADF4F0FB6F894A9
:10156000DEBF0FBECDBFCF91DF911F91FF90EF90F7
:101570000895DC011696ED91FC911797309719F1BB
:101580008085882301F15096ED91FC9151978389D4
:101590008032C9F4848990E0807C90708034910519
:1015A00031F08038910559F0892B29F00CC0CD011C
:1015B0000E94EE090895CD010E9496090895CD017B
:1015C0000E946C08089580E00895DC011696ED9164
:1015D000FC911797309731F08085882319F0CD0161
:1015E0000E94DC240895DC011696ED91FC9117977A
:1015F000309739F08085882321F0CD010E944D2558
:10160000089580E00895FC017583648357834683C1
:101610000895FC018285938523E0880F991F2A9500
:10162000E1F70197BC0180E090E00895CF93DF934C
:10163000EC01F901CB01B3E096958795BA95E1F7F6
:10164000582F2A853B85A3E0220F331FAA95E1F787
:10165000CB01840F911D2817390710F4422F461B28
:10166000852F880F880F880F681BDF01752F50E0CA
:1016700018C0683011F47F5F60E0272F30E0C901A7
:10168000E3E0880F991FEA95E1F7820F931FE88541
:10169000F985E80FF91FE60FF11D80818D935F5FDB
:1016A0006F5F541730F3842FDF91CF910895CF935C
:1016B000DF93DC01F90181E054968C935497CB01C0
:1016C00023E0969587952A95E1F7582F1A962D9144
:1016D0003C911B9783E0220F331F8A95E1F7CB01E2
:1016E000840F911D2817390710F4422F461B852FB0
:1016F000880F880F880F681BEF01752F50E01AC004
:10170000683011F47F5F60E0272F30E0C901E3E02B
:10171000880F991FEA95E1F7820F931F1896ED91B4
:10172000FC911997E80FF91FE60FF11D899180834D
:101730005F5F6F5F541720F3DF91CF910895FC0135
:101740008089882341F4CB014097969587956095D1
:1017500061700E941C3181E008958F929F92BF9228
:10176000CF92DF92EF92FF920F931F93CF93DF936D
:10177000EC01EE81FF81309709F465C080858823F4
:1017800009F461C0CC2EBD2EDD2451E0852E912CB4
:1017900088898823E1F58A898823C9F57E0100E0DC
:1017A00010E0F70185890E943E31382F2B89A40172
:1017B000002E02C0440F551F0A94E2F7822F90E0DA
:1017C00084239523002E02C0959587950A94E2F70D
:1017D000381719F48989882389F024272B8BB801BD
:1017E000660F771F80E090E0313011F481E090E0E7
:1017F000682B792B8C2D9B2D0E94AE270F5F1F4FDE
:101800000894E11CF11C0830110559F6198AD3948B
:10181000F8E0DF1609F0BCCF8C2D9B2D0E945F2BCA
:101820002E853F858A859B852817390709F41A8AF2
:101830008C89882341F0E881F9810084F185E02DCD
:10184000CE0109951C8ADF91CF911F910F91FF90D6
:10185000EF90DF90CF90BF909F908F9008958F92E0
:101860009F92AF92BF92DF92EF92FF920F931F93DE
:10187000CF93DF934C01DD2416C0F4010085118560
:101880000A0D1B1D83E795E0B7010E9436110C0F6E
:101890001D1FF801808321960894E11CF11CC830BB
:1018A000D10559F7D3942D2D30E0F401828593852D
:1018B0002817390788F4C90173E0880F991F7A95B2
:1018C000E1F75C01A20EB31E64E0E62EF12CE80EF7
:1018D000F91EC0E0D0E0D1CF81E0DF91CF911F9120
:1018E0000F91FF90EF90DF90BF90AF909F908F90FF
:1018F00008951F93CF93DF9310E0C4E0D0E083E717
:1019000095E0BE0145E00E943D11219683E795E0F8
:10191000BE0142E00E943D11219683E795E0BE01A1
:1019200041E00E943D11219683E795E0BE0142E02F
:101930000E943D11219683E795E0BE0142E00E949E
:101940003D11219683E795E0BE0140E00E943D11E4
:10195000219683E795E0BE0140E00E943D1121966B
:1019600083E795E0BE01412F0E943D111F5F219644
:10197000103129F610E0C4E8D0E083E795E0BE011D
:1019800045E00E943D11219683E795E0BE0142E0CB
:101990000E943D11219683E795E0BE0141E00E943F
:1019A0003D11219683E795E0BE0142E00E943D1182
:1019B000219683E795E0BE0142E00E943D11219609
:1019C00083E795E0BE0140E00E943D11219683E748
:1019D00095E0BE0140E00E943D11219683E795E02D
:1019E000BE01412F0E943D111F5F2196103129F643
:1019F00083E795E062E070E040E00E943D1183E7FC
:101A000095E063E070E047E10E943D1183E795E0D7
:101A100060E070E049E40E943D1183E795E061E0F9
:101A200070E04FE60E943D11DF91CF911F91089524
:101A30009F92AF92BF92CF92DF92EF92FF920F935D
:101A40001F93CF93DF935C0183E795E060E070E044
:101A50000E943611893409F0D2C083E795E061E035
:101A600070E00E9436118F3609F0C9C083E795E017
:101A700062E070E00E943611982E83E795E063E003
:101A800070E00E943611C82E83E795E060E070E0B8
:101A900048E50E943D1180EFC81639F4492D4F5F8B
:101AA00083E795E062E070E005C083E795E062E0DF
:101AB00070E0492D0E943D114C2D405F83E795E079
:101AC00063E070E00E943D11DD2425C0D50116962B
:101AD000ED91FC911797E00FF11F83E795E0B701B7
:101AE00040810E943D110F5F1F4F0894E11CF11CC3
:101AF0000630110559F72A9683E795E0BE01492D76
:101B00000E943D1121964D2D4C0D83E795E0BE01BD
:101B10000E943D11D394F501828593859695879512
:101B20006D2D70E06817790770F4EB0113E0CC0FAE
:101B3000DD1F1A95E1F7B4E0EB2EF12CEC0EFD1E43
:101B400000E010E0C3CFD82E2BC0D5011696ED9142
:101B5000FC911797E00FF11F83E795E0B7014081F3
:101B60000E943D110F5F1F4F0894E11CF11C0630CD
:101B7000110559F72A9683E795E0BE01492D0E9489
:101B80003D112196F50182859385969587954C2D7B
:101B9000481B4D0D83E795E0BE010E943D11D39493
:101BA0006D2D70E0D5011A968D919C911B97681749
:101BB000790770F4EB01F3E0CC0FDD1FFA95E1F744
:101BC000E4E0EE2EF12CEC0EFD1E00E010E0BDCFA7
:101BD00083E795E060E070E049E40E943D1183E70F
:101BE00095E061E070E00E9436118F3659F083E78E
:101BF00095E061E070E04FE60E943D1103C0C50131
:101C00000E94790CDF91CF911F910F91FF90EF907F
:101C1000DF90CF90BF90AF909F900895AF92BF920A
:101C2000CF92DF92FF920F931F93CF93DF935C01CC
:101C3000FF2416C0D5011896ED91FC911997EC0D73
:101C4000FD1DEC0FFD1F83E795E0B80140810E9468
:101C50003D1121960F5F1F4FC830D10559F7F394FE
:101C60002F2D30E0F501828593852817390778F408
:101C7000C90143E0880F991F4A95E1F76C01C20E34
:101C8000D31E8C010C5F1F4FC0E0D0E0D3CF81E0AA
:101C9000DF91CF911F910F91FF90DF90CF90BF9078
:101CA000AF9008950F931F93CF93DF93EC018C01B6
:101CB00050E00E94872783E795E060E070E00E9493
:101CC0003611893441F483E795E061E070E00E94C9
:101CD00036118F3619F0CE010E94180DE881F98176
:101CE0000284F385E02DCE010995C0E0D0E0C80163
:101CF000BE0141E020E00E945D292196C031D1055E
:101D0000B1F7C0E1D0E0C801BE0140E021E00E948F
:101D10005D292196C032D105B1F7DF91CF911F9196
:101D20000F9108950E943B2A0895CF93DF93EC0111
:101D30009B8D97FD3FC08C8D8F5F891B8AA3893057
:101D400010F088E08AA321E016C0822F90E0EB8D8E
:101D5000FF27E7FDF095E80FF91FEA53FD4FE491E7
:101D6000DE01A80FB91F9396EC939397EA3011F414
:101D700093961C922F5F8AA1281738F3AC81BD81FE
:101D8000ED91FC911197BE01635E7F4F0084F18558
:101D9000E02DCD0109952AA121508B8D280F2B8F85
:101DA000332727FD30958C8D90E02817390714F0E4
:101DB0008FEF8B8FDF91CF910895CF92DF92EF92CB
:101DC000FF920F931F938C017B016A018FEFF80143
:101DD000838F87EC92E00E941C038F5FF801848F51
:101DE000F582E482D782C6821F910F91FF90EF9017
:101DF000DF90CF900895CF93DF93EC010E9473168C
:101E0000882329F0CE010E944D17069729F020E083
:101E1000822FDF91CF91089520E08E818E32C1F71D
:101E200021E0F6CFCF93DF93EC010E947316882355
:101E300029F0CE010E944D17069729F020E0822F4D
:101E4000DF91CF91089520E08E818235C1F721E0A6
:101E5000F6CFCF92DF92EF92FF920F931F93DF9313
:101E6000CF93CDB7DEB7E3970FB6F894DEBF0FBEC2
:101E7000CDBF6C018B01DC011696ED91FC9117979B
:101E8000309709F40EC18085882309F40AC1CB017B
:101E90000E94120F882309F46DC0198A188A1A8AC1
:101EA0001A861B861C861D861E861F86C801BE01DB
:101EB000665F7F4F0E945D18D6011696ED91FC91EA
:101EC0001797288939892115310541F08681978135
:101ED000009721F028173907F9F0E3C09A8580812F
:101EE000981709F0DEC09B858181981709F0D9C049
:101EF0009C858281981709F0D4C09D8583819817AD
:101F000009F0CFC09E858481981709F0CAC09F85CB
:101F10008581981709F0C5C0F601138E18861F82B7
:101F2000198619821A821B821C821D821E82C80198
:101F30007E010894E11CF11CB7010E94271686015E
:101F4000035E1F4FD60116966D917C911797C801BD
:101F50000E94D615C801B7010E94C818C8010E9486
:101F60006816C80166E070E00E946B1783E5F60111
:101F700083A395C0C8010E94FB0E882309F491C079
:101F800018861F82198619821A821B821C821D8262
:101F90001E82C801BE016F5F7F4F0E945D18D6018F
:101FA0001696ED91FC9117972F81388521153105F3
:101FB00041F086819781009721F028173907F9F0C1
:101FC00070C099818081981709F06BC09A818181D6
:101FD000981709F066C09B818281981709F061C04B
:101FE0009C818381981709F05CC09D81848198173A
:101FF00009F057C09E818581981709F052C018A634
:102000001FA219A619A21AA21BA21CA21DA21EA2DF
:1020100019AA18AA1AAA1AA61BA61CA61DA61EA6AD
:102020001FA6198A188A1A8A1A861B861C861D867C
:102030001E861F868AE0E82EF12CEC0EFD1EC801DC
:10204000B7010E9427168E010D5E1F4FF6016681B3
:102050007781C8010E94D615C801B7010E94C8182F
:10206000C8010E946816C80166E070E00E946B1704
:102070008FE2898F87E0888F85ED8A8F1B8E1C8E7B
:102080001D8E1E8E1F8EF601A481B581ED91FC91EF
:1020900011970084F185E02DCD01B801099581E00B
:1020A00001C080E0E3960FB6F894DEBF0FBECDBF4F
:1020B000CF91DF911F910F91FF90EF90DF90CF9024
:1020C0000895FC01448755876687778708950F93A5
:1020D0001F938C01FC0162871386808D61E00E9452
:1020E000F030F801808D62850E941C31F801108665
:1020F000148A158A168A178A108A118A128A138AF4
:10210000138E1F910F910895FC0142871386608FF3
:10211000642F0E9467100895AF92BF92CF92DF9212
:10212000EF92FF920F931F93CF93DF93EC010E94E6
:102130003B30D62EC72EB82EA92EE62EF72E9701AD
:10214000207E8E819F812817390709F449C03F837B
:102150002E83888D60E00E94F030888D61E00E94BF
:102160001C310A851B85888D0E943E31198608170F
:10217000190711F481E08987888D61E00E94F030B1
:10218000888D6A8D0E941C3199858885981711F079
:10219000988726C08B8D8917A9F09B8F888999898C
:1021A000AA89BB898096A11DB11D8C8B9D8BAE8B9E
:1021B000BF8BD882C982BA82AB82188A198A1A8ADE
:1021C0001B8A0EC00E943B30288139814A815B8185
:1021D000621B730B840B950B688B798B8A8B9B8BA3
:1021E0009701207C30708C819D812817390799F1E7
:1021F0003D832C838C852A853B8580FF0FC080E042
:10220000232B09F081E08A8F8C859D85AE85BF8563
:10221000B595A79597958795B0680DC080E0232B5D
:1022200009F481E08A8F8C859D85AE85BF85B69542
:10223000A795979587958C879D87AE87BF87898D52
:1022400080FD1A8E898D90E095958795898F888D70
:102250006A8D0E941C31DF91CF911F910F91FF90E9
:10226000EF90DF90CF90BF90AF900895F999FECF97
:1022700072BD61BDF89A80B50895F999FECF72BD1F
:1022800061BD40BD0FB6F894FA9AF99A0FBE089551
:102290006F927F928F929F92AF92BF92CF92DF9276
:1022A000EF92FF920F931F93CF93DF93EB01E8819F
:1022B000F981309709F010866B817C81ED84FE8472
:1022C0000F851889A8019701FFE056954795379526
:1022D0002795FA95D1F7317040705070A984BA846F
:1022E000CB84DC84D601C501E9E0880F991FAA1FC1
:1022F000BB1FEA95D1F7282B392B4A2B5B2BD80132
:10230000C701F9E0880F991FAA1FBB1FFA95D1F7E3
:10231000B070E9EA6E2EEBE47E2EEAE78E2E912C69
:10232000E60CF71C081D191D8E0D9F1DA01FB11F67
:10233000F3EAEF2EFCE0FF2EFBE10F2F112DAE0C88
:10234000BF1CC01ED11E2A0D3B1D4C1D5D1D5070B3
:10235000EB2EFF24002711272E293F29402B512B3C
:1023600029873A874B875C87B0708D879E87AF87B8
:10237000B88B79018A014CE016950795F794E7949C
:102380004A95D1F7AC014E255F25422753272CE013
:10239000B695A795979587952A95D1F748275927F8
:1023A0005F705C834B834115510509F487CF461755
:1023B000570709F483CF8FE08A83DF91CF911F9174
:1023C0000F91FF90EF90DF90CF90BF90AF909F90D4
:1023D0008F907F906F900895CF93DF93EC01DB0196
:1023E000EF81F88516962D913C91179721153105AF
:1023F00041F086819781009721F02817390749F528
:1024000021C09C918081981721F511969C9111977C
:1024100081819817F1F412969C91129782819817F6
:10242000C1F413969C9113978381981791F4149695
:102430009C9114978481981761F415969C918581DD
:10244000981739F48FE08987EF81F885108681E04D
:1024500001C080E0DF91CF910895CF93DF93DC013D
:10246000FB0186819781892B19F58081882301F5ED
:1024700081818823E9F482818823D1F483818823B0
:10248000B9F484818823A1F48581882389F41A967C
:102490008D919C911B97892B09F43FC01796CD9184
:1024A000DC9118972097C9F188858823B1F127C05E
:1024B0001A968D919C911B97892B79F11796CD9146
:1024C000DC911897209749F18885882331F1908114
:1024D0008881981711F5918189819817F1F492817B
:1024E0008A819817D1F493818B819817B1F49481E4
:1024F0008C81981791F495818D81981771F41196BC
:10250000ED91FC911297A081B1811A962D913C9189
:102510001B97CF01BE01F9010995DF91CF91089575
:10252000CF93DF93EC01DB018A859B85892B41F1F9
:10253000EF81F8859C918081981711F511969C91F7
:10254000119781819817E1F412969C9112978281DC
:102550009817B1F413969C9113978381981781F47F
:1025600014969C9114978481981751F415969C9118
:102570008581981729F489819A81BF010E94121ED2
:10258000DF91CF910895CF92DF92EF92FF920F9358
:102590001F93CF93DF93FC01EB0187819085681730
:1025A000790709F481C018868185813049F4B7E044
:1025B000CB2ED12CCE0EDF1EC114D10461F40AC083
:1025C000882341F4A7E0CA2ED12CCE0EDF1EC11401
:1025D000D10409F4FFCFF601D183C08383819481B4
:1025E000009721F09F838E8387E05DC08EE896E0A0
:1025F0006BE171E00E948935E880FF2400E010E083
:102600008701FF24EE24898190E0A0E0B0E0BA2F9A
:10261000A92F982F8827E82AF92A0A2B1B2B8A81B1
:1026200090E0A0E0B0E0E82AF92A0A2B1B2B2B81CE
:1026300030E040E050E0A901332722278C8190E070
:10264000A0E0B0E0BA2FA92F982F8827282B392B8C
:102650004A2B5B2B8D8190E0A0E0B0E0282B392B3A
:102660004A2B5B2BC9018E259F25BCE0169507954B
:10267000F794E794BA95D1F78E259F25ACE056954F
:10268000479537952795AA95D1F7822793279F706D
:10269000F60194838383892B21F481E090E0948375
:1026A000838382E0F6018283DF91CF911F910F91A6
:1026B000FF90EF90DF90CF9008950F931F938C01C0
:1026C000FC01728361830E943B30F8016383748351
:1026D000858396831F910F910895FF920F931F9307
:1026E000CF93DF938C01EC01888190E0EC0164E0F2
:1026F000CC0FDD1F6A95E1F7C80FD91FC00FD11F9E
:10270000F984E6E0FE1609F4FCC0EF15A0F0F3E052
:10271000FF1609F4A0C0FF1528F022E0F21609F018
:10272000D9C153C084E0F81609F4ABC0E5E0FE1649
:1027300009F0D0C1BEC0FFE0FF16A1F0FF1548F0C0
:1027400027E0F21609F475C188E0F81609F0C2C155
:1027500089C1E4E1FE1609F41EC1F9E1FF1609F092
:10276000B9C146C18F819885892B49F082E089875C
:102770008EE896E065E371E00E94893502C081E051
:102780008987E801888190E0FC0154E0EE0FFF1F8B
:102790005A95E1F7E80FF91FE00FF11F6781708587
:1027A00089819A810E94361E882309F093C188810D
:1027B00090E0FC0144E0EE0FFF1F4A95E1F7E80FBF
:1027C000F91FE00FF11F8FE0E4C0EF81F8852A8543
:1027D0003B85868197818217930711F03783268383
:1027E000F801808190E0FC0134E0EE0FFF1F3A9584
:1027F000E1F7E80FF91FE00FF11F83E08187E8019F
:10280000888190E0FC0124E0EE0FFF1F2A95E1F79C
:10281000E80FF91FE00FF11F6781708589819A81A8
:1028200041E00E94D123882309F054C1888190E0BF
:10283000FC01B4E0EE0FFF1FBA95E1F7E80FF91FB6
:10284000E00FF11F82E081878EE896E068E571E095
:102850000E9489353FC184E08987F801808190E03A
:10286000FC01A4E0EE0FFF1FAA95E1F7E80FF91FA6
:10287000E00FF11F67817085E80189819A8142E04C
:1028800015C085E08987F801808190E0FC0174E043
:10289000EE0FFF1F7A95E1F7E80FF91FE00FF11F28
:1028A00067817085E80189819A8143E00E94D12384
:1028B000D5C00E943B306C877D878E879F87F8014B
:1028C000808190E0FC0164E0EE0FFF1F6A95E1F764
:1028D000E80FF91FE00FF11F86E08187E80188818A
:1028E00090E0FC0154E0EE0FFF1F5A95E1F7E80F6E
:1028F000F91FE00FF11F6781708589819A8144E09B
:10290000D5CF0E943B30F801208130E0F90144E04E
:10291000EE0FFF1F4A95E1F7E20FF31FE00FF11FE3
:102920002485358546855785621B730B840B950B73
:10293000645F71408040904008F4CCC087819085EE
:10294000892B11F087E001C081E08187E80188814F
:1029500090E0FC0124E0EE0FFF1F2A95E1F7E80F5D
:10296000F91FE00FF11F6781708589819A810E94AC
:10297000AD23882309F0AEC0888190E0FC01B4E06B
:10298000EE0FFF1FBA95E1F7E80FF91FE00FF11FF7
:1029900086E081879FC08F819885892B11F08EE119
:1029A00001C081E08987F801808190E0FC01A4E00A
:1029B000EE0FFF1FAA95E1F7E80FF91FE00FF11FD7
:1029C00067817085E80189819A810E94AD238823FF
:1029D00009F080C0888190E0FC0174E0EE0FFF1FD9
:1029E0007A95E1F7E80FF91FE00FF11F84E1D1CFED
:1029F0008EE18987F801A181B2812D913C911197D7
:102A0000808190E0FC0164E0EE0FFF1F6A95E1F722
:102A1000E80FF91FE00FF11F67817085E901EA8572
:102A2000FB85CD010995882309F054C0F801808108
:102A300033C088E08987E801888190E0FC0154E098
:102A4000EE0FFF1F5A95E1F7E80FF91FE00FF11F96
:102A50006781708589819A810E94121E8823D1F531
:102A600088811AC08EE18987F801808190E0FC019D
:102A700044E0EE0FFF1F4A95E1F7E80FF91FE00F62
:102A8000F11F67817085E80189819A810E949323F3
:102A90009881882371F4892F90E0FC0134E0EE0FD7
:102AA000FF1F3A95E1F7E80FF91FE00FF11FF186DC
:102AB00011C0892F90E0FC0124E0EE0FFF1F2A9542
:102AC000E1F7E80FF91FE00FF11F0780F085E02D17
:102AD00081E08087F8011082DF91CF911F910F91E3
:102AE000FF9008950F931F93CF93DF93EC018B0119
:102AF000CB010E94EA152A853B858217930709F0CE
:102B000048C08985873038F48330C0F4813081F142
:102B1000823058F407C0883059F1883098F08E31EF
:102B2000C1F526C01B861A8634C0F80180A188230F
:102B300029F0C8010E940217882359F5C8010E9494
:102B4000B91620C0F80180A1882329F4C8010E9489
:102B5000B9168823C9F0F80180A18823D1F0C801F3
:102B60000E94B9168823A9F4C8010E94E9160AC078
:102B7000C8010E94B916882319F084E1898709C029
:102B8000F80180A1882329F4CE012796BE010E9476
:102B90004811DF91CF911F910F9108959C012A5FF9
:102BA0003F4FC9010895FC0185810895AC01FB01E7
:102BB00086819781FA0110A2248122602E7F2483CE
:102BC000A0E0B0E0906FAF6FBF6180839183A2837C
:102BD000B3830895FC01208131813F70C9010895BC
:102BE0000F931F93FC01208131814281538120701A
:102BF000307FDB0116960D911C911797C801A0E05C
:102C0000B0E09F70A070B070822B932BA42BB52BDB
:102C100080839183A283B383158B048BDB018C911A
:102C2000868711968C911197878712968C911297AF
:102C3000808B13968C911397818B14968C9114979B
:102C4000828B15968C91838B1F910F910895FC01B7
:102C5000DB0184899589892B91F48685882379F411
:102C60008785882361F48089882349F481898823B2
:102C700031F48289882319F483898823F9F08081CB
:102C800091819F70958B848B17969C938E9316974A
:102C900086858C93878511968C93119780891296DF
:102CA0008C931297818913968C931397828914962B
:102CB0008C931497838915968C930895158A148A9A
:102CC000168A16861786108A118A128A138AD7CF17
:102CD000FC0180819181A281B381B860808391835E
:102CE000A283B3830895FC0180819181A281B38185
:102CF0003BE1B695A795979587953A95D1F7817061
:102D000008950F931F93CF93DF938C01DA01EC01A9
:102D100018A2EC81E260EE7FEC83709561957F4FA5
:102D200067707070762F66277295707FBF706A2B00
:102D30007B2B80E090E0ECE0660F771F881F991FE7
:102D4000EA95D1F740E050E0306F4F6F5F613F7020
:102D50004070507F622B732B842B952BF80160837E
:102D60007183828393831582DF91CF911F910F919D
:102D70000895FC0180819181A281B381B3FF02C0DB
:102D800020E011C020E08070907FB7703CE0B695E5
:102D9000A795979587953A95D1F780709077805051
:102DA000904408F021E0822F0895FC0110A22481B4
:102DB00022602E7F248380E090E07F70807090708E
:102DC00080679061608371838283938386E08583CB
:102DD0000895FC01208131814281538153FF02C05B
:102DE00080E0089580E02070307F57706CE0569549
:102DF0004795379527956A95D1F72050374009F4C4
:102E000081E00895FC01208131814281538153FF8B
:102E100002C080E0089580E02070307F57707CE031
:102E200056954795379527957A95D1F72350374092
:102E300009F481E00895FC012081318142815381B0
:102E400053FF02C080E0089580E02070307F57700B
:102E5000ECE05695479537952795EA95D1F721509F
:102E6000374009F481E00895FC01208131814281DD
:102E7000538153FF02C080E0089580E02070307FCE
:102E800057709CE056954795379527959A95D1F7B9
:102E90002250374009F481E00895FC0120813181FE
:102EA000428153812070307F57707CE05695479562
:102EB000379527957A95D1F740E050E0207030772C
:102EC000407050706CE055954795379527956A95F9
:102ED000D1F7C9010895EF92FF920F931F93FC0160
:102EE000E080F18002811381962F9295907F80E09F
:102EF00080709077A80197012070307F57706CE048
:102F000056954795379527956A95D1F73F78822B47
:102F1000932BA0E0B0E02CE0880F991FAA1FBB1FE5
:102F20002A95D1F78070907FB7702FEF3FE040E097
:102F300058EFE222F322042315238E299F29A02B88
:102F4000B12B80839183A283B3831F910F91FF9054
:102F5000EF9008950F931F93FC01A62F60E070E09F
:102F6000008111812281338138605F7760707070D9
:102F70005F789A2F9295907F80E080709077482BB1
:102F8000592BCA01A0E0B0E04CE0880F991FAA1F9E
:102F9000BB1F4A95D1F78070907FB7701F7020706B
:102FA000387F802B912BA22BB32B80839183A2831C
:102FB000B3831F910F9108950F931F938C01FA0112
:102FC00086819781F80110A2248122602E7F2483BC
:102FD000A0E0B0E0906FAF6FBF6180839183A28368
:102FE000B383FB0146815781C80166E070E00E940F
:102FF000AA1781E0F80185838CE086831F910F91E9
:103000000895FC0180819181A281B381B3FF25C025
:103010008070907FB770ECE0B695A79597958795EF
:10302000EA95D1F79C0140E050E0DA01C9018070D7
:103030009077A070B0707CE0B595A795979587952F
:103040007A95D1F7892B49F480E03F782F5D3240A3
:103050004040504019F481E0089580E00895FC015B
:1030600080819181A281B381B3FF25C08070907F60
:10307000B7702CE0B695A795979587952A95D1F7C7
:103080009C0140E050E0DA01C90180709077A070A7
:10309000B070FCE0B595A79597958795FA95D1F70F
:1030A000892B49F480E03F782F5C3240404050400B
:1030B00019F481E0089580E00895CF93DF93FC0137
:1030C000EB0180819181A281B3818070907FB77084
:1030D0004CE0B695A795979587954A95D1F7A0E0CE
:1030E000B0E080709077A070B0703CE0B595A79587
:1030F000979587953A95D1F78430910539F08530C9
:10310000910521F0069711F080E035C0858D968DF0
:10311000892B91F48789882379F4808D882361F441
:10312000818D882349F4828D882331F4838D88230F
:1031300019F4848D882311F180819181A281B3815A
:103140008070907FB0702CE0B695A7959795879585
:103150002A95D1F7968F858F9F838E838789888361
:10316000808D8983818D8A83828D8B83838D8C83EF
:10317000848D8D8381E0DF91CF910895168E158E19
:10318000178E178A108E118E128E138E148ED4CF36
:103190000F931F93FC0120813181428153813F7045
:1031A0004070DB0116960D911C911797C801A0E0A5
:1031B000B0E0072E7CE0880F991FAA1FBB1F7A95ED
:1031C000D1F7702D8070907FB070822B932BA42B41
:1031D000B52B80839183A283B383168F058FDB0188
:1031E0008C91878B11968C911197808F12968C9170
:1031F0001297818F13968C911397828F14968C91CE
:103200001497838F15968C91848F1F910F91089539
:10321000FC0180819181A281B381B3FF25C08070C0
:10322000907FB7707CE0B695A795979587957A952E
:10323000D1F79C0140E050E0DA01C901807090773D
:10324000A070B0706CE0B595A795979587956A9535
:10325000D1F7892B49F480E03F78273A31054105C1
:10326000510519F481E0089580E00895FC01808102
:103270009181A281B3818070907FB7703CE0B69558
:10328000A795979587953A95D1F7A0E0B0E0807023
:103290009077A070B0702CE0B595A795979587951D
:1032A0002A95D1F7069749F48581882331F020E0EB
:1032B00086818A3019F421E001C020E0822F089530
:1032C000FC0180819181A281B381B3FF25C0807010
:1032D000907FB7707CE0B695A795979587957A957E
:1032E000D1F79C0140E050E0DA01C901807090778D
:1032F000A070B0706CE0B595A795979587956A9585
:10330000D1F7892B49F480E03F78273B310541050F
:10331000510519F481E0089580E00895FC01808151
:103320009181A281B381B3FF25C08070907FB77077
:10333000FCE0B695A79597958795FA95D1F79C01EE
:1033400040E050E0DA01C90180709077A070B07061
:10335000ECE0B595A79597958795EA95D1F7892BD8
:1033600049F480E03F782F5432404040504019F4F7
:1033700081E0089580E00895FC0180819181A2811F
:10338000B381B3FF25C08070907FB7707CE0B695A5
:10339000A795979587957A95D1F79C0140E050E0E5
:1033A000DA01C90180709077A070B0706CE0B595BB
:1033B000A795979587956A95D1F7892B49F480E071
:1033C0003F782F5832404040504019F481E0089532
:1033D00080E00895FC0180819181A281B381B3FFD7
:1033E00025C08070907FB770FCE0B695A795979543
:1033F0008795FA95D1F79C0140E050E0DA01C901C8
:1034000080709077A070B070ECE0B595A795979517
:103410008795EA95D1F7892B49F480E03F78275BBF
:1034200032404040504019F481E0089580E0089512
:10343000FC0180819181A281B3818070907FB770FF
:103440003CE0B695A795979587953A95D1F7A0E07A
:10345000B0E080709077A070B0702CE0B595A79523
:10346000979587952A95D1F7069749F48581882302
:1034700031F020E086818B3219F421E001C020E098
:10348000822F0895FC0180819181A281B381B3FDD7
:1034900002C020E01EC08070907FB7705CE0B695DF
:1034A000A795979587955A95D1F7A0E0B0E08070E1
:1034B0009077A070B0704CE0B595A79597958795DB
:1034C0004A95D1F78430910519F020E0059709F469
:1034D00021E0822F0895FC0180819181A281B38136
:1034E000B3FD02C020E01BC020E08070907FB77069
:1034F0007CE0B695A795979587957A95D1F7A0E04A
:10350000B0E080709077A070B0706CE0B595A79532
:10351000979587956A95D1F7059709F421E0822F51
:103520000895FC0180819181A281B381B3FF19C00C
:103530008070907FB7703CE0B695A795979587957A
:103540003A95D1F7A0E0B0E080709077A070B070AD
:103550002CE0B595A795979587952A95D1F706976D
:1035600019F020E0822F089520E086818C34D1F775
:1035700021E0F8CFFC0180819181A281B381B3FF6A
:1035800019C08070907FB7705CE0B695A79597954D
:1035900087955A95D1F7A0E0B0E080709077A07041
:1035A000B0704CE0B595A795979587954A95D1F75A
:1035B000069719F020E0822F089520E086818D344F
:1035C000D1F721E0F8CFFC018581833018F420E0A9
:1035D00030E006C0978180E0208530E0282B392B31
:1035E000C9010895DC011696FB0188E001900D9257
:1035F0008150E1F70895EF92FF920F931F938C0192
:103600007B0161E070E04BEA52E00E94AA1788E07B
:10361000F8018583C801B7010E94F21A1F910F912A
:10362000FF90EF900895EF92FF920F931F938C01FC
:103630007B0161E070E04BE652E00E94AA1788E04F
:10364000F8018583C801B7010E94F21A1F910F91FA
:10365000FF90EF900895EF92FF920F931F938C01CC
:103660007B0160E070E04FEC52E00E94AA1788E016
:10367000F8018583C801B7010E94F21A1F910F91CA
:10368000FF90EF900895EF92FF920F931F938C019C
:103690007B0160E070E04FED52E00E94AA1788E0E5
:1036A000F8018583C801B7010E94F21A1F910F919A
:1036B000FF90EF900895EF92FF920F931F938C016C
:1036C000F62EE72E60E070E047EB50E00E94AA176C
:1036D00086E0F8018583D80116962F2D3E2DC9016D
:1036E000FC0186E001900D928150E1F71F910F914E
:1036F000FF90EF900895EF92FF920F931F938C012C
:10370000F62EE72E60E070E047EA50E00E94AA172C
:1037100086E0F8018583D80116962F2D3E2DC9012C
:10372000FC0186E001900D928150E1F71F910F910D
:10373000FF90EF900895CF93DF93EC0188819981FA
:10374000AA81BB818070907FB770FCE0B695A79589
:1037500097958795FA95D1F7A0E0B0E080709077C3
:10376000A070B070ECE0B595A79597958795EA9510
:10377000D1F7069779F48D81882361F08E818A30A4
:1037800011F421E008C020E08B3209F021E081E053
:10379000282701C020E0422F50E09A012B5F3F4FC5
:1037A0008D8190E02817390754F4FA013696DB0131
:1037B000EC0FFD1F86E001900D928150E1F7DF9143
:1037C000CF910895DB01FC01369688E001900D92BF
:1037D0008150E1F70895EF92FF920F931F938C01B0
:1037E0007B01FB0186819781F80110A22481226070
:1037F0002E7F2483A0E0B0E0906FAF6FBF61808325
:103800009183A283B383C80161E070E047E850E090
:103810000E94AA1786E0F8018583D8011696F70161
:1038200001900D928150E1F71F910F91FF90EF9061
:103830000895FC01DB0116968D919C91179710A2BB
:10384000248122602E7F2483A0E0B0E09F70A070CE
:10385000B0709061A067B06180839183A283B383CD
:1038600086E085833696DB010D9001928150E1F769
:103870000895FC01DB0116968D919C91179710A27B
:10388000248122602E7F2483A0E0B0E09F70A0708E
:10389000B0709063A067B06180839183A283B3838B
:1038A00086E085833696DB010D9001928150E1F729
:1038B000089580E0089580E00895DF93CF93CDB719
:1038C000DEB729970FB6F894DEBF0FBECDBFDC017F
:1038D000198681E089838A831B821C821D821E8255
:1038E0008EEF8F831886ED91FC9111970288F389F2
:1038F000E02DCD01BE016F5F7F4F099529960FB670
:10390000F894DEBF0FBECDBFCF91DF9108950F9326
:103910001F93CF93DF93EC010E94F92D8823A9F028
:103920008E010C5F1F4FC8010E94EE2E8823D9F331
:10393000DE019596FE01349681E201900D92815050
:10394000E1F7CB5BDF4F81E08883DF91CF911F915F
:103950000F9108950F931F93CF93DF93EC01162FD0
:10396000072F0E94F92D882389F0DE011496812FFC
:10397000902F9C01F90181E201900D928150E1F7B5
:10398000CE010E94871C8823D9F381E0DF91CF917B
:103990001F910F9108950F931F93CF93DF93DC0135
:1039A0008B017C9160E040E050E02BC0EA01299659
:1039B0001196ED91FC911297E40FF51F2681378146
:1039C000F8018681978128173907C9F41396ED917C
:1039D000FC911497E60FF11D80818F3F11F08F5FEE
:1039E00080831196ED91FC911297D801E40FF51F99
:1039F00086E001900D928150E1F781E005C06F5F94
:103A0000AE01671798F280E0DF91CF911F910F917F
:103A10000895EF92FF920F931F93CF93DF93EC01E2
:103A2000DB0116960D911C9117970115110509F4EC
:103A300060C0E8805FEFFF2440E020E030E03DC060
:103A4000642F70E0FC01E20FF31F868197810097DD
:103A500021F08017910719F54CC090818C9198172F
:103A6000F1F4918111968C9111979817C1F492817C
:103A700012968C911297981791F4938113968C91CA
:103A80001397981761F4948114968C911497981752
:103A900031F4958115968C911597981751F1EB811A
:103AA000FC81E60FF71FE081E51710F0E52F01C05C
:103AB000F42E4F5F275F3F4F5E2F89819A814E150D
:103AC00008F4BECF2F2D30E0F90143E0EE0FFF1FC9
:103AD0004A95E1F7E20FF31FE80FF91F89E00D9017
:103AE00001928150E1F7EB81FC81E20FF31F81E04D
:103AF0008083DF91CF911F910F91FF90EF900895F8
:103B0000EF92FF920F931F937C018B010E94732C05
:103B1000F80166817781C7018A5B9F4F0E94EC1193
:103B20001F910F91FF90EF900895EF92FF920F93E6
:103B30001F937C018B010E94662CF80166817781BE
:103B4000C7018A5B9F4F0E94C3121F910F91FF9084
:103B5000EF9008950F931F93CF93DF938C01EB01A8
:103B60000E94F92D882359F0C8010496BE010E94D5
:103B7000FB1AC8010E94871C8823D9F381E0DF91DA
:103B8000CF911F910F9108950F931F93CF93DF93C0
:103B90008C01EB010E94F92D882359F0C80104968D
:103BA000BE010E942B1BC8010E94871C8823D9F3E9
:103BB00081E0DF91CF911F910F9108950F931F9393
:103BC000CF93DF938C01EB010E94F92D882359F0EC
:103BD000C8010496BE010E94131BC8010E94871CE5
:103BE0008823D9F381E0DF91CF911F910F91089540
:103BF0000F931F93CF93DF938C01EB010E94F92D5C
:103C0000882359F0C8010496BE010E94431BC801D5
:103C10000E94871C8823D9F381E0DF91CF911F9107
:103C20000F910895EF92FF920F931F93CF93DF931D
:103C30007C01EB010E94F92D882389F087010C5F3C
:103C40001F4FC801BE010E94D615C801BE010E94C7
:103C5000191CC7010E94871C8823D9F381E0DF91DA
:103C6000CF911F910F91FF90EF900895EF92FF92E7
:103C70000F931F93CF93DF937C01EB010E94F92DEB
:103C8000882389F087010C5F1F4FC801BE010E9485
:103C9000D615C801BE010E94391CC7010E94871CAD
:103CA0008823D9F381E0DF91CF911F910F91FF908D
:103CB000EF900895EF92FF920F931F93CF93DF93AE
:103CC0007C01EB010E94F92D882389F087010C5FAC
:103CD0001F4FC801BE010E94D615C801BE010E9437
:103CE0005B1BC7010E94871C8823D9F381E0DF9109
:103CF000CF911F910F91FF90EF900895AF92BF92D7
:103D0000CF92DF92EF92FF920F931F93CF93DF93A7
:103D1000EC017B016A0159010E94F92D8823F9F019
:103D20008E010C5F1F4FC801B7010E94D615C80154
:103D3000B6010E94C818C8010E946816C80166E052
:103D400070E00E946B178DE48A87BB86AC8683E0A7
:103D50008987CE010E94871C8823D9F381E0DF91F7
:103D6000CF911F910F91FF90EF90DF90CF90BF9078
:103D7000AF900895CF92DF92EF92FF920F931F932F
:103D8000CF93DF93EC017B016A010E94F92D882318
:103D9000E9F08E010C5F1F4FC801B7010E94D615D4
:103DA000C801B6010E94C818C8010E946816C8015F
:103DB00066E070E00E946B178CE48A8781E0898757
:103DC000CE010E94871C8823D9F381E0DF91CF9137
:103DD0001F910F91FF90EF90DF90CF900895DF92A9
:103DE000EF92FF920F931F93CF93DF93EC018B0120
:103DF000D42EDB011F968D919C915097892B09F051
:103E000057C0C25ADF4F5881CE55D04040E020E025
:103E100030E0BE01615A7F4F47C0DB01ED91FC915C
:103E2000E20FF31F9081D80119968C91199798177A
:103E3000C1F591811A968C911A97981791F59281F4
:103E40001B968C911B97981761F593811C968C910A
:103E50001C97981731F594811D968C911D97981792
:103E600001F595811E968C919817D9F4CF59DF4FA3
:103E7000E881F981C156D040E40FF11D80818F3F68
:103E800011F08F5F8083C15ADF4FE881F981CF55F0
:103E9000D040E20FF31F86819781F801908B8787CE
:103EA00007C04F5F275F3F4F451708F4B6CF52C09A
:103EB00054E0E52EF12CEC0EFD1EC701B8010E9466
:103EC000D615B801675F7F4FC7010E94C818C701A8
:103ED0000E9468164D2D50E0D80152968C9190E0CA
:103EE000841B950B8930910514F088E090E0D82E62
:103EF000898790E00DC0E92FF0E0DE01AE0FBF1F13
:103F0000E00FF11FE40FF51F83891A968C939F5FD2
:103F10008985981780F3480F511DF801828990E038
:103F20004817590724F4C70164E070E003C0C701D3
:103F300065E070E00E946B17CE010E94871C882309
:103F4000D9F38D2DDF91CF911F910F91FF90EF90BD
:103F5000DF900895E881F9810484F585E02DCE0194
:103F6000B801075F1F4FA8010995DD24EACFCF9262
:103F7000DF92EF92FF920F931F93CF93DF93EC01A9
:103F80007B01D42EC52EC759DF4F88819981C95630
:103F9000D040892B59F5CD59DF4F8881C356D04089
:103FA000882321F5CC59DF4F8881C456D04088231F
:103FB000E9F4CB59DF4F8881C556D0408823B1F44E
:103FC000CA59DF4F8881C656D040882379F4C95931
:103FD000DF4F8881C756D040882341F4C859DF4F4E
:103FE0008881C856D040882309F445C00E943B30E0
:103FF000C459DF4F288139814A815B81CC56D0403A
:10400000621B730B840B950B605D77408040904082
:1040100090F527C0DE01AD59BF4F8D2D9C2D9C0121
:10402000F90189E001900D928150E1F78E010C5F5A
:104030001F4FC801B7010E94D615C8016D2D7C2DF8
:104040000E947B1BCE010E94871C8823D9F30E940B
:104050003B30C459DF4F688379838A839B8381E037
:1040600001C080E0DF91CF911F910F91FF90EF9001
:10407000DF90CF9008950E94F92D882391F3CACF45
:10408000CF92DF92FF920F931F93CF93DF938C0118
:104090006B018EE896E06EE771E00E948635D801EC
:1040A0004C91FF24C0E0D0E037C09E01275F3F4F16
:1040B000D8011196ED91FC911297EC0FFD1F8681AE
:1040C00097818C159D0531F58EE896E06DE871E0DD
:1040D0000E9486358EE896E06F2D4AE050E00E94FF
:1040E0005635D8011196ED91FC911297EC0FFD1FFA
:1040F0001782168210861082118212821382148215
:1041000015821396ED91FC911497EF0DF11D10821D
:1041100081E009C0F394E901F41638F28EE896E0E4
:104120000E94923480E0DF91CF911F910F91FF9018
:10413000DF90CF900895CF92DF92EF92FF920F938E
:104140001F93DF93CF93CDB7DEB761970FB6F89487
:10415000DEBF0FBECDBF7C01188A1F86198A198663
:104160001A861B861C861D861E8665E2C62ED12CED
:10417000C80ED91EC6010E940819882331F4C60151
:104180000E943619882309F4AAC18E01075F1F4FC8
:10419000C601B8010E949B1BC7018A5B9F4FB801F3
:1041A0000E942D128CC18E01075F1F4FC601B801FE
:1041B0000E942716C601B8010E949B1B8F85988913
:1041C000892B09F47AC123E630E0E20EF31E9985CB
:1041D000D7018C91EDE9FFEFEE0EFF1E981709F065
:1041E0006EC124E630E0E20EF31E9A85D7018C9171
:1041F000ECE9FFEFEE0EFF1E981709F060C125E60F
:1042000030E0E20EF31E9B85D7018C91EBE9FFEFC6
:10421000EE0EFF1E981709F052C126E630E0E20EBE
:10422000F31E9C85D7018C91EAE9FFEFEE0EFF1E8D
:10423000981709F044C127E630E0E20EF31E9D8591
:10424000D7018C91E9E9FFEFEE0EFF1E981709F0F8
:1042500036C128E630E0E20EF31E9E85D7018C9130
:10426000E8E9FFEFEE0EFF1E981709F028C1C7011D
:10427000825A9F4FB8010E94091D29E630E0E20EE4
:10428000F31ED7011D921D927D011C92E8EFFFEFF6
:10429000EE0EFF1ED7011D92FD011192DF011D924E
:1042A000FD011192DF011D92FD01108208C1C601BE
:1042B0000E943417882309F477C0C601BE01675FE6
:1042C0007F4F0E949B1B8EE896E064EA71E00E949B
:1042D0008935DE011196ECEEF1E088E001900D9257
:1042E0008150E1F78EE896E064EB71E00E9486353C
:1042F0006F8578898EE896E040E150E00E9439357C
:104300008EE896E08E010F5F1F4FB8010E94863540
:104310008EE896E069854AE050E00E9468358EE8B4
:1043200096E0B8010E9486358EE896E06A854AE0FC
:1043300050E00E9468358EE896E0B8010E9486350C
:104340008EE896E06B854AE050E00E9468358EE882
:1043500096E0B8010E9486358EE896E06C854AE0CA
:1043600050E00E9468358EE896E0B8010E948635DC
:104370008EE896E06D854AE050E00E9468358EE850
:1043800096E0B8010E9486358EE896E06E854AE098
:1043900050E00E946835C7018A5B9F4FBE01675F8E
:1043A0007F4F0E9490128BC0C6010E940217882383
:1043B00099F18EE896E06CEB71E00E9489358E01F0
:1043C000075F1F4FC601B8010E942716C6010E9451
:1043D000EA15BC01C701825A9F4F0E944020F70195
:1043E000E280F380D02E012F13C08EE896E06AECB5
:1043F00071E00E948935D701ED91FC910480F5812F
:10440000E02DC7016D2D702F0995F701E280F38033
:10441000E114F10451F753C0C6010E941B17882311
:1044200009F44BC08EE896E06EED71E00E9489358C
:10443000C601BE01675F7F4F0E949B1B8F859889D5
:10444000892B99F48985882381F48A85882369F4E6
:104450008B85882351F48C85882339F48D858823B6
:1044600021F48E85882309F441C0C6010E94EA1513
:10447000988B8F87C701825A9F4FBE01675F7F4F1E
:104480000E94091D1CC0C601B8010E9427168EE8B3
:1044900096E06AEC71E00E948935D701ED91FC91BC
:1044A0000480F581E02DC701B8010995F701E2808C
:1044B000F380E114F10439F702C080E001C081E02B
:1044C00061960FB6F894DEBF0FBECDBFCF91DF91DE
:1044D0001F910F91FF90EF90DF90CF900895C6014C
:1044E0000E946019882309F05ECEE1CEC6010E94C9
:1044F000EA15BC01C701825A9F4F0E944020D70194
:104500001296ED90FC9013978E01075F1F4FD1CF4D
:10451000EF92FF920F931F93CF93DF937C01EB01F8
:104520008A010E94F92D882361F0C7010496BE011B
:10453000A8010E94DC17C7010E94871C8823D9F3B9
:1045400081E0DF91CF911F910F91FF90EF9008953F
:104550007F928F929F92AF92BF92CF92DF92EF9213
:10456000FF920F931F93DF93CF93CDB7DEB72997B9
:104570000FB6F894DEBF0FBECDBF6C01E5E28E2E04
:10458000912C880E991E8A5B9F4FB4010E94721570
:10459000C6010E949B20882309F087C018861F82CD
:1045A000198619821A821B821C821D821E82C401F6
:1045B0008E010F5F1F4FB8010E9427167EE5E72E80
:1045C000F12CEC0CFD1CC701B8010E94CB1C882308
:1045D00021F0C401B8010E94F015C4018E010F5FE3
:1045E0001F4FB8010E945D18882359F0C701B80118
:1045F0000E94CB1C882371F0C401B8010E94C81826
:1046000009C018861F82198619821A821B821C8291
:104610001D821E82D60112960D911C91139777244C
:10462000AA24BB2422C02F8138852115310559F0D9
:10463000F801E680F780D70116968D919C91179727
:104640002817390709F07501D801ED91FC91028016
:10465000F381E02DC801B4010995882311F0772476
:104660007394F80102811381570101151105D9F6E0
:1046700025E430E0C20ED31ED6018C91EBEBFFEFA8
:10468000CE0EDF1E882389F4A114B10471F07720C7
:1046900061F4C4018E010F5F1F4FB8010E942716FD
:1046A000C601B501A8010E94882229960FB6F89488
:1046B000DEBF0FBECDBFCF91DF911F910F91FF9055
:1046C000EF90DF90CF90BF90AF909F908F907F90B2
:1046D00008950F931F93CF93DF93EC018C010B5B35
:1046E0001F4FF8018081882331F0CE010E94A8225B
:1046F000F80110820BC0CE0185960E94522E8823AD
:1047000029F0F8011082CE010E94A822CE018A5B16
:104710009F4F0E946D13CE010E94512CDF91CF91CB
:104720001F910F9108950F931F93CF93DF938C01E7
:10473000EB010E94F92D882359F0C8010496BE01AF
:104740000E94EB1BC8010E94871C8823D9F381E0DB
:10475000DF91CF911F910F9108950F931F93CF93E6
:10476000DF93EC018B010E94F92D8823A9F0F80159
:1047700066817781CE0104960E94D516DE011A96D5
:10478000F80186E001900D928150E1F7CE010E9480
:10479000871C8823D9F381E0DF91CF911F910F917E
:1047A0000895EF92FF921F93CF93DF937C01EB016B
:1047B000142F0E94F92D8823D1F1123059F01330B3
:1047C00081F01130D9F4898182958F70482F50E0A3
:1047D00088810DC0998180E0AC0140705F708A8152
:1047E00013C08C8182958F70482F50E08B8190E0B0
:1047F000F4E0880F991FFA95E1F709C09C8180E0E9
:10480000AC0140705F708D8190E08F709070482B8C
:10481000592B2E813F81C7010496612F70E00E94C1
:104820008116C7010E94871C8823D9F381E0DF919C
:10483000CF911F91FF90EF900895EF92FF920F9309
:104840001F93CF93DF93EC0184E00E94922D882385
:1048500009F45FC090E0892F8295807F8093ED00FE
:104860008091F40081608093F4009F5F9F3099F7FE
:10487000CE018A5B9F4FBE010E945D130EE5E02EC4
:10488000F12CEC0EFD1E8AE0F70180838AE590E0B2
:104890000E941A028E01015A1F4FF80180839183F2
:1048A000F701808190E00E941A02FE01EF59FF4F4C
:1048B0008083918340E0B701D801EF0125C0242F08
:1048C00030E0C90113E0880F991F1A95E1F7820FB4
:1048D000931FED91FC911197E80FF91F1782168233
:1048E0001086108211821282138214821582ED9139
:1048F000FC911197E80FF91F17821682E881F98160
:10490000E20FF31F10824F5FFB0180814817B8F25E
:1049100081E0DF91CF911F910F91FF90EF9008956B
:1049200080E0089508950F931F93CF93DF938C0138
:10493000EB018EE896E064EF71E00E948935D801C2
:1049400018968C911897882391F55096ED91FC91CB
:1049500051972E813F812115310541F08681978144
:10496000009721F028173907C9F021C0988180816C
:104970009817E9F4998181819817C9F49A81828105
:104980009817A9F49B818381981789F49C8184816D
:10499000981769F49D818581981749F48EE896E00F
:1049A00065E072E00E94893581E0F8018087DF913F
:1049B000CF911F910F9108951F93CF93DF93EC0137
:1049C0008E858823C9F1AC81BD81ED91FC91119751
:1049D0006A897B890488F589E02DCD014F85099589
:1049E000182F882309F048C00E943B302A853B8558
:1049F0004C855D85621B730B840B950B6958734165
:104A000080409040C8F181E089871E86E881F98165
:104A10000084F185E02DCE0160E041E050E12AC044
:104A20001E861F860E943B306A877B878C879D8706
:104A300030C0410F4F872DC08985882351F50E94D2
:104A40003B302A853B854C855D85621B730B840B4F
:104A5000950B6958734180409040D8F081E0898778
:104A60001E86E881F9810084F185E02DCE0160E0A9
:104A700042E050E109950DC04F85242F30E0210F11
:104A8000311DEA89FB89828990E02817390789F668
:104A9000C7CFDF91CF911F910895BF92CF92DF9240
:104AA000EF92FF920F931F93DF93CF93CDB7DEB7B3
:104AB00062970FB6F894DEBF0FBECDBF8C017B01AD
:104AC000CB010E94421A882309F0BEC0C7010E9490
:104AD000911A882309F451C018861F8219861982F9
:104AE0001A821B821C821D821E82C701BE016F5F5B
:104AF0007F4F0E945D18D8011696ED91FC91179793
:104B0000309709F49EC12F8138852115310541F078
:104B100086819781009721F028173907F9F091C114
:104B200099818081981709F08CC19A8181819817A9
:104B300009F087C19B818281981709F082C19C810D
:104B40008381981709F07DC19D818481981709F0B0
:104B500078C19E818581981709F073C1D801ED91C4
:104B6000FC910084F185E02DC80161E040E050E057
:104B7000099581E0F801818767C1C7010E94BA1ACF
:104B8000882309F45EC118861F82198619821A8249
:104B90001B821C821D821E82C701BE016F5F7F4F78
:104BA0000E945D18D8011696ED91FC9117973097E9
:104BB00009F447C12F8138852115310541F08681DF
:104BC0009781009721F028173907F9F03AC19981A8
:104BD0008081981709F035C19A818181981709F071
:104BE00030C19B818281981709F02BC19C81838100
:104BF000981709F026C19D818481981709F021C179
:104C00009E818581981709F01CC1C7010E94E31A93
:104C1000AC0195FF05C081E0F801868717860AC0C0
:104C2000D8011E961C921E971F961C921F9781E01A
:104C300019968C93D801ED91FC910084F185E02DBB
:104C4000C80160E00995FFC0198A188A1A8A1A8675
:104C50001B861C861D861E861F86C701BE01665FD9
:104C60007F4F0E945D18D8011696ED91FC91179721
:104C7000309709F4E6C0288939892115310549F0B2
:104C800086819781009729F02817390709F4ECC02D
:104C9000D8C09A858081981709F0D3C09B858181FF
:104CA000981709F0CEC09C858281981709F0C9C079
:104CB0009D858381981709F0C4C09E8584819817CB
:104CC00009F0BFC09F858581981709F0BAC0CCC094
:104CD000D8015096ED91FC91519728893989211579
:104CE000310541F086819781009721F02817390717
:104CF00071F18EC09A858081981709F089C09B85D3
:104D00008181981709F084C09C858281981709F0E9
:104D10007FC09D858381981709F07AC09E85848124
:104D2000981709F075C09F858581981709F070C0A4
:104D30000EC0F80110860088F189E02D128AD80192
:104D400050966D917C915197C7010E9427168C2D2A
:104D50009B2D9C0190E00AC08289E90FF11DE80FAC
:104D6000F11DD9018D919D01838B9F5FD8015096D4
:104D7000ED91FC9151979D1578F382898D0D828B71
:104D8000C7010E946B1A882309F45DC0D801ED9118
:104D9000FC910680F781E02DC80109958823C9F0B0
:104DA0008EE896E067E172E00E948935F801A481FF
:104DB000B5818D919C911197668177814089518948
:104DC000FC0126893789CD01F9010995882371F302
:104DD0001AC08EE896E06FE172E00E948935F80112
:104DE000A481B5818D919C911197668177814089CD
:104DF0005189FC01E08CF18CCD0120E430E1F70118
:104E00000995882361F381E0D80118968C931CC022
:104E10008AE0E82EF12CEC0EFD1EF801A481B5818C
:104E20008D919C91119766817781FC01C08CD18C0A
:104E3000CD01A70120E030E2F6010995882369F34E
:104E400002C080E001C081E062960FB6F894DEBF38
:104E50000FBECDBFCF91DF911F910F91FF90EF90CB
:104E6000DF90CF90BF900895C701BE01665F7F4F6E
:104E70000E942716C7010E94CE15C82EB92EC70161
:104E80000E94D315D82ED80118968C91882309F04A
:104E900050CF1ECFCF93DF93EC0189858823A1F1FA
:104EA00019862A893B89C901DC01FB0189E501904A
:104EB0000D928150E1F7AA89BB89EE81FF8186813D
:104EC000978117969C938E93169780818C938181FE
:104ED00011968C931197828112968C9312978381ED
:104EE00013968C931397848114968C9314978581D1
:104EF00015968C9381E08E871F860E943B306A87CF
:104F00007B878C879D8781E0DF91CF910895DC01BD
:104F100019967C936E9318971B965C934E931A97F1
:104F2000569547951D965C934E931C9740E050E034
:104F300020E030E00BC01896ED91FC911997E20F3C
:104F4000F31F10864F5F5F4F275F3F4F1A968D917B
:104F50009C911B974817590770F30895DC01CB010A
:104F600023E0880F991F2A95E1F7860F971F18965F
:104F7000ED91FC911997E80FF91F808586FD02C01D
:104F800080E00895826080871E968D919C911F9786
:104F90008617970708F4BC011F967C936E931E97A3
:104FA00081E00895DF92EF92FF920F931F93CF93CA
:104FB000DF937C018B01DD24C0E0D0E024C0CE0172
:104FC000E3E0880F991FEA95E1F78C0F9D1F680FAA
:104FD000791FDB0118968C9185FF0DC0D701ED91EB
:104FE000FC910680F781E02DC701BE010995882359
:104FF00011F0DD24D3942196F70182859385C8179B
:10500000D90708F04AC0D70118966D917C9119977D
:105010001A962D913C911B97C217D307F4F5F8010E
:105020004081FE0153E0EE0FFF1F5A95E1F7EC0FB0
:10503000FD1FE60FF71F80814817C1F5D8011196B3
:105040009C9111978181981789F512969C911297DE
:105050008281981759F513969C911397838198171D
:1050600029F514969C91149784819817F9F4159654
:105070009C91159785819817C9F416969C9116975F
:105080008681981799F417969C918781981771F4E7
:10509000BFEFCF3FDB0709F092CF8D2DDF91CF918E
:1050A0001F910F91FF90EF90DF9008952196399610
:1050B000C217D3070CF4BFCFF0CF0F931F93CF933A
:1050C000DF93EC01DB0100E020E030E025C0F901D6
:1050D00093E0EE0FFF1F9A95E1F7E20FF31FE60F43
:1050E000F71F808586FF10C0816080874E855F85B1
:1050F000C901622F892F4217530718F4CA01642F80
:10510000892F6E878F8701E02F5F3F4F8A859B85B0
:105110002817390708F044C0688579854A855B857A
:1051200024173507ECF51C91F90183E0EE0FFF1F02
:105130008A95E1F7E20FF31FE60FF71F808118173A
:10514000A9F511969C9111978181981779F512967E
:105150009C9112978281981749F513969C91139709
:105160008381981719F514969C9114978481981748
:10517000E9F415969C91159785819817B9F41696C0
:105180009C9116978681981789F417969C9117978A
:105190008781981759F48FEF2F3F380709F097CF81
:1051A000802FDF91CF911F910F9108952F5F3F4F77
:1051B00039962417350714F2F3CF0F931F93CF932B
:1051C000DF93EC01DB0100E020E030E025C0F901D5
:1051D00093E0EE0FFF1F9A95E1F7E20FF31FE60F42
:1051E000F71F808585FF10C0816080874E855F85B1
:1051F000C901622F892F4217530718F4CA01642F7F
:10520000892F6E878F8701E02F5F3F4F8A859B85AF
:105210002817390708F044C0688579854A855B8579
:1052200024173507ECF51C91F90183E0EE0FFF1F01
:105230008A95E1F7E20FF31FE60FF71F8081181739
:10524000A9F511969C9111978181981779F512967D
:105250009C9112978281981749F513969C91139708
:105260008381981719F514969C9114978481981747
:10527000E9F415969C91159785819817B9F41696BF
:105280009C9116978681981789F417969C91179789
:105290008781981759F48FEF2F3F380709F097CF80
:1052A000802FDF91CF911F910F9108952F5F3F4F76
:1052B00039962417350714F2F3CFDC01522FCB01B6
:1052C00023E0660F771F2A95E1F7680F791F18967C
:1052D000ED91FC911997E60FF71F2085216020873B
:1052E0001E962D913C911F972817390708F4C90184
:1052F0001F969C938E931E97442349F01896ED9128
:10530000FC911997E60FF71F8085806480875523ED
:1053100049F01896ED91FC911997E60FF71F8085DB
:10532000806280870895FB0133E0EE0FFF1F3A95FE
:10533000E1F7DC0118968D919C911997442339F07F
:10534000E60FF71FE80FF91F8085886006C0E60F9B
:10535000F71FE80FF91F8085877F80870895DC019C
:10536000FB0153E0EE0FFF1F5A95E1F718968D9160
:105370009C911997442339F0E60FF71FE80FF91FA6
:105380008085806106C0E60FF71FE80FF91F808552
:105390008F7E80871E968D919C911F978617970709
:1053A00008F4BC011F967C936E931E970895FF929C
:1053B0000F931F93CF93DF93DC01F62E072F60E04E
:1053C00070E010E040E050E03DC01896ED91FC9197
:1053D0001997E40FF51F808583FF30C0EF018F2DF3
:1053E000902F9C01F90188E0019009928150E1F72A
:1053F0001896ED91FC911997E40FF51F8085816057
:1054000080871896ED91FC911997E40FF51F808520
:10541000877F80871E962D913C911F97CB01E62FA9
:10542000892F2617370718F4C901E22F892F1E96F6
:10543000EC931E971F968C931F9711E06F5F7F4F21
:10544000475F5F4F1A968D919C911B97681779075C
:1054500008F4BBCF112341F0ED91FC91119700842A
:10546000F185E02DCD010995812FDF91CF911F911D
:105470000F91FF900895CF92DF92EF92FF920F93DA
:105480001F93DF93CF93CDB7DEB762970FB6F89433
:10549000DEBF0FBECDBF6C017B01CB010E940118A6
:1054A0008823A9F01A8A1A861B861C861D861E86EA
:1054B0001F86188A198A8E01065F1F4FC701B8011F
:1054C0000E94E21BC601B8010E94D227E3C0C701B7
:1054D0000E94BC198823A9F01A8A1A861B861C868A
:1054E0001D861E861F86188A198A8E01065F1F4F29
:1054F000C701B8010E94E21BC601B8010E945D28E5
:10550000C9C0C7010E948E198823A9F01A8A1A8679
:105510001B861C861D861E861F86188A198A8E0188
:10552000065F1F4FC701B8010E94E21BC601B80108
:105530000E94DD28AFC0C7010E94EA19882331F418
:10554000C7010E94181A882309F4B3C018861F8265
:10555000198619821A821B821C821D821E82C70133
:105560000E94181A882381F4D6011A968D919C9175
:105570001B9720E030E0AC0113E0440F551F1A9553
:10558000E1F7480F591F68C0C701BE016F5F7F4F29
:105590000E949B1B8F819885892B01F58981882327
:1055A000E9F48A818823D1F48B818823B9F48C8132
:1055B0008823A1F48D81882389F48E81882371F456
:1055C000F6018285938520E030E0AC01B3E0440F22
:1055D000551FBA95E1F7480F591F2EC0D6011696F0
:1055E000ED91FC91179790818981981709F051C02E
:1055F00091818A81981709F04CC092818B8198170C
:1056000009F047C093818C81981709F042C09481BA
:105610008D819817F1F595818E819817D1F5D0CFAE
:10562000D6011896ED91FC911997E20FF31F808532
:1056300081608087275F3F4F2417350789F70FC0A8
:10564000D6011896ED91FC911997E20FF31F808512
:1056500081608087275F3F4F2417350789F7F60160
:105660001786168681E016C01A8A1A861B861C8643
:105670001D861E861F86188A198A8E01065F1F4F97
:10568000C701B8010E94E21BC601B8010E94D729D8
:1056900001C080E062960FB6F894DEBF0FBECDBFAA
:1056A000CF91DF911F910F91FF90EF90DF90CF90FE
:1056B0000895C7010E942F18882359F3D5CFCF939F
:1056C000DF93EC018EE896E06FE272E00E9489358C
:1056D000DDC08EE896E061E472E00E9486356E855A
:1056E0007F858EE896E04AE050E00E9439358EE8EA
:1056F00096E06EE472E00E9486356A857B858EE8CE
:1057000096E04AE050E00E9439354E855F85CA0137
:1057100063E0880F991F6A95E1F7840F951F6885EC
:105720007985680F791FFB018085282F30E0C9013A
:105730008174907081349105E9F48EE896E06BE510
:1057400072E00E948935AC81BD81ED91FC91119789
:105750002E853F85C90153E0880F991F5A95E1F7BF
:10576000820F931F68857985680F791F00A0F1A1CA
:10577000E02D21C0C90181729070819791F58EE86A
:1057800096E065E772E00E948935AC81BD81ED91BC
:10579000FC9111972E853F85C90143E0880F991F21
:1057A0004A95E1F7820F931F68857985680F791F05
:1057B000048CF58DE02DCD010995882309F46EC088
:1057C0002E853F85C90173E0880F991F7A95E1F70F
:1057D000820F931FE885F985E80FF91F80858E7F7A
:1057E0004FC021FF31C08EE896E06FE872E00E9462
:1057F0008635AC81BD81ED91FC9111972E853F8559
:10580000C90163E0880F991F6A95E1F7820F931F22
:1058100068857985680F791F0288F389E02DCD01AD
:1058200009958823D9F12E853F85C90153E0880F5A
:10583000991F5A95E1F7820F931FE885F985E80FC4
:10584000F91F80858D7F1CC024FF1CC0AC81BD81E9
:10585000ED91FC911197068CF78DE02DCD01099506
:105860002E853F85C90143E0880F991F4A95E1F7CE
:10587000820F931FE885F985E80FF91F80858F7ED9
:1058800080870CC04F5F5F4F5F874E872E853F85B7
:105890008A859B852817390708F41BCFDF91CF91A4
:1058A0000895CF93DF93FC01C281D3810AC0E881C0
:1058B000F9810190F081E02DCE0109950A80DB810C
:1058C000C02D2097A1F7DF91CF910895DC01FB0156
:1058D00012968D919C9113979383828313967C9358
:1058E0006E9312970895CF93DF93EC01DB01EA8169
:1058F000FB813097B9F0E617F70781F48281938135
:105900009B838A830FC08A179B0739F412968D9167
:105910009C9113979383828305C0FC0182819381BC
:10592000009789F7DF91CF910895809174058823BE
:1059300069F490E0892F8295807F8093ED008091BB
:10594000EF00807C21F09F5F9F30A1F79FEF892FB0
:105950000895382F883070F42091DE0081E090E0C7
:1059600002C0880F991F3A95E2F7809582238093B1
:10597000DE0008954091DF00282F30E028503040AD
:1059800081E090E002C0880F991F2A95E2F7809588
:1059900084238093DF000895382F883068F42091A5
:1059A000DE0081E090E002C0880F991F3A95E2F78F
:1059B000282B2093DE0008954091DF00282F30E04F
:1059C0002850304081E090E002C0880F991F2A954E
:1059D000E2F7482B4093DF0008951F920F920FB615
:1059E0000F9211240F900FBE0F901F9018951F92C9
:1059F0000F920FB60F920BB60F9211240F931F93B5
:105A00002F933F934F935F936F937F938F939F93C6
:105A1000AF93BF93EF93FF938091EC00807F803F23
:105A200009F467C00091ED008091EC00807F8093C5
:105A3000ED001091EC008091EE0086FF3DC080915A
:105A4000EE001092EE001092EF008AED96E00E94B8
:105A5000D52F009751F00E94192F8AED96E00E94F1
:105A6000E72F8091EF0080643FC0312F32953F7067
:105A7000383070F42091DE0081E090E002C0880FA1
:105A8000991F3A95E2F7809582238093DE0011C03A
:105A90004091DF00232F30E02850304081E090E03B
:105AA00002C0880F991F2A95E2F78095842380937E
:105AB000DF00109274051AC08091EE0085FF16C0B9
:105AC0008AE097E00E94B62F009731F00E94712E75
:105AD0008AE097E00E94C92F8091EE001092EE00BC
