:100000000C944A030C947E030C947E030C947E03A0
:100010000C947E030C947E030C947E030C947E035C
:100020000C947E030C947E030C947E030C947E034C
:100030000C947E030C947E030C947E030C947E033C
:100040000C947E030C9403370C9407340C94FD330A
:100050000C947E030C9475380C940B390C947E032D
:100060000C947E030C947E030C947E030C947E030C
:100070000C947E030C947E030C947E030C947E03FC
:100080000C94AE380C9458390C947E030C947E0377
:100090000C947E033C3F786D6C2076657273696FBB
:1000A0006E3D27312E302720656E636F64696E6761
:1000B0003D275554462D38273F3E3C3F786D6C2DEB
:1000C0007374796C65736865657420747970653DC7
:1000D00027746578742F78736C2720687265663D85
:1000E0002778736C742F6364692E78736C273F3E96
:1000F0003C63646920786D6C6E733A7873693D2750
:10010000687474703A2F2F7777772E77332E6F724B
:10011000672F323030312F584D4C536368656D6115
:100120002D696E7374616E636527207873693A6E0A
:100130006F4E616D657370616365536368656D6172
:100140004C6F636174696F6E3D27687474703A2FE9
:100150002F6F70656E6C63622E6F72672F7472758D
:100160006E6B2F70726F746F74797065732F786D0A
:100170006C2F736368656D612F6364692E78736497
:10018000273E3C6964656E74696669636174696F72
:100190006E3E3C6D616E7566616374757265723E2C
:1001A0005261696C7374617273204C696D69746516
:1001B000643C2F6D616E7566616374757265723E25
:1001C0003C6D6F64656C3E496F20446576204B69D9
:1001D000743C2F6D6F64656C3E3C6861726477613E
:1001E000726556657273696F6E3E312E303C2F68B2
:1001F0006172647761726556657273696F6E3E3CB9
:10020000736F66747761726556657273696F6E3E5F
:10021000312E352E313C2F736F66747761726556BF
:10022000657273696F6E3E3C2F6964656E746966B2
:1002300069636174696F6E3E3C61636469202F3E3F
:100240003C7365676D656E74206F726967696E3D9A
:100250002731303238272073706163653D2732358E
:1002600033273E3C67726F7570206F6666736574E6
:100270003D2730273E3C6E616D653E5573657220AB
:100280004964656E74696669636174696F6E3C2F59
:100290006E616D653E3C6465736372697074696F0D
:1002A0006E3E41646420796F7572206F776E2064B2
:1002B00065736372697074697665206E616D65201F
:1002C000616E64206465736372697074696F6E2017
:1002D000666F722074686973206E6F64652E3C2FA0
:1002E0006465736372697074696F6E3E3C73747297
:1002F000696E672073697A653D273332273E3C6E0D
:10030000616D653E4E6F6465204E616D653C2F6E7C
:10031000616D653E3C2F737472696E673E3C737409
:1003200072696E672073697A653D273634273E3CD3
:100330006E616D653E4E6F646520446573637269DE
:100340007074696F6E3C2F6E616D653E3C2F7374E7
:1003500072696E673E3C2F67726F75703E3C2F73FB
:1003600065676D656E743E3C7365676D656E742080
:100370006F726967696E3D2734272073706163650A
:100380003D27323533273E3C67726F7570207265AA
:10039000706C69636174696F6E3D2738273E3C6EEF
:1003A000616D653E496E707574733C2F6E616D654D
:1003B0003E3C7265706E616D653E496E7075743C51
:1003C0002F7265706E616D653E3C737472696E6705
:1003D0002073697A653D27313627206F666673651D
:1003E000743D27323630273E3C6E616D653E446574
:1003F000736372697074696F6E3C2F6E616D653ED8
:100400003C2F737472696E673E3C6576656E7469E5
:1004100064206F66667365743D272D32373627205A
:100420003E3C6E616D653E41637469766174696FCF
:100430006E204576656E743C2F6E616D653E3C2F77
:100440006576656E7469643E3C6576656E74696454
:100450003E3C6E616D653E496E61637469766174A0
:10046000696F6E204576656E743C2F6E616D653EDA
:100470003C2F6576656E7469643E3C2F67726F75BC
:10048000703E20203C67726F7570207265706C69D9
:10049000636174696F6E3D2738273E3C6E616D6500
:1004A0003E4F7574707574733C2F6E616D653E3C84
:1004B0007265706E616D653E4F75747075743C2F1A
:1004C0007265706E616D653E3C737472696E672013
:1004D00073697A653D27313627206F6666736574C8
:1004E0003D27323630273E3C6E616D653E44657374
:1004F0006372697074696F6E3C2F6E616D653E3C0E
:100500002F737472696E673E3C6576656E746964BC
:10051000206F66667365743D272D32373627203E7F
:100520003C6E616D653E41637469766174696F6E9E
:10053000204576656E743C2F6E616D653E3C2F657F
:1005400076656E7469643E3C6576656E7469643E7A
:100550003C6E616D653E496E616374697661746974
:100560006F6E204576656E743C2F6E616D653E3C06
:100570002F6576656E7469643E3C2F67726F757087
:100580003E3C2F7365676D656E743E3C2F636469F6
:100590003E00015261696C7374617273204C696D25
:1005A000697465640A496F0A312E300A312E352E7E
:1005B00031007E6E7F620C37260C37120C370E0C22
:1005C00037060C37020C37000C37000021002400DE
:1005D00027002A002D0030003300000022002500F3
:1005E00028002B002E0031003400000020002300E2
:1005F000260029002C002F00320001010101010119
:1006000001010303030303030303020202020202C4
:100610000202040404040407070405050505050592
:100620000505060606060606060607070102040873
:1006300010204080010204081020408001020408BC
:1006400010204080010204081008108001020408F4
:1006500010204080010204081020408001020000A8
:10066000000000000000000000000000000000008A
:10067000000000000000000000000000000000007A
:10068000000000000000000000000000000000006A
:100690009704D33A11241FBECFEFD0E1DEBFCDBF08
:1006A00014BE88E10FB6F894809360001092600049
:1006B0000FBE13E0A0E0B1E0EEE1FAE700E00BBF0F
:1006C00002C007900D92A635B107D9F71BBE18E0FE
:1006D000A6E5B3E001C01D92A730B107E1F716E02F
:1006E000C4E9D6E004C02297FE010E94093DC0394A
:1006F000D107C9F70E94693B0C940D3D0C94000092
:10070000CF93DF93BC018230910510F462E070E07A
:10071000A0910508B0910608ED01E0E0F0E040E0AE
:1007200050E021C0888199818617970769F48A81F2
:100730009B81309719F09383828304C090930608BD
:1007400080930508FE0134C06817790738F4411515
:10075000510519F08417950708F4AC01FE018A8150
:100760009B819C01E9012097E9F641155105A9F10A
:10077000CA01861B970B049708F4BA01E0E0F0E089
:100780002AC08D919C91119784179507F9F46417ED
:10079000750781F412968D919C911397309719F0FB
:1007A0009383828304C09093060880930508FD011B
:1007B00032964CC0CA01861B970BFD01E80FF91F4A
:1007C0006193719302978D939C9340C0FD01828148
:1007D00093819C01D9011097A1F680910308909113
:1007E0000408892B41F48091D7029091D80290930C
:1007F0000408809303084091D9025091DA02411510
:10080000510541F44DB75EB78091D5029091D60263
:10081000481B590B2091030830910408CA01821B20
:10082000930B8617970780F0AB014E5F5F4F8417DD
:10083000950750F0420F531F50930408409303084C
:10084000F9016193719302C0E0E0F0E0CF01DF9124
:10085000CF910895CF93DF93009709F450C0EC0136
:1008600022971B821A82A0910508B0910608109762
:1008700009F140E050E0AC17BD0708F1BB83AA8343
:10088000FE0121913191E20FF31FAE17BF0779F4FA
:100890008D919C911197280F391F2E5F3F4F3983FF
:1008A000288312968D919C9113979B838A8341157F
:1008B000510571F4D0930608C093050820C0129624
:1008C0008D919C911397AD01009711F0DC01D3CF6E
:1008D000FA01D383C28321913191E20FF31FCE1726
:1008E000DF0769F488819981280F391F2E5F3F4FF8
:1008F000FA01318320838A819B8193838283DF91F4
:10090000CF910895FC0105900020E9F7809590951E
:100910008E0F9F1F0895FB01DC0102C001900D9214
:1009200041505040D8F7089580E0089508951092FE
:100930005D0310925C0310925E03109256031092B6
:100940005703109258031092590310925A031092B1
:100950005B03EFE5F3E010861082118212821382AE
:100960001482158216821782399684E0EF37F807D1
:1009700091F7109282041092810481E193E09093A8
:10098000800480937F041092980410929704109230
:100990009904109291041092920410929304109270
:1009A000940410929504109296041092A10410924F
:1009B000A0041092A20410929A0410929B04109228
:1009C0009C0410929D0410929E0410929F04109219
:1009D000B9041092B8041092BA041092B2041092A2
:1009E000B3041092B4041092B5041092B60410929D
:1009F000B7041092C2041092C1041092C304109262
:100A0000BB041092BC041092BD041092BE0410925C
:100A1000BF041092C0041092C504ECECF4E0148200
:100A20001382118210821282719685E0E637F807F0
:100A3000B1F71082148613861586158216821782E6
:100A4000108611861286128A87EF92E090938B05AA
:100A500080938A0510929A0581E080939B0580938C
:100A60009C0510929D0510929E05EFE9F5E088E047
:100A700081938F5F8031E1F78BE393E09093A8053A
:100A80008093A70581E08093AF058093B005109215
:100A9000B1051092B2051092B3051092B4051092F0
:100AA000B5051092B6051092C2051092C1051092BC
:100AB000C3051092BB051092BC051092BD051092A3
:100AC000BE051092BF051092C0058FEF9FEF909367
:100AD000C5058093C4058BE590E00E948003809358
:100AE000B7059093B8058BE590E00E948003809352
:100AF000B9059093BA0589EE92E09093A80580938A
:100B0000A7058FED92E09093C9058093C80587E013
:100B100093E09093E3058093E205109218061092FB
:100B200017061092190610921106109212061092D2
:100B300013061092140610921506109216061092C3
:100B40002106109220061092220610921A06109288
:100B50001B0610921C0610921D0610921E06109283
:100B60001F0684E296E060E340E00E94C41480E443
:100B700096E061E340E00E94C41408958FE794E09A
:100B80000E94202A8FE794E00E940F23882349F0D7
:100B90008FE794E00E94142384E296E061E00E94D3
:100BA000A21408950F931F93CF93DF938C01C0E09D
:100BB000D0E0BE016650704F8CE596E00E9476153D
:100BC000F801EC0FFD1F80832196C630D10589F70F
:100BD000F80180818F3F81F481818F3F69F48281A8
:100BE0008F3F51F483818F3F39F484818F3F21F40B
:100BF00085818F3F09F4FFCFDF91CF911F910F9136
:100C00000895EF92FF920F931F9381E897E040E0E1
:100C100052EC61E070E00E94A53981E897E060E065
:100C200071E00E948C3C00E0802F61E00E9400385F
:100C3000802F60E00E942C380F5F0830A9F7802FCA
:100C400060E00E940038802F61E00E942C380F5F26
:100C50000031A9F786E5E82E83E0F82EC7010E944F
:100C6000D2050FE714E0C8010E94DA2A10938F051D
:100C700000938E05F0929105E09290058AE895E048
:100C80006FE573E040E20E943A1287EA95E0B8010E
:100C9000A7012AE835E00E94ED0988EC95E0B8014B
:100CA000A7012AE835E00E94950682EE95E0B8019A
:100CB000A7010E947A12C8016AE875E00E94272401
:100CC000C80167EA75E00E942724C80168EC75E056
:100CD0000E942724C80162EE75E00E9427241F911C
:100CE0000F91FF90EF900895CF93DF93FC018481E3
:100CF0009581EC01A881B981668177815096ED914B
:100D0000FC9151970995DF91CF910895FC01868957
:100D100097890E94E61064E670E080E090E00E940F
:100D20005937E0E0F0E009950895EF92FF920F93B4
:100D30001F938C01FC0175836483578346838FEF77
:100D400082878387158A1186378B268B94E2E92E5A
:100D500096E0F92EC70140E050E060E070E00E94AC
:100D60009C14C7010E94CC1480913F06F80184872F
:100D700080E4E82E86E0F82EC7014FEF50E06FEFD9
:100D800070E00E949C14C7010E94CC1480915B0605
:100D9000F8018587868997894596918F808F168679
:100DA000128A1F910F91FF90EF900895EF92FF929A
:100DB0001F93CF93DF937C01162F84E296E040E0EF
:100DC00050E060E070E00E949C1480E496E041E016
:100DD00050E060E070E00E949C14112311F410E0D8
:100DE00017C0C0E0D0E0D70156968D919C915797DF
:100DF000BE0140E00E947C31F70186899789BE01DF
:100E000040E00E9460312196C032D10561F7E7CF02
:100E1000812F60E00E942C381F5F1830C9F78FEFD8
:100E2000D7011A968C931A971B968C931B975696FC
:100E3000ED91FC915797108A18961C92DF91CF91F3
:100E40001F91FF90EF900895EF92FF920F931F93E1
:100E5000CF93DF93EC01EE81FF81309709F4B6C2A6
:100E60008085882309F4B2C28985882351F481E002
:100E7000898780E496E041E050E060E070E00E9405
:100E80009C1484E296E00E94CC1480E496E00E94D8
:100E9000CC1420913F0690E0222311F480E004C09E
:100EA00080915B06811181E08F879F5F9830A1F769
:100EB0008823E9F02C8780915B068D87809134062A
:100EC00090913506A0913606B091370681342FE116
:100ED000920720E0A20720E0B20714F083E006C0EA
:100EE000895B9B40A040B04014F082E08F879F85D3
:100EF0008E85891799F09E879A8B84E296E040E070
:100F000050E060E070E00E949C1480E496E041E0D4
:100F100050E060E070E00E949C1401C01A8A2091A9
:100F20003F068C85821799F08091340690913506A2
:100F3000A0913606B09137068C349105A105B10514
:100F40003CF02C87222321F081E0888B01C0188A95
:100F500020915B068D858217D1F08091500690918B
:100F60005106A0915206B09153068C349105A1050B
:100F7000B1053CF02D8780915B06882311F081E05C
:100F8000898B00E010E0E1E0EE2EF12C02C0198A1E
:100F9000F8CFE88DF98DE00FF11F80810E944E3867
:100FA000782F6C89A701002E02C0440F551F0A94A8
:100FB000E2F7862F90E084239523002E02C09595BA
:100FC00087950A94E2F7272F30E08217930761F0A4
:100FD000713029F4642B6C8B8B89842B09C0842F8E
:100FE000809586238C8B05C0942F90958B898923BF
:100FF0008B8B0F5F1F4F0830110559F6888588309D
:1010000009F459C0803809F4FAC0882309F0DEC118
:101010008A89833021F4CE010E948606D7C18230AE
:1010200079F480E496E04AEA5AEA6AEA7AEA0E94A7
:101030009C1484E296E045E555E565E575E5C4C197
:10104000813021F4CE010E947406C0C188898823B2
:10105000B9F088E08887EE89FF8981E0808B84E29F
:1010600096E040EF50EF60EF70EF0E949C1410E0AC
:10107000812F60E00E942C381F5F1830C9F7A6C18D
:101080008989882309F4A2C180E88887EE89FF89CD
:1010900081E0808B80E496E040EF50EF60EF70EFEE
:1010A0000E949C1410E0812F60E00E942C381F5F8A
:1010B0001830C9F78BC18A898823E1F4888988238D
:1010C000A9F180E496E040E050E060E070E00E942A
:1010D0009C148A85992787FD9095029661E270E0BD
:1010E0000E94BE3C81508A878F3F49F487E060E0D0
:1010F0000E942C38CE0161E00E94D60667C1803183
:1011000054F0A7C082300CF461C1812F815060E09F
:101110000E942C385BC1182F159580FFD1C084E246
:1011200096E04AE050E06AE070E0D0C08989882308
:1011300009F16B8567FD08C0772767FD70958E897B
:101140009F8941E00E9460316A85603134F07727E1
:1011500067FD70956051704007C067FDE2C077275A
:1011600067FD7095605F7F4F8E899F8941E00E9487
:101170006031D7C08B89882309F428C120E030E092
:10118000482F50E0122FCA01022E02C09595879574
:101190000A94E2F780FD06C01F5F2F5F3F4F2830A3
:1011A000310581F78B858F3F51F0212F30E0992752
:1011B00087FD9095959587952817390751F080E41C
:1011C00096E04AE050E06AE070E00E949C14812FB3
:1011D000D1C08D89813021F4110F1F5F1B87DEC0C4
:1011E000823009F0F3C080E496E040E050E060E037
:1011F00070E00E949C148FEF8B871D8A21C08A8922
:10120000882309F077CF8889882309F467C080E4B0
:1012100096E040EF50EF60EF70EF0E949C148A85DB
:10122000992787FD9095029661E270E00E94BE3C8E
:1012300081508A878F3F59F487E060E00E942C3804
:1012400084E296E040EF50EF60EF70EFBDC0803178
:1012500064F180E496E04AE050E06AEA7AE00E94B5
:101260009C142A85332727FD3095C9014097959511
:101270008795182F20FF07C084E296E040E050EAEF
:1012800060E070EA06C084E296E04FEF5FEF6FEF38
:101290007FEF0E949C14812F61E00E942C388A8588
:1012A000803109F02FCF87E032CF182F159580FFBE
:1012B00007C084E296E040E050EA60E070EA06C0D1
:1012C00084E296E04FEF5FEF6FEF7FEF0E949C1498
:1012D000812F61E00E942C388A8514CF8989882368
:1012E00019F16B8567FD08C0772767FD70958E89BA
:1012F0009F8941E00E947C316A85603134F0772714
:1013000067FD70956051704007C067FD0AC0772780
:1013100067FD7095605F7F4F8E899F8941E00E94D5
:101320007C31CE0160E0E8CE8B89882309F44EC081
:1013300020E030E0682F70E0422FCB01022E02C087
:10134000959587950A94E2F780FD06C04F5F2F5F61
:101350003F4F2830310581F78B858F3F51F0242F87
:1013600030E0992787FD909595958795281739073F
:1013700079F0842F90E0880F991F8B8784E296E0A4
:101380004FEF5FEF6FEF7FEF0E949C1481E00FC083
:101390008D89813071F4440F4F5F4B8784E296E072
:1013A0004AE050E06AE070E00E949C1482E08D8B7D
:1013B0000DC0823059F48FEF8B871D8A84E296E04E
:1013C00040E050E060E070E00E949C14DF91CF911B
:1013D0001F910F91FF90EF900895FC0130A3278F8C
:1013E000758364835783468308950895DF92EF924F
:1013F000FF920F931F93DF93CF93CDB7DEB7C45601
:10140000D0400FB6F894DEBF0FBECDBF7C01198A65
:10141000188A1A8A1A861B861C861D861E861F86B7
:101420001A8E198E1B8E1B8A1C8A1D8A1E8A1F8A81
:10143000188E80E28D8FDE015396F7012089318965
:10144000C901FC0189E001900D928150E1F71C8EE9
:10145000D7015096ED91FC915197848990E08C7F53
:1014600090708C38910509F4FCC08D38910564F4B6
:101470008438910551F18838910509F4EDC0803820
:10148000910509F02FC10DC0843A910509F425C1D9
:10149000883A910509F468C0803A910509F022C1A3
:1014A00017C181E897E063E171E00E948C3C87E01E
:1014B0008C8F82E88E8F8CE68F8F18A282EF89A3A3
:1014C0008FEF8AA38DEF8BA313C181E897E06EE2C3
:1014D00071E00E948C3C88E08C8F86E88E8FD7016B
:1014E0005096ED91FC91519785898F8F18A219A282
:1014F0001AA21BA281E08CA385898D3F59F08F3FF2
:1015000099F587E88E8F18A219A284E08AA38EEF3E
:101510008BA32AC087E88E8FF701878D90A10E9448
:101520009F0E692F77278827992768A3D7015F9691
:101530008D919C9190970E949F0EBC0188279927BE
:1015400069A3F701878D90A10E949F0E672F782FC6
:10155000892F99276AA3D7015F968D919C919097C7
:101560000E949F0E6BA31CA281E897E069E471E0E2
:101570000E948C3CD7015096ED91FC915197848943
:1015800090E0837090708130910591F481E897E04C
:1015900068E571E00E948C3C28E088E190E00FB69D
:1015A000F894A895809360000FBE20936000FFCF51
:1015B000029709F09DC081E897E060E671E00E9423
:1015C0008C3C18861F82198619821A821B821C8203
:1015D0001D821E82D7015096ED91FC915197DE013C
:1015E0001196759686E001900D928150E1F7D70132
:1015F0001696ED91FC91179799818081981709F0C3
:1016000077C09A818181981709F072C09B8182818D
:10161000981709F06DC09C818381981709F068C004
:101620009D818481981709F063C09E8185819817F8
:1016300009F05EC05F968D919C9190970E94E61094
:1016400028E088E190E00FB6F894A89580936000B8
:101650000FBE20936000FFCF81E897E06EE671E057
:1016600045C081E897E06BE771E00E948C3CD701B0
:101670005096ED91FC91519715891770812F90E04C
:10168000B3E0880F991FBA95E1F702968C8F8EE828
:101690008E8F8CE596E062E070E00E947615D82E81
:1016A0008CE596E063E070E00E947615082F11113A
:1016B000FFCF8CE596E062E070E04D2D0E947D1535
:1016C0008CE596E063E070E0402F0E947D1510C02D
:1016D00081E897E060E971E009C081E897E06FE98F
:1016E00071E004C081E897E060EB71E00E948C3CFF
:1016F0008C8D882319F420E430E10DC0C701BE01B0
:10170000665F7F4F0E945F2C882319F420E030E24F
:1017100002C020EF3FEFC901CC59DF4F0FB6F8945C
:10172000DEBF0FBECDBFCF91DF911F910F91FF9014
:10173000EF90DF9008958F929F92AF92BF92CF92D9
:10174000DF92EF92FF920F931F93CF93DF934C01A1
:10175000DC015096ED91FC915197858990E0A0E0D5
:10176000B0E0182F0027FF24EE24868990E0A0E047
:10177000B0E0DC0199278827E82AF92A0A2B1B2BDD
:10178000808D90E0A0E0B0E0E82AF92A0A2B1B2B1C
:10179000878990E0A0E0B0E0BA2FA92F982F882782
:1017A000E82AF92A0A2B1B2B848990E08370907019
:1017B0008130910509F493C0823091051CF40097A3
:1017C00069F00FC08230910531F08330910549F402
:1017D0008FEF90E00EC08EEF90E00BC0818D27E080
:1017E00009C0892B21F427E080E090E003C080E06D
:1017F00090E026E0B288B21A813029F08D3F51F195
:1018000020E030E05EC0DD24C22FD0E0CE19DF0939
:101810001EC0B8EFEB16BFE0FB06B0E00B07B0E070
:101820001B0778F4D4015096ED91FC915197EC0F81
:10183000FD1FEE0DFF1D8CE596E0B70143890E9468
:101840007D15D3940894E11CF11C011D111DDB14BE
:1018500000F335C0822F90E0B4E0EB16B1E0FB0658
:10186000B0E00B07B0E01B0730F06C01C0E0D0E047
:10187000AB2CBB2421C04396E80FF91FD4015F961F
:101880008D919C919097B7014B2D9F010E94F10E75
:1018900016C0BE016E0D7F1DD4015096ED91FC91D6
:1018A0005197EC0DFD1D8CE596E043890E947D1556
:1018B00021960894C11CD11CCA15DB0550F320EFFA
:1018C0003FEFC901DF91CF911F910F91FF90EF90F2
:1018D000DF90CF90BF90AF909F908F9008958DEF45
:1018E00090E087CF4F925F926F927F928F929F92FC
:1018F000AF92BF92CF92DF92EF92FF920F931F931E
:10190000DF93CF93CDB7DEB7CB55D0400FB6F89469
:10191000DEBF0FBECDBF3C01DC015096ED91FC91C6
:101920005197858990E0A0E0B0E0D82ECC24BB246C
:10193000AA24868990E0A0E0B0E0DC0199278827FE
:10194000A82AB92ACA2ADB2A808D90E0A0E0B0E05C
:10195000A82AB92ACA2ADB2A878990E0A0E0B0E049
:10196000BA2FA92F982F8827A82AB92ACA2ADB2A92
:101970008489282F30E0237030702130310599F0B0
:101980002230310524F42115310599F006C02230AA
:10199000310561F02330310519F060E070E00BC0D3
:1019A0006FEF70E008C06DEF70E005C06EEF70E0A3
:1019B00002C0818D682F062F232B11F417E001C080
:1019C00016E0E12EFF24EE0DFF1D938818861F827E
:1019D000198619821A821B821C821D821E82198A14
:1019E000188A1A8A1A861B861C861D861E861F86E2
:1019F000DE011A96F301808991899C01F90189E041
:101A000001900D928150E1F7412E55249E012C5EEC
:101A10003F4FD30150964D915C9151974D5E5F4F72
:101A2000C901BA01412F50E00E948B048D898F704B
:101A300080658D8B81E897E06FEB71E00E948C3CB4
:101A400081E897E06FEC71E00E94893C81E897E0C3
:101A50006C8940E150E00E946B3C81E897E06D8921
:101A600040E150E00E946B3C81E897E066EE71E057
:101A70000E94893C81E897E0692D4AE050E00E948D
:101A80006B3C81E897E060EF71E00E94893C81E85F
:101A900097E0B601A50120E130E00E94573C81E8C3
:101AA00097E06BEF71E00E94893C81E897E0602F3E
:101AB00040E150E00E946B3C81E897E064E072E016
:101AC0000E94893C81E897E0612F4AE050E00E9443
:101AD0006B3C0D3F09F45EC00F3FF9F0013019F087
:101AE00020E030E09FC0190D1B8BEC0EFD1EE4E1E1
:101AF000F0E0EE0EFF1E00E010E00CC0B8016A0D31
:101B00007B1D8CE596E00E947615D7018D937D01B3
:101B10000F5F1F4F091590F378C081E897E06FE1E0
:101B200072E00E948C3CA5019E012E0D3F1D2C5E93
:101B30003F4FC501890D911D8050954010F09A2CA2
:101B40009094D90180E090E0292D30E00FC0E4E0CE
:101B50004E3F5E0710F01C9205C0FA01EC56FF4F95
:101B6000E491EC93019611964F5F5F4F82179307B4
:101B700070F3F6E09F0E9B8A81E897E06CE272E0DA
:101B80000E94893C81E897E06B894AE050E00E941E
:101B90006B3C3BC09E012F5F3F4F64E0A61661E0A7
:101BA000B60660E0C60660E0D60690F483E190E0F9
:101BB000E80EF91E2E0D3F1DD3015F968D919C916D
:101BC0009097B501492D0E94AC0E8A5F8B8B1DC08A
:101BD000190D1B8B63E1E62EF12CE40CF51CE20ED3
:101BE000F31E00E010E0892C99240CC0B8016A0DA6
:101BF0007B1D8CE596E00E947615F70181937F01AD
:101C00000F5F1F4F0815190588F3C301BE016F5FF1
:101C10007F4F0E945F2C882319F020EF3FEF02C016
:101C200020E030E2C901C55ADF4F0FB6F894DEBF9D
:101C30000FBECDBFCF91DF911F910F91FF90EF901D
:101C4000DF90CF90BF90AF909F908F907F906F90DC
:101C50005F904F9008951F93CF93DF93EC01EE8137
:101C6000FF81309709F464C08085882309F460C03F
:101C700081E897E069E472E00E948C3CE889F98988
:101C800081E897E062894AE050E00E946B3C10E0F6
:101C90000AC0E10FF11D81E897E0638940E150E05F
:101CA0000E946B3C1F5FE889F9898289181788F3C5
:101CB00083898032A1F581E897E069E572E00E94AE
:101CC0008C3CE889F989848990E0807C907080342C
:101CD000910531F080389105B9F0892B59F01FC07A
:101CE00081E897E06CE672E00E948C3CCE010E9495
:101CF000720C13C081E897E069E772E00E948C3CA7
:101D0000CE010E949B0B09C081E897E067E872E072
:101D10000E948C3CCE010E94F6099C010BC081E818
:101D200097E063E972E00E948C3C20E430E102C05D
:101D300020E030E0C901DF91CF911F910895FC01AF
:101D40008285938523E0880F991F2A95E1F70197F3
:101D5000BC0180E090E008951F93CF93DF93EC01E6
:101D6000D901CB0123E0969587952A95E1F7182FA5
:101D7000FB0134972A853B8583E0220F331F8A9528
:101D8000E1F7CF01840F911D2817390710F4422F76
:101D9000461B812F880F880F880F5E2F581B712FCD
:101DA00060E018C0583011F47F5F50E0272F30E01A
:101DB000C901E3E0880F991FEA95E1F7820F931FAD
:101DC000E885F985E80FF91FE50FF11D80818D93F6
:101DD0006F5F5F5F641730F3842FDF91CF911F91A6
:101DE0000895FF920F931F93CF93DF93DC01022F8F
:101DF000F32ECB0123E0969587952A95E1F7182FCE
:101E0000FB0134971A962D913C911B9783E0220F8A
:101E1000331F8A95E1F7CF01840F911D28173907E9
:101E200010F4422F461B812F880F880F880F5E2FDA
:101E3000581B202F3F2DC901EC01712F60E01AC003
:101E4000583011F47F5F50E0272F30E0C901E3E004
:101E5000880F991FEA95E1F7820F931F1896ED916D
:101E6000FC911997E80FF91FE50FF11D8991808307
:101E70006F5F5F5F641720F381E054968C93DF916E
:101E8000CF911F910F91FF900895FC0180898823C5
:101E900041F4CB01409796958795609561700E94BB
:101EA0002C3881E008958F929F92BF92CF92DF925B
:101EB000EF92FF920F931F93CF93DF93EC01EE818C
:101EC000FF81309709F465C08085882309F461C0DB
:101ED000CC2EBD2EDD2451E0852E912C88898823BF
:101EE000E1F58A898823C9F57E0100E010E0F70159
:101EF00085890E944E38382F2B89A401002E02C0FC
:101F0000440F551F0A94E2F7822F90E08423952313
:101F1000002E02C0959587950A94E2F7381719F4B8
:101F20008989882389F024272B8BB801660F771FB6
:101F300080E090E0313011F481E090E0682B792B63
:101F40008C2D9B2D0E947B2F0F5F1F4F0894E11C4F
:101F5000F11C0830110559F6198AD394F8E0DF1600
:101F600009F0BCCF8C2D9B2D0E94AA2E2E853F857B
:101F70008A859B852817390709F41A8A8C89882352
:101F800041F0E881F9810084F185E02DCE010995C9
:101F90001C8ADF91CF911F910F91FF90EF90DF90FE
:101FA000CF90BF909F908F9008958F929F92AF9205
:101FB000BF92DF92EF92FF920F931F93CF93DF9325
:101FC0004C01DD2416C0F401008511850A0D1B1D8E
:101FD0008CE596E0B7010E9476150C0F1D1FF801E5
:101FE000808321960894E11CF11CC830D10559F773
:101FF000D3942D2D30E0F40182859385281739077D
:1020000088F4C90173E0880F991F7A95E1F75C01A4
:10201000A20EB31E64E0E62EF12CE80EF91EC0E01D
:10202000D0E0D1CF81E0DF91CF911F910F91FF9050
:10203000EF90DF90BF90AF909F908F9008951F9387
:10204000CF93DF93C4E0D0E010E08CE596E0BE01D2
:1020500045E00E947D1521968CE596E0BE0142E0A8
:102060000E947D1521968CE596E0BE0141E00E941C
:102070007D1521968CE596E0BE0142E00E947D151B
:1020800021968CE596E0BE0142E00E947D152196E6
:102090008CE596E0BE0140E00E947D1521968CE51E
:1020A00096E0BE0140E00E947D1521968CE596E009
:1020B000BE01412F0E947D1521961F5F103129F628
:1020C000C4E8D0E010E08CE596E0BE0145E00E9457
:1020D0007D1521968CE596E0BE0142E00E947D15BB
:1020E00021968CE596E0BE0141E00E947D15219687
:1020F0008CE596E0BE0142E00E947D1521968CE5BC
:1021000096E0BE0142E00E947D1521968CE596E0A6
:10211000BE0140E00E947D1521968CE596E0BE014F
:1021200040E00E947D1521968CE596E0BE01412F8E
:102130000E947D1521961F5F103129F6C4E0D1E081
:102140008CE596E0BE010E947615882331F08CE57F
:1021500096E0BE0140E00E947D15219682E0C430E9
:10216000D80771F7C4E0D4E08CE596E0BE010E9488
:102170007615882331F08CE596E0BE0140E00E94A0
:102180007D15219684E0C43AD80771F78CE596E076
:1021900062E070E040E00E947D158CE596E063E02F
:1021A00070E040E10E947D158CE596E060E070E013
:1021B00049E40E947D158CE596E061E070E04FE611
:1021C0000E947D15DF91CF911F9108954F925F92EC
:1021D0006F927F928F929F92AF92BF92CF92DF9237
:1021E000EF92FF920F931F93CF93DF933C018CE507
:1021F00096E060E070E00E947615893409F0E2C054
:102200008CE596E061E070E00E9476158F3609F06B
:10221000D9C08CE596E062E070E00E947615B82E99
:102220008CE596E063E070E00E947615982E8CE5D0
:1022300096E060E070E048E50E947D158FED89151D
:1022400038F44B2D4F5F8CE596E062E070E005C0FE
:102250008CE596E062E070E04B2D0E947D15492DE3
:10226000405E8CE596E063E070E00E947D15AA2454
:10227000492C55242EC0D3011696ED91FC91179749
:10228000EC0FFD1F8CE596E0B80140810E947D15A2
:1022900021960F5F1F4FC630D10569F7B601665F03
:1022A0007F4F8CE596E04B2D0E947D15E40CF51CCC
:1022B000BFEFEB16F10409F4B394EBE0F0E0CE0EBF
:1022C000DF1E4A2D490D8CE596E0B6010E947D1572
:1022D000A394D3011A968D919C911B9796958795FF
:1022E000EA2CFF24E816F90660F46701F3E0CC0C51
:1022F000DD1CFA95E1F786010C5F1F4FC0E0D0E0CE
:10230000BACFA82E882E890C492C55242EC0D30173
:102310001696ED91FC911797EC0FFD1F8CE596E05A
:10232000B80140810E947D1521960F5F1F4FC63076
:10233000D10569F7B601665F7F4F8CE596E04B2DBE
:102340000E947D15E40CF51CBFEFEB16F10409F4B7
:10235000B394EBE0F0E0CE0EDF1E8CE596E0B60124
:10236000482D0E947D15A3948394EA2CFF24D30169
:102370001A968D919C911B97E816F90660F46701F7
:10238000E3E0CC0CDD1CEA95E1F786010C5F1F4F02
:10239000C0E0D0E0BCCF8CE596E060E070E049E4BE
:1023A0000E947D158CE596E061E070E00E94761554
:1023B0008F3659F08CE596E061E070E04FE60E94C0
:1023C0007D1503C0C3010E941F10DF91CF911F91A3
:1023D0000F91FF90EF90DF90CF90BF90AF909F90C4
:1023E0008F907F906F905F904F900895AF92BF92C3
:1023F000CF92DF92FF920F931F93CF93DF935C01F5
:10240000FF2416C0D5011896ED91FC911997EC0D9B
:10241000FD1DEC0FFD1F8CE596E0B80140810E9488
:102420007D1521960F5F1F4FC830D10559F7F394E2
:102430002F2D30E0F501828593852817390778F430
:10244000C901B3E0880F991FBA95E1F76C01C20E7C
:10245000D31E8C010C5F1F4FC0E0D0E0D3CF81E0D2
:10246000DF91CF911F910F91FF90DF90CF90BF90A0
:10247000AF9008950F931F93CF93DF93EC018C01DE
:1024800050E00E94542F8CE596E060E070E00E94DE
:102490007615893441F48CE596E061E070E00E94A5
:1024A00076158F3619F0CE010E94E610E881F98189
:1024B0000284F385E02DCE010995C0E0D0E0C8018B
:1024C000BE0141E020E00E942A312196C031D105B1
:1024D000B1F7C0E1D0E0C801BE0140E021E00E94B8
:1024E0002A312196C032D105B1F7DF91CF911F91EA
:1024F0000F910895CF92DF92EF92FF920F931F9367
:102500008C017B016A01FC0110868FEF878F8FEFB2
:102510009FEF958F848F168E82E995E00E9482044A
:102520008F5FF80180A3F582E482D782C6821F9173
:102530000F91FF90EF90DF90CF9008950F931F932E
:10254000CF93DF93EC01EE81FF81309709F4E6C071
:102550008085882309F4E2C08885882399F018864D
:102560008E010F5D1F4FEC81FD81A081B181189616
:102570002D913C911997CF01B801F9010995882354
:1025800091F3CCC09F8D97FD49C088A18E5F891BB8
:102590008EA3893010F088E08EA322E016C0822F2F
:1025A00090E0EF8DFF27E7FDF095E80FF91FE0576A
:1025B000FA4FE491DE01A80FB91F9796EC93979715
:1025C000EA3011F497961C922F5F8EA1281738F3EA
:1025D0008E010F5D1F4FEC81FD81A081B1811896A6
:1025E0002D913C911997CF01B801F90109958823E4
:1025F00091F38EA182502F8D820F8F8F992787FDA7
:10260000909528A130E0821793070CF487C08FEFD4
:102610008F8F83E094E09D8F8C8F80C02C8D3D8DBB
:1026200037FD7CC082E08EA32350344049F421E082
:1026300029A783E08EA384E094E09D8F8C8F2E8F5A
:102640008E8D813061F52FEF11C08CE596E00E94F0
:102650007615282F8EA1FE01E80FF11D27A38F5FAD
:102660008EA38C8D9D8D01969D8F8C8F8EA1883031
:1026700048F4222371F06C8D7D8D24E06432720762
:1026800024F302C0222329F08C8D9D8D8452944026
:1026900034F084E294E09D8F8C8F82E08E8F8E8D5B
:1026A000823059F52FEF11C08CE596E00E94761527
:1026B000282F8EA1FE01E80FF11D27A38F5F8EA3A7
:1026C0008C8D9D8D01969D8F8C8F8EA1883048F4C6
:1026D000222371F06C8D7D8D84E0643A780724F3B9
:1026E00002C0222329F08C8D9D8D845A94402CF0B9
:1026F0008FEF9FEF9D8F8C8F1E8E8E010F5D1F4F72
:10270000EC81FD81A081B18118962D913C911997A2
:10271000CF01B801F9010995882391F3DF91CF9199
:102720001F910F910895CF92DF92EF92FF920F9336
:102730001F93DF93CF93CDB7DEB762970FB6F894B0
:10274000DEBF0FBECDBF7C016B01DC011696ED91A3
:10275000FC911797309709F4DFC08085882309F42E
:10276000DBC0CB010E944A20882309F464C0198A87
:10277000188A1A8A1A861B861C861D861E861F8644
:10278000C601BE01665F7F4F0E94B61ED701169636
:10279000ED91FC911797288939892115310541F070
:1027A00086819781009721F028173907F9F0B4C086
:1027B0009A858081981709F0AFC09B858181981711
:1027C00009F0AAC09C858281981709F0A5C09D8553
:1027D0008381981709F0A0C09E858481981709F01D
:1027E0009BC09F858581981709F096C0F701878D5A
:1027F00087FF92C0848D958D97FF8EC0178E1886A7
:102800001F82198619821A821B821C821D821E82D7
:10281000C6018E010F5F1F4FB8010E947C1BD701BC
:1028200016966D917C911797C7018196A8010E9419
:10283000632081E072C0C6010E940F20882309F442
:102840006BC018861F82198619821A821B821C820D
:102850001D821E82C601BE016F5F7F4F0E94B61EA1
:10286000D7011696ED91FC9117972F813885211588
:10287000310541F086819781009721F028173907AB
:10288000D9F04AC099818081981709F045C09A8192
:102890008181981709F040C09B8182819817E1F5EA
:1028A0009C8183819817C1F59D8184819817A1F53A
:1028B0009E818581981781F5F701878D87FF2CC050
:1028C000848D958D97FF28C0198A188A1A8A1A86CE
:1028D0001B861C861D861E861F868E01065F1F4F67
:1028E000C601B8010E947C1BD70116966D917C91A0
:1028F0001797C7018196A8010E94282088E0F70158
:1029000086A385ED81A788E182A713A614A615A644
:1029100016A681E0808701C080E062960FB6F89429
:10292000DEBF0FBECDBFCF91DF911F910F91FF9002
:10293000EF90DF90CF900895FC014487558766871C
:1029400077870895FC01818D862B818F08950F93E1
:102950001F938C01FC0162871386808D61E00E94C9
:102960000038F801808D62850E942C38F8011086AD
:10297000148A158A168A178A108A118A128A138A6B
:10298000138E1F910F910895FC0142871386608F6B
:10299000642F0E94A7140895AF92BF92CF92DF9246
:1029A000EF92FF920F931F93CF93DF93EC010E945E
:1029B0004B37D62EC72EB82EA92EE62EF72E97010E
:1029C000207E8E819F812817390709F449C03F83F3
:1029D0002E83888D60E00E940038888D61E00E941F
:1029E0002C380A851B85888D0E944E381986081759
:1029F000190711F481E08987888D61E00E94003811
:102A0000888D6A8D0E942C3899858885981711F0D9
:102A1000988726C08B8D8917A9F09B8F8889998903
:102A2000AA89BB898096A11DB11D8C8B9D8BAE8B15
:102A3000BF8BD882C982BA82AB82188A198A1A8A55
:102A40001B8A0EC00E944B37288139814A815B81E5
:102A5000621B730B840B950B688B798B8A8B9B8B1A
:102A60009701207C30708C819D812817390799F15E
:102A70003D832C838C852A853B8580FF0FC080E0B9
:102A8000232B09F081E08A8F8C859D85AE85BF85DB
:102A9000B595A79597958795B0680DC080E0232BD5
:102AA00009F481E08A8F8C859D85AE85BF85B695BA
:102AB000A795979587958C879D87AE87BF87898DCA
:102AC00080FD1A8E898D90E095958795898F888DE8
:102AD0006A8D0E942C38DF91CF911F910F91FF904A
:102AE000EF90DF90CF90BF90AF900895F999FECF0F
:102AF00072BD61BDF89A80B50895F999FECF72BD97
:102B000061BD40BD0FB6F894FA9AF99A0FBE0895C8
:102B1000EF92FF920F931F93CF93DF93AC01EB01E2
:102B20003881BC01DC0120E01796ED91FC911897EB
:102B30008081831709F0B2C091818981981709F0CB
:102B4000ADC092818A81981709F0A8C093818B81CA
:102B5000981709F0A3C094818C81981709F09EC042
:102B600095818D81981709F099C09EC01886FA0149
:102B700020E030E08185813071F4F901A4E0EE0FAE
:102B8000FF1FAA95E1F7E20FF31F3796E40FF51F39
:102B9000309719F506C02F5F3F4F71962A303105E7
:102BA00049F720E030E0FB018185882371F4F901C9
:102BB00064E0EE0FFF1F6A95E1F7E20FF31F37960F
:102BC000E40FF51F309749F407C02F5F3F4F6F5E4A
:102BD0007F4F2A30310539F7FFCFD183C0838381FE
:102BE0009481009721F09F838E8387E055C0E88011
:102BF000FF2400E010E08701FF24EE24898190E0AB
:102C0000A0E0B0E0BA2FA92F982F8827E82AF92A48
:102C10000A2B1B2B8A8190E0A0E0B0E0E82AF92A79
:102C20000A2B1B2B2B8130E040E050E0A901332719
:102C300022278C8190E0A0E0B0E0BA2FA92F982F36
:102C40008827282B392B4A2B5B2B8D8190E0A0E025
:102C5000B0E0282B392B4A2B5B2BC9018E259F25F1
:102C60007CE016950795F794E7947A95D1F78E2531
:102C70009F256CE056954795379527956A95D1F72E
:102C8000822793279F7094838383892B21F481E08B
:102C900090E09483838382E0828306C02F5F519605
:102CA0002A3009F041CF62CFDF91CF911F910F9170
:102CB000FF90EF9008956F927F928F929F92AF92C4
:102CC000BF92CF92DF92EF92FF920F931F93CF9319
:102CD000DF93EB01E881F981309709F010866B8171
:102CE0007C81ED84FE840F851889A8019701FFE09F
:102CF0005695479537952795FA95D1F731704070DD
:102D00005070A984BA84CB84DC84D601C501E9E083
:102D1000880F991FAA1FBB1FEA95D1F7282B392BC3
:102D20004A2B5B2BD801C701F9E0880F991FAA1F16
:102D3000BB1FFA95D1F7B070E9EA6E2EEBE47E2E58
:102D4000EAE78E2E912CE60CF71C081D191D8E0D3E
:102D50009F1DA01FB11FF3EAEF2EFCE0FF2EFBE149
:102D60000F2F112DAE0CBF1CC01ED11E2A0D3B1DF6
:102D70004C1D5D1D5070EB2EFF24002711272E29BE
:102D80003F29402B512B29873A874B875C87B070AE
:102D90008D879E87AF87B88B79018A014CE01695A5
:102DA0000795F794E7944A95D1F7AC014E255F2536
:102DB000422753271CE0B695A795979587951A95B6
:102DC000D1F7482759275F705C834B834115510524
:102DD00009F487CF4617570709F483CF8FE08A831A
:102DE000DF91CF911F910F91FF90EF90DF90CF90E7
:102DF000BF90AF909F908F907F906F9008950F93AA
:102E00001F93CF93DF938C01DB0116964D915C915C
:102E10001797EC0120E030E0EF81F885411551056E
:102E200041F086819781009721F048175907A9F54D
:102E300022C09C918081981781F511969C911197E1
:102E40008181981751F512969C911297828198175B
:102E500021F513969C91139783819817F1F414969A
:102E60009C91149784819817C1F415969C9115979D
:102E70008581981791F4F901A4E0EE0FFF1FAA9540
:102E8000E1F7E20FF31FE00FF11F8FE0818707806A
:102E9000F085E02D108681E008C02F5F3F4F6196DE
:102EA0002A30310509F0B8CF80E0DF91CF911F9132
:102EB0000F910895CF93DF93AC01FB01EC0120E06B
:102EC00030E08A859B85892B09F44CC0AF81B88599
:102ED00060818C91681709F041C0918111968C91A5
:102EE00011979817D9F5928112968C91129798178D
:102EF000A9F5938113968C911397981779F594817E
:102F000014968C911497981749F5958115968C9184
:102F1000981721F511C0662329F58181882311F5C1
:102F200082818823F9F483818823E1F484818823D2
:102F3000C9F485818823B1F4F90184E0EE0FFF1F05
:102F40008A95E1F7E20FF31FE40FF51F67817085A3
:102F5000FA01818192810E9472250BC0868197813E
:102F6000892BC9F22F5F3F4F61962A30310509F056
:102F7000A8CFDF91CF910895AF92BF92CF92DF9209
:102F8000EF92FF920F931F93DF93CF93CDB7DEB7EE
:102F900029970FB6F894DEBF0FBECDBF7C016B0141
:102FA000CB010E94501D882309F48BC0D6011596D1
:102FB0008C91863009F05CC018861F8219861982B0
:102FC0001A821B821C821D821E82C601BE016F5F97
:102FD0007F4F0E94732187013AEAA32EB12CAE0CD9
:102FE000BF1CF80182859385892BD9F147815085D3
:102FF00041155105B1F1DA0118968C911897882383
:1030000081F199818C91981761F59A8111968C9133
:103010001197981731F59B8112968C9112979817FA
:1030200001F59C8113968C9113979817D1F49D818B
:1030300014968C9114979817A1F49E8115968C91F3
:10304000981779F4D7011196ED91FC911297A08110
:10305000B1811A962D913C911B97CF01BA01F901CC
:1030600009950F5E1F4F0A151B0509F0BACF29C03D
:1030700087012AEAA22EB12CAE0CBF1CF801828572
:103080009385892BC9F04781508541155105A1F0E1
:10309000DA0118968C91882379F0D7011196ED9179
:1030A000FC911297A081B1811A962D913C911B97AA
:1030B000CF01BA01F90109950F5E1F4F0A151B05D3
:1030C000E9F6C6010E94691D882359F1C6010E94D4
:1030D000501E5C0187019AEAC92ED12CCE0CDF1C50
:1030E000F80147815085DA0118968C918823A1F068
:1030F000828593858A159B0579F4D7011196ED9108
:10310000FC911297A081B1811A962D913C911B9749
:10311000CF01BA01F90109950F5E1F4F0C151D056E
:10312000F9F629960FB6F894DEBF0FBECDBFCF914A
:10313000DF911F910F91FF90EF90DF90CF90BF90A4
:10314000AF9008950F931F938C01FC0172836183EC
:103150000E944B37F80163837483858396831F91A4
:103160000F910895FF920F931F93CF93DF938C01DC
:10317000EC01888190E0EC0134E0CC0FDD1F3A9542
:10318000E1F7C80FD91FC00FD11FF984E6E0FE1682
:1031900009F4EFC0EF15A0F0F3E0FF1609F493C0B7
:1031A000FF1528F022E0F21609F0CBC14CC084E0F4
:1031B000F81609F49EC0E5E0FE1609F0C2C1B1C0E0
:1031C000FFE0FF16A1F0FF1548F027E0F21609F422
:1031D00067C188E0F81609F0B4C17BC1E4E1FE16CE
:1031E00009F410C1F9E1FF1609F0ABC138C18F81B4
:1031F0009885892B11F082E001C081E08987E80180
:10320000888190E0FC0124E0EE0FFF1F2A95E1F792
:10321000E80FF91FE00FF11F6781708589819A819E
:103220000E948C25882309F08CC1888190E0FC01E4
:10323000B4E0EE0FFF1FBA95E1F7E80FF91FE00FBA
:10324000F11F8FE03EC0EF81F8852A853B8586819E
:1032500097818217930711F037832683F8018081C5
:1032600090E0FC01A4E0EE0FFF1FAA95E1F7E80F44
:10327000F91FE00FF11F83E08187E801888190E06A
:10328000FC0174E0EE0FFF1F7A95E1F7E80FF91FDC
:10329000E00FF11F6781708589819A8141E00E946A
:1032A000872A882309F04DC1888190E0FC0164E001
:1032B000EE0FFF1F6A95E1F7E80FF91FE00FF11F0E
:1032C00082E081873EC184E08987F801808190E0B7
:1032D000FC0154E0EE0FFF1F5A95E1F7E80FF91FCC
:1032E000E00FF11F67817085E80189819A8142E0D2
:1032F00015C085E08987F801808190E0FC0144E0F9
:10330000EE0FFF1F4A95E1F7E80FF91FE00FF11FDD
:1033100067817085E80189819A8143E00E94872A4C
:10332000D4C00E944B376C877D878E879F87F801BA
:10333000808190E0FC0134E0EE0FFF1F3A95E1F749
:10334000E80FF91FE00FF11F86E08187E80188810F
:1033500090E0FC0124E0EE0FFF1F2A95E1F7E80F53
:10336000F91FE00FF11F6781708589819A8144E020
:10337000D5CF0E944B37F801208130E0F901B4E04D
:10338000EE0FFF1FBA95E1F7E20FF31FE00FF11FF9
:103390002485358546855785621B730B840B950BF9
:1033A000645F71408040904008F4CBC08781908575
:1033B000892B11F087E001C081E08187E8018881D5
:1033C00090E0FC01A4E0EE0FFF1FAA95E1F7E80FE3
:1033D000F91FE00FF11F6781708589819A810E9432
:1033E0006C2A882309F0ADC0888190E0FC0174E06C
:1033F000EE0FFF1F7A95E1F7E80FF91FE00FF11FBD
:1034000086E05FCF8F819885892B11F08EE101C016
:1034100081E08987F801808190E0FC0164E0EE0F93
:10342000FF1F6A95E1F7E80FF91FE00FF11F6781B1
:103430007085E80189819A810E946C2A882309F0AD
:1034400080C0888190E0FC0154E0EE0FFF1F5A9588
:10345000E1F7E80FF91FE00FF11F84E132CF8EE1B1
:103460008987F801A181B2812D913C9111978081CA
:1034700090E0FC0144E0EE0FFF1F4A95E1F7E80FF2
:10348000F91FE00FF11F67817085E901EA85FB856F
:10349000CD010995882309F054C0F801808133C01B
:1034A00088E08987E801888190E0FC0174E0EE0FF4
:1034B000FF1F7A95E1F7E80FF91FE00FF11F678111
:1034C000708589819A810E9472258823D1F588812F
:1034D0001AC08EE18987F801808190E0FC0164E0E8
:1034E000EE0FFF1F6A95E1F7E80FF91FE00FF11FDC
:1034F00067817085E80189819A810E94522A9881AA
:10350000882371F4892F90E0FC0154E0EE0FFF1F37
:103510005A95E1F7E80FF91FE00FF11FF18611C08E
:10352000892F90E0FC0144E0EE0FFF1F4A95E1F780
:10353000E80FF91FE00FF11F0780F085E02D81E013
:103540008087F801808190E001966AE070E00E9437
:10355000BE3C8083DF91CF911F910F91FF90089522
:103560009F92AF92BF92CF92DF92EF92FF920F9312
:103570001F93CF93DF937C01EB01CB010E943E1B95
:103580005C01670100E010E054E1952EF6018285B0
:103590009385A816B90609F050C08185873038F4A4
:1035A0008330C8F4813079F1823068F408C0883003
:1035B00051F18830A0F08E3109F03FC024C0F601EF
:1035C000138612863AC088A1882329F0CE010E9472
:1035D000871C882391F5CE010E943F1C1DC088A145
:1035E000882329F4CE010E943F1C8823B9F088A1CA
:1035F000882319F1CE010E943F1C8823F1F4CE01EB
:103600000E946E1C09C0CE010E943F1C882319F045
:10361000F601918612C088A1882379F4B80144E0AC
:10362000660F771F4A95E1F7600F711F695F7F4F43
:103630006E0D7F1DC7010E945B160F5F1F4F81E15A
:1036400090E0C80ED91E0A30110509F09FCFDF9116
:10365000CF911F910F91FF90EF90DF90CF90BF908F
:10366000AF909F9008959C012A5F3F4FC901089534
:10367000FC0185810895FC0165830895FC0120818A
:1036800031813F70C90108950F931F93FC01DB0145
:1036900016960D911C911797980140E050E03F70ED
:1036A0004070507080819181A281B3818070907F41
:1036B000BF71282B392B4A2B5B2B2083318342830C
:1036C0005383158B048BDB018C91868711968C912B
:1036D0001197878712968C911297808B13968C91F5
:1036E0001397818B14968C911497828B15968C91DD
:1036F000838B1F910F910895FC01DB0184899589CB
:10370000892B91F48685882379F48785882361F451
:103710008089882349F48189882331F48289882328
:1037200019F483898823F9F0808191819F70958BAA
:10373000848B17969C938E93169786858C9387859A
:1037400011968C931197808912968C931297818988
:1037500013968C931397828914968C93149783896C
:1037600015968C930895158A148A168A16861786DC
:10377000108A118A128A138AD7CF1F93FC012081E5
:10378000318142815381DA01C90180709070A0704B
:10379000B77080509040A040B14051F4858188239B
:1037A00011F482E08583CB019F709683678318C0F4
:1037B000CB01A0E0B0E06CE0880F991FAA1FBB1FEF
:1037C0006A95D1F78070907FB0703F7040705F71E4
:1037D000822B932BA42BB52B80839183A283B3835D
:1037E0001F910895FB01668177810E94BD1B08959A
:1037F000FC0120813181428153812070307F5070E3
:10380000BCE05695479537952795BA95D1F7C901EC
:1038100008950F931F93CF93DF938C01DA01EC018E
:1038200018A2EC81E260EE7FEC83709561957F4F8A
:1038300067707070762F66277295707FBF706A2BE5
:103840007B2B80E090E0ECE0660F771F881F991FCC
:10385000EA95D1F740E050E03F7040705070506101
:10386000622B732B842B952BF801608371838283E9
:1038700093831582DF91CF911F910F910895FC01E1
:1038800080819181A281B381B3FF02C020E011C089
:1038900020E08070907FB7703CE0B695A795979533
:1038A00087953A95D1F7807090778050904408F0D2
:1038B00021E0822F0895FC0110A2248122602E7F36
:1038C000248380E090E07F708070907080679061CA
:1038D000608371838283938315820895FC01208124
:1038E00031814281538153FF02C080E0089580E01E
:1038F0002070307F57706CE0569547953795279527
:103900006A95D1F72050374009F481E00895FC0111
:10391000208131814281538153FF02C080E00895AC
:1039200080E02070307F57707CE056954795379542
:1039300027957A95D1F72350374009F481E008950F
:10394000FC01208131814281538153FF02C080E01C
:10395000089580E02070307F5770ECE056954795D1
:1039600037952795EA95D1F72150374009F481E042
:103970000895FC01208131814281538153FF02C0AF
:1039800080E0089580E02070307F5070FCE0569514
:10399000479537952795FA95D1F72250374009F486
:1039A00081E00895CF92DF92EF92FF920F931F93E1
:1039B0007C01FB01690186819781F70110A22481B6
:1039C00022602E7F24831582A0E0B0E09F70A0705B
:1039D000B0709068A660B96180839183A283B3833D
:1039E000FA0166817781C7010E94BD1B86E0F7015D
:1039F0008583FFE0DF22F701D086C1861287038727
:103A00001F910F91FF90EF90DF90CF900895FC01F0
:103A1000208131814281538153FD02C080E00895AD
:103A200080E02070307F50709CE056954795379528
:103A300027959A95D1F7245B354009F481E00895E4
:103A4000FC01208131814281538153FD02C080E01D
:103A5000089580E02070307F50706CE05695479557
:103A6000379527956A95D1F72459354009F481E0B7
:103A70000895AC01FB0186819781FA0110A224818F
:103A800022602E7F24831582A0E0B0E09F70A0709A
:103A9000B070A964B96180839183A283B3830895D0
:103AA000FC01208131814281538153FD02C080E0BD
:103AB000089580E02070307F5070ECE05695479577
:103AC00037952795EA95D1F72059344009F481E0DC
:103AD0000895FC01208131814281538153FD02C050
:103AE00080E0089580E02070307F5070FCE05695B3
:103AF000479537952795FA95D1F72858344009F41A
:103B000081E00895FC0180819181A281B381B3FDA0
:103B100002C080E008958070907FB0702CE0B69570
:103B2000A795979587952A95D1F7FC0184E0E03910
:103B3000F80711F481E0089580E0E858F44009F4B2
:103B400081E00895FC01208131814281538153FD40
:103B500002C080E0089580E02070307F50706CE0FB
:103B600056954795379527956A95D1F72057314057
:103B700009F481E00895FC01208131814281538163
:103B800053FD02C080E0089580E02070307F5070C7
:103B90007CE056954795379527957A95D1F7245F20
:103BA000384009F481E00895FC012081318142818F
:103BB000538153FD02C080E0089580E02070307F83
:103BC0005070FCE05695479537952795FA95D1F7B3
:103BD0002451394009F481E00895FC0120813181AC
:103BE0004281538153FD02C080E0089580E020703F
:103BF000307F50707CE056954795379527957A959C
:103C0000D1F72856394009F481E00895FC018081FC
:103C10009181A281B381B3FD02C080E008958070DC
:103C2000907FB070ECE0B695A79597958795EA954B
:103C3000D1F7FC0189E0E037F80711F481E008953D
:103C400080E0E856F94009F481E00895FC018081A4
:103C50009181A281B381B3FD02C080E0089580709C
:103C60009070A070B7702B2F332744275527223030
:103C700031054105510591F02330310541055105CC
:103C800069F0243031054105510541F080E02530CF
:103C900031054105510519F481E0089581E0089549
:103CA000AF92BF92CF92DF92EF92FF920F931F934A
:103CB000FC01E080F1800281138113FF4BC0D80129
:103CC000C70180709070A070B770AB2EBB24CC245D
:103CD000DD2481E0A816B104C104D104F9F480E028
:103CE00090EFAFEFB0E0E822F9220A231B23BCE0FB
:103CF00016950795F794E794BA95D1F7C7018870A0
:103D00009070892B39F18581823020F1968180E095
:103D1000278130E0282B392B3F701EC0CF010E9435
:103D2000261E882331F497E0A916B104C104D104FA
:103D300089F480E090EFAFEFB0E0E822F9220A23A7
:103D40001B23ACE016950795F794E794AA95D1F755
:103D5000970102C020E030E0C9011F910F91FF9050
:103D6000EF90DF90CF90BF90AF9008950F931F9387
:103D70008B010E94501EF801868397831F910F913B
:103D80000895FC01208131814281538153FD02C09D
:103D900080E0089580E020703070407057702050AF
:103DA00030404040554009F481E00895FC012081F5
:103DB00031814281538153FD02C080E0089580E04B
:103DC0002070307040705770205030404040534059
:103DD00009F481E00895FC01208131814281538101
:103DE00053FD02C080E0089580E020703070407084
:103DF0005770205030404040524009F481E008950F
:103E00000F931F938C01FB0186819781F80110A20B
:103E1000248122602E7F24831582A0E0B0E09F7071
:103E2000A070B070BA6180839183A283B383FA01DA
:103E300066817781C8010E94BD1B1F910F91089573
:103E40000F931F938C01FB0186819781F80110A2CB
:103E5000248122602E7F24831582A0E0B0E09F7031
:103E6000A070B070BB6180839183A283B383FA0199
:103E700066817781C8010E94BD1B1F910F91089533
:103E80000F931F938C01FB0186819781F80110A28B
:103E9000248122602E7F24831582A0E0B0E09F70F1
:103EA000A070B070BC6180839183A283B383FA0158
:103EB00066817781C8010E94BD1B1F910F910895F3
:103EC0000F931F938C01FB0186819781F80110A24B
:103ED000248122602E7F24831582A0E0B0E09F70B1
:103EE000A070B070BD6180839183A283B383FA0117
:103EF00066817781C8010E94BD1B1F910F910895B3
:103F0000FC01208131814281538153FD02C080E058
:103F1000089580E02070307F50706CE05695479592
:103F2000379527956A95D1F728523A4009F481E0F0
:103F300008950F931F938C01FB0186819781F801EF
:103F400010A2248122602E7F24831582A0E0B0E09D
:103F50009F70A070B0709068A26AB96180839183ED
:103F6000A283B383FA0166817781C8010E94BD1BD9
:103F70001F910F910895FC0120813181428153816D
:103F800053FD02C080E0089580E02070307F5070C3
:103F90007CE056954795379527957A95D1F7285423
:103FA0003A4009F481E00895EF92FF920F931F9336
:103FB0008C01FB01790186819781F80110A224818F
:103FC00022602E7F24831582A0E0B0E09F70A07055
:103FD000B0709068A46AB96180839183A283B3832F
:103FE000FA0166817781C8010E94BD1B84E0F80157
:103FF0008583F086E1861F910F91FF90EF900895E1
:10400000FC018581843018F420E030E006C0908502
:1040100080E0218530E0282B392BC9010895FC016F
:10402000208131814281538153FD02C080E0089597
:1040300080E02070307F5070ECE0569547953795C2
:104040002795EA95D1F72852384009F481E0089580
:104050000F931F938C01FB0186819781F80110A2B9
:10406000248122602E7F24831582A0E0B0E09F701F
:10407000A070B0709068A666B96180839183A283B6
:10408000B383FA0166817781C8010E94BD1B1F912D
:104090000F910895FC01208131814281538153FDAC
:1040A00002C080E0089580E02070307F5070ACE066
:1040B0005695479537952795AA95D1F7285E3D40A7
:1040C00009F481E008950F931F938C01FB01868111
:1040D0009781F80110A2248122602E7F248315820B
:1040E000A0E0B0E09F70A070B0709068A06AB96165
:1040F00080839183A283B383FA0166817781C801AB
:104100000E94BD1B1F910F9108950F931F938C0167
:10411000FB0186819781F80110A2248122602E7F05
:1041200024831582A0E0B0E09F70A070B07090680A
:10413000AE65B96180839183A283B383FA016681FE
:104140007781C8010E94BD1B1F910F910895DC016A
:104150001696FB0188E001900D928150E1F70895D9
:104160000F931F938C01FB0186819781F80110A2A8
:10417000248122602E7F2483A0E0B0E09F70A07095
:10418000B0709067A465B96180839183A283B38383
:1041900088E08583C801BA010E94A7201F910F9172
:1041A00008950F931F938C01FB0186819781F8017D
:1041B00010A2248122602E7F2483A0E0B0E09F70B3
:1041C000A070B0709067AC64B96180839183A28362
:1041D000B38388E08583C801BA010E94A7201F919C
:1041E0000F9108950F931F938C01FB018681978196
:1041F000F80110A2248122602E7F2483A0E0B0E089
:104200009F70A070B0709064A965B961808391833C
:10421000A283B38388E08583C801BA010E94A720E6
:104220001F910F9108950F931F938C01FB018681BD
:104230009781F80110A2248122602E7F2483A0E0C0
:10424000B0E09F70A070B0709064AB65B96180837E
:104250009183A283B38388E08583C801BA010E9459
:10426000A7201F910F910895FC01DB0116968D91F7
:104270009C91179710A2248122602E7F2483A0E0B6
:10428000B0E09F70A070B070A761B9618083918326
:10429000A283B38386E085833696DB010D9001927D
:1042A0008150E1F70895FC01DB0116968D919C91F8
:1042B000179710A2248122602E7F2483A0E0B0E013
:1042C0009F70A070B070A964B96180839183A2834C
:1042D000B38386E085833696DA0186E00D900192FD
:1042E0008150E1F708958F929F92AF92BF92CF9243
:1042F000DF92EF92FF920F931F93CF93DF93EC0126
:10430000962E872E8D81863008F48BC0E880F98048
:104310000A811B81A12CB12CC12C68E0D62EAE20C5
:10432000BF20C022D12213FF76C0D801C701807000
:10433000907FB0705CE0B695A795979587955A9554
:10434000D1F78050914009F066C043C0A114B10478
:10435000C104D10489F0D801C7018070907FB0708A
:104360004CE0B695A795979587954A95D1F78057D4
:10437000914009F056C02DC0D801C7018070907FD0
:10438000B7703CE0B695A795979587953A95D1F784
:10439000A7E081309A0779F18350974061F180E07E
:1043A00090EFAFEFB0E0E822F9220A231B232CE0C4
:1043B00016950795F794E7942A95D1F792E0E916B8
:1043C00097E0F90671F517C0A114B104C104D10436
:1043D00091F0D801C70180709070A070B7708050C4
:1043E0009040A040B14039F4C70180709078892B8B
:1043F00011F082E001C080E0E82FF0E03696892DD0
:10440000982D9C01D901EC0FFD1F86E001900D92C3
:104410008150E1F706C0CE010E94821D8823A1F6DB
:1044200095CFDF91CF911F910F91FF90EF90DF908B
:10443000CF90BF90AF909F908F900895DB01FC01CB
:10444000369688E001900D928150E1F70895FC01C5
:10445000DB0116968D919C91179710A22481226002
:104460002E7F2483A0E0B0E09F70A070B070A061A8
:10447000B96180839183A283B38386E08583369676
:10448000DB010D9001928150E1F70895FC01DB0101
:1044900016968D919C91179710A2248122602E7FF1
:1044A0002483A0E0B0E09F70A070B0709061A0671E
:1044B000B06180839183A283B38386E0858336963F
:1044C000DB010D9001928150E1F70895FC01DB01C1
:1044D00016968D919C91179710A2248122602E7FB1
:1044E0002483A0E0B0E09F70A070B0709063A067DC
:1044F000B06180839183A283B38386E085833696FF
:10450000DB010D9001928150E1F70895CF93DF9385
:10451000EC01DB01788160E040E050E04DC0E981D2
:10452000FA81E40FF51F268137812115310551F0FD
:1045300016968D919C911797009721F028173907AF
:10454000C1F522C090818C91981799F591811196AF
:104550008C911197981769F5928112968C91129708
:10456000981739F5938113968C911397981709F53D
:10457000948114968C9114979817D9F49581159677
:104580008C9115979817A9F4EB81FC81E60FF11D2A
:1045900080818F3F11F08F5F8083E981FA81E40F82
:1045A000F51F8681978117969C938E93169781E0CD
:1045B00007C06F5F475F5F4F671708F4B0CF80E0B9
:1045C000DF91CF91089580E00895DF93CF93CDB729
:1045D000DEB729970FB6F894DEBF0FBECDBFDC0162
:1045E000198681E089838A831B821C821D821E8238
:1045F0008EEF8F831886ED91FC9111970288F389D5
:10460000E02DCD01AE014F5F5F4F099529960FB6A2
:10461000F894DEBF0FBECDBFCF91DF910895FC01AE
:10462000E65FFE4F80810895FC01E65FFE4F108239
:1046300008950F931F93CF93DF93EC010E940935E8
:104640008823A9F08E010C5F1F4FC8010E94FE3520
:104650008823D9F3DE019596FE01349681E201901C
:104660000D928150E1F7CB5BDF4F81E08883DF91D2
:10467000CF911F910F9108950F931F93CF93DF93C5
:10468000EC01162F072F0E940935882389F0DE01DF
:104690001496812F902F9C01F90181E201900D92D7
:1046A0008150E1F7CE010E9419238823D9F381E0DC
:1046B000DF91CF911F910F9108950F931F93CF9387
:1046C000DF93DC018B017C9160E040E050E02BC087
:1046D000EA0129961196ED91FC911297E40FF51FCE
:1046E00026813781F8018681978128173907C9F417
:1046F0001396ED91FC911497E60FF11D80818F3F89
:1047000011F08F5F80831196ED91FC911297D80183
:10471000E40FF51F86E001900D928150E1F781E0F2
:1047200005C06F5FAE01671798F280E0DF91CF910F
:104730001F910F910895EF92FF920F931F93CF93C4
:10474000DF93EC01DB0116960D911C911797011573
:10475000110509F460C0E8805FEFFF2440E020E02D
:1047600030E03DC0642F70E0FC01E20FF31F868152
:104770009781009721F08017910719F54CC090811F
:104780008C919817F1F4918111968C91119798174B
:10479000C1F4928112968C911297981791F493819B
:1047A00013968C911397981761F4948114968C91B9
:1047B0001497981731F4958115968C911597981741
:1047C00051F1EB81FC81E60FF71FE081E51710F056
:1047D000E52F01C0F42E4F5F275F3F4F5E2F898189
:1047E0009A814E1508F4BECF2F2D30E0F90143E039
:1047F000EE0FFF1F4A95E1F7E20FF31FE80FF91FD5
:1048000089E00D9001928150E1F7EB81FC81E20F8C
:10481000F31F81E08083DF91CF911F910F91FF9073
:10482000EF900895EF92FF920F931F937C018B01FD
:104830000E944533F80166817781C7018A5B9F4FEB
:104840000E94FF161F910F91FF90EF900895EF9235
:10485000FF920F931F937C018B010E943833F80164
:1048600066817781C7018A5B9F4F0E9488151F91DF
:104870000F91FF90EF9008956F927F928F929F9289
:10488000AF92BF92CF92DF92EF92FF920F931F935E
:10489000CF93DF93EC013B014A01580169010E946B
:1048A00009358823C1F1F40186819781892B99F418
:1048B000CE0189509F4FB4010E948622882359F46B
:1048C000E881F9810484F585E02DCE01B301A401CE
:1048D000099580E020C08E010C5F1F4FC801B30115
:1048E000A4010E94852081E08C87C601AA27BB27EE
:1048F0008D87BB27AD2D9C2D8B2D8E87AF86F88A9B
:10490000E98AC80168E00E943B1BCE010E9419237E
:104910008823D9F381E0DF91CF911F910F91FF9010
:10492000EF90DF90CF90BF90AF909F908F907F904F
:104930006F900895AF92BF92CF92DF92EF92FF9265
:104940000F931F93CF93DF93EC016B017A01B22E8B
:10495000A32E0E940935882339F481E897E066EB9D
:1049600072E00E948C3C16C0F70186819781892BEA
:1049700099F4CE0189509F4FB7010E948622882367
:1049800059F4E881F9810484F585E02DCE01B60162
:10499000A701099580E01BC08E010C5F1F4FC80165
:1049A000B601A7010E9485201C86BD86AE86C8017F
:1049B00065E00E943B1BCE010E9419238823D9F396
:1049C00081E897E066EC72E00E948C3C81E0DF9128
:1049D000CF911F910F91FF90EF90DF90CF90BF90FC
:1049E000AF900895EF92FF920F931F93CF93DF93B1
:1049F0007C01EB018A010E940935882361F0C7011F
:104A00000496BE01A8010E94B020C7010E9419238C
:104A10008823D9F381E0DF91CF911F910F91FF900F
:104A2000EF900895EF92FF920F931F93CF93DF9330
:104A30007C01EB018A010E940935882361F0C701DE
:104A40000496BE01A8010E94F220C7010E9419230A
:104A50008823D9F381E0DF91CF911F910F91FF90CF
:104A6000EF900895EF92FF920F931F93CF93DF93F0
:104A70007C01EB018A010E940935882361F0C7019E
:104A80000496BE01A8010E94D120C7010E941923EB
:104A90008823D9F381E0DF91CF911F910F91FF908F
:104AA000EF900895EF92FF920F931F93CF93DF93B0
:104AB0007C01EB018A010E940935882361F0C7015E
:104AC0000496BE01A8010E941321C7010E94192368
:104AD0008823D9F381E0DF91CF911F910F91FF904F
:104AE000EF9008950F931F93CF93DF938C01EB0109
:104AF0000E940935882359F0C8010496BE010E941E
:104B00004622C8010E9419238823D9F381E0DF914E
:104B1000CF911F910F9108950F931F93CF93DF9320
:104B20008C01EB010E940935882359F0C8010496D5
:104B3000BE010E946622C8010E9419238823D9F36E
:104B400081E0DF91CF911F910F9108950F931F93F3
:104B5000CF93DF938C01EB010E940935882359F034
:104B6000C8010496BE010E943421C8010E94192385
:104B70008823D9F381E0DF91CF911F910F910895A0
:104B8000CF92DF92EF92FF920F931F93CF93DF9319
:104B90006C01EB018A0179010E940935882369F0D3
:104BA000C6010496BE01A80197010E94D41FC60148
:104BB0000E9419238823D9F381E0DF91CF911F91BF
:104BC0000F91FF90EF90DF90CF900895EF92FF92BA
:104BD0000F931F93CF93DF937C01EB018A010E9417
:104BE0000935882361F0C7010496BE01A8010E941F
:104BF000991FC7010E9419238823D9F381E0DF910F
:104C0000CF911F910F91FF90EF9008950F931F93F5
:104C1000CF93DF93EC018B01CE5FDE4F88819981CA
:104C2000C250D140892B51F5C450DF4F8881CC5FF1
:104C3000D040882319F5C350DF4F8881CD5FD04025
:104C40008823E1F4C250DF4F8881CE5FD0408823B3
:104C5000A9F4C150DF4F8881CF5FD040882371F421
:104C6000C050DF4F8881C050D140882339F4CF5FD6
:104C7000DE4F8881C150D140882371F10E944B37AB
:104C8000CB5FDE4F288139814A815B81C550D1409D
:104C9000621B730B840B950B605D774080409040E6
:104CA000D8F414C0CE010496B8010E94391DCE017B
:104CB0000E9419238823D9F30E944B37CB5FDE4F24
:104CC000688379838A839B8381E001C080E0DF91E0
:104CD000CF911F910F9108950E9409358823B1F358
:104CE000E1CFEF92FF920F931F93CF93DF93EC01ED
:104CF0008B01F42EE52ECE5FDE4F88819981C25064
:104D0000D140892B59F5C450DF4F8881CC5FD0400A
:104D1000882321F5C350DF4F8881CD5FD0408823A1
:104D2000E9F4C250DF4F8881CE5FD0408823B1F4D0
:104D3000C150DF4F8881CF5FD040882379F4C050C5
:104D4000DF4F8881C050D140882341F4CF5FDE4FD0
:104D50008881C150D140882309F43EC00E944B375E
:104D6000CB5FDE4F288139814A815B81C550D140BC
:104D7000621B730B840B950B605D77408040904005
:104D800058F522C0DE01A450BF4F8F2D9E2D9C01EF
:104D9000F90189E001900D928150E1F7CE0104966E
:104DA000B8014F2D5E2D0E945321CE010E94192380
:104DB0008823D9F30E944B37CB5FDE4F688379831A
:104DC0008A839B8381E001C080E0DF91CF911F91B6
:104DD0000F91FF90EF9008950E9409358823A1F369
:104DE000D1CFDF92EF92FF920F931F93CF93DF9378
:104DF0008C01EB01D42E8F859889892BC9F479E039
:104E0000E72EF12CEC0EFD1EC80189509F4FB70113
:104E10000E948622882361F4D801ED91FC910484DC
:104E2000F585E02DC801BE01A7010995FF2450C0FA
:104E30008A89DD2091F4AE01475F5F4F98012C5FB6
:104E40003F4F893028F0C901BE010E94201F19C0C0
:104E5000C901BE010E94001F14C090E08D19910984
:104E6000AE01475F5F4F98012C5F3F4F09972CF0D1
:104E7000C901BE010E94401F04C0C901BE010E94B9
:104E8000601F4D2D50E08A8990E0841B950B89307E
:104E9000910514F088E090E0F82EF801818790E009
:104EA0004C0F5D1F0BC0E92FF0E0D801AE0FBF1F04
:104EB000E40FF51F83891A968C939F5FD80119968A
:104EC0008C91981780F3C8010E9419238823D9F385
:104ED0008F2DDF91CF911F910F91FF90EF90DF9079
:104EE00008952F923F924F925F926F927F928F928E
:104EF0009F92AF92BF92CF92DF92EF92FF920F9369
:104F00001F93DF93CF93CDB7DEB729970FB6F894F1
:104F1000DEBF0FBECDBF7C0118861F8219861982A5
:104F20001A821B821C821D821E828C010B5D1F4F08
:104F3000C8010E94821D882339F0C7018A5B9F4FF8
:104F4000B8010E94BC175DC1C8010E94A21D882340
:104F500009F46DC0C8013E010894611C711CB301C5
:104F60000E947C1BC801B3010E9473218F81988528
:104F7000892B09F446C11CEF212E312C2E0C3F1C2D
:104F80009981D1018C91981709F03DC1BDEF4B2E4D
:104F9000512C4E0C5F1C9A81F2018081981709F008
:104FA00032C1AEEF8A2E912C8E0C9F1C9B81D401B6
:104FB0008C91981709F027C1FFEFAF2EB12CAE0CE2
:104FC000BF1C9C81F5018081981709F01CC1C12C80
:104FD000E1E0DE2ECE0CDF1C9D81D6018C9198176E
:104FE00009F011C187010F5F1E4F9E81F80180817A
:104FF000981709F008C1C70189509F4FB3010E945B
:105000009B2382E091E0E80EF91ED7011D921D92CC
:10501000FD011082F1011082D2011C92F401108274
:10502000D5011C92F6011082D8011C92ECC0C80177
:105030000E94B91C882371F0C8018E010F5F1F4FB9
:10504000B8010E947321C7018A5B9F4FB8010E947B
:105050005A17D9C0C8010E94871C882309F45BC075
:10506000C801BE016F5F7F4F0E947C1BC8010E9478
:105070003E1BBC01E7EFF0E0EE0EFF1ED7015C9196
:10508000E9E0FFEFEE0EFF1E40E020E030E0D70148
:10509000A850BF4F25C0ED91FC911197E20FF31F6F
:1050A000275F3F4F8681978186179707C1F4178244
:1050B0001682108610821182128213821482158247
:1050C0008AEF90E0E80EF91ED701ED91FC9186E0A1
:1050D0009FEFE80EF91EE40FF11D108203C04F5F31
:1050E0004517C8F2D7011296ED90FC9013978E01E8
:1050F0000F5F1F4F0CC0D701ED91FC910480F5812B
:10510000E02DC701B8010995F701E280F380E114B1
:10511000F10489F778C0C8010E94A01C882309F413
:1051200070C0C801BE016F5F7F4F0E9473218F81E5
:105130009885892B99F48981882381F48A81882331
:1051400069F48B81882351F48C81882339F48D8113
:10515000882321F48E81882309F46FC0C8010E943E
:105160003E1B98878F83C70189509F4FBE016F5F99
:105170007F4F0E949B2347C0ED91FC911197E20F56
:10518000F31F275F3F4F8681978186179707C1F4EA
:105190001782168210861082118212821382148264
:1051A00015828AEF90E0E80EF91ED701ED91FC918F
:1051B00086E09FEFE80EF91EE40FF11D108203C098
:1051C0004F5F4517C8F2D7011296ED90FC901397E8
:1051D0006E010894C11CD11C10C0C801B6010E9408
:1051E0007C1BD701ED91FC910480F581E02DC70176
:1051F000B6010995F701E280F380E114F10469F743
:1052000002C080E001C081E029960FB6F894DEBFAD
:105210000FBECDBFCF91DF911F910F91FF90EF9007
:10522000DF90CF90BF90AF909F908F907F906F90C6
:105230005F904F903F902F900895C8010E943E1BB1
:10524000BC0187EF90E0E80EF91ED7015C91E9E020
:10525000FFEFEE0EFF1E40E020E030E0D701A85047
:10526000BF4FAFCFCF92DF92EF92FF920F931F937A
:10527000CF93DF936C018B01EA0179010E9409351C
:10528000882379F0C6010496B801AE01970100E0C9
:1052900010E00E94D21CC6010E9419238823D9F372
:1052A00081E0DF91CF911F910F91FF90EF90DF9000
:1052B000CF9008957F928F929F92AF92BF92CF929C
:1052C000DF92EF92FF920F931F93DF93CF93CDB7AF
:1052D000DEB729970FB6F894DEBF0FBECDBF6C01C5
:1052E00095E2892E912C8C0C9D1CC6018A5B9F4FE8
:1052F000B4010E94B01AC6010E947127882309F0E8
:105300008BC018861F82198619821A821B821C8202
:105310001D821E82C4018E010F5F1F4FB8010E94C3
:105320007C1B87EFE82EF12CEC0CFD1CC701B801AB
:105330000E945D23882321F0C401B8010E94441B10
:10534000C4018E010F5F1F4FB8010E94B61E892B4A
:1053500059F0C701B8010E945D23882371F0C40190
:10536000B8010E94F21B09C018861F821986198293
:105370001A821B821C821D821E82D60112960D91FA
:105380001C9113977724AA24BB2422C02F8138852F
:105390002115310559F0F801E680F780D7011696FE
:1053A0008D919C9117972817390709F07501D8013D
:1053B000ED91FC910280F381E02DC801B4010995C3
:1053C000882311F077247394F80102811381570127
:1053D00001151105D9F625E430E0C20ED31ED60121
:1053E0008C91EBEBFFEFCE0EDF1E8823A9F4A11406
:1053F000B10491F0772081F4C4018E010F5F1F4F3B
:10540000B8010E947C1BC4010E94F81B9C01C601CC
:10541000B501A8010E94322929960FB6F894DEBF83
:105420000FBECDBFCF91DF911F910F91FF90EF90F5
:10543000DF90CF90BF90AF909F908F907F90089516
:105440000F931F93CF93DF93EC018C010B5B1F4FE6
:10545000F8018081882329F0CE010E945A29F801A1
:105460001082CE0185960E946235882371F0CB5B55
:10547000DF4F1882C554D040CE010E945A29C65F22
:10548000DE4F81E08883CA50D140CE018A5B9F4FB6
:105490000E94B218CE010E946D33DF91CF911F910F
:1054A0000F9108950F931F93CF93DF938C01EB011E
:1054B0000E940935882359F0C8010496BE010E9454
:1054C0002722C8010E9419238823D9F381E0DF91A4
:1054D000CF911F910F9108950F931F93CF93DF9357
:1054E0008C01EB010E940935882361F06E817F8178
:1054F000C80104960E945B1CC8010E9419238823DE
:10550000D9F381E0DF91CF911F910F910895EF9230
:10551000FF921F93CF93DF937C01EB01142F0E9426
:105520000935882309F440C0123089F0133018F48B
:10553000113061F505C0133091F0143039F51CC0FD
:10554000898182958F70482F50E088810EC08981B3
:1055500090E08F709070582F44278A8114C08C81FE
:1055600082958F70482F50E08B8190E034E0880F57
:10557000991F3A95E1F708C08C8190E08F70907088
:10558000582F44278D8190E0482B592B2E813F8145
:10559000C7010496612F70E00E94091CC7010E9498
:1055A00019238823D9F381E0DF91CF911F91FF90D8
:1055B000EF900895EF92FF920F931F93CF93DF9395
:1055C000EC0184E00E94A234882309F45FC090E0DB
:1055D000892F8295807F8093ED008091F400816017
:1055E0008093F4009F5F9F3099F7CE018A5B9F4FB5
:1055F000BE010E94A21867EFE62EF12CEC0EFD1EF4
:105600008AE0F70180838AE590E00E9480038E01A2
:1056100008501F4FF80180839183F701808190E04B
:105620000E948003FE01E650FF4F8083918340E09B
:10563000B701D801EF0125C0242F30E0C90153E0A4
:10564000880F991F5A95E1F7820F931FED91FC91F6
:105650001197E80FF91F17821682108610821182A7
:105660001282138214821582ED91FC911197E80F3A
:10567000F91F17821682E881F981E20FF31F108269
:105680004F5FFB0180814817B8F281E0DF91CF9135
:105690001F910F91FF90EF90089580E090E00895A2
:1056A0000895CF93DF93EC01DB0188858823A1F572
:1056B000E889F98916962D913C91179721153105A6
:1056C00041F086819781009721F02817390711F161
:1056D00023C09C9180819817F9F411969C911197A1
:1056E00081819817C9F412969C911297828198171C
:1056F00099F413969C9113978381981769F41496E3
:105700009C9114978481981739F415969C91858102
:10571000981711F481E08887DF91CF9108950F9356
:105720001F93CF93DF93EC01EE81FF81309709F453
:105730009FC08085882309F49BC08D8D9E8D2FEF9F
:105740008F3F920761F18E010C5E1F4F805F9F4F6C
:1057500081F4AC81BD81ED91FC9111976E817F81C7
:105760000688F789E02DCD01A8010995882389F3E2
:1057700011C0AC81BD81ED91FC9111976E817F814B
:105780002D8D3E8D008CF18DE02DCD01A801099568
:10579000882379F38FEF9FEF9E8F8D8F69C08E8561
:1057A0008823C9F1AC81BD81ED91FC9111976A8983
:1057B0007B890488F589E02DCD014F850995182F47
:1057C000882309F048C00E944B372A853B854C85C9
:1057D0005D85621B730B840B950B69587341804088
:1057E0009040C8F181E089871E86E881F9810084B4
:1057F000F185E02DCE0160E041E050E12AC01E8637
:105800001F860E944B376A877B878C879D8730C0B5
:10581000410F4F872DC08985882351F50E944B3752
:105820002A853B854C855D85621B730B840B950B2C
:105830006958734180409040D8F081E089871E8686
:10584000E881F9810084F185E02DCE0160E042E03D
:1058500050E109950DC04F85242F30E0210F311DF7
:10586000EA89FB89828990E02817390789F6C7CF32
:10587000DF91CF911F910F910895CF93DF93EC01AA
:10588000DC015496FB0189E001900D928150E1F713
:1058900080EF9FEF9E8F8D8FDF91CF910895CF93F3
:1058A000DF93EC01DC015496FB0189E001900D923D
:1058B0008150E1F75E8F4D8FDF91CF910895CF93A7
:1058C000DF93EC0189858823A1F119862A893B8918
:1058D000C901DC01FB018BE501900D928150E1F7DC
:1058E000AA89BB89EE81FF818681978117969C9357
:1058F0008E93169780818C93818111968C9311974A
:10590000828112968C931297838113968C931397AE
:10591000848114968C931497858115968C9381E0DD
:105920008E871F860E944B376A877B878C879D876F
:1059300081E0DF91CF910895BF92CF92DF92EF92F5
:10594000FF920F931F93DF93CF93CDB7DEB762978C
:105950000FB6F894DEBF0FBECDBF8C017B01DC011A
:105960001696ED91FC911797309709F4C3C1808585
:10597000882309F4BFC1CB010E94261E882309F0A9
:10598000BEC0C7010E94801F882309F451C0188639
:105990001F82198619821A821B821C821D821E8216
:1059A000C701BE016F5F7F4F0E94B61ED8011696D9
:1059B000ED91FC911797309709F49CC12F813885A0
:1059C0002115310541F086819781009721F0281734
:1059D0003907F9F08FC199818081981709F08AC140
:1059E0009A818181981709F085C19B8182819817DE
:1059F00009F080C19C818381981709F07BC19D814A
:105A00008481981709F076C19E818581981709F0E5
:105A100071C1D801ED91FC910084F185E02DC801A0
:105A200061E040E050E0099581E0F801818765C1BF
:105A3000C7010E94BB1F882309F45CC118861F821E
:105A4000198619821A821B821C821D821E82C7013E
:105A5000BE016F5F7F4F0E94B61ED8011696ED9172
:105A6000FC911797309709F445C12F81388521158E
:105A7000310541F086819781009721F02817390779
:105A8000F9F038C199818081981709F033C19A8162
:105A90008181981709F02EC19B818281981709F0A6
:105AA00029C19C818381981709F024C19D8184813B
:105AB000981709F01FC19E818581981709F01AC1B6
:105AC000C7010E940020AC0195FF05C081E0F801EC
:105AD000868717860AC0D8011E961C921E971F96AD
