:100000000C9448030C9473030C9473030C947303C3
:100010000C9473030C9473030C9473030C94730388
:100020000C9473030C9473030C9473030C94730378
:100030000C9473030C9473030C9473030C94730368
:100040000C9473030C9443330C9447300C943D3060
:100050000C9473030C94B5340C944B350C947303CB
:100060000C9473030C9473030C9473030C94730338
:100070000C9473030C9473030C9473030C94730328
:100080000C94EE340C9498350C9473030C94730315
:100090000C9473033C3F786D6C2076657273696FC6
:1000A0006E3D27312E302720656E636F64696E6761
:1000B0003D275554462D38273F3E3C3F786D6C2DEB
:1000C0007374796C65736865657420747970653DC7
:1000D00027746578742F78736C2720687265663D85
:1000E0002778736C742F6364692E78736C273F3E96
:1000F0003C63646920786D6C6E733A7873693D2750
:10010000687474703A2F2F7777772E77332E6F724B
:10011000672F323030312F584D4C536368656D6115
:100120002D696E7374616E636527207873693A6E0A
:100130006F4E616D657370616365536368656D6172
:100140004C6F636174696F6E3D27687474703A2FE9
:100150002F6F70656E6C63622E6F72672F7472758D
:100160006E6B2F70726F746F74797065732F786D0A
:100170006C2F736368656D612F6364692E78736497
:10018000273E3C6964656E74696669636174696F72
:100190006E3E3C6D616E7566616374757265723E2C
:1001A0005261696C7374617273204C696D69746516
:1001B000643C2F6D616E7566616374757265723E25
:1001C0003C6D6F64656C3E496F3C2F6D6F64656C70
:1001D0003E3C686172647761726556657273696FDF
:1001E0006E3E312E303C2F686172647761726556C5
:1001F000657273696F6E3E3C736F6674776172658A
:1002000056657273696F6E3E312E323C2F736F6686
:10021000747761726556657273696F6E3E3C2F69C3
:1002200064656E74696669636174696F6E3E3C7380
:1002300065676D656E74206F726967696E3D273101
:10024000303238272073706163653D27323533279C
:100250003E3C67726F7570206F66667365743D27EC
:1002600030273E3C6E616D653E5573657220496472
:10027000656E74696669636174696F6E3C2F6E6147
:100280006D653E3C6465736372697074696F6E3E40
:1002900041646420796F7572206F776E2064657396
:1002A0006372697074697665206E616D6520616E38
:1002B00064206465736372697074696F6E20666F21
:1002C000722074686973206E6F64652E3C2F6465BC
:1002D000736372697074696F6E3E3C737472696E99
:1002E000672073697A653D273332273E3C6E616D26
:1002F000653E4E6F6465204E616D653C2F6E616D8D
:10030000653E3C2F737472696E673E3C737472690C
:100310006E672073697A653D273634273E3C6E61EF
:100320006D653E4E6F6465204465736372697074D9
:10033000696F6E3C2F6E616D653E3C2F7374726900
:100340006E673E3C2F67726F75703E3C2F7365671A
:100350006D656E743E3C7365676D656E74206F727B
:100360006967696E3D2734272073706163653D2797
:10037000323533273E3C67726F7570207265706C42
:1003800069636174696F6E3D2738273E3C6E616D0D
:10039000653E496E707574733C2F6E616D653E3CB1
:1003A0007265706E616D653E496E7075743C2F723A
:1003B00065706E616D653E3C737472696E67207323
:1003C000697A653D27313627206F66667365743D0F
:1003D00027323630273E3C6E616D653E446573635F
:1003E00072697074696F6E3C2F6E616D653E3C2F53
:1003F000737472696E673E3C6576656E74696420DD
:100400006F66667365743D272D32373627203E3C74
:100410006E616D653E41637469766174696F6E20CB
:100420004576656E743C2F6E616D653E3C2F65763A
:10043000656E7469643E3C6576656E7469643E3CC5
:100440006E616D653E496E61637469766174696F52
:100450006E204576656E743C2F6E616D653E3C2F57
:100460006576656E7469643E3C2F67726F75703E89
:100470003C67726F7570207265706C696361746936
:100480006F6E3D2738273E3C6E616D653E4F75743B
:10049000707574733C2F6E616D653E3C7265706E55
:1004A000616D653E4F75747075743C2F7265706E2A
:1004B000616D653E3C737472696E672073697A651D
:1004C0003D27313627206F66667365743D273236C7
:1004D00030273E3C6E616D653E44657363726970A2
:1004E00074696F6E3C2F6E616D653E3C2F73747244
:1004F000696E673E3C6576656E746964206F6666FA
:100500007365743D272D32373627203E3C6E616D72
:10051000653E41637469766174696F6E20457665E6
:100520006E743C2F6E616D653E3C2F6576656E7412
:1005300069643E3C6576656E7469643E3C6E616DCF
:10054000653E496E61637469766174696F6E2045BA
:1005500076656E743C2F6E616D653E3C2F657665E9
:100560006E7469643E3C2F67726F75703E3C2F73EA
:1005700065676D656E743E3C2F6364693E00015291
:1005800061696C7374617273204C696D6974656420
:100590000A496F20446576656C6F70657227732019
:1005A000426F6172640A312E300A312E33007E6E42
:1005B0007F620C37260C37120C370E0C37060C37BF
:1005C000020C37000C3700002100240027002A000D
:1005D0002D003000330000002200250028002B00F1
:1005E0002E003100340000002000230026002900E6
:1005F0002C002F0032000101010101010101030360
:1006000003030303030302020202020202020404C0
:100610000404040707040505050505050505060688
:100620000606060606060707010204081020408099
:1006300001020408102040800102040810204080BC
:1006400001020408100810800102040810204080F4
:100650000102040810204080010200000000000098
:10066000000000000000000000000000000000008A
:10067000000000000000000000000000000000007A
:1006800000000000000000000000000083048D3620
:1006900011241FBECFEFD0E1DEBFCDBF11E0A0E03F
:1006A000B1E0EEE9F1E700E00BBF02C007900D9268
:1006B000AA39B107D9F71BBE15E0AAE9B1E001C01C
:1006C0001D92A23BB107E1F716E0C0E9D6E004C0F5
:1006D0002297FE010E94C938CC38D107C9F70E9481
:1006E00023370C94CD380C940000CF93DF93BC01DA
:1006F0008230910510F462E070E0A091B005B091F5
:10070000B105ED01E0E0F0E040E050E021C088817B
:1007100099818617970769F48A819B81309719F030
:100720009383828304C09093B1058093B005FE014A
:1007300034C06817790738F44115510519F084174A
:10074000950708F4AC01FE018A819B819C01E901B7
:100750002097E9F641155105A9F1CA01861B970BAF
:10076000049708F4BA01E0E0F0E02AC08D919C9172
:10077000119784179507F9F46417750781F4129699
:100780008D919C911397309719F09383828304C0C5
:100790009093B1058093B005FD0132964CC0CA011B
:1007A000861B970BFD01E80FF91F61937193029768
:1007B0008D939C9340C0FD01828193819C01D9015E
:1007C0001097A1F68091AE059091AF05892B41F469
:1007D00080912001909121019093AF058093AE0507
:1007E00040912201509123014115510541F44DB72B
:1007F0005EB780911E0190911F01481B590B2091FB
:10080000AE053091AF05CA01821B930B861797077F
:1008100080F0AB014E5F5F4F8417950750F0420F99
:10082000531F5093AF054093AE05F9016193719347
:1008300002C0E0E0F0E0CF01DF91CF910895CF93C7
:10084000DF93009709F450C0EC0122971B821A82B3
:10085000A091B005B091B105109709F140E050E0CA
:10086000AC17BD0708F1BB83AA83FE01219131912A
:10087000E20FF31FAE17BF0779F48D919C9111978A
:10088000280F391F2E5F3F4F3983288312968D9191
:100890009C9113979B838A834115510571F4D093E2
:1008A000B105C093B00520C012968D919C9113970D
:1008B000AD01009711F0DC01D3CFFA01D383C283DD
:1008C00021913191E20FF31FCE17DF0769F4888180
:1008D0009981280F391F2E5F3F4FFA013183208302
:1008E0008A819B8193838283DF91CF910895FC015C
:1008F00005900020E9F7809590958E0F9F1F089531
:1009000080E0089508951092A1011092A001109224
:10091000A20110929A0110929B0110929C011092D8
:100920009D0110929E0110929F01E3EAF1E0108672
:10093000108211821282138214821582168217820B
:10094000399682E0E33CF80791F71092C6021092C4
:10095000C5028AE591E09093C4028093C30210928D
:10096000DC021092DB021092DD021092D50210928E
:10097000D6021092D7021092D8021092D902109289
:10098000DA021092E5021092E4021092E60210924E
:10099000DE021092DF021092E0021092E102109249
:1009A000E2021092E3021092FD021092FC021092F9
:1009B000FE021092F6021092F7021092F8021092C4
:1009C000F9021092FA021092FB02109206031092A2
:1009D0000503109207031092FF0210920003109279
:1009E0000103109202031092030310920403109269
:1009F0000903109214031092130310921103109222
:100A00001003109212031092210310922D031092E2
:100A10002C0310922E03109226031092270310929B
:100A200028031092290310922A0310922B0310928C
:100A3000330380E491E09093360380933503109262
:100A4000450381E080934603809347031092480357
:100A500010924903EAE4F3E088E081938F5F8031EC
:100A6000E1F780E891E0909353038093520381E093
:100A700080935A0380935B0310925C0310925D0392
:100A800010925E0310925F03109260031092610354
:100A900010926D0310926C0310926E031092660315
:100AA00010926703109268031092690310926A0310
:100AB00010926B038FEF9FEF9093700380936F03FF
:100AC0008BE590E00E94750380936203909363032B
:100AD0008BE590E00E947503809364039093650317
:100AE00082E391E0909353038093520388E291E074
:100AF000909374038093730380E591E090938E0349
:100B000080938D031092C3031092C2031092C4030A
:100B10001092BC031092BD031092BE031092BF034B
:100B20001092C0031092C1031092CC031092CB0319
:100B30001092CD031092C5031092C6031092C70302
:100B40001092C8031092C9031092CA038FEC93E06D
:100B500060E340E00E9405138BEE93E061E340E028
:100B60000E940513089583EC92E00E94642683ECB2
:100B700092E00E94D71F882349F083EC92E00E9404
:100B8000DC1F8FEC93E061E00E94E31208950F9365
:100B90001F93CF93DF938C01C0E0D0E0BE0166507D
:100BA000704F87E094E00E94B713F801EC0FFD1F2F
:100BB00080832196C630D10589F7F80180818F3F67
:100BC00081F481818F3F69F482818F3F51F4838169
:100BD0008F3F39F484818F3F21F485818F3F09F461
:100BE000FFCFDF91CF911F910F910895EF92FF9268
:100BF0000F931F9300E0802F61E00E944034802F0C
:100C000060E00E946C340F5F0830A9F7802F60E02D
:100C10000E944034802F61E00E946C340F5F0031ED
:100C2000A9F78AE9E82E81E0F82EC7010E94C705DE
:100C300003EC12E0C8010E94202710933A030093AE
:100C40003903F0923C03E0923B0385E393E063EACF
:100C500071E040E20E94761082E593E0B801A701BE
:100C600025E333E00E94D40983E793E0B801A701AC
:100C700025E333E00E947C068DE893E0B801A701EC
:100C80000E94B610C80165E373E00E94EF20C8011E
:100C900062E573E00E94EF20C80163E773E00E9401
:100CA000EF20C8016DE873E00E94EF201F910F91C3
:100CB000FF90EF900895CF93DF93FC01848195819D
:100CC000EC01A881B981668177815096ED91FC9104
:100CD00051970995DF91CF910895FC0186899789F5
:100CE0000E94220F64E670E080E090E00E94993359
:100CF000E0E0F0E009950895EF92FF920F931F93C3
:100D00008C01FC0175836483578346838FEF828750
:100D10008387158A1186378B268B9FECE92E93E00B
:100D2000F92EC70140E050E060E070E00E94DD1263
:100D3000C7010E940D138091EA03F80184878BEEAE
:100D4000E82E83E0F82EC7014FEF50E06FEF70E020
:100D50000E94DD12C7010E940D1380910604F80164
:100D60008587868997894596918F808F1686128A06
:100D70001F910F91FF90EF900895EF92FF921F93B4
:100D8000CF93DF937C01162F8FEC93E040E050E08F
:100D900060E070E00E94DD128BEE93E041E050E0F5
:100DA00060E070E00E94DD12112311F410E017C022
:100DB000C0E0D0E0D70156968D919C915797BE0127
:100DC00040E00E94C22DF70186899789BE0140E06C
:100DD0000E94A62D2196C032D10561F7E7CF812F61
:100DE00060E00E946C341F5F1830C9F78FEFD701A5
:100DF0001A968C931A971B968C931B975696ED9187
:100E0000FC915797108A18961C92DF91CF911F91F1
:100E1000FF90EF900895EF92FF920F931F93CF935F
:100E2000DF93EC01EE81FF81309709F4B6C2808533
:100E3000882309F4B2C28985882351F481E0898727
:100E40008BEE93E041E050E060E070E00E94DD1244
:100E50008FEC93E00E940D138BEE93E00E940D1334
:100E60002091EA0390E0222311F480E004C08091F5
:100E70000604811181E08F879F5F9830A1F7882356
:100E8000E9F02C87809106048D878091DF03909193
:100E9000E003A091E103B091E20381342FE19207D6
:100EA00020E0A20720E0B20714F083E006C0895BCF
:100EB0009B40A040B04014F082E08F879F858E85D4
:100EC000891799F09E879A8B8FEC93E040E050E071
:100ED00060E070E00E94DD128BEE93E041E050E0B4
:100EE00060E070E00E94DD1201C01A8A2091EA03DE
:100EF0008C85821799F08091DF039091E003A09197
:100F0000E103B091E2038C349105A105B1053CF0F9
:100F10002C87222321F081E0888B01C0188A209140
:100F200006048D858217D1F08091FB039091FC031C
:100F3000A091FD03B091FE038C349105A105B1058C
:100F40003CF02D8780910604882311F081E0898B85
:100F500000E010E0E1E0EE2EF12C02C0198AF8CF9B
:100F6000E88DF98DE00FF11F80810E948E34782F7B
:100F70006C89A701002E02C0440F551F0A94E2F7A6
:100F8000862F90E084239523002E02C095958795A7
:100F90000A94E2F7272F30E08217930761F071304F
:100FA00029F4642B6C8B8B89842B09C0842F80954A
:100FB00086238C8B05C0942F90958B8989238B8BEE
:100FC0000F5F1F4F0830110559F68885883009F4E6
:100FD00059C0803809F4FAC0882309F0DEC18A8933
:100FE000833021F4CE010E946D06D7C1823079F49E
:100FF0008BEE93E04AEA5AEA6AEA7AEA0E94DD1244
:101000008FEC93E045E555E565E575E5C4C18130B4
:1010100021F4CE010E945B06C0C188898823B9F003
:1010200088E08887EE89FF8981E0808B8FEC93E0F0
:1010300040EF50EF60EF70EF0E94DD1210E0812F63
:1010400060E00E946C341F5F1830C9F7A6C189891F
:10105000882309F4A2C180E88887EE89FF8981E0AE
:10106000808B8BEE93E040EF50EF60EF70EF0E94CB
:10107000DD1210E0812F60E00E946C341F5F183099
:10108000C9F78BC18A898823E1F488898823A9F16B
:101090008BEE93E040E050E060E070E00E94DD12F3
:1010A0008A85992787FD9095029661E270E00E94FB
:1010B0007E3881508A878F3F49F487E060E00E9444
:1010C0006C34CE0161E00E94BD0667C1803154F0EE
:1010D000A7C082300CF461C1812F815060E00E9472
:1010E0006C345BC1182F159580FFD1C08FEC93E055
:1010F0004AE050E06AE070E0D0C08989882309F1B5
:101100006B8567FD08C0772767FD70958E899F897D
:1011100041E00E94A62D6A85603134F0772767FD93
:1011200070956051704007C067FDE2C0772767FD8A
:101130007095605F7F4F8E899F8941E00E94A62D48
:10114000D7C08B89882309F428C120E030E0482FDC
:1011500050E0122FCA01022E02C0959587950A947D
:10116000E2F780FD06C01F5F2F5F3F4F283031053B
:1011700081F78B858F3F51F0212F30E0992787FD34
:101180009095959587952817390751F08BEE93E048
:101190004AE050E06AE070E00E94DD12812FD1C089
:1011A0008D89813021F4110F1F5F1B87DEC08230D3
:1011B00009F0F3C08BEE93E040E050E060E070E0B7
:1011C0000E94DD128FEF8B871D8A21C08A898823B8
:1011D00009F077CF8889882309F467C08BEE93E004
:1011E00040EF50EF60EF70EF0E94DD128A85992783
:1011F00087FD9095029661E270E00E947E388150F2
:101200008A878F3F59F487E060E00E946C348FEC4E
:1012100093E040EF50EF60EF70EFBDC0803164F1BC
:101220008BEE93E04AE050E06AEA7AE00E94DD1239
:101230002A85332727FD3095C901409795958795D5
:10124000182F20FF07C08FEC93E040E050EA60E0E9
:1012500070EA06C08FEC93E04FEF5FEF6FEF7FEF28
:101260000E94DD12812F61E00E946C348A858031FA
:1012700009F02FCF87E032CF182F159580FF07C0D8
:101280008FEC93E040E050EA60E070EA06C08FEC3B
:1012900093E04FEF5FEF6FEF7FEF0E94DD12812F42
:1012A00061E00E946C348A8514CF8989882319F102
:1012B0006B8567FD08C0772767FD70958E899F89CC
:1012C00041E00E94C22D6A85603134F0772767FDC6
:1012D00070956051704007C067FD0AC0772767FDB1
:1012E0007095605F7F4F8E899F8941E00E94C22D7B
:1012F000CE0160E0E8CE8B89882309F44EC020E05F
:1013000030E0682F70E0422FCB01022E02C095958D
:1013100087950A94E2F780FD06C04F5F2F5F3F4F2D
:101320002830310581F78B858F3F51F0242F30E035
:10133000992787FD9095959587952817390779F016
:10134000842F90E0880F991F8B878FEC93E04FEFED
:101350005FEF6FEF7FEF0E94DD1281E00FC08D899C
:10136000813071F4440F4F5F4B878FEC93E04AE07C
:1013700050E06AE070E00E94DD1282E08D8B0DC0CB
:10138000823059F48FEF8B871D8A8FEC93E040E019
:1013900050E060E070E00E94DD12DF91CF911F917C
:1013A0000F91FF90EF900895FC0130A3278F758374
:1013B00064835783468308950895DF92EF92FF92E6
:1013C0000F931F93DF93CF93CDB7DEB7C456D040B2
:1013D0000FB6F894DEBF0FBECDBF7C01198A188A04
:1013E0001A8A1A861B861C861D861E861F861A8EE2
:1013F000198E1B8E1B8A1C8A1D8A1E8A1F8A188EB4
:1014000080E28D8FDE015396F70120893189C90171
:10141000FC0189E001900D928150E1F7D7015096CF
:10142000ED91FC915197848990E09C012C7F307064
:101430002438310529F1253831052CF420383105BF
:1014400009F0E4C009C02C38310509F4A6C0283AD7
:10145000310509F0DBC05AC087E08C8F82E88E8F9F
:101460008CE68F8F18A282EF89A38FEF8AA38DEF6E
:101470008BA3C701BE01665F7F4F0E94A528C6C02F
:1014800088E08C8F86E88E8F85898F8F18A219A2AD
:101490001AA21BA281E08CA385898D3F61F08F3F4A
:1014A00009F0A6C087E88E8F18A219A284E08AA34B
:1014B0008AEE8BA39DC087E88E8FF701878D90A160
:1014C0000E94DB0C692F77278827992768A3D7010B
:1014D0005F968D919C9190970E94DB0CBC018827B0
:1014E000992769A3F701878D90A10E94DB0C672FD4
:1014F000782F892F99276AA3D7015F968D919C91A8
:1015000090970E94DB0C6BA31CA272C0837090703A
:101510008130910509F43DC0029709F077C0188623
:101520001F82198619821A821B821C821D821E82CA
:10153000DE011196759686E001900D928150E1F7DB
:10154000D7011696ED91FC91179799818081981794
:1015500009F05CC09A818181981709F057C09B817E
:101560008281981709F052C09C818381981709F0F5
:101570004DC09D818481981709F048C09E81858166
:10158000981709F043C05F968D919C9190970E94A7
:10159000220FE0E0F0E0099539C015891770812F1E
:1015A00090E0B3E0880F991FBA95E1F702968C8F0F
:1015B0008EE88E8F87E094E062E070E00E94B713BF
:1015C000D82E87E094E063E070E00E94B713082F04
:1015D0001111FFCF87E094E062E070E04D2D0E9492
:1015E000BE1387E094E063E070E0402F0E94BE13DA
:1015F000C701BE01665F7F4F0E94A528882319F0AE
:1016000020EF3FEF05C020E030E202C020E030E0F4
:10161000C901CC59DF4F0FB6F894DEBF0FBECDBF66
:10162000CF91DF911F910F91FF90EF90DF90089580
:10163000AF92BF92CF92DF92EF92FF920F931F93E0
:10164000CF93DF936C01DC015096ED91FC915197A3
:101650004289958956897789608D8489282F30E061
:10166000237030702130310559F0223031052CF4CF
:10167000232B19F4818D8D3F19F020E030E056C006
:101680004650892F90E0A0E0B0E0182F0027FF24FB
:10169000EE24852F90E0A0E0B0E0DC0199278827B8
:1016A000E82AF92A0A2B1B2B862F90E0A0E0B0E055
:1016B000E82AF92A0A2B1B2B872F90E0A0E0B0E044
:1016C000BA2FA92F982F8827E82AF92A0A2B1B2B33
:1016D000B4E0EB16B1E0FB06B0E00B07B0E01B078F
:1016E00028F0C0E0D0E0A42EBB241BC07996D60120
:1016F0005F968D919C919097B7019F010E942D0D4F
:1017000013C0BE016E0D7F1DD6015096ED91FC9168
:101710005197EC0FFD1F87E094E0418D0E94BE13AE
:101720002196CA15DB0568F320EF3FEFC901DF9171
:10173000CF911F910F91FF90EF90DF90CF90BF90CE
:10174000AF9008956F927F928F929F92AF92BF92C7
:10175000CF92DF92EF92FF920F931F93DF93CF937D
:10176000CDB7DEB7CB55D0400FB6F894DEBF0FBE75
:10177000CDBF3C0118861F82198619821A821B82EE
:101780001C821D821E82198A188A1A8A1A861B8652
:101790001C861D861E861F86DE011A96FC01808926
:1017A00091899C01F90189E001900D928150E1F746
:1017B000D3015096ED91FC915197DE0154967396AA
:1017C00086E001900D928150E1F78D898F708065E0
:1017D0008D8BD3015096ED91FC915197418D858968
:1017E00090E0A0E0B0E0182F0027FF24EE248689C7
:1017F00090E0A0E0B0E0DC0199278827E82AF92AE8
:101800000A2B1B2B808D90E0A0E0B0E0E82AF92A9B
:101810000A2B1B2B878990E0A0E0B0E0BA2FA92FFC
:10182000982F8827E82AF92A0A2B1B2B848990E015
:101830008370907081309105C1F1823091051CF464
:10184000892B39F00AC08230910539F0039729F4C9
:1018500007C04D3F51F14F3F19F020E030E062C02A
:10186000B701C701840F911D8C5E944010F04BEEC0
:101870004E19DE015A9680E090E0242F30E00FC030
:10188000E4E06A3E7E0710F01C9205C0FB01EC56B6
:10189000FF4FE491EC93019611966F5F7F4F821793
:1018A000930770F34A5F4B8B30C09E01265E3F4F1B
:1018B000F4E0EF16F1E0FF06F0E00F07F0E01F079D
:1018C00058F4D3015F968D919C919097B7010E9437
:1018D000E80C8A5F8B8B19C04A5F4B8B46505901CD
:1018E000CC24DD24842E99240DC0B6016E0D7F1DFD
:1018F00087E094E00E94B713F50181935F0108949B
:10190000C11CD11CC814D90480F3C301BE016F5F90
:101910007F4F0E94A528882319F020EF3FEF02C0D7
:1019200020E030E2C901C55ADF4F0FB6F894DEBFA0
:101930000FBECDBFCF91DF911F910F91FF90EF9020
:10194000DF90CF90BF90AF909F908F907F906F90DF
:101950000895DC011696ED91FC911797309721F1CF
:101960008085882309F15096ED91FC9151978389E8
:101970008032E9F4848990E0807C90708034910515
:1019800031F08038910559F0892B29F010C0CD0134
:101990000E94A20B07C0CD010E94180B03C0CD010D
:1019A0000E94DD099C0105C020E030E002C020E477
:1019B00030E1C9010895FC018285938523E0880FF9
:1019C000991F2A95E1F70197BC0180E090E0089506
:1019D0001F93CF93DF93EC01D901CB0123E09695C0
:1019E00087952A95E1F7182FFB0134972A853B85C7
:1019F00083E0220F331F8A95E1F7CF01840F911DF9
:101A00002817390710F4422F461B812F880F880FA3
:101A1000880F5E2F581B712F60E018C0583011F4EA
:101A20007F5F50E0272F30E0C901E3E0880F991F66
:101A3000EA95E1F7820F931FE885F985E80FF91F12
:101A4000E50FF11D80818D936F5F5F5F641730F349
:101A5000842FDF91CF911F910895FF920F931F93D1
:101A6000CF93DF93DC01022FF32ECB0123E0969579
:101A700087952A95E1F7182FFB0134971A962D9137
:101A80003C911B9783E0220F331F8A95E1F7CF012A
:101A9000840F911D2817390710F4422F461B812F00
:101AA000880F880F880F5E2F581B202F3F2DC901EC
:101AB000EC01712F60E01AC0583011F47F5F50E0E4
:101AC000272F30E0C901E3E0880F991FEA95E1F77D
:101AD000820F931F1896ED91FC911997E80FF91F4B
:101AE000E50FF11D899180836F5F5F5F641720F3BD
:101AF00081E054968C93DF91CF911F910F91FF90CD
:101B00000895FC018089882341F4CB014097969584
:101B10008795609561700E946C3481E008958F9282
:101B20009F92BF92CF92DF92EF92FF920F931F93FB
:101B3000CF93DF93EC01EE81FF81309709F465C00C
:101B40008085882309F461C0CC2EBD2EDD2451E0B0
:101B5000852E912C88898823E1F58A898823C9F507
:101B60007E0100E010E0F70185890E948E34382F55
:101B70002B89A401002E02C0440F551F0A94E2F7DE
:101B8000822F90E084239523002E02C0959587959F
:101B90000A94E2F7381719F48989882389F02427F1
:101BA0002B8BB801660F771F80E090E0313011F485
:101BB00081E090E0682B792B8C2D9B2D0E94C12B0E
:101BC0000F5F1F4F0894E11CF11C0830110559F6F6
:101BD000198AD394F8E0DF1609F0BCCF8C2D9B2D29
:101BE0000E94F02A2E853F858A859B852817390714
:101BF00009F41A8A8C89882341F0E881F9810084EC
:101C0000F185E02DCE0109951C8ADF91CF911F91BE
:101C10000F91FF90EF90DF90CF90BF909F908F90AB
:101C200008958F929F92AF92BF92DF92EF92FF92B0
:101C30000F931F93CF93DF934C01DD2416C0F40163
:101C4000008511850A0D1B1D87E094E0B7010E94F5
:101C5000B7130C0F1D1FF801808321960894E11C17
:101C6000F11CC830D10559F7D3942D2D30E0F40183
:101C7000828593852817390788F4C90173E0880F96
:101C8000991F7A95E1F75C01A20EB31E64E0E62E7F
:101C9000F12CE80EF91EC0E0D0E0D1CF81E0DF9159
:101CA000CF911F910F91FF90EF90DF90BF90AF9079
:101CB0009F908F9008951F93CF93DF93C4E0D0E05F
:101CC00010E087E094E0BE0145E00E94BE1321963B
:101CD00087E094E0BE0142E00E94BE13219687E0B7
:101CE00094E0BE0141E00E94BE13219687E094E09B
:101CF000BE0142E00E94BE13219687E094E0BE013F
:101D000042E00E94BE13219687E094E0BE0140E0CD
:101D10000E94BE13219687E094E0BE0140E00E943D
:101D2000BE13219687E094E0BE01412F0E94BE13AE
:101D300021961F5F103129F6C4E8D0E010E087E05B
:101D400094E0BE0145E00E94BE13219687E094E036
:101D5000BE0142E00E94BE13219687E094E0BE01DE
:101D600041E00E94BE13219687E094E0BE0142E06C
:101D70000E94BE13219687E094E0BE0142E00E94DB
:101D8000BE13219687E094E0BE0140E00E94BE139E
:101D9000219687E094E0BE0140E00E94BE132196A8
:101DA00087E094E0BE01412F0E94BE1321961F5F81
:101DB000103129F6C4E0D1E087E094E0BE010E9432
:101DC000B713882331F087E094E0BE0140E00E9421
:101DD000BE13219682E0C430D80771F7C4E0D4E086
:101DE00087E094E0BE010E94B713882331F087E0BA
:101DF00094E0BE0140E00E94BE13219684E0C43A04
:101E0000D80771F787E094E062E070E040E00E945C
:101E1000BE1387E094E063E070E040E10E94BE13EF
:101E200087E094E060E070E049E40E94BE1387E040
:101E300094E061E070E04FE60E94BE13DF91CF9125
:101E40001F9108954F925F926F927F928F929F920F
:101E5000AF92BF92CF92DF92EF92FF920F931F93B8
:101E6000CF93DF933C0187E094E060E070E00E9454
:101E7000B713893409F0E2C087E094E061E070E0D4
:101E80000E94B7138F3609F0D9C087E094E062E072
:101E900070E00E94B713B82E87E094E063E070E032
:101EA0000E94B713982E87E094E060E070E048E568
:101EB0000E94BE138FED891538F44B2D4F5F87E0DC
:101EC00094E062E070E005C087E094E062E070E0DA
:101ED0004B2D0E94BE13492D405E87E094E063E0E5
:101EE00070E00E94BE13AA24492C55242EC0D301B1
:101EF0001696ED91FC911797EC0FFD1F87E094E08B
:101F0000B80140810E94BE1321960F5F1F4FC6305B
:101F1000D10569F7B601665F7F4F87E094E04B2DEE
:101F20000E94BE13E40CF51CBFEFEB16F10409F49C
:101F3000B394EBE0F0E0CE0EDF1E4A2D490D87E0B2
:101F400094E0B6010E94BE13A394D3011A968D911A
:101F50009C911B9796958795EA2CFF24E816F90625
:101F600060F46701F3E0CC0CDD1CFA95E1F7860123
:101F70000C5F1F4FC0E0D0E0BACFA82E882E890C8E
:101F8000492C55242EC0D3011696ED91FC9117973C
:101F9000EC0FFD1F87E094E0B80140810E94BE1362
:101FA00021960F5F1F4FC630D10569F7B601665FF6
:101FB0007F4F87E094E04B2D0E94BE13E40CF51C8C
:101FC000BFEFEB16F10409F4B394EBE0F0E0CE0EB2
:101FD000DF1E87E094E0B601482D0E94BE13A39453
:101FE0008394EA2CFF24D3011A968D919C911B9720
:101FF000E816F90660F46701E3E0CC0CDD1CEA9515
:10200000E1F786010C5F1F4FC0E0D0E0BCCF87E056
:1020100094E060E070E049E40E94BE1387E094E041
:1020200061E070E00E94B7138F3659F087E094E0CA
:1020300061E070E04FE60E94BE1303C0C3010E943E
:102040005B0EDF91CF911F910F91FF90EF90DF908A
:10205000CF90BF90AF909F908F907F906F905F9048
:102060004F900895AF92BF92CF92DF92FF920F935D
:102070001F93CF93DF935C01FF2416C0D501189600
:10208000ED91FC911997EC0DFD1DEC0FFD1F87E004
:1020900094E0B80140810E94BE1321960F5F1F4F4C
:1020A000C830D10559F7F3942F2D30E0F501828522
:1020B00093852817390778F4C901B3E0880F991F71
:1020C000BA95E1F76C01C20ED31E8C010C5F1F4F55
:1020D000C0E0D0E0D3CF81E0DF91CF911F910F918D
:1020E000FF90DF90CF90BF90AF9008950F931F9314
:1020F000CF93DF93EC018C0150E00E949A2B87E094
:1021000094E060E070E00E94B713893441F487E006
:1021100094E061E070E00E94B7138F3619F0CE01B1
:102120000E94220FE881F9810284F385E02DCE011F
:102130000995C0E0D0E0C801BE0141E020E00E9466
:10214000702D2196C031D105B1F7C0E1D0E0C801B2
:10215000BE0140E021E00E94702D2196C032D105E1
:10216000B1F7DF91CF911F910F910895CF92DF9238
:10217000EF92FF920F931F938C017B016A01FC0188
:1021800010868FEF878F8FEF9FEF958F848F168E3E
:102190008EE795E00E9477048F5FF80180A3F582B7
:1021A000E482D782C6821F910F91FF90EF90DF905B
:1021B000CF9008950F931F93CF93DF93EC01EE819F
:1021C000FF81309709F4E6C08085882309F4E2C0D6
:1021D0009F8D97FD49C088A18E5F891B8EA3893092
:1021E00010F088E08EA322E016C0822F90E0EF8DE1
:1021F000FF27E7FDF095E80FF91FE458FA4FE49147
:10220000DE01A80FB91F9796EC939797EA3011F467
:1022100097961C922F5F8EA1281738F38E010F5DC1
:102220001F4FEC81FD81A081B18118962D913C91C9
:102230001997CF01B801F9010995882391F38EA16F
:1022400082502F8D820F8F8F992787FD909528A11F
:1022500030E0821793070CF49DC08FEF8F8F83E0DF
:1022600094E09D8F8C8F96C02C8D3D8D37FD7DC069
:1022700082E08EA32350344049F421E029A783E073
:102280008EA384E094E09D8F8C8F2E8F8E8D813075
:1022900061F52FEF11C087E094E00E94B713282F5B
:1022A0008EA1FE01E80FF11D27A38F5F8EA38C8DF9
:1022B0009D8D01969D8F8C8F8EA1883048F42223AE
:1022C00071F06C8D7D8D24E06432720724F302C0BE
:1022D000222329F08C8D9D8D8452944034F084E229
:1022E00094E09D8F8C8F82E08E8F8E8D823059F599
:1022F0002FEF11C087E094E00E94B713282F8EA122
:10230000FE01E80FF11D27A38F5F8EA38C8D9D8D9D
:1023100001969D8F8C8F8EA1883048F4222371F016
:102320006C8D7D8D84E0643A780724F302C022230B
:1023300029F08C8D9D8D845A94402CF08FEF9FEF67
:102340009D8F8C8F1E8E8E010F5D1F4FEC81FD8146
:10235000A081B18118962D913C911997CF01B801B8
:10236000F9010995882391F315C08885882391F098
:1023700018868E010F5D1F4FEC81FD81A081B18118
:1023800018962D913C911997CF01B801F901099543
:10239000882391F3DF91CF911F910F910895CF92F0
:1023A000DF92EF92FF920F931F93DF93CF93CDB7FE
:1023B000DEB762970FB6F894DEBF0FBECDBF7C01CB
:1023C0006B01DC011696ED91FC911797309709F49B
:1023D000E4C08085882309F4E0C0CB010E94181C6A
:1023E000882309F464C0198A188A1A8A1A861B86F7
:1023F0001C861D861E861F86C601BE01665F7F4F36
:102400000E94741BD7011696ED91FC9117972889AD
:1024100039892115310541F086819781009721F096
:1024200028173907F9F0B9C09A858081981709F003
:10243000B4C09B858181981709F0AFC09C858281CB
:10244000981709F0AAC09D858381981709F0A5C047
:102450009E858481981709F0A0C09F858581981773
:1024600009F09BC0F701878D87FF97C0848D958DFC
:1024700097FF93C0178E18861F82198619821A82B9
:102480001B821C821D821E82C6018E010F5F1F4FA0
:10249000B8010E94BA18D70116966D917C911797D2
:1024A000C7018196A8010E94671E81E077C0C6011E
:1024B0000E94FF1B882309F470C018861F821986AA
:1024C00019821A821B821C821D821E82C601BE01D5
:1024D0006F5F7F4F0E94741BD7011696ED91FC91A0
:1024E00017972F8138852115310541F08681978115
:1024F000009721F028173907E1F04FC099818081BA
:10250000981709F04AC09A818181981709F045C04F
:102510009B818281981709F040C09C818381981724
:10252000E1F59D8184819817C1F59E818581981779
:10253000A1F5198A188A1A8A1A861B861C861D8696
:102540001E861F868E01065F1F4FC601B8010E94BE
:10255000BA18F70166817781C7018196A8010E94A8
:10256000891E88E0D70196968C93969785ED99966B
:102570008C9399979A961C929A979B961C929B97EC
:102580009C961C929C979D961C929D979E961C9241
:102590009E9781E018968C9301C080E062960FB6FA
:1025A000F894DEBF0FBECDBFCF91DF911F910F9189
:1025B000FF90EF90DF90CF900895FC0144875587FE
:1025C000668777870895FC01818D862B818F08951A
:1025D0000F931F938C01FC0162871386808D61E04D
:1025E0000E944034F801808D62850E946C34F801AD
:1025F0001086148A158A168A178A108A118A128AF6
:10260000138A138E1F910F910895FC014287138640
:10261000608F642F0E94E8120895AF92BF92CF920C
:10262000DF92EF92FF920F931F93CF93DF93EC0112
:102630000E948B33D62EC72EB82EA92EE62EF72E4B
:102640009701207E8E819F812817390709F449C0A0
:102650003F832E83888D60E00E944034888D61E046
:102660000E946C340A851B85888D0E948E341986E1
:102670000817190711F481E08987888D61E00E94AD
:102680004034888D6A8D0E946C34998588859817AE
:1026900011F0988726C08B8D8917A9F09B8F8889A8
:1026A0009989AA89BB898096A11DB11D8C8B9D8BB0
:1026B000AE8BBF8BD882C982BA82AB82188A198A44
:1026C0001A8A1B8A0EC00E948B33288139814A8165
:1026D0005B81621B730B840B950B688B798B8A8BE8
:1026E0009B8B9701207C30708C819D812817390746
:1026F00099F13D832C838C852A853B8580FF0FC013
:1027000080E0232B09F081E08A8F8C859D85AE8542
:10271000BF85B595A79597958795B0680DC080E062
:10272000232B09F481E08A8F8C859D85AE85BF853A
:10273000B695A795979587958C879D87AE87BF8718
:10274000898D80FD1A8E898D90E095958795898F6A
:10275000888D6A8D0E946C34DF91CF911F910F910B
:10276000FF90EF90DF90CF90BF90AF900895F999D0
:10277000FECF72BD61BDF89A80B50895F999FECF7C
:1027800072BD61BD40BD0FB6F894FA9AF99A0FBEBA
:102790000895EF92FF920F931F93CF93DF93DC0185
:1027A000FB0117968D919C9118976817790709F48A
:1027B00070C0108619968C911997813021F4ED0123
:1027C000279639F405C0882319F4ED01279609F4FA
:1027D000FFCFF983E8838B819C81009721F0978359
:1027E000868387E055C0E080FF2400E010E0870189
:1027F000FF24EE24818190E0A0E0B0E0BA2FA92F61
:10280000982F8827E82AF92A0A2B1B2B828190E02F
:10281000A0E0B0E0E82AF92A0A2B1B2B238130E044
:1028200040E050E0A90133272227848190E0A0E016
:10283000B0E0BA2FA92F982F8827282B392B4A2BA5
:102840005B2B858190E0A0E0B0E0282B392B4A2B50
:102850005B2BC9018E259F257CE016950795F79483
:10286000E7947A95D1F78E259F256CE0569547958C
:10287000379527956A95D1F7822793279F709C8378
:102880008B83892B21F481E090E09C838B8382E011
:102890008A83DF91CF911F910F91FF90EF90089560
:1028A0006F927F928F929F92AF92BF92CF92DF9260
:1028B000EF92FF920F931F93CF93DF93EB01E88189
:1028C000F981309709F010866B817C81ED84FE845C
:1028D0000F851889A8019701FFE056954795379510
:1028E0002795FA95D1F7317040705070A984BA8459
:1028F000CB84DC84D601C501E9E0880F991FAA1FAB
:10290000BB1FEA95D1F7282B392B4A2B5B2BD8011B
:10291000C701F9E0880F991FAA1FBB1FFA95D1F7CD
:10292000B070E9EA6E2EEBE47E2EEAE78E2E912C53
:10293000E60CF71C081D191D8E0D9F1DA01FB11F51
:1029400003EAE02E0CE0F02E0BE1002F112DAE0C6F
:10295000BF1CC01ED11E2A0D3B1D4C1D5D1D50709D
:10296000EB2EFF24002711272E293F29402B512B26
:1029700029873A874B875C87B0708D879E87AF87A2
:10298000B88B79018A01FCE016950795F794E794D6
:10299000FA95D1F7AC014E255F2542275327ECE08D
:1029A000B695A79597958795EA95D1F74827592722
:1029B0005F705C834B834115510509F487CF46173F
:1029C000570709F483CF8FE08A83DF91CF911F915E
:1029D0000F91FF90EF90DF90CF90BF90AF909F90BE
:1029E0008F907F906F900895CF93DF93EC01DB0180
:1029F000EF81F88516962D913C9117972115310599
:102A000041F086819781009721F02817390749F511
:102A100021C09C918081981721F511969C91119766
:102A200081819817F1F412969C91129782819817E0
:102A3000C1F413969C9113978381981791F414967F
:102A40009C9114978481981761F415969C918581C7
:102A5000981739F48FE08987EF81F885108681E037
:102A600001C080E0DF91CF910895CF93DF93EC0117
:102A7000DB018A859B85892B41F1EF81F8859C914B
:102A80008081981711F511969C9111978181981763
:102A9000E1F412969C91129782819817B1F41396E3
:102AA0009C9113978381981781F414969C911497A5
:102AB0008481981751F415969C918581981729F473
:102AC00089819A81BF010E948421DF91CF9108956D
:102AD000EF92FF920F931F93DF93CF93CDB7DEB7A3
:102AE00029970FB6F894DEBF0FBECDBF8C017B01D6
:102AF000CB010E940E1A882309F45FC0D7011596F6
:102B00008C91863031F0F80182859385892BD9F537
:102B100054C018861F82198619821A821B821C8251
:102B20001D821E82C701BE016F5F7F4F0E94FD1C88
:102B3000D8011A968D919C911B97892BF1F11796CC
:102B40004D915C91189741155105B9F1FA018085B5
:102B5000882399F199818081981779F59A818181EB
:102B6000981759F59B818281981739F59C8183814B
:102B7000981719F59D8184819817F9F49E818581B4
:102B80009817D9F40CC0D80117964D915C911897FD
:102B90004115510591F0FA018085882371F0119655
:102BA000ED91FC911297A081B1811A962D913C91E3
:102BB0001B97CF01BA01F9010995C7010E94271A95
:102BC000882311F1C7010E940E1B9C01D8011796A2
:102BD0004D915C911897FA0180858823A9F01A9687
:102BE0008D919C911B978217930771F41196ED912B
:102BF000FC911297A081B1811A962D913C911B975F
:102C0000CF01BA01F901099529960FB6F894DEBFF4
:102C10000FBECDBFCF91DF911F910F91FF90EF902D
:102C200008950F931F938C01FC01728361830E94AE
:102C30008B33F80163837483858396831F910F918F
:102C40000895FF920F931F93CF93DF938C01EC01B4
:102C5000888190E0EC0134E0CC0FDD1F3A95E1F77C
:102C6000C80FD91FC00FD11FF984E6E0FE1609F482
:102C7000EFC0EF15A0F0F3E0FF1609F493C0FF15C5
:102C800028F022E0F21609F0CBC14CC084E0F8161F
:102C900009F49EC0E5E0FE1609F0C2C1B1C0FFE034
:102CA000FF16A1F0FF1548F027E0F21609F467C1FE
:102CB00088E0F81609F0B4C17BC1E4E1FE1609F41E
:102CC00010C1F9E1FF1609F0ABC138C18F819885B9
:102CD000892B11F082E001C081E08987E8018881B9
:102CE00090E0FC0124E0EE0FFF1F2A95E1F7E80FCA
:102CF000F91FE00FF11F6781708589819A810E9419
:102D00009E21882309F08CC1888190E0FC01B4E009
:102D1000EE0FFF1FBA95E1F7E80FF91FE00FF11F63
:102D20008FE03EC0EF81F8852A853B8586819781BB
:102D30008217930711F037832683F801808190E092
:102D4000FC01A4E0EE0FFF1FAA95E1F7E80FF91FC1
:102D5000E00FF11F83E08187E801888190E0FC01AA
:102D600074E0EE0FFF1F7A95E1F7E80FF91FE00F0F
:102D7000F11F6781708589819A8141E00E94D42684
:102D8000882309F04DC1888190E0FC0164E0EE0FDA
:102D9000FF1F6A95E1F7E80FF91FE00FF11F82E0CE
:102DA00081873EC184E08987F801808190E0FC0141
:102DB00054E0EE0FFF1F5A95E1F7E80FF91FE00FFF
:102DC000F11F67817085E80189819A8142E015C011
:102DD00085E08987F801808190E0FC0144E0EE0FF6
:102DE000FF1F4A95E1F7E80FF91FE00FF11F678118
:102DF0007085E80189819A8143E00E94D426D4C07D
:102E00000E948B336C877D878E879F87F801808136
:102E100090E0FC0134E0EE0FFF1F3A95E1F7E80F78
:102E2000F91FE00FF11F86E08187E801888190E0BB
:102E3000FC0124E0EE0FFF1F2A95E1F7E80FF91FD0
:102E4000E00FF11F6781708589819A8144E0D5CFB9
:102E50000E948B33F801208130E0F901B4E0EE0FDD
:102E6000FF1FBA95E1F7E20FF31FE00FF11F248572
:102E7000358546855785621B730B840B950B645F04
:102E800071408040904008F4CBC087819085892BA9
:102E900011F087E001C081E08187E801888190E03E
:102EA000FC01A4E0EE0FFF1FAA95E1F7E80FF91F60
:102EB000E00FF11F6781708589819A810E94B02699
:102EC000882309F0ADC0888190E0FC0174E0EE0F2A
:102ED000FF1F7A95E1F7E80FF91FE00FF11F86E079
:102EE0005FCF8F819885892B11F08EE101C081E041
:102EF0008987F801808190E0FC0164E0EE0FFF1FFC
:102F00006A95E1F7E80FF91FE00FF11F67817085FF
:102F1000E80189819A810E94B026882309F080C047
:102F2000888190E0FC0154E0EE0FFF1F5A95E1F715
:102F3000E80FF91FE00FF11F84E132CF8EE189879E
:102F4000F801A181B2812D913C911197808190E08F
:102F5000FC0144E0EE0FFF1F4A95E1F7E80FF91F6F
:102F6000E00FF11F67817085E901EA85FB85CD01DE
:102F70000995882309F054C0F801808133C088E0A6
:102F80008987E801888190E0FC0134E0EE0FFF1FA3
:102F90003A95E1F7E80FF91FE00FF11F678170859F
:102FA00089819A810E9484218823D1F588811AC061
:102FB0008EE18987F801808190E0FC0124E0EE0F2A
:102FC000FF1F2A95E1F7E80FF91FE00FF11F678156
:102FD0007085E80189819A810E94962698818823CC
:102FE00071F4892F90E0FC01B4E0EE0FFF1FBA9559
:102FF000E1F7E80FF91FE00FF11FF18611C0892FEB
:1030000090E0FC01A4E0EE0FFF1FAA95E1F7E80FA6
:10301000F91FE00FF11F0780F085E02D81E0808728
:10302000F8011082DF91CF911F910F91FF900895C9
:103030000F931F93CF93DF93EC018B01CB010E9481
:103040007C182A853B858217930709F048C089853B
:10305000873038F48330C0F4813081F1823058F405
:1030600007C0883059F1883098F08E31C1F526C0FC
:103070001B861A8634C0F80180A1882329F0C80174
:103080000E947A19882359F5C8010E94311920C07D
:10309000F80180A1882329F4C8010E9431198823EE
:1030A000C9F0F80180A18823D1F0C8010E9431192C
:1030B0008823A9F4C8010E9461190AC0C8010E94AE
:1030C0003119882319F084E1898709C0F80180A1AA
:1030D000882329F4CE012796BE010E945014DF9167
:1030E000CF911F910F9108959C012A5F3F4FC90115
:1030F0000895FC0185810895FC01208131813F7094
:10310000C90108950F931F93FC01DB0116960D91E1
:103110001C911797980140E050E03F70407050704C
:1031200080819181A281B3818070907FBF71282BB3
:10313000392B4A2B5B2B2083318342835383158B9E
:10314000048BDB018C91868711968C911197878770
:1031500012968C911297808B13968C911397818B7A
:1031600014968C911497828B15968C91838B1F915A
:103170000F910895FC01DB0184899589892B91F4D5
:103180008685882379F48785882361F4808988235C
:1031900049F48189882331F48289882319F4838949
:1031A0008823F9F0808191819F70958B848B17968D
:1031B0009C938E93169786858C93878511968C9316
:1031C0001197808912968C931297818913968C930C
:1031D0001397828914968C931497838915968C93F0
:1031E0000895158A148A168A16861786108A118AF7
:1031F000128A138AD7CF0F931F93CF93DF938C013B
:10320000DA01EC0118A2EC81E260EE7FEC837095AC
:1032100061957F4F67707070762F66277295707F0B
:10322000BF706A2B7B2B80E090E04CE0660F771F2D
:10323000881F991F4A95D1F740E050E03F704070D9
:1032400050705061622B732B842B952BF801608397
:103250007183828393831582DF91CF911F910F91A8
:103260000895FC0180819181A281B381B3FF02C0E6
:1032700020E011C020E08070907FB7706CE0B695C0
:10328000A795979587956A95D1F78070907780502C
:10329000904408F021E0822F0895FC0110A22481BF
:1032A00022602E7F248380E090E07F708070907099
:1032B00080679061608371838283938386E08583D6
:1032C0000895FC01208131814281538153FF02C066
:1032D00080E0089580E02070307F57707CE0569544
:1032E0004795379527957A95D1F72050374009F4BF
:1032F00081E00895FC01208131814281538153FF97
:1033000002C080E0089580E02070307F5770ECE0CC
:103310005695479537952795EA95D1F7235037402D
:1033200009F481E00895FC012081318142815381BB
:1033300053FF02C080E0089580E02070307F577016
:10334000FCE05695479537952795FA95D1F721508A
:10335000374009F481E00895FC01208131814281E8
:10336000538153FF02C080E0089580E02070307FD9
:103370005070ACE05695479537952795AA95D1F7AB
:103380002250374009F481E00895FC012081318109
:103390004281538153FD02C080E0089580E0207097
:1033A000307F50706CE056954795379527956A9514
:1033B000D1F7245B354009F481E00895FC012081B8
:1033C00031814281538153FD02C080E0089580E045
:1033D0002070307F50707CE0569547953795279543
:1033E0007A95D1F72459354009F481E00895AC016C
:1033F000FB0186819781FA0110A2248122602E7F31
:1034000024831582A0E0B0E09F70A070B070A96422
:10341000B96180839183A283B3830895FC012081E5
:1034200031814281538153FD02C080E0089580E0E4
:103430002070307F5070FCE0569547953795279562
:10344000FA95D1F72059344009F481E00895FC0140
:10345000208131814281538153FD02C080E0089573
:1034600080E02070307F5070ACE0569547953795DE
:103470002795AA95D1F72858344009F481E008959A
:10348000FC0180819181A281B381B3FD02C080E003
:1034900008958070907FB0702CE0B695A7959795B1
:1034A00087952A95D1F7FC0184E0E039F80711F4FB
:1034B00081E0089580E0E858F44009F481E008953F
:1034C000FC01208131814281538153FD02C080E0A3
:1034D000089580E02070307F50706CE056954795DD
:1034E000379527956A95D1F72057314009F481E047
:1034F0000895FC01208131814281538153FD02C036
:1035000080E0089580E02070307F50707CE0569518
:103510004795379527957A95D1F7245F384009F478
:1035200081E00895FC01208131814281538153FD66
:1035300002C080E0089580E02070307F5070ECE0A1
:103540005695479537952795EA95D1F724513940F7
:1035500009F481E00895FC01208131814281538189
:1035600053FD02C080E0089580E02070307F5070ED
:10357000ACE05695479537952795AA95D1F72856EB
:10358000394009F481E00895FC0180819181A28194
:10359000B381B3FD02C080E008958070907FB07069
:1035A0002CE0B695A795979587952A95D1F7FC01BC
:1035B00089E0E037F80711F481E0089580E0E856EB
:1035C000F94009F481E00895FC0180819181A28194
:1035D000B381B3FD02C080E0089580709070A07048
:1035E000B7702B2F3327442755272230310541054B
:1035F000510591F0233031054105510569F0243022
:1036000031054105510541F080E025303105410586
:10361000510519F481E0089581E00895AF92BF92B9
:10362000CF92DF92EF92FF920F931F93FC01E08005
:10363000F1800281138113FF4BC0D801C701807054
:103640009070A070B770AB2EBB24CC24DD2481E039
:10365000A816B104C104D104F9F480E090EFAFEFF3
:10366000B0E0E822F9220A231B235CE016950795B7
:10367000F794E7945A95D1F7C70188709070892B19
:1036800039F18581823020F1968180E0278130E018
:10369000282B392B3F701EC0CF010E94E41A8823CB
:1036A00031F497E0A916B104C104D10489F480E093
:1036B00090EFAFEFB0E0E822F9220A231B234CE0A1
:1036C00016950795F794E7944A95D1F7970102C0AC
:1036D00020E030E0C9011F910F91FF90EF90DF9043
:1036E000CF90BF90AF9008950F931F938B010E94CE
:1036F0000E1BF801868397831F910F910895FC019B
:10370000208131814281538153FD02C080E00895C0
:1037100080E0207030704070577020503040404042
:10372000554009F481E00895FC01208131814281F6
:10373000538153FD02C080E0089580E02070307016
:1037400040705770205030404040534009F481E0B1
:103750000895FC01208131814281538153FD02C0D3
:1037600080E0089580E020703070407057702050E5
:1037700030404040524009F481E00895FC0120812E
:1037800031814281538153FD02C080E0089580E081
:103790002070307F50707CE056954795379527957F
:1037A0007A95D1F728523A4009F481E00895FC0156
:1037B000208131814281538153FD02C080E0089510
:1037C00080E02070307F5070ECE05695479537953B
:1037D0002795EA95D1F728543A4009F481E00895F5
:1037E000FC018581833018F420E030E006C0978129
:1037F00080E0208530E0282B392BC9010895FC0199
:10380000208131814281538153FD02C080E00895BF
:1038100080E02070307F5070FCE0569547953795DA
:103820002795FA95D1F72852384009F481E0089598
:10383000FC01208131814281538153FD02C080E02F
:10384000089580E02070307F5070BCE05695479519
:1038500037952795BA95D1F7285E3D4009F481E068
:103860000895DC011696FB0188E001900D928150CD
:10387000E1F708950F931F938C01FB0186819781D7
:10388000F80110A2248122602E7F2483A0E0B0E002
:103890009F70A070B0709067A465B96180839183B8
:1038A000A283B38388E08583C801BA010E94311CDA
:1038B0001F910F9108950F931F938C01FB01868137
:1038C0009781F80110A2248122602E7F2483A0E03A
:1038D000B0E09F70A070B0709067AC64B9618083F5
:1038E0009183A283B38388E08583C801BA010E94D3
:1038F000311C1F910F9108950F931F938C01FB01B1
:1039000086819781F80110A2248122602E7F248372
:10391000A0E0B0E09F70A070B0709064A965B9613C
:1039200080839183A283B38388E08583C801BA0131
:103930000E94311C1F910F9108950F931F938C01CA
:10394000FB0186819781F80110A2248122602E7FDD
:103950002483A0E0B0E09F70A070B0709064AB656D
:10396000B96180839183A283B38388E08583C80192
:10397000BA010E94311C1F910F910895FC01DB01D7
:1039800016968D919C91179710A2248122602E7F0C
:103990002483A0E0B0E09F70A070B070A761B9610F
:1039A00080839183A283B38386E085833696DB018F
:1039B0000D9001928150E1F70895FC01DB0116960C
:1039C0008D919C91179710A2248122602E7F2483D1
:1039D000A0E0B0E09F70A070B070A964B96180836E
:1039E0009183A283B38386E085833696DA0186E0ED
:1039F0000D9001928150E1F708958F929F92AF92BE
:103A0000BF92CF92DF92EF92FF920F931F93CF93CB
:103A1000DF93EC01962E872E8D81863008F48BC0C3
:103A2000E880F9800A811B81A12CB12CC12C68E0AF
:103A3000D62EAE20BF20C022D12213FF76C0D801DF
:103A4000C7018070907FB0705CE0B695A7959795A0
:103A500087955A95D1F78050914009F066C043C0D0
:103A6000A114B104C104D10489F0D801C701807048
:103A7000907FB0704CE0B695A795979587954A953D
:103A8000D1F78057914009F056C02DC0D801C70129
:103A90008070907FB7703CE0B695A7959795879515
:103AA0003A95D1F7A7E081309A0779F18350974092
:103AB00061F180E090EFAFEFB0E0E822F9220A2355
:103AC0001B232CE016950795F794E7942A95D1F7D8
:103AD00092E0E91697E0F90671F517C0A114B10458
:103AE000C104D10491F0D801C70180709070A0701A
:103AF000B77080509040A040B14039F4C701807049
:103B00009078892B11F082E001C080E0E82FF0E08E
:103B10003696892D982D9C01D901EC0FFD1F86E06A
:103B200001900D928150E1F706C0CE010E94401A2B
:103B30008823A1F695CFDF91CF911F910F91FF9030
:103B4000EF90DF90CF90BF90AF909F908F900895AF
:103B5000DB01FC01369688E001900D928150E1F77F
:103B60000895FC01DB0116968D919C91179710A288
:103B7000248122602E7F2483A0E0B0E09F70A0709B
:103B8000B070A061B96180839183A283B38386E022
:103B900085833696DB010D9001928150E1F70895FF
:103BA000FC01DB0116968D919C91179710A2248140
:103BB00022602E7F2483A0E0B0E09F70A070B070E0
:103BC0009061A067B06180839183A283B38386E014
:103BD00085833696DB010D9001928150E1F70895BF
:103BE000FC01DB0116968D919C91179710A2248100
:103BF00022602E7F2483A0E0B0E09F70A070B070A0
:103C00009063A067B06180839183A283B38386E0D1
:103C100085833696DB010D9001928150E1F708957E
:103C20000F931F93CF93DF93EC018B012881398190
:103C30004A815B81DA01C90180709070A070B77011
:103C400080509040A040B14029F58CE295E060E0C2
:103C500071E00E944C388D81882311F482E08D83BD
:103C6000C8019F709E830F838CE295E0B80140E10C
:103C700050E00E9411388CE295E06E8140E150E006
:103C80000E942E388CE295E06F8140E150E00E9466
:103C90002E3818C0C801A0E0B0E07CE0880F991F62
:103CA000AA1FBB1F7A95D1F78070907FB0703F70CC
:103CB00040705F71822B932BA42BB52B8883998343
:103CC000AA83BB83DF91CF911F910F9108950F932A
:103CD0001F938C01FB0186819781F80110A224813A
:103CE00022602E7F24831582A0E0B0E09F70A07038
:103CF000B0709068A06AB96180839183A283B38316
:103D0000FA0166817781C8010E94101E1F910F91F0
:103D100008950F931F938C01FB0186819781F80111
:103D200010A2248122602E7F24831582A0E0B0E0BF
:103D30009F70A070B0709068A666B961808391830F
:103D4000A283B383FA0166817781C8010E94101EA5
:103D50001F910F910895EF92FF920F931F938C0183
:103D6000FB01790186819781F80110A224812260EC
:103D70002E7F24831582A0E0B0E09F70A070B07009
:103D80009068A46AB96180839183A283B383FA01A6
:103D900066817781C8010E94101E84E0F801858346
:103DA000F086E1861F910F91FF90EF9008950F9399
:103DB0001F938C01FB0186819781F80110A2248159
:103DC00022602E7F24831582A0E0B0E09F70A07057
:103DD000B0709068A26AB96180839183A283B38333
:103DE000FA0166817781C8010E94101E1F910F9110
:103DF00008950F931F938C01FB0186819781F80131
:103E000010A2248122602E7F24831582A0E0B0E0DE
:103E10009F70A070B070BD6180839183A283B383D3
:103E2000FA0166817781C8010E94101E1F910F91CF
:103E300008950F931F938C01FB0186819781F801F0
:103E400010A2248122602E7F24831582A0E0B0E09E
:103E50009F70A070B070BC6180839183A283B38394
:103E6000FA0166817781C8010E94101E1F910F918F
:103E700008950F931F938C01FB0186819781F801B0
:103E800010A2248122602E7F24831582A0E0B0E05E
:103E90009F70A070B070BB6180839183A283B38355
:103EA000FA0166817781C8010E94101E1F910F914F
:103EB00008950F931F938C01FB0186819781F80170
:103EC00010A2248122602E7F24831582A0E0B0E01E
:103ED0009F70A070B070BA6180839183A283B38316
:103EE000FA0166817781C8010E94101E1F910F910F
:103EF0000895EF92FF920F931F938C01FB017901BC
:103F000086819781F80110A2248122602E7F24836C
:103F10001582A0E0B0E09F70A070B0709068A660BD
:103F2000B96180839183A283B383FA01668177812B
:103F3000C8010E94101E84E0F8018583F086E186A6
:103F40001F910F91FF90EF900895FB01668177819B
:103F50000E94101E089580E00895DF93CF93CDB79F
:103F6000DEB729970FB6F894DEBF0FBECDBFDC01D8
:103F7000198681E089838A831B821C821D821E82AE
:103F80008EEF8F831886ED91FC9111970288F3894B
:103F9000E02DCD01AE014F5F5F4F099529960FB619
:103FA000F894DEBF0FBECDBFCF91DF910895FC0125
:103FB000EF58FF4F80810895FC01EF58FF4F1082AA
:103FC00008950F931F93CF93DF93EC010E94493123
:103FD0008823A9F08E010C5F1F4FC8010E943E325A
:103FE0008823D9F3DE019596FE01349681E2019093
:103FF0000D928150E1F7CB5BDF4F81E08883DF9149
:10400000CF911F910F9108950F931F93CF93DF933B
:10401000EC01162F072F0E944931882389F0DE0119
:104020001496812F902F9C01F90181E201900D924D
:104030008150E1F7CE010E94E11F8823D9F381E08E
:10404000DF91CF911F910F9108950F931F93CF93FD
:10405000DF93DC018B017C9160E040E050E02BC0FD
:10406000EA0129961196ED91FC911297E40FF51F44
:1040700026813781F8018681978128173907C9F48D
:104080001396ED91FC911497E60FF11D80818F3FFF
:1040900011F08F5F80831196ED91FC911297D801FA
:1040A000E40FF51F86E001900D928150E1F781E069
:1040B00005C06F5FAE01671798F280E0DF91CF9186
:1040C0001F910F910895EF92FF920F931F93CF933B
:1040D000DF93EC01DB0116960D911C9117970115EA
:1040E000110509F460C0E8805FEFFF2440E020E0A4
:1040F00030E03DC0642F70E0FC01E20FF31F8681C9
:104100009781009721F08017910719F54CC0908195
:104110008C919817F1F4918111968C9111979817C1
:10412000C1F4928112968C911297981791F4938111
:1041300013968C911397981761F4948114968C912F
:104140001497981731F4958115968C9115979817B7
:1041500051F1EB81FC81E60FF71FE081E51710F0CC
:10416000E52F01C0F42E4F5F275F3F4F5E2F8981FF
:104170009A814E1508F4BECF2F2D30E0F90143E0AF
:10418000EE0FFF1F4A95E1F7E20FF31FE80FF91F4B
:1041900089E00D9001928150E1F7EB81FC81E20F03
:1041A000F31F81E08083DF91CF911F910F91FF90EA
:1041B000EF900895EF92FF920F931F937C018B0174
:1041C0000E948B2FF80166817781C7018A5B9F4F20
:1041D0000E94F4141F910F91FF90EF900895EF92B9
:1041E000FF920F931F937C018B010E947E2FF80199
:1041F00066817781C7018A5B9F4F0E94C9131F9117
:104200000F91FF90EF900895EF92FF920F931F93FD
:10421000CF93DF937C01EB018A010E94493188230F
:1042200061F0C7010496BE01A8010E943A1CC701B3
:104230000E94E11F8823D9F381E0DF91CF911F9184
:104240000F91FF90EF900895EF92FF920F931F93BD
:10425000CF93DF937C01EB018A010E9449318823CF
:1042600061F0C7010496BE01A8010E947C1CC70131
:104270000E94E11F8823D9F381E0DF91CF911F9144
:104280000F91FF90EF900895EF92FF920F931F937D
:10429000CF93DF937C01EB018A010E94493188238F
:1042A00061F0C7010496BE01A8010E945B1CC70112
:1042B0000E94E11F8823D9F381E0DF91CF911F9104
:1042C0000F91FF90EF900895EF92FF920F931F933D
:1042D000CF93DF937C01EB018A010E94493188234F
:1042E00061F0C7010496BE01A8010E949D1CC70190
:1042F0000E94E11F8823D9F381E0DF91CF911F91C4
:104300000F91FF90EF9008950F931F93CF93DF933A
:104310008C01EB010E944931882359F0C8010496B1
:10432000BE010E94D01DC8010E94E11F8823D9F35D
:1043300081E0DF91CF911F910F9108950F931F930B
:10434000CF93DF938C01EB010E944931882359F010
:10435000C8010496BE010E94F01DC8010E94E11F21
:104360008823D9F381E0DF91CF911F910F910895B8
:104370000F931F93CF93DF938C01EB010E94493180
:10438000882359F0C8010496BE010E94BE1CC801D2
:104390000E94E11F8823D9F381E0DF91CF911F9123
:1043A0000F910895CF92DF92EF92FF920F931F9398
:1043B000CF93DF936C01EB018A0179010E944931AF
:1043C000882369F0C6010496BE01A80197010E94E6
:1043D000AB1EC6010E94E11F8823D9F381E0DF9163
:1043E000CF911F910F91FF90EF90DF90CF900895A4
:1043F000EF92FF920F931F93CF93DF937C01EB011A
:104400008A010E944931882361F0C7010496BE01E8
:10441000A8010E94D71EC7010E94E11F8823D9F37B
:1044200081E0DF91CF911F910F91FF90EF90089560
:104430000F931F93CF93DF93EC018B01C759DF4F8D
:1044400088819981C956D040892B51F5CD59DF4FCC
:104450008881C356D040882319F5CC59DF4F888115
:10446000C456D0408823E1F4CB59DF4F8881C5562C
:10447000D0408823A9F4CA59DF4F8881C656D0405E
:10448000882371F4C959DF4F8881C756D0408823EB
:1044900039F4C859DF4F8881C856D040882371F15C
:1044A0000E948B33C459DF4F288139814A815B8157
:1044B000CC56D040621B730B840B950B605D77402C
:1044C00080409040D8F414C0CE010496B8010E94F8
:1044D000F719CE010E94E11F8823D9F30E948B3384
:1044E000C459DF4F688379838A839B8381E001C04D
:1044F00080E0DF91CF911F910F9108950E94493183
:104500008823B1F3E1CFEF92FF920F931F93CF93E4
:10451000DF93EC018B01F42EE52EC759DF4F888124
:104520009981C956D040892B59F5CD59DF4F8881E3
:10453000C356D040882321F5CC59DF4F8881C4561B
:10454000D0408823E9F4CB59DF4F8881C556D0404D
:104550008823B1F4CA59DF4F8881C656D0408823DA
:1045600079F4C959DF4F8881C756D040882341F478
:10457000C859DF4F8881C856D040882309F43EC00F
:104580000E948B33C459DF4F288139814A815B8176
:10459000CC56D040621B730B840B950B605D77404B
:1045A0008040904058F522C0DE01AD59BF4F8F2D9D
:1045B0009E2D9C01F90189E001900D928150E1F757
:1045C000CE010496B8014F2D5E2D0E94DD1CCE0158
:1045D0000E94E11F8823D9F30E948B33C459DF4F17
:1045E000688379838A839B8381E001C080E0DF91C7
:1045F000CF911F910F91FF90EF9008950E94493144
:104600008823A1F3D1CFFF920F931F93CF93DF9312
:104610008C01EB01F42E8F859889892B09F04CC011
:10462000025A1F4FD8015C910E55104040E020E027
:1046300030E0D801A15ABF4F3CC0ED91FC911197D9
:10464000E20FF31F90818985981781F591818A8502
:10465000981761F592818B85981741F593818C8528
:10466000981721F594818D85981701F595818E8590
:104670009817E1F40F591F4FD801ED91FC910156A5
:104680001040E40FF11D80818F3F11F08F5F808318
:10469000015A1F4FD801ED91FC910F551040E20FC8
:1046A000F31F86819781988B8F8706C04F5F275FA6
:1046B0003F4F451710F257C08A89FF2091F49801A7
:1046C0002C5F3F4FAE01475F5F4F893028F0C90133
:1046D000BE010E94391F19C0C901BE010E94591FA5
:1046E00014C090E08F19910998012C5F3F4FAE01E3
:1046F000475F5F4F09972CF0C901BE010E94191F47
:1047000004C0C901BE010E94F91E4F2D50E08A89E4
:1047100090E0841B950B8930910514F088E090E0BF
:10472000F82EF801818790E04C0F5D1F0BC0E92F38
:10473000F0E0D801AE0FBF1FE40FF51F83891A9672
:104740008C939F5FD80119968C91981780F3C801BC
:104750000E94E11F8823D9F38F2DDF91CF911F9104
:104760000F91FF900895D801ED91FC910484F58597
:10477000E02DC801BE012996AE010995FF24ECCFBA
:104780002F923F924F925F926F927F928F929F9261
:10479000AF92BF92CF92DF92EF92FF920F931F934F
:1047A000DF93CF93CDB7DEB729970FB6F894DEBF6E
:1047B0000FBECDBF7C0118861F82198619821A820E
:1047C0001B821C821D821E828C010B5D1F4FC80143
:1047D0000E94401A882339F0C7018A5B9F4FB801B5
:1047E0000E9468155FC1C8010E94601A882309F4FD
:1047F0006DC0C8013E010894611C711CB3010E9488
:10480000BA18C801B3010E94FD1C8F819885892BBD
:1048100009F446C1F3E62F2E312C2E0C3F1C998152
:10482000D1018C91981709F03DC1E4E64E2E512C30
:104830004E0C5F1C9A81F2018081981709F032C1F9
:1048400075E6872E912C8E0C9F1C9B81D4018C9138
:10485000981709F027C166E6A62EB12CAE0CBF1C36
:104860009C81F5018081981709F01CC157E6C52E7F
:10487000D12CCE0CDF1C9D81D6018C91981709F0AC
:1048800011C1870108591F4F9E81F8018081981737
:1048900009F008C1C701825A9F4FB3010E946320EB
:1048A00089E690E0E80EF91ED7011D921D92FD01E8
:1048B0001082F1011082D2011C92F4011082D50104
:1048C0001C92F6011082D8011C92ECC0C8010E9413
:1048D000AC19882371F0C8018E010F5F1F4FB8011A
:1048E0000E94FD1CC7018A5B9F4FB8010E943515CD
:1048F000D9C0C8010E947A19882309F45BC0C80195
:10490000BE016F5F7F4F0E94BA18C8010E947C18D9
:10491000BC01EEE5F0E0EE0EFF1ED7015C91E2EA8D
:10492000FFEFEE0EFF1E40E020E030E0D701A15A7D
:10493000BF4F25C0ED91FC911197E20FF31F275F48
:104940003F4F8681978186179707C1F41782168299
:10495000108610821182128213821482158281E6DF
:1049600090E0E80EF91ED701ED91FC918FE99FEFE1
:10497000E80EF91EE40FF11D108203C04F5F4517CA
:10498000C8F2D7011296ED90FC9013978E010F5F3D
:104990001F4F0CC0D701ED91FC910480F581E02DF3
:1049A000C701B8010995F701E280F380E114F10431
:1049B00089F778C0C8010E949319882309F470C050
:1049C000C801BE016F5F7F4F0E94FD1C8F819885DB
:1049D000892B99F48981882381F48A81882369F459
:1049E0008B81882351F48C81882339F48D8188232D
:1049F00021F48E81882309F46FC0C8010E947C18BD
:104A000098878F83C701825A9F4FBE016F5F7F4F88
:104A10000E94632047C0ED91FC911197E20FF31FB4
:104A2000275F3F4F8681978186179707C1F41782CA
:104A300016821086108211821282138214821582CD
:104A400081E690E0E80EF91ED701ED91FC918FE927
:104A50009FEFE80EF91EE40FF11D108203C04F5FB7
:104A60004517C8F2D7011296ED90FC9013976E018E
:104A70000894C11CD11C10C0C801B6010E94BA180C
:104A8000D701ED91FC910480F581E02DC701B601BD
:104A90000995F701E280F380E114F10469F702C09F
:104AA00080E001C081E029960FB6F894DEBF0FBE0A
:104AB000CDBFCF91DF911F910F91FF90EF90DF90CD
:104AC000CF90BF90AF909F908F907F906F905F90AE
:104AD0004F903F902F900895C8010E947C18BC0110
:104AE0008EE590E0E80EF91ED7015C91E2EAFFEF57
:104AF000EE0EFF1E40E020E030E0D701A15ABF4F8C
:104B0000AFCFEF92FF920F931F93CF93DF937C0170
:104B1000EB018A010E944931882371F0C701049694
:104B2000BE01A80120E030E00E94791FC7010E9469
:104B3000E11F8823D9F381E0DF91CF911F910F917D
:104B4000FF90EF9008957F928F929F92AF92BF92C5
:104B5000CF92DF92EF92FF920F931F93DF93CF9349
:104B6000CDB7DEB729970FB6F894DEBF0FBECDBF25
:104B70006C01B5E28B2E912C880E991E8A5B9F4F9B
:104B8000B4010E941818C6010E94C023882309F0AE
:104B900087C018861F82198619821A821B821C827E
:104BA0001D821E82C4018E010F5F1F4FB8010E943B
:104BB000BA18AEE5EA2EF12CEC0CFD1CC701B801C9
:104BC0000E942520882321F0C401B8010E94821888
:104BD000C4018E010F5F1F4FB8010E94741B892B07
:104BE00059F0C701B8010E942520882371F0C40143
:104BF000B8010E94A51F09C018861F821986198254
:104C00001A821B821C821D821E82D60112960D9171
:104C10001C9113977724AA24BB2422C02F813885A6
:104C20002115310559F0F801E680F780D701169675
:104C30008D919C9117972817390709F07501D801B4
:104C4000ED91FC910280F381E02DC801B40109953A
:104C5000882311F077247394F8010281138157019E
:104C600001151105D9F625E430E0C20ED31ED60198
:104C70008C91EBEBFFEFCE0EDF1E882389F4A1149D
:104C8000B10471F0772061F4C4018E010F5F1F4FF2
:104C9000B8010E94BA18C601B501A8010E94812579
:104CA00029960FB6F894DEBF0FBECDBFCF91DF912E
:104CB0001F910F91FF90EF90DF90CF90BF90AF903A
:104CC0009F908F907F9008950F931F93CF93DF93C2
:104CD000EC018C010B5B1F4FF8018081882329F0C8
:104CE000CE010E94A325F8011082CE0185960E9474
:104CF000A231882371F0CB5BDF4F1882C554D040BE
:104D0000CE010E94A325CF58DF4F81E08883C15791
:104D1000D040CE018A5B9F4F0E942116CE010E9497
:104D2000AD2FDF91CF911F910F9108950F931F9396
:104D3000CF93DF938C01EB010E944931882359F016
:104D4000C8010496BE010E94B11DC8010E94E11F66
:104D50008823D9F381E0DF91CF911F910F910895BE
:104D60000F931F93CF93DF93EC018B010E94493186
:104D70008823A9F0F80166817781CE0104960E940C
:104D80004D19DE011A96F80186E001900D928150CE
:104D9000E1F7CE010E94E11F8823D9F381E0DF9182
:104DA000CF911F910F910895EF92FF921F93CF9390
:104DB000DF937C01EB01142F0E9449318823D1F14C
:104DC000123059F0133081F01130D9F48981829575
:104DD0008F70482F50E088810DC0998180E0AC0130
:104DE00040705F708A8113C08C8182958F70482FCC
:104DF00050E08B8190E024E0880F991F2A95E1F71D
:104E000009C09C8180E0AC0140705F708D8190E0B2
:104E10008F709070482B592B2E813F81C7010496CB
:104E2000612F70E00E94FB18C7010E94E11F8823D8
:104E3000D9F381E0DF91CF911F91FF90EF9008951A
:104E4000EF92FF920F931F93CF93DF93EC0184E0D7
:104E50000E94E230882309F45FC090E0892F829598
:104E6000807F8093ED008091F40081608093F40056
:104E70009F5F9F3099F7CE018A5B9F4FBE010E94D2
:104E800011166EE5E62EF12CEC0EFD1E8AE0F70100
:104E900080838AE590E00E9475038E01015A1F4FBE
:104EA000F80180839183F701808190E00E9475036F
:104EB000FE01EF59FF4F8083918340E0B701D80195
:104EC000EF0125C0242F30E0C90153E0880F991F5E
:104ED0005A95E1F7820F931FED91FC911197E80F1E
:104EE000F91F178216821086108211821282138295
:104EF00014821582ED91FC911197E80FF91F17822A
:104F00001682E881F981E20FF31F10824F5FFB01E7
:104F100080814817B8F281E0DF91CF911F910F9106
:104F2000FF90EF90089580E090E008950895CF936A
:104F3000DF93EC01DB0188858823A1F5E889F989F5
:104F400016962D913C9117972115310541F08681D8
:104F50009781009721F02817390711F123C09C9100
:104F600080819817F9F411969C9111978181981777
:104F7000C9F412969C9112978281981799F413960E
:104F80009C9113978381981769F414969C911497B8
:104F90008481981739F415969C918581981711F49E
:104FA00081E08887DF91CF9108950F931F93CF936E
:104FB000DF93EC01EE81FF81309709F49FC080857B
:104FC000882309F49BC08D8D9E8D2FEF8F3F920714
:104FD00061F18E010C5E1F4F805F9F4F81F4AC81A9
:104FE000BD81ED91FC9111976E817F810688F789D3
:104FF000E02DCD01A8010995882389F311C0AC816A
:10500000BD81ED91FC9111976E817F812D8D3E8D3B
:10501000008CF18DE02DCD01A8010995882379F34D
:105020008FEF9FEF9E8F8D8F69C08E858823C9F18A
:10503000AC81BD81ED91FC9111976A897B890488CF
:10504000F589E02DCD014F850995182F882309F0AA
:1050500048C00E948B332A853B854C855D85621B49
:10506000730B840B950B6958734180409040C8F1D5
:1050700081E089871E86E881F9810084F185E02D31
:10508000CE0160E041E050E12AC01E861F860E94EA
:105090008B336A877B878C879D8730C0410F4F8712
:1050A0002DC08985882351F50E948B332A853B8545
:1050B0004C855D85621B730B840B950B695873419E
:1050C00080409040D8F081E089871E86E881F98190
:1050D0000084F185E02DCE0160E042E050E10995C9
:1050E0000DC04F85242F30E0210F311DEA89FB8947
:1050F000828990E02817390789F6C7CFDF91CF91D1
:105100001F910F910895CF93DF93EC01DC0154962A
:10511000FB0189E001900D928150E1F780EF9FEF54
:105120009E8F8D8FDF91CF910895CF93DF93EC0108
:10513000DC015496FB0189E001900D928150E1F76A
:105140005E8F4D8FDF91CF910895CF93DF93EC0168
:1051500089858823A1F119862A893B89C901DC0147
:10516000FB018BE501900D928150E1F7AA89BB8983
:10517000EE81FF818681978117969C938E93169777
:1051800080818C93818111968C93119782811296E4
:105190008C931297838113968C9313978481149622
:1051A0008C931497858115968C9381E08E871F864A
:1051B0000E948B336A877B878C879D8781E0DF9194
:1051C000CF910895BF92CF92DF92EF92FF920F930B
:1051D0001F93DF93CF93CDB7DEB762970FB6F894E6
:1051E000DEBF0FBECDBF8C017B01DC011696ED91B9
:1051F000FC911797309709F4C3C18085882309F47F
:10520000BFC1CB010E94E41A882309F0BEC0C701C8
:105210000E94BE1B882309F451C018861F8219867C
:1052200019821A821B821C821D821E82C701BE0146
:105230006F5F7F4F0E94741BD8011696ED91FC9111
:105240001797309709F49CC12F81388521153105B6
:1052500041F086819781009721F028173907F9F0EE
:105260008FC199818081981709F08AC19A818181C3
:10527000981709F085C19B818281981709F080C138
:105280009C818381981709F07BC19D818481981747
:1052900009F076C19E818581981709F071C1D80106
:1052A000ED91FC910084F185E02DC80161E040E0C2
:1052B00050E0099581E0F801818765C1C7010E942E
:1052C000D71B882309F45CC118861F8219861982AE
:1052D0001A821B821C821D821E82C701BE016F5F63
:1052E0007F4F0E94741BD8011696ED91FC91179781
:1052F000309709F445C12F8138852115310541F0DA
:1053000086819781009721F028173907F9F038C175
:1053100099818081981709F033C19A81818198170A
:1053200009F02EC19B818281981709F029C19C81C7
:105330008381981709F024C19D818481981709F011
:105340001FC19E818581981709F01AC1C7010E946B
:10535000F01BAC0195FF05C081E0F8018687178638
:105360000AC0D8011E961C921E971F961C921F976A
:1053700081E019968C93D801ED91FC910084F18520
:10538000E02DC80160E00995FDC0198A188A1A8AC3
:105390001A861B861C861D861E861F86C701BE01B7
:1053A000665F7F4F0E94741BD8011696ED91FC91A9
:1053B0001797309709F4E4C02889398921153105F8
:1053C00049F086819781009729F02817390709F459
:1053D000EAC0D6C09A858081981709F0D1C09B8514
:1053E0008181981709F0CCC09C858281981709F0BB
:1053F000C7C09D858381981709F0C2C09E858481AE
:10540000981709F0BDC09F858581981709F0B8C02D
:10541000CAC0F8018085882309F03FC0C7010E94F7
:10542000A91B882329F0D80118968C918823A9F507
:10543000D8015096ED91FC91519728893989211511
:10544000310541F086819781009721F028173907AF
:10545000F9F0BFC09A858081981709F0BAC09B8582
:105460008181981709F0B5C09C858281981709F051
:10547000B0C09D858381981709F0ABC09E8584815B
:10548000981709F0A6C09F858581981709F0A1C0DB
:10549000F8018085882309F09CC0C7010E94941BF5
:1054A000882329F4C7010E94A91B882381F0D80111
:1054B00018961C9218975096ED91FC915197128A6C
:1054C00050966D917C915197C7010E94BA188C2D0E
:1054D0009B2D9C0190E00AC08289E90FF11DE80F25
:1054E000F11DD9018D919D01838B9F5FD80150964D
:1054F000ED91FC9151979D1578F382898D0D828BEA
:10550000C7010E947F1B882329F4C7010E94A91BA1
:105510008823C1F1D801ED91FC910680F781E02D3F
:10552000C8010995AC01D8015096ED91FC915197B5
:10553000BFEF803F9B0729F4C801BF010E94832869
:1055400004C0C801BF010E94952881E0F80180874E
:105550001AC0C7010E94A91B8823A1F0D801189680
:105560008C91BE01665F7F4F882321F0C80140E027
:1055700050E603C0C80140E050E20E94952802C0F6
:1055800080E001C081E062960FB6F894DEBF0FBEE6
:10559000CDBFCF91DF911F910F91FF90EF90DF90E2
:1055A000CF90BF900895C701BE01665F7F4F0E94F4
:1055B000BA18C7010E947418C82EB92EC7010E94DC
:1055C0007918D82EC7010E94941B882309F021CF97
:1055D00025CFC7010E947F1B882309F0BFCFB9CF19
:1055E0000F931F93CF93DF93EC01EE81FF813097F0
:1055F00009F49BC08085882309F08FC096C0CA013A
:1056000073E0880F991F7A95E1F7840F951F08853D
:105610001985080F191FF8018085282F30E0C9016E
:10562000817490708134910559F4AC81BD81ED9104
:10563000FC9111976E817F8100A0F1A1E02D0FC038
:10564000C90181729070819709F5AC81BD81ED919E
:10565000FC9111976E817F81048CF58DE02DCD0139
:10566000A8010995882309F460C02E853F85C901EA
:1056700063E0880F991F6A95E1F7820F931FE88511
:10568000F985E80FF91F80858E7F41C021FF20C07A
:10569000AC81BD81ED91FC9111976E817F81028873
:1056A000F389E02DCD01A80109958823F1F12E851C
:1056B0003F85C90153E0880F991F5A95E1F7820F82
:1056C000931FE885F985E80FF91F80858D7F1FC03E
:1056D00024FF1FC0AC81BD81ED91FC9111976E81BB
:1056E0007F81068CF78DE02DCD01A80109952E85CF
:1056F0003F85C90143E0880F991F4A95E1F7820F62
:10570000931FE885F985E80FF91F80858F7E8087D4
:105710000CC04F5F5F4F5F874E874E855F858A85E0
:105720009B854817590708F46ACFDF91CF911F91E5
:105730000F910895DC0119967C936E9318971B9630
:105740005C934E931A97569547951D965C934E938E
:105750001C9740E050E020E030E00BC01896ED913F
:10576000FC911997E20FF31F10864F5F5F4F275F81
:105770003F4F1A968D919C911B974817590770F3CC
:105780000895DC01CB01F3E0880F991FFA95E1F74A
:10579000860F971F1896ED91FC911997E80FF91F46
:1057A000808586FD02C080E00895826080871E9615
:1057B0008D919C911F978617970708F4BC011F963F
:1057C0007C936E931E9781E00895DF92EF92FF9293
:1057D0000F931F93CF93DF937C018B01DD24C0E0F7
:1057E000D0E024C0CE01B3E0880F991FBA95E1F74D
:1057F0008C0F9D1F680F791FDB0118968C9185FF18
:105800000DC0D701ED91FC910680F781E02DC70115
:10581000BE010995882311F0DD24D3942196F70168
:1058200082859385C817D90708F04AC0D701189612
:105830006D917C9119971A962D913C911B97C217E7
:10584000D307F4F5F8014081FE01A3E0EE0FFF1F3E
:10585000AA95E1F7EC0FFD1FE60FF71F80814817AF
:10586000C1F5D80111969C9111978181981789F5FE
:1058700012969C9112978281981759F513969C91D4
:1058800013978381981729F514969C911497848116
:105890009817F9F415969C91159785819817C9F476
:1058A00016969C9116978681981799F417969C9155
:1058B0008781981771F4BFEFCF3FDB0709F092CFD4
:1058C0008D2DDF91CF911F910F91FF90EF90DF9081
:1058D000089521963996C217D3070CF4BFCFF0CFA5
:1058E0000F931F93CF93DF93EC01DB0100E020E0E7
:1058F00030E025C0F90193E0EE0FFF1F9A95E1F724
:10590000E20FF31FE60FF71F808586FF10C081604E
:1059100080874E855F85C901622F892F4217530703
:1059200018F4CA01642F892F6E878F8701E02F5FDB
:105930003F4F8A859B852817390708F044C0688542
:1059400079854A855B8524173507ECF51C91F901AB
:1059500083E0EE0FFF1F8A95E1F7E20FF31FE60FDA
:10596000F71F80811817A9F511969C9111978181D5
:10597000981779F512969C9112978281981749F59C
:1059800013969C9113978381981719F514969C91FF
:10599000149784819817E9F415969C911597858141
:1059A0009817B9F416969C9116978681981789F4E2
:1059B00017969C9117978781981759F48FEF2F3F6F
:1059C000380709F097CF802FDF91CF911F910F916A
:1059D00008952F5F3F4F39962417350714F2F3CF00
:1059E0000F931F93CF93DF93EC01DB0100E020E0E6
:1059F00030E025C0F90193E0EE0FFF1F9A95E1F723
:105A0000E20FF31FE60FF71F808585FF10C081604E
:105A100080874E855F85C901622F892F4217530702
:105A200018F4CA01642F892F6E878F8701E02F5FDA
:105A30003F4F8A859B852817390708F044C0688541
:105A400079854A855B8524173507ECF51C91F901AA
:105A500083E0EE0FFF1F8A95E1F7E20FF31FE60FD9
:105A6000F71F80811817A9F511969C9111978181D4
:105A7000981779F512969C9112978281981749F59B
:105A800013969C9113978381981719F514969C91FE
:105A9000149784819817E9F415969C911597858140
:105AA0009817B9F416969C9116978681981789F4E1
:105AB00017969C9117978781981759F48FEF2F3F6E
:105AC000380709F097CF802FDF91CF911F910F9169
:105AD00008952F5F3F4F39962417350714F2F3CFFF
