:020000021000EC
:10E000000C944AF00C9469F00C9469F00C9469F04B
:10E010000C9469F00C9469F00C9469F00C9469F01C
:10E020000C9469F00C9469F00C9469F00C9469F00C
:10E030000C9469F00C9469F00C9469F00C9469F0FC
:10E040000C9469F00C9469F00C9469F00C9469F0EC
:10E050000C9469F00C9469F00C9469F00C9469F0DC
:10E060000C9469F00C9469F00C9469F00C9469F0CC
:10E070000C9469F00C9469F00C9469F00C9469F0BC
:10E080000C9469F00C9469F00C9469F00C9469F0AC
:10E090000C9469F011241FBECFEFD0E1DEBFCDBFDD
:10E0A00011E0A0E0B1E0ECE2F9EE01E00BBF02C04C
:10E0B00007900D92AC33B107D9F712E0ACE3B1E0B1
:10E0C00001C01D92A734B107E1F70E9486F10C94BC
:10E0D00094F40C9400F0982F80913C01813019F059
:10E0E000823041F008958091C00085FFFCCF90936D
:10E0F000C60008958091C80085FFFCCF9093CE00A4
:10E1000008951F93982F9595959595959595905D64
:10E110008F708A3054F4182F105D892F0E946BF095
:10E12000812F0E946BF01F910895182F195A892F83
:10E130000E946BF0812F0E946BF01F910895EF9267
:10E14000FF920F931F9380913C01813069F18230DF
:10E1500031F080E01F910F91FF90EF900895EE2431
:10E16000FF2487018091C80087FD17C00894E11C37
:10E17000F11C011D111D81E4E81682E4F8068FE010
:10E18000080780E0180770F3E0913E01F0913F012D
:10E1900009958091C80087FFE9CF8091CE001F913B
:10E1A0000F91FF90EF900895EE24FF248701809156
:10E1B000C00087FD17C00894E11CF11C011D111D52
:10E1C00081E4E81682E4F8068FE0080780E018078B
:10E1D00070F3E0913E01F0913F0109958091C000FC
:10E1E00087FFE9CF8091C6001F910F91FF90EF90BC
:10E1F00008951F930E949FF0182F0E946BF0113614
:10E2000034F410330CF01053812F1F9108951755DB
:10E21000812F1F9108951F930E94F9F0182F0E94DB
:10E22000F9F01295107F810F1F910895982F20917A
:10E230003C01992339F0213031F0223061F09150C6
:10E240009923C9F708958091C00087FFFCCF809182
:10E25000C6009150F5CF8091C80087FFFCCF809118
:10E26000CE009150EDCF1F93182F0E949FF0803267
:10E2700081F080913D018F5F80933D01853011F0E9
:10E280001F910895E0913E01F0913F0109951F9182
:10E29000089584E10E946BF0812F0E946BF080E171
:10E2A0000E946BF01F9108950E949FF0803271F0E0
:10E2B00080913D018F5F80933D01853009F0089585
:10E2C000E0913E01F0913F010995089584E10E949B
:10E2D0006BF080E10E946BF0089540E951E08823E3
:10E2E000A1F0A19828EE33E0FA013197F1F721501F
:10E2F0003040D1F7A19A28EE33E0FA013197F1F7D7
:10E3000021503040D1F7815061F70895CF92DF92CC
:10E31000EF92FF920F931F93CF93DF93000081E062
:10E3200080933C0180E18093C4001092C50010925C
:10E33000C00086E08093C20088E18093C1006898A5
:10E34000709A999A83E00E946DF1FF24F3940E94E1
:10E350009FF08033C9F18133D1F1803409F457C083
:10E36000813409F45DC0823409F46CC0853409F449
:10E370006FC0803549F1823539F1813529F1853514
:10E3800009F46CC0863509F474C0843609F47DC084
:10E39000843709F4E7C0853709F44BC1863709F49F
:10E3A0004DC0813209F45EC180913D018F5F809341
:10E3B0003D01853061F6E0913E01F0913F01099504
:10E3C0000E949FF0803339F60E9454F1C0CF0E9422
:10E3D0009FF0803249F784E10E946BF081E40E9453
:10E3E0006BF086E50E946BF082E50E946BF080E2A4
:10E3F0000E946BF089E40E946BF083E50E946BF051
:10E4000080E50E946BF080E10E946BF0A0CF0E943B
:10E410009FF08638C8F20E949FF00E9454F197CF77
:10E420000E949FF0803809F499C0813809F4FDC03A
:10E43000823809F413C1883909F48CC080E00E9445
:10E4400033F185CF84E10E9416F10E9454F17FCF11
:10E4500085E00E9416F10E9454F179CF0E949FF04E
:10E46000809340010E949FF0809341010E9454F1EB
:10E470006ECF0E949FF0803309F448C183E00E9470
:10E4800016F180E00E9433F162CF0E949FF08093EA
:10E4900043020E949FF080934202809146028E7F49
:10E4A000809346020E949FF0853409F440C1809118
:10E4B000420290914302892B89F000E010E00E9413
:10E4C0009FF0F801EE5BFE4F80830F5F1F4F80913E
:10E4D0004202909143020817190788F30E949FF0A7
:10E4E000803209F061CF8091460280FF32C12091D5
:10E4F000400130914101220F331F3093410120939D
:10E5000040018091420290914302892BE1F000E0AA
:10E5100010E0F801EE5BFE4FC90160810E9487F4B4
:10E5200020914001309141012F5F3F4F30934101D5
:10E53000209340010F5F1F4F809142029091430250
:10E540000817190730F384E10E946BF080E10E9404
:10E550006BF0FDCE83E00E9433F1F9CE82E00E94A1
:10E5600033F1F5CE0E949FF0809343020E949FF00A
:10E5700080934202209140013091410137FDDDC07E
:10E58000809146028D7F80934602220F331F309385
:10E590004101209340010E949FF0853409F4D3C0CB
:10E5A000809146028E7F809346020E949FF08032C7
:10E5B00009F0CDCE84E10E946BF0809142029091EF
:10E5C0004302892B09F446C000E010E0209140018D
:10E5D0003091410117C0F90184910E946BF02091A4
:10E5E0004001309141012F5F3F4F30934101209313
:10E5F00040010F5F1F4F8091420290914302081724
:10E60000190740F58091460280FD70C081FFE3CF7D
:10E61000C901A0E0B0E080509040AF4FBF4FABBF0A
:10E62000FC0187910E946BF0DACF81E00E9433F108
:10E630008ECE0E949FF0803209F0B6CE84E10E9417
:10E640006BF08EE10E946BF087E90E946BF081E82D
:10E650000E946BF080E10E946BF079CE80E10E9415
:10E6600033F175CE0E949FF0813209F070CE0E9486
:10E670009FF0813209F06BCE999AA19A10924402D0
:10E680008FE40E946BF0E0914402EF5FE09344025C
:10E69000F0E0E050FF4F8081882399F78AE00E94E4
:10E6A0006BF08DE00E946BF08AE30E946BF080E2D9
:10E6B0000E946BF00E949FF0182F0E946BF014379D
:10E6C00009F4CBC0123709F4D4C0173709F4E7C0F6
:10E6D000153709F4B9C0123609F4F8C01A36F1F644
:10E6E000E0913E01F0913F010995D8CFC9010E9408
:10E6F0007FF40E946BF020914001309141012F5F27
:10E700003F4F309341012093400173CF0E949FF00F
:10E710000E949FF0182F0E949FF0112309F48CC0D3
:10E72000113009F48DC081E80E9433F110CE809140
:10E730004602816080934602BACE80914602826092
:10E740008093460222CF80914602816080934602E8
:10E750002CCF809141018823880F880B8F218093D3
:10E7600045028BBF8091400190914101880F991F14
:10E7700090934101809340018091420280FF09C043
:10E7800080914202909143020196909343028093BC
:10E790004202F894F999FECF1127E0914001F091DF
:10E7A0004101C2E4D1E080914202909143021030D5
:10E7B00091F40091570001700130D9F303E0009308
:10E7C0005700E8950091570001700130D9F301E13D
:10E7D00000935700E8950990199000915700017037
:10E7E0000130D9F301E000935700E89513951038F4
:10E7F00098F011270091570001700130D9F305E01E
:10E8000000935700E8950091570001700130D9F34B
:10E8100001E100935700E8953296029709F0C7CFBF
:10E82000103011F00296E5CF112484E10E946BF0C4
:10E8300080E10E946BF08BCD8EE10E9433F187CD99
:10E8400087E90E9433F183CD0E949FF00E946BF014
:10E850000E949FF00E946BF0F7CF919B05C0A1989A
:10E8600081E30E946BF01ACFA19A80E30E946BF0C3
:10E8700015CF0E949FF00E946BF00E940BF1182FA1
:10E880000E940BF1082F8DE30E946BF0F12EEE2415
:10E89000F701E00FF11D80810E9481F0FFCE0E9400
:10E8A0009FF00E946BF00E940BF1182F0E940BF159
:10E8B000082F0E949FF00E946BF00E940BF1D12E56
:10E8C000CC24F601E00FF11D8083E8CE82E60E94A1
:10E8D0006BF085E70E946BF083E70E946BF080E8A5
:10E8E00085BF109274001092750080E091E1FC01E8
:10E8F000819180E091E13097D1F3CF01F8CFF99980
:10E90000FECF92BD81BDF89A992780B50895262F34
:10E91000F999FECF92BD81BD20BD0FB6F894FA9A49
:0CE92000F99A0FBE01960895F894FFCFFD
:10E92C004F70656E4C43425F7463685F74656368D7
:10E93C00202F204154393043414E313238202D2084
:10E94C0028432920542E432E204861746368202DBF
:0CE95C00203132333030370A0D008000CB
:040000031000E00009
:00000001FF
