:020000021000EC
:10E000000C944AF00C9469F00C9469F00C9469F04B
:10E010000C9469F00C9469F00C9469F00C9469F01C
:10E020000C9469F00C9469F00C9469F00C9469F00C
:10E030000C9469F00C9469F00C9469F00C9469F0FC
:10E040000C9469F00C9469F00C9469F00C9469F0EC
:10E050000C9469F00C9469F00C9469F00C9469F0DC
:10E060000C9469F00C9469F00C9469F00C9469F0CC
:10E070000C9469F00C9469F00C9469F00C9469F0BC
:10E080000C9469F00C9469F00C9469F00C9469F0AC
:10E090000C9469F011241FBECFEFD0E1DEBFCDBFDD
:10E0A00011E0A0E0B1E0ECE2F9EE01E00BBF02C04C
:10E0B00007900D92A233B107D9F712E0A2E3B1E0C5
:10E0C00001C01D92AD33B107E1F70E9486F10C94B7
:10E0D00094F40C9400F0982F80913201813019F063
:10E0E000823041F008958091C00085FFFCCF90936D
:10E0F000C60008958091C80085FFFCCF9093CE00A4
:10E1000008951F93982F9595959595959595905D64
:10E110008F708A3054F4182F105D892F0E946BF095
:10E12000812F0E946BF01F910895182F195A892F83
:10E130000E946BF0812F0E946BF01F910895EF9267
:10E14000FF920F931F9380913201813069F18230E9
:10E1500031F080E01F910F91FF90EF900895EE2431
:10E16000FF2487018091C80087FD17C00894E11C37
:10E17000F11C011D111D81E4E81682E4F8068FE010
:10E18000080780E0180770F3E0913401F091350141
:10E1900009958091C80087FFE9CF8091CE001F913B
:10E1A0000F91FF90EF900895EE24FF248701809156
:10E1B000C00087FD17C00894E11CF11C011D111D52
:10E1C00081E4E81682E4F8068FE0080780E018078B
:10E1D00070F3E0913401F091350109958091C00010
:10E1E00087FFE9CF8091C6001F910F91FF90EF90BC
:10E1F00008951F930E949FF0182F0E946BF0113614
:10E2000034F410330CF01053812F1F9108951755DB
:10E21000812F1F9108951F930E94F9F0182F0E94DB
:10E22000F9F01295107F810F1F910895982F20917A
:10E230003201992339F0213031F0223061F09150D0
:10E240009923C9F708958091C00087FFFCCF809182
:10E25000C6009150F5CF8091C80087FFFCCF809118
:10E26000CE009150EDCF1F93182F0E949FF0803267
:10E2700081F0809133018F5F80933301853011F0FD
:10E280001F910895E0913401F091350109951F9196
:10E29000089584E10E946BF0812F0E946BF080E171
:10E2A0000E946BF01F9108950E949FF0803271F0E0
:10E2B000809133018F5F80933301853009F0089599
:10E2C000E0913401F09135010995089584E10E94AF
:10E2D0006BF080E10E946BF0089540E951E08823E3
:10E2E000A1F0A09828EE33E0FA013197F1F7215020
:10E2F0003040D1F7A09A28EE33E0FA013197F1F7D8
:10E3000021503040D1F7815061F70895CF92DF92CC
:10E31000EF92FF920F931F93CF93DF93000081E062
:10E320008093320180E18093C4001092C500109266
:10E33000C00086E08093C20088E18093C1006898A5
:10E34000709A989A82E00E946DF1FF24F3940E94E3
:10E350009FF08033C9F18133D1F1803409F457C083
:10E36000813409F45DC0823409F46CC0853409F449
:10E370006FC0803549F1823539F1813529F1853514
:10E3800009F46CC0863509F474C0843609F47DC084
:10E39000843709F4E7C0853709F44BC1863709F49F
:10E3A0004DC0813209F45EC1809133018F5F80934B
:10E3B0003301853061F6E0913401F0913501099522
:10E3C0000E949FF0803339F60E9454F1C0CF0E9422
:10E3D0009FF0803249F784E10E946BF081E40E9453
:10E3E0006BF086E50E946BF082E50E946BF080E2A4
:10E3F0000E946BF089E40E946BF083E50E946BF051
:10E4000080E50E946BF080E10E946BF0A0CF0E943B
:10E410009FF08638C8F20E949FF00E9454F197CF77
:10E420000E949FF0803809F499C0813809F4FDC03A
:10E43000823809F413C1883909F48CC080E00E9445
:10E4400033F185CF84E10E9416F10E9454F17FCF11
:10E4500085E00E9416F10E9454F179CF0E949FF04E
:10E46000809336010E949FF0809337010E9454F1FF
:10E470006ECF0E949FF0803309F448C183E00E9470
:10E4800016F180E00E9433F162CF0E949FF08093EA
:10E4900039020E949FF08093380280913C028E7F67
:10E4A00080933C020E949FF0853409F440C1809122
:10E4B000380290913902892B89F000E010E00E9427
:10E4C0009FF0F801E85CFE4F80830F5F1F4F809143
:10E4D0003802909139020817190788F30E949FF0BB
:10E4E000803209F061CF80913C0280FF32C12091DF
:10E4F000360130913701220F331F309337012093BB
:10E5000036018091380290913902892BE1F000E0C8
:10E5100010E0F801E85CFE4FC90160810E9487F4B9
:10E5200020913601309137012F5F3F4F30933701F3
:10E53000209336010F5F1F4F80913802909139026E
:10E540000817190730F384E10E946BF080E10E9404
:10E550006BF0FDCE83E00E9433F1F9CE82E00E94A1
:10E5600033F1F5CE0E949FF0809339020E949FF014
:10E5700080933802209136013091370137FDDDC09C
:10E5800080913C028D7F80933C02220F331F309399
:10E590003701209336010E949FF0853409F4D3C0DF
:10E5A00080913C028E7F80933C020E949FF08032DB
:10E5B00009F0CDCE84E10E946BF0809138029091F9
:10E5C0003902892B09F446C000E010E020913601A1
:10E5D0003091370117C0F90184910E946BF02091AE
:10E5E0003601309137012F5F3F4F30933701209331
:10E5F00036010F5F1F4F8091380290913902081742
:10E60000190740F580913C0280FD70C081FFE3CF87
:10E61000C901A0E0B0E080509040AF4FBF4FABBF0A
:10E62000FC0187910E946BF0DACF81E00E9433F108
:10E630008ECE0E949FF0803209F0B6CE84E10E9417
:10E640006BF08EE10E946BF087E90E946BF081E82D
:10E650000E946BF080E10E946BF079CE80E10E9415
:10E6600033F175CE0E949FF0813209F070CE0E9486
:10E670009FF0813209F06BCE989AA09A10923A02DC
:10E680008FE40E946BF0E0913A02EF5FE0933A0270
:10E69000F0E0E050FF4F8081882399F78AE00E94E4
:10E6A0006BF08DE00E946BF08AE30E946BF080E2D9
:10E6B0000E946BF00E949FF0182F0E946BF014379D
:10E6C00009F4CBC0123709F4D4C0173709F4E7C0F6
:10E6D000153709F4B9C0123609F4F8C01A36F1F644
:10E6E000E0913401F09135010995D8CFC9010E941C
:10E6F0007FF40E946BF020913601309137012F5F3B
:10E700003F4F309337012093360173CF0E949FF023
:10E710000E949FF0182F0E949FF0112309F48CC0D3
:10E72000113009F48DC081E80E9433F110CE809140
:10E730003C02816080933C02BACE80913C028260B0
:10E7400080933C0222CF80913C02816080933C0206
:10E750002CCF809137018823880F880B8F218093DD
:10E760003B028BBF8091360190913701880F991F32
:10E7700090933701809336018091380280FF09C061
:10E7800080913802909139020196909339028093DA
:10E790003802F894F999FECF1127E0913601F091F3
:10E7A0003701C8E3D1E080913802909139021030EE
:10E7B00091F40091570001700130D9F303E0009308
:10E7C0005700E8950091570001700130D9F301E13D
:10E7D00000935700E8950990199000915700017037
:10E7E0000130D9F301E000935700E89513951038F4
:10E7F00098F011270091570001700130D9F305E01E
:10E8000000935700E8950091570001700130D9F34B
:10E8100001E100935700E8953296029709F0C7CFBF
:10E82000103011F00296E5CF112484E10E946BF0C4
:10E8300080E10E946BF08BCD8EE10E9433F187CD99
:10E8400087E90E9433F183CD0E949FF00E946BF014
:10E850000E949FF00E946BF0F7CF909B05C0A0989C
:10E8600081E30E946BF01ACFA09A80E30E946BF0C4
:10E8700015CF0E949FF00E946BF00E940BF1182FA1
:10E880000E940BF1082F8DE30E946BF0F12EEE2415
:10E89000F701E00FF11D80810E9481F0FFCE0E9400
:10E8A0009FF00E946BF00E940BF1182F0E940BF159
:10E8B000082F0E949FF00E946BF00E940BF1D12E56
:10E8C000CC24F601E00FF11D8083E8CE82E60E94A1
:10E8D0006BF085E70E946BF083E70E946BF080E8A5
:10E8E00085BF109274001092750080E091E1FC01E8
:10E8F000819180E091E13097D1F3CF01F8CFF99980
:10E90000FECF92BD81BDF89A992780B50895262F34
:10E91000F999FECF92BD81BD20BD0FB6F894FA9A49
:0CE92000F99A0FBE01960895F894FFCFFD
:10E92C004F70656E4C4342202F2041543930434187
:10E93C004E313238202D2028432920542E432E20AE
:10E94C004861746368202D203132333030370A0D22
:02E95C00008039
:040000031000E00009
:00000001FF
